{"abi":[{"type":"constructor","inputs":[{"name":"_rewardDistributor","type":"address","internalType":"address"},{"name":"_infrared","type":"address","internalType":"address"},{"name":"_stakingToken","type":"address","internalType":"address"},{"name":"_name","type":"string","internalType":"string"},{"name":"_symbol","type":"string","internalType":"string"}],"stateMutability":"nonpayable"},{"type":"function","name":"DOMAIN_SEPARATOR","inputs":[],"outputs":[{"name":"","type":"bytes32","internalType":"bytes32"}],"stateMutability":"view"},{"type":"function","name":"allowance","inputs":[{"name":"","type":"address","internalType":"address"},{"name":"","type":"address","internalType":"address"}],"outputs":[{"name":"","type":"uint256","internalType":"uint256"}],"stateMutability":"view"},{"type":"function","name":"approve","inputs":[{"name":"spender","type":"address","internalType":"address"},{"name":"amount","type":"uint256","internalType":"uint256"}],"outputs":[{"name":"","type":"bool","internalType":"bool"}],"stateMutability":"nonpayable"},{"type":"function","name":"asset","inputs":[],"outputs":[{"name":"","type":"address","internalType":"contract ERC20"}],"stateMutability":"view"},{"type":"function","name":"balanceOf","inputs":[{"name":"","type":"address","internalType":"address"}],"outputs":[{"name":"","type":"uint256","internalType":"uint256"}],"stateMutability":"view"},{"type":"function","name":"claimRewards","inputs":[],"outputs":[],"stateMutability":"nonpayable"},{"type":"function","name":"convertToAssets","inputs":[{"name":"shares","type":"uint256","internalType":"uint256"}],"outputs":[{"name":"","type":"uint256","internalType":"uint256"}],"stateMutability":"view"},{"type":"function","name":"convertToShares","inputs":[{"name":"assets","type":"uint256","internalType":"uint256"}],"outputs":[{"name":"","type":"uint256","internalType":"uint256"}],"stateMutability":"view"},{"type":"function","name":"decimals","inputs":[],"outputs":[{"name":"","type":"uint8","internalType":"uint8"}],"stateMutability":"view"},{"type":"function","name":"deposit","inputs":[{"name":"assets","type":"uint256","internalType":"uint256"},{"name":"receiver","type":"address","internalType":"address"}],"outputs":[{"name":"shares","type":"uint256","internalType":"uint256"}],"stateMutability":"nonpayable"},{"type":"function","name":"iVault","inputs":[],"outputs":[{"name":"","type":"address","internalType":"contract InfraredVault"}],"stateMutability":"view"},{"type":"function","name":"maxDeposit","inputs":[{"name":"","type":"address","internalType":"address"}],"outputs":[{"name":"","type":"uint256","internalType":"uint256"}],"stateMutability":"view"},{"type":"function","name":"maxMint","inputs":[{"name":"","type":"address","internalType":"address"}],"outputs":[{"name":"","type":"uint256","internalType":"uint256"}],"stateMutability":"view"},{"type":"function","name":"maxRedeem","inputs":[{"name":"owner","type":"address","internalType":"address"}],"outputs":[{"name":"","type":"uint256","internalType":"uint256"}],"stateMutability":"view"},{"type":"function","name":"maxWithdraw","inputs":[{"name":"owner","type":"address","internalType":"address"}],"outputs":[{"name":"","type":"uint256","internalType":"uint256"}],"stateMutability":"view"},{"type":"function","name":"mint","inputs":[{"name":"shares","type":"uint256","internalType":"uint256"},{"name":"receiver","type":"address","internalType":"address"}],"outputs":[{"name":"assets","type":"uint256","internalType":"uint256"}],"stateMutability":"nonpayable"},{"type":"function","name":"name","inputs":[],"outputs":[{"name":"","type":"string","internalType":"string"}],"stateMutability":"view"},{"type":"function","name":"nonces","inputs":[{"name":"","type":"address","internalType":"address"}],"outputs":[{"name":"","type":"uint256","internalType":"uint256"}],"stateMutability":"view"},{"type":"function","name":"permit","inputs":[{"name":"owner","type":"address","internalType":"address"},{"name":"spender","type":"address","internalType":"address"},{"name":"value","type":"uint256","internalType":"uint256"},{"name":"deadline","type":"uint256","internalType":"uint256"},{"name":"v","type":"uint8","internalType":"uint8"},{"name":"r","type":"bytes32","internalType":"bytes32"},{"name":"s","type":"bytes32","internalType":"bytes32"}],"outputs":[],"stateMutability":"nonpayable"},{"type":"function","name":"previewDeposit","inputs":[{"name":"assets","type":"uint256","internalType":"uint256"}],"outputs":[{"name":"","type":"uint256","internalType":"uint256"}],"stateMutability":"view"},{"type":"function","name":"previewMint","inputs":[{"name":"shares","type":"uint256","internalType":"uint256"}],"outputs":[{"name":"","type":"uint256","internalType":"uint256"}],"stateMutability":"view"},{"type":"function","name":"previewRedeem","inputs":[{"name":"shares","type":"uint256","internalType":"uint256"}],"outputs":[{"name":"","type":"uint256","internalType":"uint256"}],"stateMutability":"view"},{"type":"function","name":"previewWithdraw","inputs":[{"name":"assets","type":"uint256","internalType":"uint256"}],"outputs":[{"name":"","type":"uint256","internalType":"uint256"}],"stateMutability":"view"},{"type":"function","name":"redeem","inputs":[{"name":"shares","type":"uint256","internalType":"uint256"},{"name":"receiver","type":"address","internalType":"address"},{"name":"owner","type":"address","internalType":"address"}],"outputs":[{"name":"assets","type":"uint256","internalType":"uint256"}],"stateMutability":"nonpayable"},{"type":"function","name":"rewardDistributor","inputs":[],"outputs":[{"name":"","type":"address","internalType":"address"}],"stateMutability":"view"},{"type":"function","name":"symbol","inputs":[],"outputs":[{"name":"","type":"string","internalType":"string"}],"stateMutability":"view"},{"type":"function","name":"totalAssets","inputs":[],"outputs":[{"name":"","type":"uint256","internalType":"uint256"}],"stateMutability":"view"},{"type":"function","name":"totalSupply","inputs":[],"outputs":[{"name":"","type":"uint256","internalType":"uint256"}],"stateMutability":"view"},{"type":"function","name":"transfer","inputs":[{"name":"to","type":"address","internalType":"address"},{"name":"amount","type":"uint256","internalType":"uint256"}],"outputs":[{"name":"","type":"bool","internalType":"bool"}],"stateMutability":"nonpayable"},{"type":"function","name":"transferFrom","inputs":[{"name":"from","type":"address","internalType":"address"},{"name":"to","type":"address","internalType":"address"},{"name":"amount","type":"uint256","internalType":"uint256"}],"outputs":[{"name":"","type":"bool","internalType":"bool"}],"stateMutability":"nonpayable"},{"type":"function","name":"withdraw","inputs":[{"name":"assets","type":"uint256","internalType":"uint256"},{"name":"receiver","type":"address","internalType":"address"},{"name":"owner","type":"address","internalType":"address"}],"outputs":[{"name":"shares","type":"uint256","internalType":"uint256"}],"stateMutability":"nonpayable"},{"type":"event","name":"Approval","inputs":[{"name":"owner","type":"address","indexed":true,"internalType":"address"},{"name":"spender","type":"address","indexed":true,"internalType":"address"},{"name":"amount","type":"uint256","indexed":false,"internalType":"uint256"}],"anonymous":false},{"type":"event","name":"Deposit","inputs":[{"name":"caller","type":"address","indexed":true,"internalType":"address"},{"name":"owner","type":"address","indexed":true,"internalType":"address"},{"name":"assets","type":"uint256","indexed":false,"internalType":"uint256"},{"name":"shares","type":"uint256","indexed":false,"internalType":"uint256"}],"anonymous":false},{"type":"event","name":"RewardClaimed","inputs":[{"name":"token","type":"address","indexed":true,"internalType":"address"},{"name":"amount","type":"uint256","indexed":false,"internalType":"uint256"}],"anonymous":false},{"type":"event","name":"Transfer","inputs":[{"name":"from","type":"address","indexed":true,"internalType":"address"},{"name":"to","type":"address","indexed":true,"internalType":"address"},{"name":"amount","type":"uint256","indexed":false,"internalType":"uint256"}],"anonymous":false},{"type":"event","name":"Withdraw","inputs":[{"name":"caller","type":"address","indexed":true,"internalType":"address"},{"name":"receiver","type":"address","indexed":true,"internalType":"address"},{"name":"owner","type":"address","indexed":true,"internalType":"address"},{"name":"assets","type":"uint256","indexed":false,"internalType":"uint256"},{"name":"shares","type":"uint256","indexed":false,"internalType":"uint256"}],"anonymous":false},{"type":"error","name":"ZeroAddress","inputs":[]}],"bytecode":{"object":"0x610140604052348015610010575f80fd5b506040516121ef3803806121ef83398101604081905261002f91610402565b8282828181846001600160a01b031663313ce5676040518163ffffffff1660e01b8152600401602060405180830381865afa158015610070573d5f803e3d5ffd5b505050506040513d601f19601f8201168201806040525081019061009491906104a0565b5f61009f848261054b565b5060016100ac838261054b565b5060ff81166080524660a0526100c061024d565b60c0525050506001600160a01b0392831660e0525050851615806100eb57506001600160a01b038416155b806100fd57506001600160a01b038316155b1561011b5760405163d92e233d60e01b815260040160405180910390fd5b604051632a43df5b60e11b815284905f906001600160a01b03831690635487beb69061014b908890600401610605565b602060405180830381865afa158015610166573d5f803e3d5ffd5b505050506040513d601f19601f8201168201806040525081019061018a9190610619565b90506001600160a01b038116610218576040516367ccd1cb60e01b81526001600160a01b038316906367ccd1cb906101c6908890600401610605565b6020604051808303815f875af11580156101e2573d5f803e3d5ffd5b505050506040513d601f19601f820116820180604052508101906102069190610619565b6001600160a01b031661012052610227565b6001600160a01b038116610120525b6001600160a01b038716610100526102415f6103e86102e5565b505050505050506106ca565b5f7f8b73c3c69bb8fe3d512ecc4cf759cc79239f7b179b0ffacaa9a75d522b39400f5f60405161027d9190610634565b6040805191829003822060208301939093528101919091527fc89efdaa54c0f20c7adf612882df0950f5a951637e0307cdcb4c672f298b8bc660608201524660808201523060a082015260c00160405160208183030381529060405280519060200120905090565b8060025f8282546102f691906106a5565b90915550506001600160a01b0382165f818152600360209081526040808320805486019055518481527fddf252ad1be2c89b69c2b068fc378daa952ba7f163c4a11628f55a4df523b3ef910160405180910390a35050565b6001600160a01b0381168114610362575f80fd5b50565b634e487b7160e01b5f52604160045260245ffd5b5f82601f830112610388575f80fd5b81516001600160401b038111156103a1576103a1610365565b604051601f8201601f19908116603f011681016001600160401b03811182821017156103cf576103cf610365565b6040528181528382016020018510156103e6575f80fd5b8160208501602083015e5f918101602001919091529392505050565b5f805f805f60a08688031215610416575f80fd5b85516104218161034e565b60208701519095506104328161034e565b60408701519094506104438161034e565b60608701519093506001600160401b0381111561045e575f80fd5b61046a88828901610379565b608088015190935090506001600160401b03811115610487575f80fd5b61049388828901610379565b9150509295509295909350565b5f602082840312156104b0575f80fd5b815160ff811681146104c0575f80fd5b9392505050565b600181811c908216806104db57607f821691505b6020821081036104f957634e487b7160e01b5f52602260045260245ffd5b50919050565b601f82111561054657805f5260205f20601f840160051c810160208510156105245750805b601f840160051c820191505b81811015610543575f8155600101610530565b50505b505050565b81516001600160401b0381111561056457610564610365565b6105788161057284546104c7565b846104ff565b6020601f8211600181146105aa575f83156105935750848201515b5f19600385901b1c1916600184901b178455610543565b5f84815260208120601f198516915b828110156105d957878501518255602094850194600190920191016105b9565b50848210156105f657868401515f19600387901b60f8161c191681555b50505050600190811b01905550565b6001600160a01b0391909116815260200190565b5f60208284031215610629575f80fd5b81516104c08161034e565b5f808354610641816104c7565b600182168015610658576001811461066d5761069a565b60ff198316865281151582028601935061069a565b865f5260205f205f5b8381101561069257815488820152600190910190602001610676565b505081860193505b509195945050505050565b808201808211156106c457634e487b7160e01b5f52601160045260245ffd5b92915050565b60805160a05160c05160e0516101005161012051611a8361076c5f395f81816101f50152818161045c01528181610754015281816107c3015281816113150152818161135001526113ca01525f818161035d015261093101525f81816102900152818161087101528181610adc01528181610b6b01528181610d4b01528181610e8b01526112f301525f61073001525f61070001525f6102450152611a835ff3fe608060405234801561000f575f80fd5b5060043610610173575f3560e01c806301e1d1141461017757806306fdde031461019257806307a2d13a146101a7578063095ea7b3146101ba5780630a28a477146101dd5780630cdad472146101f057806318160ddd1461022457806323b872dd1461022d578063313ce567146102405780633644e51514610279578063372500ab1461028157806338d52e0f1461028b578063402d267d146102b25780634cdad506146102c65780636e553f65146102d957806370a08231146102ec5780637ecebe001461030b57806394bf804d1461032a57806395d89b411461033d578063a9059cbb14610345578063acc2166a14610358578063b3d7f6b91461037f578063b460af9414610392578063ba087652146103a5578063c63d75b6146102b2578063c6e6f592146103b8578063ce96cb77146103cb578063d505accf146103de578063d905777e146103f1578063dd62ed3e14610419578063ef8b30f714610443575b5f80fd5b61017f610456565b6040519081526020015b60405180910390f35b61019a6104f4565b604051610189919061155f565b61017f6101b5366004611594565b61057f565b6101cd6101c83660046115c2565b6105ab565b6040519015158152602001610189565b61017f6101eb366004611594565b610604565b6102177f000000000000000000000000000000000000000000000000000000000000000081565b60405161018991906115ec565b61017f60025481565b6101cd61023b366004611600565b610623565b6102677f000000000000000000000000000000000000000000000000000000000000000081565b60405160ff9091168152602001610189565b61017f6106fd565b610289610752565b005b6102177f000000000000000000000000000000000000000000000000000000000000000081565b61017f6102c036600461163e565b505f1990565b61017f6102d4366004611594565b610a77565b61017f6102e7366004611659565b610a81565b61017f6102fa36600461163e565b60036020525f908152604090205481565b61017f61031936600461163e565b60056020525f908152604090205481565b61017f610338366004611659565b610b52565b61019a610be1565b6101cd6103533660046115c2565b610bee565b6102177f000000000000000000000000000000000000000000000000000000000000000081565b61017f61038d366004611594565b610c51565b61017f6103a0366004611687565b610c6f565b61017f6103b3366004611687565b610d72565b61017f6103c6366004611594565b610eb2565b61017f6103d936600461163e565b610ed1565b6102896103ec3660046116c6565b610ef2565b61017f6103ff36600461163e565b6001600160a01b03165f9081526003602052604090205490565b61017f610427366004611737565b600460209081525f928352604080842090915290825290205481565b61017f610451366004611594565b611117565b5f6103e87f00000000000000000000000000000000000000000000000000000000000000006001600160a01b03166370a08231306040518263ffffffff1660e01b81526004016104a691906115ec565b602060405180830381865afa1580156104c1573d5f803e3d5ffd5b505050506040513d601f19601f820116820180604052508101906104e59190611763565b6104ef919061178e565b905090565b5f8054610500906117a1565b80601f016020809104026020016040519081016040528092919081815260200182805461052c906117a1565b80156105775780601f1061054e57610100808354040283529160200191610577565b820191905f5260205f20905b81548152906001019060200180831161055a57829003601f168201915b505050505081565b6002545f9080156105a25761059d610595610456565b849083611121565b6105a4565b825b9392505050565b335f8181526004602090815260408083206001600160a01b038716808552925280832085905551919290915f80516020611a0e833981519152906105f29086815260200190565b60405180910390a35060015b92915050565b6002545f9080156105a25761059d8161061b610456565b85919061113c565b6001600160a01b0383165f9081526004602090815260408083203384529091528120545f19811461067c5761065883826117d9565b6001600160a01b0386165f9081526004602090815260408083203384529091529020555b6001600160a01b0385165f90815260036020526040812080548592906106a39084906117d9565b90915550506001600160a01b038085165f81815260036020526040908190208054870190555190918716905f805160206119ee833981519152906106ea9087815260200190565b60405180910390a3506001949350505050565b5f7f0000000000000000000000000000000000000000000000000000000000000000461461072d576104ef61115f565b507f000000000000000000000000000000000000000000000000000000000000000090565b7f00000000000000000000000000000000000000000000000000000000000000006001600160a01b0316633d18b9126040518163ffffffff1660e01b81526004015f604051808303815f87803b1580156107aa575f80fd5b505af11580156107bc573d5f803e3d5ffd5b505050505f7f00000000000000000000000000000000000000000000000000000000000000006001600160a01b03166312edb24c6040518163ffffffff1660e01b81526004015f60405180830381865afa15801561081c573d5f803e3d5ffd5b505050506040513d5f823e601f3d908101601f191682016040526108439190810190611810565b80519091505f5b81811015610a72575f838281518110610865576108656118da565b602002602001015190507f00000000000000000000000000000000000000000000000000000000000000006001600160a01b0316816001600160a01b0316036108ae5750610a6a565b6040516370a0823160e01b81525f906001600160a01b038316906370a08231906108dc9030906004016115ec565b602060405180830381865afa1580156108f7573d5f803e3d5ffd5b505050506040513d601f19601f8201168201806040525081019061091b9190611763565b9050805f0361092b575050610a6a565b604080517f00000000000000000000000000000000000000000000000000000000000000006001600160a01b039081166024830152604480830185905283518084039091018152606490920183526020820180516001600160e01b031663a9059cbb60e01b17905291515f928392908616916109a791906118ee565b5f604051808303815f865af19150503d805f81146109e0576040519150601f19603f3d011682016040523d82523d5f602084013e6109e5565b606091505b5091509150818015610a0f575080511580610a0f575080806020019051810190610a0f9190611904565b15610a5c57836001600160a01b03167f106f923f993c2149d49b4255ff723acafa1f2d94393f561d3eda32ae348f724184604051610a4f91815260200190565b60405180910390a2610a65565b50505050610a6a565b505050505b60010161084a565b505050565b5f6105fe8261057f565b5f610a8b83611117565b9050805f03610acf5760405162461bcd60e51b815260206004820152600b60248201526a5a45524f5f53484152455360a81b60448201526064015b60405180910390fd5b610b046001600160a01b037f0000000000000000000000000000000000000000000000000000000000000000163330866111f7565b610b0e828261128f565b816001600160a01b0316336001600160a01b03165f80516020611a2e8339815191528584604051610b40929190611923565b60405180910390a36105fe83826112e6565b5f610b5c83610c51565b9050610b936001600160a01b037f0000000000000000000000000000000000000000000000000000000000000000163330846111f7565b610b9d828461128f565b816001600160a01b0316336001600160a01b03165f80516020611a2e8339815191528386604051610bcf929190611923565b60405180910390a36105fe81846112e6565b60018054610500906117a1565b335f90815260036020526040812080548391908390610c0e9084906117d9565b90915550506001600160a01b0383165f81815260036020526040908190208054850190555133905f805160206119ee833981519152906105f29086815260200190565b6002545f9080156105a25761059d610c67610456565b84908361113c565b5f610c7984610604565b9050336001600160a01b03831614610ce6576001600160a01b0382165f9081526004602090815260408083203384529091529020545f198114610ce457610cc082826117d9565b6001600160a01b0384165f9081526004602090815260408083203384529091529020555b505b610cf084826113b4565b610cfa8282611401565b816001600160a01b0316836001600160a01b0316336001600160a01b03165f805160206119ce8339815191528785604051610d36929190611923565b60405180910390a46105a46001600160a01b037f0000000000000000000000000000000000000000000000000000000000000000168486611460565b5f336001600160a01b03831614610dde576001600160a01b0382165f9081526004602090815260408083203384529091529020545f198114610ddc57610db885826117d9565b6001600160a01b0384165f9081526004602090815260408083203384529091529020555b505b610de784610a77565b9050805f03610e265760405162461bcd60e51b815260206004820152600b60248201526a5a45524f5f41535345545360a81b6044820152606401610ac6565b610e3081856113b4565b610e3a8285611401565b816001600160a01b0316836001600160a01b0316336001600160a01b03165f805160206119ce8339815191528488604051610e76929190611923565b60405180910390a46105a46001600160a01b037f0000000000000000000000000000000000000000000000000000000000000000168483611460565b6002545f9080156105a25761059d81610ec9610456565b859190611121565b6001600160a01b0381165f908152600360205260408120546105fe9061057f565b42841015610f3c5760405162461bcd60e51b815260206004820152601760248201527614115493525517d11150511312539157d1561412549151604a1b6044820152606401610ac6565b5f6001610f476106fd565b6001600160a01b038a81165f8181526005602090815260409182902080546001810190915582517f6e71edae12b1b97f4d1f60370fef10105fa2faae0126114a169c64845d6126c98184015280840194909452938d166060840152608083018c905260a083019390935260c08083018b90528151808403909101815260e08301909152805192019190912061190160f01b6101008301526101028201929092526101228101919091526101420160408051601f1981840301815282825280516020918201205f84529083018083525260ff871690820152606081018590526080810184905260a0016020604051602081039080840390855afa15801561104f573d5f803e3d5ffd5b5050604051601f1901519150506001600160a01b038116158015906110855750876001600160a01b0316816001600160a01b0316145b6110c25760405162461bcd60e51b815260206004820152600e60248201526d24a72b20a624a22fa9a4a3a722a960911b6044820152606401610ac6565b6001600160a01b039081165f9081526004602090815260408083208a8516808552908352928190208990555188815291928a16915f80516020611a0e833981519152910160405180910390a350505050505050565b5f6105fe82610eb2565b5f825f190484118302158202611135575f80fd5b5091020490565b5f825f190484118302158202611150575f80fd5b50910281810615159190040190565b5f7f8b73c3c69bb8fe3d512ecc4cf759cc79239f7b179b0ffacaa9a75d522b39400f5f60405161118f9190611931565b6040805191829003822060208301939093528101919091527fc89efdaa54c0f20c7adf612882df0950f5a951637e0307cdcb4c672f298b8bc660608201524660808201523060a082015260c00160405160208183030381529060405280519060200120905090565b5f6040516323b872dd60e01b81526001600160a01b03851660048201526001600160a01b038416602482015282604482015260205f6064835f8a5af13d15601f3d1160015f5114161716915050806112885760405162461bcd60e51b81526020600482015260146024820152731514905394d1915497d19493d357d1905253115160621b6044820152606401610ac6565b5050505050565b8060025f8282546112a0919061178e565b90915550506001600160a01b0382165f818152600360209081526040808320805486019055518481525f805160206119ee83398151915291015b60405180910390a35050565b61133a6001600160a01b037f0000000000000000000000000000000000000000000000000000000000000000167f0000000000000000000000000000000000000000000000000000000000000000846114e3565b60405163534a7e1d60e11b8152600481018390527f00000000000000000000000000000000000000000000000000000000000000006001600160a01b03169063a694fc3a906024015b5f604051808303815f87803b15801561139a575f80fd5b505af11580156113ac573d5f803e3d5ffd5b505050505050565b604051632e1a7d4d60e01b8152600481018390527f00000000000000000000000000000000000000000000000000000000000000006001600160a01b031690632e1a7d4d90602401611383565b6001600160a01b0382165f90815260036020526040812080548392906114289084906117d9565b90915550506002805482900390556040518181525f906001600160a01b038416905f805160206119ee833981519152906020016112da565b5f60405163a9059cbb60e01b81526001600160a01b038416600482015282602482015260205f6044835f895af13d15601f3d1160015f5114161716915050806114dd5760405162461bcd60e51b815260206004820152600f60248201526e1514905394d1915497d19052531151608a1b6044820152606401610ac6565b50505050565b5f60405163095ea7b360e01b81526001600160a01b038416600482015282602482015260205f6044835f895af13d15601f3d1160015f5114161716915050806114dd5760405162461bcd60e51b815260206004820152600e60248201526d1054141493d59157d1905253115160921b6044820152606401610ac6565b602081525f82518060208401528060208501604085015e5f604082850101526040601f19601f83011684010191505092915050565b5f602082840312156115a4575f80fd5b5035919050565b6001600160a01b03811681146115bf575f80fd5b50565b5f80604083850312156115d3575f80fd5b82356115de816115ab565b946020939093013593505050565b6001600160a01b0391909116815260200190565b5f805f60608486031215611612575f80fd5b833561161d816115ab565b9250602084013561162d816115ab565b929592945050506040919091013590565b5f6020828403121561164e575f80fd5b81356105a4816115ab565b5f806040838503121561166a575f80fd5b82359150602083013561167c816115ab565b809150509250929050565b5f805f60608486031215611699575f80fd5b8335925060208401356116ab816115ab565b915060408401356116bb816115ab565b809150509250925092565b5f805f805f805f60e0888a0312156116dc575f80fd5b87356116e7816115ab565b965060208801356116f7816115ab565b95506040880135945060608801359350608088013560ff8116811461171a575f80fd5b9699959850939692959460a0840135945060c09093013592915050565b5f8060408385031215611748575f80fd5b8235611753816115ab565b9150602083013561167c816115ab565b5f60208284031215611773575f80fd5b5051919050565b634e487b7160e01b5f52601160045260245ffd5b808201808211156105fe576105fe61177a565b600181811c908216806117b557607f821691505b6020821081036117d357634e487b7160e01b5f52602260045260245ffd5b50919050565b818103818111156105fe576105fe61177a565b634e487b7160e01b5f52604160045260245ffd5b805161180b816115ab565b919050565b5f60208284031215611820575f80fd5b81516001600160401b03811115611835575f80fd5b8201601f81018413611845575f80fd5b80516001600160401b0381111561185e5761185e6117ec565b604051600582901b90603f8201601f191681016001600160401b038111828210171561188c5761188c6117ec565b6040529182526020818401810192908101878411156118a9575f80fd5b6020850194505b838510156118cf576118c185611800565b8152602094850194016118b0565b509695505050505050565b634e487b7160e01b5f52603260045260245ffd5b5f82518060208501845e5f920191825250919050565b5f60208284031215611914575f80fd5b815180151581146105a4575f80fd5b918252602082015260400190565b5f8083545f8160011c9050600182168061194c57607f821691505b60208210810361196a57634e487b7160e01b5f52602260045260245ffd5b80801561197e5760018114611993576119c1565b60ff19841687528215158302870194506119c1565b5f888152602090205f5b848110156119b95781548982015260019091019060200161199d565b505082870194505b5092969550505050505056fefbde797d201c681b91056529119e0b02407c7bb96a4a2c75c01fc9667232c8dbddf252ad1be2c89b69c2b068fc378daa952ba7f163c4a11628f55a4df523b3ef8c5be1e5ebec7d5bd14f71427d1e84f3dd0314c0f7b2291e5b200ac8c7c3b925dcbc1c05240f31ff3ad067ef1ee35ce4997762752e3a095284754544f4c709d7a264697066735822122098fd1484e0d0a8900e2750f228c7695b2e8dd3254ba122f64d63d5b2d8f49d7f64736f6c634300081a0033","linkReferences":{}},"methodIdentifiers":{"DOMAIN_SEPARATOR()":"3644e515","allowance(address,address)":"dd62ed3e","approve(address,uint256)":"095ea7b3","asset()":"38d52e0f","balanceOf(address)":"70a08231","claimRewards()":"372500ab","convertToAssets(uint256)":"07a2d13a","convertToShares(uint256)":"c6e6f592","decimals()":"313ce567","deposit(uint256,address)":"6e553f65","iVault()":"0cdad472","maxDeposit(address)":"402d267d","maxMint(address)":"c63d75b6","maxRedeem(address)":"d905777e","maxWithdraw(address)":"ce96cb77","mint(uint256,address)":"94bf804d","name()":"06fdde03","nonces(address)":"7ecebe00","permit(address,address,uint256,uint256,uint8,bytes32,bytes32)":"d505accf","previewDeposit(uint256)":"ef8b30f7","previewMint(uint256)":"b3d7f6b9","previewRedeem(uint256)":"4cdad506","previewWithdraw(uint256)":"0a28a477","redeem(uint256,address,address)":"ba087652","rewardDistributor()":"acc2166a","symbol()":"95d89b41","totalAssets()":"01e1d114","totalSupply()":"18160ddd","transfer(address,uint256)":"a9059cbb","transferFrom(address,address,uint256)":"23b872dd","withdraw(uint256,address,address)":"b460af94"},"id":81}