{"abi":[{"type":"constructor","inputs":[{"name":"_infrared","type":"address","internalType":"address"}],"stateMutability":"nonpayable"},{"type":"function","name":"DEFAULT_ADMIN_ROLE","inputs":[],"outputs":[{"name":"","type":"bytes32","internalType":"bytes32"}],"stateMutability":"view"},{"type":"function","name":"GOVERNANCE_ROLE","inputs":[],"outputs":[{"name":"","type":"bytes32","internalType":"bytes32"}],"stateMutability":"view"},{"type":"function","name":"KEEPER_ROLE","inputs":[],"outputs":[{"name":"","type":"bytes32","internalType":"bytes32"}],"stateMutability":"view"},{"type":"function","name":"UPGRADE_INTERFACE_VERSION","inputs":[],"outputs":[{"name":"","type":"string","internalType":"string"}],"stateMutability":"view"},{"type":"function","name":"claimFees","inputs":[{"name":"_recipient","type":"address","internalType":"address"},{"name":"_feeTokens","type":"address[]","internalType":"address[]"},{"name":"_feeAmounts","type":"uint256[]","internalType":"uint256[]"}],"outputs":[],"stateMutability":"nonpayable"},{"type":"function","name":"currentImplementation","inputs":[],"outputs":[{"name":"","type":"address","internalType":"address"}],"stateMutability":"view"},{"type":"function","name":"getRoleAdmin","inputs":[{"name":"role","type":"bytes32","internalType":"bytes32"}],"outputs":[{"name":"","type":"bytes32","internalType":"bytes32"}],"stateMutability":"view"},{"type":"function","name":"grantRole","inputs":[{"name":"role","type":"bytes32","internalType":"bytes32"},{"name":"account","type":"address","internalType":"address"}],"outputs":[],"stateMutability":"nonpayable"},{"type":"function","name":"hasRole","inputs":[{"name":"role","type":"bytes32","internalType":"bytes32"},{"name":"account","type":"address","internalType":"address"}],"outputs":[{"name":"","type":"bool","internalType":"bool"}],"stateMutability":"view"},{"type":"function","name":"implementation","inputs":[],"outputs":[{"name":"","type":"address","internalType":"address"}],"stateMutability":"view"},{"type":"function","name":"infrared","inputs":[],"outputs":[{"name":"","type":"address","internalType":"contract IInfrared"}],"stateMutability":"view"},{"type":"function","name":"initialize","inputs":[{"name":"_gov","type":"address","internalType":"address"},{"name":"_payoutToken","type":"address","internalType":"address"},{"name":"_payoutAmount","type":"uint256","internalType":"uint256"}],"outputs":[],"stateMutability":"nonpayable"},{"type":"function","name":"payoutAmount","inputs":[],"outputs":[{"name":"","type":"uint256","internalType":"uint256"}],"stateMutability":"view"},{"type":"function","name":"payoutToken","inputs":[],"outputs":[{"name":"","type":"address","internalType":"address"}],"stateMutability":"view"},{"type":"function","name":"proxiableUUID","inputs":[],"outputs":[{"name":"","type":"bytes32","internalType":"bytes32"}],"stateMutability":"view"},{"type":"function","name":"renounceRole","inputs":[{"name":"role","type":"bytes32","internalType":"bytes32"},{"name":"callerConfirmation","type":"address","internalType":"address"}],"outputs":[],"stateMutability":"nonpayable"},{"type":"function","name":"revokeRole","inputs":[{"name":"role","type":"bytes32","internalType":"bytes32"},{"name":"account","type":"address","internalType":"address"}],"outputs":[],"stateMutability":"nonpayable"},{"type":"function","name":"setPayoutAmount","inputs":[{"name":"_newPayoutAmount","type":"uint256","internalType":"uint256"}],"outputs":[],"stateMutability":"nonpayable"},{"type":"function","name":"supportsInterface","inputs":[{"name":"interfaceId","type":"bytes4","internalType":"bytes4"}],"outputs":[{"name":"","type":"bool","internalType":"bool"}],"stateMutability":"view"},{"type":"function","name":"upgradeToAndCall","inputs":[{"name":"newImplementation","type":"address","internalType":"address"},{"name":"data","type":"bytes","internalType":"bytes"}],"outputs":[],"stateMutability":"payable"},{"type":"event","name":"FeesClaimed","inputs":[{"name":"caller","type":"address","indexed":true,"internalType":"address"},{"name":"recipient","type":"address","indexed":true,"internalType":"address"},{"name":"feeToken","type":"address","indexed":true,"internalType":"address"},{"name":"amount","type":"uint256","indexed":false,"internalType":"uint256"}],"anonymous":false},{"type":"event","name":"Initialized","inputs":[{"name":"version","type":"uint64","indexed":false,"internalType":"uint64"}],"anonymous":false},{"type":"event","name":"PayoutAmountSet","inputs":[{"name":"oldPayoutAmount","type":"uint256","indexed":true,"internalType":"uint256"},{"name":"newPayoutAmount","type":"uint256","indexed":true,"internalType":"uint256"}],"anonymous":false},{"type":"event","name":"RoleAdminChanged","inputs":[{"name":"role","type":"bytes32","indexed":true,"internalType":"bytes32"},{"name":"previousAdminRole","type":"bytes32","indexed":true,"internalType":"bytes32"},{"name":"newAdminRole","type":"bytes32","indexed":true,"internalType":"bytes32"}],"anonymous":false},{"type":"event","name":"RoleGranted","inputs":[{"name":"role","type":"bytes32","indexed":true,"internalType":"bytes32"},{"name":"account","type":"address","indexed":true,"internalType":"address"},{"name":"sender","type":"address","indexed":true,"internalType":"address"}],"anonymous":false},{"type":"event","name":"RoleRevoked","inputs":[{"name":"role","type":"bytes32","indexed":true,"internalType":"bytes32"},{"name":"account","type":"address","indexed":true,"internalType":"address"},{"name":"sender","type":"address","indexed":true,"internalType":"address"}],"anonymous":false},{"type":"event","name":"Upgraded","inputs":[{"name":"implementation","type":"address","indexed":true,"internalType":"address"}],"anonymous":false},{"type":"error","name":"AccessControlBadConfirmation","inputs":[]},{"type":"error","name":"AccessControlUnauthorizedAccount","inputs":[{"name":"account","type":"address","internalType":"address"},{"name":"neededRole","type":"bytes32","internalType":"bytes32"}]},{"type":"error","name":"AddressEmptyCode","inputs":[{"name":"target","type":"address","internalType":"address"}]},{"type":"error","name":"AmountLessThanMinIncentiveRate","inputs":[]},{"type":"error","name":"CannotRecoverIncentiveToken","inputs":[]},{"type":"error","name":"CannotRecoverRewardToken","inputs":[]},{"type":"error","name":"CannotRecoverStakingToken","inputs":[]},{"type":"error","name":"DepositNotMultipleOfGwei","inputs":[]},{"type":"error","name":"DepositValueTooHigh","inputs":[]},{"type":"error","name":"DonateAmountLessThanPayoutAmount","inputs":[]},{"type":"error","name":"ERC1967InvalidImplementation","inputs":[{"name":"implementation","type":"address","internalType":"address"}]},{"type":"error","name":"ERC1967NonPayable","inputs":[]},{"type":"error","name":"FailedInnerCall","inputs":[]},{"type":"error","name":"IncentiveRateTooHigh","inputs":[]},{"type":"error","name":"IndexOutOfRange","inputs":[]},{"type":"error","name":"InsolventReward","inputs":[]},{"type":"error","name":"InsufficientDelegateStake","inputs":[]},{"type":"error","name":"InsufficientDeposit","inputs":[]},{"type":"error","name":"InsufficientSelfStake","inputs":[]},{"type":"error","name":"InsufficientStake","inputs":[]},{"type":"error","name":"InvalidActivateBoostDelay","inputs":[]},{"type":"error","name":"InvalidArrayLength","inputs":[]},{"type":"error","name":"InvalidBaseRate","inputs":[]},{"type":"error","name":"InvalidBoostMultiplier","inputs":[]},{"type":"error","name":"InvalidCredentialsLength","inputs":[]},{"type":"error","name":"InvalidDropBoostDelay","inputs":[]},{"type":"error","name":"InvalidInitialization","inputs":[]},{"type":"error","name":"InvalidMaxIncentiveTokensCount","inputs":[]},{"type":"error","name":"InvalidMinBoostedRewardRate","inputs":[]},{"type":"error","name":"InvalidProof","inputs":[]},{"type":"error","name":"InvalidPubKeyLength","inputs":[]},{"type":"error","name":"InvalidRewardAllocationWeights","inputs":[]},{"type":"error","name":"InvalidRewardConvexity","inputs":[]},{"type":"error","name":"InvalidRewardRate","inputs":[]},{"type":"error","name":"InvalidSignatureLength","inputs":[]},{"type":"error","name":"InvalidStartBlock","inputs":[]},{"type":"error","name":"InvalidateDefaultRewardAllocation","inputs":[]},{"type":"error","name":"InvariantCheckFailed","inputs":[]},{"type":"error","name":"MaxNumWeightsPerRewardAllocationIsZero","inputs":[]},{"type":"error","name":"MinIncentiveRateIsZero","inputs":[]},{"type":"error","name":"NotAContract","inputs":[]},{"type":"error","name":"NotApprovedSender","inputs":[]},{"type":"error","name":"NotBGT","inputs":[]},{"type":"error","name":"NotBlockRewardController","inputs":[]},{"type":"error","name":"NotDelegate","inputs":[]},{"type":"error","name":"NotDistributor","inputs":[]},{"type":"error","name":"NotEnoughBalance","inputs":[]},{"type":"error","name":"NotEnoughBoostedBalance","inputs":[]},{"type":"error","name":"NotEnoughTime","inputs":[]},{"type":"error","name":"NotFactoryVault","inputs":[]},{"type":"error","name":"NotFeeCollector","inputs":[]},{"type":"error","name":"NotIncentiveManager","inputs":[]},{"type":"error","name":"NotInitializing","inputs":[]},{"type":"error","name":"NotNewOperator","inputs":[]},{"type":"error","name":"NotOperator","inputs":[]},{"type":"error","name":"NotWhitelistedVault","inputs":[]},{"type":"error","name":"OperatorAlreadySet","inputs":[]},{"type":"error","name":"PayoutAmountIsZero","inputs":[]},{"type":"error","name":"RewardAllocationAlreadyQueued","inputs":[]},{"type":"error","name":"RewardAllocationBlockDelayTooLarge","inputs":[]},{"type":"error","name":"RewardCycleNotEnded","inputs":[]},{"type":"error","name":"RewardsDurationIsZero","inputs":[]},{"type":"error","name":"StakeAmountIsZero","inputs":[]},{"type":"error","name":"TimestampAlreadyProcessed","inputs":[]},{"type":"error","name":"TokenAlreadyWhitelistedOrLimitReached","inputs":[]},{"type":"error","name":"TokenNotWhitelisted","inputs":[]},{"type":"error","name":"TooManyWeights","inputs":[]},{"type":"error","name":"TotalSupplyOverflow","inputs":[]},{"type":"error","name":"UUPSUnauthorizedCallContext","inputs":[]},{"type":"error","name":"UUPSUnsupportedProxiableUUID","inputs":[{"name":"slot","type":"bytes32","internalType":"bytes32"}]},{"type":"error","name":"WithdrawAmountIsZero","inputs":[]},{"type":"error","name":"ZeroAddress","inputs":[]},{"type":"error","name":"ZeroAddress","inputs":[]},{"type":"error","name":"ZeroAmount","inputs":[]},{"type":"error","name":"ZeroOperatorOnFirstDeposit","inputs":[]},{"type":"error","name":"ZeroPercentageWeight","inputs":[]}],"bytecode":{"object":"0x60c060405230608052348015610013575f80fd5b5060405161151638038061151683398101604081905261003291610130565b8061003b61007e565b6001600160a01b03811660a05261005061007e565b506001600160a01b0381166100785760405163d92e233d60e01b815260040160405180910390fd5b5061015d565b7ff0c57e16840df040f15088dc2f81fe391c3923bec73e23a9662efc9c229c6a00805468010000000000000000900460ff16156100ce5760405163f92ee8a960e01b815260040160405180910390fd5b80546001600160401b039081161461012d5780546001600160401b0319166001600160401b0390811782556040519081527fc7f505b2f371ae2175ee4913f4499e1f2633a7b5936321eed1cdaeb6115181d29060200160405180910390a15b50565b5f60208284031215610140575f80fd5b81516001600160a01b0381168114610156575f80fd5b9392505050565b60805160a05161137c61019a5f395f81816101580152818161069d01526106de01525f8181610a4101528181610a6a0152610ba1015261137c5ff3fe6080604052600436106100ee575f3560e01c806301ffc9a7146100f25780631794bb3c1461012657806321f96c6514610147578063248a9ca3146101875780632f2ff15d146101b4578063364bc15a146101d357806336568abe146102065780634efa82b6146102255780634f1ef2861461024357806352d1902d146102565780635c60da1b1461026a5780636b46c8c31461027e5780637e9695ae146102935780637f4d3945146102b257806391d14854146102d1578063a217fddf146102f0578063ad3cb1cc14610303578063d547741f14610340578063d8bd5c291461026a578063f36c8f5c1461035f575b5f80fd5b3480156100fd575f80fd5b5061011161010c366004610fd3565b61037f565b60405190151581526020015b60405180910390f35b348015610131575f80fd5b50610145610140366004611015565b6103b5565b005b348015610152575f80fd5b5061017a7f000000000000000000000000000000000000000000000000000000000000000081565b60405161011d919061104f565b348015610192575f80fd5b506101a66101a1366004611063565b610561565b60405190815260200161011d565b3480156101bf575f80fd5b506101456101ce36600461107a565b61057f565b3480156101de575f80fd5b506101a67ffc8737ab85eb45125971625a9ebdb75cc78e01d5c1fa80c4c6e5203f47bc4fab81565b348015610211575f80fd5b5061014561022036600461107a565b6105a1565b348015610230575f80fd5b505f5461017a906001600160a01b031681565b6101456102513660046110b8565b6105d9565b348015610261575f80fd5b506101a66105f8565b348015610275575f80fd5b5061017a610613565b348015610289575f80fd5b506101a660015481565b34801561029e575f80fd5b506101456102ad3660046111c0565b610621565b3480156102bd575f80fd5b506101456102cc366004611063565b610815565b3480156102dc575f80fd5b506101116102eb36600461107a565b61086b565b3480156102fb575f80fd5b506101a65f81565b34801561030e575f80fd5b50610333604051806040016040528060058152602001640352e302e360dc1b81525081565b60405161011d919061123e565b34801561034b575f80fd5b5061014561035a36600461107a565b61089f565b34801561036a575f80fd5b506101a65f805160206112e783398151915281565b5f6001600160e01b03198216637965db0b60e01b14806103af57506301ffc9a760e01b6001600160e01b03198316145b92915050565b5f6103be6108bb565b805490915060ff600160401b82041615906001600160401b03165f811580156103e45750825b90505f826001600160401b031660011480156103ff5750303b155b90508115801561040d575080155b1561042b5760405163f92ee8a960e01b815260040160405180910390fd5b84546001600160401b0319166001178555831561045457845460ff60401b1916600160401b1785555b6001600160a01b038816158061047157506001600160a01b038716155b1561048f5760405163d92e233d60e01b815260040160405180910390fd5b855f036104af57604051631f2a200560e01b815260040160405180910390fd5b5f80546001600160a01b0319166001600160a01b03891617815560018790556040518791905f80516020611307833981519152908290a36104f05f896108df565b506105085f805160206112e7833981519152896108df565b5061051161097d565b831561055757845460ff60401b19168555604051600181527fc7f505b2f371ae2175ee4913f4499e1f2633a7b5936321eed1cdaeb6115181d29060200160405180910390a15b5050505050505050565b5f8061056b61098f565b5f9384526020525050604090206001015490565b61058882610561565b610591816109b3565b61059b83836108df565b50505050565b6001600160a01b03811633146105ca5760405163334bd91960e11b815260040160405180910390fd5b6105d482826109c0565b505050565b6105e1610a36565b6105ea82610ac4565b6105f48282610ada565b5050565b5f610601610b96565b505f8051602061132783398151915290565b5f61061c610bdf565b905090565b82811461064157604051634ec4810560e11b815260040160405180910390fd5b6001600160a01b0385166106685760405163d92e233d60e01b815260040160405180910390fd5b6001545f54610686916001600160a01b039091169033903090610bfa565b6001545f546106c2916001600160a01b03909116907f000000000000000000000000000000000000000000000000000000000000000090610c92565b5f5460015460405163d9ea2d7d60e01b81526001600160a01b037f000000000000000000000000000000000000000000000000000000000000000081169363d9ea2d7d9361071893919092169190600401611273565b5f604051808303815f87803b15801561072f575f80fd5b505af1158015610741573d5f803e3d5ffd5b505050505f5b8381101561080d575f8585838181106107625761076261128c565b905060200201602081019061077791906112a0565b90505f84848481811061078c5761078c61128c565b602002919091013591506107ac90506001600160a01b0383168983610d0e565b816001600160a01b0316886001600160a01b0316336001600160a01b03167f34579ce58c22de68fe7e545753ced212a5b682a2e81614171dbf2039de2454d8846040516107fb91815260200190565b60405180910390a45050600101610747565b505050505050565b61082b5f805160206112e78339815191526109b3565b805f0361084b57604051631f2a200560e01b815260040160405180910390fd5b6001546040518291905f80516020611307833981519152905f90a3600155565b5f8061087561098f565b5f948552602090815260408086206001600160a01b03959095168652939052505090205460ff1690565b6108a882610561565b6108b1816109b3565b61059b83836109c0565b7ff0c57e16840df040f15088dc2f81fe391c3923bec73e23a9662efc9c229c6a0090565b5f806108e961098f565b90506108f5848461086b565b610974575f848152602082815260408083206001600160a01b03871684529091529020805460ff1916600117905561092a3390565b6001600160a01b0316836001600160a01b0316857f2f8788117e7eff1d82e926ec794901d17c78024a50270940304540a733656f0d60405160405180910390a460019150506103af565b5f9150506103af565b610985610d8b565b61098d610db0565b565b7f02dd7bc7dec4dceedda775e58dd541e08a116c6c53815c0bd028192f7b62680090565b6109bd8133610dc8565b50565b5f806109ca61098f565b90506109d6848461086b565b15610974575f848152602082815260408083206001600160a01b0387168085529252808320805460ff1916905551339287917ff6391f5c32d9c69d2a47ea670b442974b53935d1edc7fd64eb21e047a839171b9190a460019150506103af565b306001600160a01b037f0000000000000000000000000000000000000000000000000000000000000000161480610aa657507f00000000000000000000000000000000000000000000000000000000000000006001600160a01b0316610a9a610bdf565b6001600160a01b031614155b1561098d5760405163703e46dd60e11b815260040160405180910390fd5b6109bd5f805160206112e78339815191526109b3565b816001600160a01b03166352d1902d6040518163ffffffff1660e01b8152600401602060405180830381865afa925050508015610b34575060408051601f3d908101601f19168201909252610b31918101906112b9565b60015b610b5c5781604051634c9c8ce360e01b8152600401610b53919061104f565b60405180910390fd5b5f805160206113278339815191528114610b8c57604051632a87526960e21b815260048101829052602401610b53565b6105d48383610df3565b306001600160a01b037f0000000000000000000000000000000000000000000000000000000000000000161461098d5760405163703e46dd60e11b815260040160405180910390fd5b5f80516020611327833981519152546001600160a01b031690565b5f6040516323b872dd60e01b81526001600160a01b03851660048201526001600160a01b038416602482015282604482015260205f6064835f8a5af13d15601f3d1160015f511416171691505080610c8b5760405162461bcd60e51b81526020600482015260146024820152731514905394d1915497d19493d357d1905253115160621b6044820152606401610b53565b5050505050565b5f60405163095ea7b360e01b81526001600160a01b038416600482015282602482015260205f6044835f895af13d15601f3d1160015f51141617169150508061059b5760405162461bcd60e51b815260206004820152600e60248201526d1054141493d59157d1905253115160921b6044820152606401610b53565b5f60405163a9059cbb60e01b81526001600160a01b038416600482015282602482015260205f6044835f895af13d15601f3d1160015f51141617169150508061059b5760405162461bcd60e51b815260206004820152600f60248201526e1514905394d1915497d19052531151608a1b6044820152606401610b53565b610d93610e48565b61098d57604051631afcd79f60e31b815260040160405180910390fd5b610db8610d8b565b610dc0610e61565b61098d610e61565b610dd2828261086b565b6105f457808260405163e2517d3f60e01b8152600401610b53929190611273565b610dfc82610e69565b6040516001600160a01b038316907fbc7cd75a20ee27fd9adebab32041f755214dbc6bffa90cc0225b39da2e5c2d3b905f90a2805115610e40576105d48282610ec3565b6105f4610f35565b5f610e516108bb565b54600160401b900460ff16919050565b61098d610d8b565b806001600160a01b03163b5f03610e955780604051634c9c8ce360e01b8152600401610b53919061104f565b5f8051602061132783398151915280546001600160a01b0319166001600160a01b0392909216919091179055565b60605f80846001600160a01b031684604051610edf91906112d0565b5f60405180830381855af49150503d805f8114610f17576040519150601f19603f3d011682016040523d82523d5f602084013e610f1c565b606091505b5091509150610f2c858383610f54565b95945050505050565b341561098d5760405163b398979f60e01b815260040160405180910390fd5b606082610f6957610f6482610faa565b610fa3565b8151158015610f8057506001600160a01b0384163b155b15610fa05783604051639996b31560e01b8152600401610b53919061104f565b50805b9392505050565b805115610fba5780518082602001fd5b604051630a12f52160e11b815260040160405180910390fd5b5f60208284031215610fe3575f80fd5b81356001600160e01b031981168114610fa3575f80fd5b80356001600160a01b0381168114611010575f80fd5b919050565b5f805f60608486031215611027575f80fd5b61103084610ffa565b925061103e60208501610ffa565b929592945050506040919091013590565b6001600160a01b0391909116815260200190565b5f60208284031215611073575f80fd5b5035919050565b5f806040838503121561108b575f80fd5b8235915061109b60208401610ffa565b90509250929050565b634e487b7160e01b5f52604160045260245ffd5b5f80604083850312156110c9575f80fd5b6110d283610ffa565b915060208301356001600160401b038111156110ec575f80fd5b8301601f810185136110fc575f80fd5b80356001600160401b03811115611115576111156110a4565b604051601f8201601f19908116603f011681016001600160401b0381118282101715611143576111436110a4565b60405281815282820160200187101561115a575f80fd5b816020840160208301375f602083830101528093505050509250929050565b5f8083601f840112611189575f80fd5b5081356001600160401b0381111561119f575f80fd5b6020830191508360208260051b85010111156111b9575f80fd5b9250929050565b5f805f805f606086880312156111d4575f80fd5b6111dd86610ffa565b945060208601356001600160401b038111156111f7575f80fd5b61120388828901611179565b90955093505060408601356001600160401b03811115611221575f80fd5b61122d88828901611179565b969995985093965092949392505050565b602081525f82518060208401528060208501604085015e5f604082850101526040601f19601f83011684010191505092915050565b6001600160a01b03929092168252602082015260400190565b634e487b7160e01b5f52603260045260245ffd5b5f602082840312156112b0575f80fd5b610fa382610ffa565b5f602082840312156112c9575f80fd5b5051919050565b5f82518060208501845e5f92019182525091905056fe71840dc4906352362b0cdaf79870196c8e42acafade72d5d5a6d59291253ceb18f6c5c01f9385e42ed275713f18de607d67ea7f6673e431418c8b286057a2207360894a13ba1a3210667c828492db98dca3e2076cc3735a920a3ca505d382bbca2646970667358221220acaed037abf917056d39c66a3e7ce0b9b2e954de4ce33a7cca41a893a65d877064736f6c634300081a0033","linkReferences":{}},"methodIdentifiers":{"DEFAULT_ADMIN_ROLE()":"a217fddf","GOVERNANCE_ROLE()":"f36c8f5c","KEEPER_ROLE()":"364bc15a","UPGRADE_INTERFACE_VERSION()":"ad3cb1cc","claimFees(address,address[],uint256[])":"7e9695ae","currentImplementation()":"d8bd5c29","getRoleAdmin(bytes32)":"248a9ca3","grantRole(bytes32,address)":"2f2ff15d","hasRole(bytes32,address)":"91d14854","implementation()":"5c60da1b","infrared()":"21f96c65","initialize(address,address,uint256)":"1794bb3c","payoutAmount()":"6b46c8c3","payoutToken()":"4efa82b6","proxiableUUID()":"52d1902d","renounceRole(bytes32,address)":"36568abe","revokeRole(bytes32,address)":"d547741f","setPayoutAmount(uint256)":"7f4d3945","supportsInterface(bytes4)":"01ffc9a7","upgradeToAndCall(address,bytes)":"4f1ef286"},"id":73}