{"abi":[{"type":"function","name":"DEFAULT_ADMIN_ROLE","inputs":[],"outputs":[{"name":"","type":"bytes32","internalType":"bytes32"}],"stateMutability":"view"},{"type":"function","name":"DEPOSIT_CONTRACT","inputs":[],"outputs":[{"name":"","type":"address","internalType":"address"}],"stateMutability":"view"},{"type":"function","name":"ETH1_ADDRESS_WITHDRAWAL_PREFIX","inputs":[],"outputs":[{"name":"","type":"uint8","internalType":"uint8"}],"stateMutability":"view"},{"type":"function","name":"GOVERNANCE_ROLE","inputs":[],"outputs":[{"name":"","type":"bytes32","internalType":"bytes32"}],"stateMutability":"view"},{"type":"function","name":"InfraredBERA","inputs":[],"outputs":[{"name":"","type":"address","internalType":"address"}],"stateMutability":"view"},{"type":"function","name":"KEEPER_ROLE","inputs":[],"outputs":[{"name":"","type":"bytes32","internalType":"bytes32"}],"stateMutability":"view"},{"type":"function","name":"UPGRADE_INTERFACE_VERSION","inputs":[],"outputs":[{"name":"","type":"string","internalType":"string"}],"stateMutability":"view"},{"type":"function","name":"currentImplementation","inputs":[],"outputs":[{"name":"","type":"address","internalType":"address"}],"stateMutability":"view"},{"type":"function","name":"execute","inputs":[{"name":"pubkey","type":"bytes","internalType":"bytes"},{"name":"amount","type":"uint256","internalType":"uint256"}],"outputs":[],"stateMutability":"nonpayable"},{"type":"function","name":"fees","inputs":[],"outputs":[{"name":"","type":"uint256","internalType":"uint256"}],"stateMutability":"view"},{"type":"function","name":"getRoleAdmin","inputs":[{"name":"role","type":"bytes32","internalType":"bytes32"}],"outputs":[{"name":"","type":"bytes32","internalType":"bytes32"}],"stateMutability":"view"},{"type":"function","name":"grantRole","inputs":[{"name":"role","type":"bytes32","internalType":"bytes32"},{"name":"account","type":"address","internalType":"address"}],"outputs":[],"stateMutability":"nonpayable"},{"type":"function","name":"hasRole","inputs":[{"name":"role","type":"bytes32","internalType":"bytes32"},{"name":"account","type":"address","internalType":"address"}],"outputs":[{"name":"","type":"bool","internalType":"bool"}],"stateMutability":"view"},{"type":"function","name":"implementation","inputs":[],"outputs":[{"name":"","type":"address","internalType":"address"}],"stateMutability":"view"},{"type":"function","name":"initialize","inputs":[{"name":"_gov","type":"address","internalType":"address"},{"name":"_keeper","type":"address","internalType":"address"},{"name":"ibera","type":"address","internalType":"address"},{"name":"_depositContract","type":"address","internalType":"address"}],"outputs":[],"stateMutability":"nonpayable"},{"type":"function","name":"nonceSlip","inputs":[],"outputs":[{"name":"","type":"uint256","internalType":"uint256"}],"stateMutability":"view"},{"type":"function","name":"nonceSubmit","inputs":[],"outputs":[{"name":"","type":"uint256","internalType":"uint256"}],"stateMutability":"view"},{"type":"function","name":"proxiableUUID","inputs":[],"outputs":[{"name":"","type":"bytes32","internalType":"bytes32"}],"stateMutability":"view"},{"type":"function","name":"queue","inputs":[{"name":"amount","type":"uint256","internalType":"uint256"}],"outputs":[{"name":"nonce","type":"uint256","internalType":"uint256"}],"stateMutability":"payable"},{"type":"function","name":"renounceRole","inputs":[{"name":"role","type":"bytes32","internalType":"bytes32"},{"name":"callerConfirmation","type":"address","internalType":"address"}],"outputs":[],"stateMutability":"nonpayable"},{"type":"function","name":"reserves","inputs":[],"outputs":[{"name":"","type":"uint256","internalType":"uint256"}],"stateMutability":"view"},{"type":"function","name":"revokeRole","inputs":[{"name":"role","type":"bytes32","internalType":"bytes32"},{"name":"account","type":"address","internalType":"address"}],"outputs":[],"stateMutability":"nonpayable"},{"type":"function","name":"slips","inputs":[{"name":"","type":"uint256","internalType":"uint256"}],"outputs":[{"name":"timestamp","type":"uint96","internalType":"uint96"},{"name":"fee","type":"uint256","internalType":"uint256"},{"name":"amount","type":"uint256","internalType":"uint256"}],"stateMutability":"view"},{"type":"function","name":"supportsInterface","inputs":[{"name":"interfaceId","type":"bytes4","internalType":"bytes4"}],"outputs":[{"name":"","type":"bool","internalType":"bool"}],"stateMutability":"view"},{"type":"function","name":"upgradeToAndCall","inputs":[{"name":"newImplementation","type":"address","internalType":"address"},{"name":"data","type":"bytes","internalType":"bytes"}],"outputs":[],"stateMutability":"payable"},{"type":"event","name":"Execute","inputs":[{"name":"pubkey","type":"bytes","indexed":false,"internalType":"bytes"},{"name":"start","type":"uint256","indexed":false,"internalType":"uint256"},{"name":"end","type":"uint256","indexed":false,"internalType":"uint256"},{"name":"amount","type":"uint256","indexed":false,"internalType":"uint256"}],"anonymous":false},{"type":"event","name":"Initialized","inputs":[{"name":"version","type":"uint64","indexed":false,"internalType":"uint64"}],"anonymous":false},{"type":"event","name":"Queue","inputs":[{"name":"nonce","type":"uint256","indexed":false,"internalType":"uint256"},{"name":"amount","type":"uint256","indexed":false,"internalType":"uint256"}],"anonymous":false},{"type":"event","name":"RoleAdminChanged","inputs":[{"name":"role","type":"bytes32","indexed":true,"internalType":"bytes32"},{"name":"previousAdminRole","type":"bytes32","indexed":true,"internalType":"bytes32"},{"name":"newAdminRole","type":"bytes32","indexed":true,"internalType":"bytes32"}],"anonymous":false},{"type":"event","name":"RoleGranted","inputs":[{"name":"role","type":"bytes32","indexed":true,"internalType":"bytes32"},{"name":"account","type":"address","indexed":true,"internalType":"address"},{"name":"sender","type":"address","indexed":true,"internalType":"address"}],"anonymous":false},{"type":"event","name":"RoleRevoked","inputs":[{"name":"role","type":"bytes32","indexed":true,"internalType":"bytes32"},{"name":"account","type":"address","indexed":true,"internalType":"address"},{"name":"sender","type":"address","indexed":true,"internalType":"address"}],"anonymous":false},{"type":"event","name":"Upgraded","inputs":[{"name":"implementation","type":"address","indexed":true,"internalType":"address"}],"anonymous":false},{"type":"error","name":"AccessControlBadConfirmation","inputs":[]},{"type":"error","name":"AccessControlUnauthorizedAccount","inputs":[{"name":"account","type":"address","internalType":"address"},{"name":"neededRole","type":"bytes32","internalType":"bytes32"}]},{"type":"error","name":"AddressEmptyCode","inputs":[{"name":"target","type":"address","internalType":"address"}]},{"type":"error","name":"ERC1967InvalidImplementation","inputs":[{"name":"implementation","type":"address","internalType":"address"}]},{"type":"error","name":"ERC1967NonPayable","inputs":[]},{"type":"error","name":"FailedInnerCall","inputs":[]},{"type":"error","name":"InvalidAmount","inputs":[]},{"type":"error","name":"InvalidFee","inputs":[]},{"type":"error","name":"InvalidInitialization","inputs":[]},{"type":"error","name":"InvalidSignature","inputs":[]},{"type":"error","name":"InvalidValidator","inputs":[]},{"type":"error","name":"NotInitializing","inputs":[]},{"type":"error","name":"UUPSUnauthorizedCallContext","inputs":[]},{"type":"error","name":"UUPSUnsupportedProxiableUUID","inputs":[{"name":"slot","type":"bytes32","internalType":"bytes32"}]},{"type":"error","name":"Unauthorized","inputs":[{"name":"sender","type":"address","internalType":"address"}]},{"type":"error","name":"UnauthorizedOperator","inputs":[]},{"type":"error","name":"ZeroAddress","inputs":[]}],"bytecode":{"object":"0x60a060405230608052348015610013575f80fd5b5061001c610021565b6100d3565b7ff0c57e16840df040f15088dc2f81fe391c3923bec73e23a9662efc9c229c6a00805468010000000000000000900460ff16156100715760405163f92ee8a960e01b815260040160405180910390fd5b80546001600160401b03908116146100d05780546001600160401b0319166001600160401b0390811782556040519081527fc7f505b2f371ae2175ee4913f4499e1f2633a7b5936321eed1cdaeb6115181d29060200160405180910390a15b50565b608051611b416100f95f395f81816111680152818161119101526112c10152611b415ff3fe608060405260043610610125575f3560e01c806301ffc9a714610129578063248a9ca31461015d5780632d101ece1461018a5780632f2ff15d146101b0578063361a9792146101d1578063364bc15a1461023b57806336568abe1461025b5780633c31fcdc1461027a578063421a0b47146102a65780634f1ef286146102bb57806352d1902d146102ce5780635c60da1b146102e25780636b96736b146102f657806375172a8b1461031457806391d14854146103285780639af1d35a14610347578063a217fddf1461035c578063ab5898e81461036f578063ad3cb1cc1461038e578063c9588fb4146103cb578063d547741f146103e0578063d8bd5c29146102e2578063ddf0b009146103ff578063f36c8f5c14610412578063f8c8765e14610432575b5f80fd5b348015610134575f80fd5b506101486101433660046115e2565b610451565b60405190151581526020015b60405180910390f35b348015610168575f80fd5b5061017c610177366004611609565b610487565b604051908152602001610154565b348015610195575f80fd5b5061019e600181565b60405160ff9091168152602001610154565b3480156101bb575f80fd5b506101cf6101ca366004611634565b6104a5565b005b3480156101dc575f80fd5b506102166101eb366004611609565b600260208190525f91825260409091208054600182015491909201546001600160601b039092169183565b604080516001600160601b039094168452602084019290925290820152606001610154565b348015610246575f80fd5b5061017c5f80516020611acc83398151915281565b348015610266575f80fd5b506101cf610275366004611634565b6104c7565b348015610285575f80fd5b50600154610299906001600160a01b031681565b6040516101549190611662565b3480156102b1575f80fd5b5061017c60055481565b6101cf6102c93660046116e0565b6104ff565b3480156102d9575f80fd5b5061017c61051e565b3480156102ed575f80fd5b50610299610539565b348015610301575f80fd5b505f54610299906001600160a01b031681565b34801561031f575f80fd5b5061017c610547565b348015610333575f80fd5b50610148610342366004611634565b610556565b348015610352575f80fd5b5061017c60035481565b348015610367575f80fd5b5061017c5f81565b34801561037a575f80fd5b506101cf61038936600461176c565b61058a565b348015610399575f80fd5b506103be604051806040016040528060058152602001640352e302e360dc1b81525081565b604051610154919061180a565b3480156103d6575f80fd5b5061017c60045481565b3480156103eb575f80fd5b506101cf6103fa366004611634565b610c43565b61017c61040d366004611609565b610c5f565b34801561041d575f80fd5b5061017c5f80516020611aac83398151915281565b34801561043d575f80fd5b506101cf61044c36600461181c565b610e49565b5f6001600160e01b03198216637965db0b60e01b148061048157506301ffc9a760e01b6001600160e01b03198316145b92915050565b5f80610491611018565b5f9384526020525050604090206001015490565b6104ae82610487565b6104b78161103c565b6104c18383611049565b50505050565b6001600160a01b03811633146104f05760405163334bd91960e11b815260040160405180910390fd5b6104fa82826110e7565b505050565b61050761115d565b610510826111ed565b61051a8282611203565b5050565b5f6105276112b6565b505f80516020611aec83398151915290565b5f6105426112ff565b905090565b5f600354476105429190611889565b5f80610560611018565b5f948552602090815260408086206001600160a01b03959095168652939052505090205460ff1690565b600154604051631d19f0c160e31b81525f916001600160a01b03169063e8cf8608906105ba903390600401611662565b602060405180830381865afa1580156105d5573d5f803e3d5ffd5b505050506040513d601f19601f820116820180604052508101906105f9919061189c565b60015460405163142e3c2360e11b81529192506001600160a01b03169063285c78469061062c90879087906004016118e3565b602060405180830381865afa158015610647573d5f803e3d5ffd5b505050506040513d601f19601f8201168201806040525081019061066b919061189c565b61068857604051631a0a9b9f60e21b815260040160405180910390fd5b8115806106a1575061069e633b9aca00836118fe565b15155b156106bf5760405163162908e360e11b815260040160405180910390fd5b600154604080516321f96c6560e01b815290515f926001600160a01b0316916321f96c659160048083019260209291908290030181865afa158015610706573d5f803e3d5ffd5b505050506040513d601f19601f8201168201806040525081019061072a919061191d565b5f8054604051634f57fd4b60e11b815292935090916001600160a01b0390911690639eaffa969061076190899089906004016118e3565b602060405180830381865afa15801561077c573d5f803e3d5ffd5b505050506040513d601f19601f820116820180604052508101906107a0919061191d565b90506001600160a01b0381166107df5769021e19e0c9bab240000084146107da5760405163162908e360e11b815260040160405180910390fd5b610811565b816001600160a01b0316816001600160a01b031614610811576040516326b9cdff60e11b815260040160405180910390fd5b60015460405163698f116f60e11b81525f916001600160a01b03169063d31e22de90610843908a908a906004016118e3565b5f60405180830381865afa15801561085d573d5f803e3d5ffd5b505050506040513d5f823e601f3d908101601f191682016040526108849190810190611938565b905080515f036108a757604051638baa579f60e01b815260040160405180910390fd5b6001546040805163c632654160e01b815290515f926001600160a01b03169163c63265419160048083019260209291908290030181865afa1580156108ee573d5f803e3d5ffd5b505050506040513d601f19601f82011682018060405250810190610912919061191d565b6005549091505f80885b8015610a8d576005545f818152600260208181526040808420815160608101835281546001600160601b031681526001820154938101939093529092015491810182905292955090036109825760405163162908e360e11b815260040160405180910390fd5b891580156109a35750805162093a8042919091036001600160601b03161015155b156109cc573360405163472511eb60e11b81526004016109c39190611662565b60405180910390fd5b6020810151156109ee5760208101516109e590846119ac565b5f602083015292505b5f81604001518311610a005782610a06565b81604001515b90508082604001818151610a1a9190611889565b90525060408201515f03610a3d5760058054905f610a37836119bf565b91905055505b5f85815260026020818152604092839020855181546001600160601b0319166001600160601b0390911617815590850151600182015591840151910155610a848184611889565b9250505061091c565b8160035f828254610a9e9190611889565b909155505060408051600160f81b60208201525f602182018190526001600160601b0319606089901b16602c83015291016040516020818303038152906040529050886001600160a01b0316886001600160a01b031603610afd575f98505b5f8054906101000a90046001600160a01b03166001600160a01b031663e12cf4cb8c8f8f858c8f6040518763ffffffff1660e01b8152600401610b449594939291906119d7565b5f604051808303818588803b158015610b5b575f80fd5b505af1158015610b6d573d5f803e3d5ffd5b505050505060015f9054906101000a90046001600160a01b03166001600160a01b0316634c98a2a98e8e8e6040518463ffffffff1660e01b8152600401610bb693929190611a2b565b5f604051808303815f87803b158015610bcd575f80fd5b505af1158015610bdf573d5f803e3d5ffd5b505050505f831115610bf557610bf5338461131a565b7f2701a2c325a07573779e704c7cbb09080e24f6f2cc5fbd505ff501484e9720948d8d87878f604051610c2c959493929190611a4e565b60405180910390a150505050505050505050505050565b610c4c82610487565b610c558161103c565b6104c183836110e7565b6001545f906001600160a01b03163314801590610d01575060015f9054906101000a90046001600160a01b03166001600160a01b031663c63265416040518163ffffffff1660e01b8152600401602060405180830381865afa158015610cc7573d5f803e3d5ffd5b505050506040513d601f19601f82011682018060405250810190610ceb919061191d565b6001600160a01b0316336001600160a01b031614155b15610d21573360405163472511eb60e11b81526004016109c39190611662565b811580610d2d57508134105b15610d4b5760405163162908e360e11b815260040160405180910390fd5b5f610d568334611889565b9050670de0b6b3a7640000811015610d81576040516358d620b360e01b815260040160405180910390fd5b8060035f828254610d9291906119ac565b909155505060048054905f610da6836119bf565b90915550604080516060810182526001600160601b03428116825260208083018681528385018981525f8781526002938490528690209451855494166001600160601b03199094169390931784555160018401559051910155519092507fd765cc8bd34d387926a3e6d44215f227aeccff19f04698be3e736875ecb68a2090610e3b9084908690918252602082015260400190565b60405180910390a150919050565b5f610e52611368565b805490915060ff600160401b82041615906001600160401b03165f81158015610e785750825b90505f826001600160401b03166001148015610e935750303b155b905081158015610ea1575080155b15610ebf5760405163f92ee8a960e01b815260040160405180910390fd5b84546001600160401b03191660011785558315610ee857845460ff60401b1916600160401b1785555b6001600160a01b0389161580610f0557506001600160a01b038816155b80610f1757506001600160a01b038716155b80610f2957506001600160a01b038616155b15610f475760405163d92e233d60e01b815260040160405180910390fd5b610f4f61138c565b600180546001600160a01b0319166001600160a01b0389161781556004819055600555610f7c5f8a611049565b50610f945f80516020611aac8339815191528a611049565b50610fac5f80516020611acc83398151915289611049565b505f80546001600160a01b0319166001600160a01b038816179055831561100d57845460ff60401b19168555604051600181527fc7f505b2f371ae2175ee4913f4499e1f2633a7b5936321eed1cdaeb6115181d29060200160405180910390a15b505050505050505050565b7f02dd7bc7dec4dceedda775e58dd541e08a116c6c53815c0bd028192f7b62680090565b61104681336113a4565b50565b5f80611053611018565b905061105f8484610556565b6110de575f848152602082815260408083206001600160a01b03871684529091529020805460ff191660011790556110943390565b6001600160a01b0316836001600160a01b0316857f2f8788117e7eff1d82e926ec794901d17c78024a50270940304540a733656f0d60405160405180910390a46001915050610481565b5f915050610481565b5f806110f1611018565b90506110fd8484610556565b156110de575f848152602082815260408083206001600160a01b0387168085529252808320805460ff1916905551339287917ff6391f5c32d9c69d2a47ea670b442974b53935d1edc7fd64eb21e047a839171b9190a46001915050610481565b306001600160a01b037f00000000000000000000000000000000000000000000000000000000000000001614806111cd57507f00000000000000000000000000000000000000000000000000000000000000006001600160a01b03166111c16112ff565b6001600160a01b031614155b156111eb5760405163703e46dd60e11b815260040160405180910390fd5b565b6110465f80516020611aac83398151915261103c565b816001600160a01b03166352d1902d6040518163ffffffff1660e01b8152600401602060405180830381865afa92505050801561125d575060408051601f3d908101601f1916820190925261125a91810190611a7e565b60015b61127c5781604051634c9c8ce360e01b81526004016109c39190611662565b5f80516020611aec83398151915281146112ac57604051632a87526960e21b8152600481018290526024016109c3565b6104fa83836113dd565b306001600160a01b037f000000000000000000000000000000000000000000000000000000000000000016146111eb5760405163703e46dd60e11b815260040160405180910390fd5b5f80516020611aec833981519152546001600160a01b031690565b5f805f805f85875af19050806104fa5760405162461bcd60e51b815260206004820152601360248201527211551217d514905394d1915497d19052531151606a1b60448201526064016109c3565b7ff0c57e16840df040f15088dc2f81fe391c3923bec73e23a9662efc9c229c6a0090565b611394611432565b61139c611457565b6111eb611457565b6113ae8282610556565b61051a5760405163e2517d3f60e01b81526001600160a01b0382166004820152602481018390526044016109c3565b6113e68261145f565b6040516001600160a01b038316907fbc7cd75a20ee27fd9adebab32041f755214dbc6bffa90cc0225b39da2e5c2d3b905f90a280511561142a576104fa82826114b9565b61051a61152b565b61143a61154a565b6111eb57604051631afcd79f60e31b815260040160405180910390fd5b6111eb611432565b806001600160a01b03163b5f0361148b5780604051634c9c8ce360e01b81526004016109c39190611662565b5f80516020611aec83398151915280546001600160a01b0319166001600160a01b0392909216919091179055565b60605f80846001600160a01b0316846040516114d59190611a95565b5f60405180830381855af49150503d805f811461150d576040519150601f19603f3d011682016040523d82523d5f602084013e611512565b606091505b5091509150611522858383611563565b95945050505050565b34156111eb5760405163b398979f60e01b815260040160405180910390fd5b5f611553611368565b54600160401b900460ff16919050565b60608261157857611573826115b9565b6115b2565b815115801561158f57506001600160a01b0384163b155b156115af5783604051639996b31560e01b81526004016109c39190611662565b50805b9392505050565b8051156115c95780518082602001fd5b604051630a12f52160e11b815260040160405180910390fd5b5f602082840312156115f2575f80fd5b81356001600160e01b0319811681146115b2575f80fd5b5f60208284031215611619575f80fd5b5035919050565b6001600160a01b0381168114611046575f80fd5b5f8060408385031215611645575f80fd5b82359150602083013561165781611620565b809150509250929050565b6001600160a01b0391909116815260200190565b634e487b7160e01b5f52604160045260245ffd5b604051601f8201601f191681016001600160401b03811182821017156116b2576116b2611676565b604052919050565b5f6001600160401b038211156116d2576116d2611676565b50601f01601f191660200190565b5f80604083850312156116f1575f80fd5b82356116fc81611620565b915060208301356001600160401b03811115611716575f80fd5b8301601f81018513611726575f80fd5b8035611739611734826116ba565b61168a565b81815286602083850101111561174d575f80fd5b816020840160208301375f602083830101528093505050509250929050565b5f805f6040848603121561177e575f80fd5b83356001600160401b03811115611793575f80fd5b8401601f810186136117a3575f80fd5b80356001600160401b038111156117b8575f80fd5b8660208284010111156117c9575f80fd5b6020918201979096509401359392505050565b5f81518084528060208401602086015e5f602082860101526020601f19601f83011685010191505092915050565b602081525f6115b260208301846117dc565b5f805f806080858703121561182f575f80fd5b843561183a81611620565b9350602085013561184a81611620565b9250604085013561185a81611620565b9150606085013561186a81611620565b939692955090935050565b634e487b7160e01b5f52601160045260245ffd5b8181038181111561048157610481611875565b5f602082840312156118ac575f80fd5b815180151581146115b2575f80fd5b81835281816020850137505f828201602090810191909152601f909101601f19169091010190565b602081525f6118f66020830184866118bb565b949350505050565b5f8261191857634e487b7160e01b5f52601260045260245ffd5b500690565b5f6020828403121561192d575f80fd5b81516115b281611620565b5f60208284031215611948575f80fd5b81516001600160401b0381111561195d575f80fd5b8201601f8101841361196d575f80fd5b805161197b611734826116ba565b81815285602083850101111561198f575f80fd5b8160208401602083015e5f91810160200191909152949350505050565b8082018082111561048157610481611875565b5f600182016119d0576119d0611875565b5060010190565b608081525f6119ea6080830187896118bb565b82810360208401526119fc81876117dc565b90508281036040840152611a1081866117dc565b91505060018060a01b03831660608301529695505050505050565b604081525f611a3e6040830185876118bb565b9050826020830152949350505050565b608081525f611a616080830187896118bb565b602083019590955250604081019290925260609091015292915050565b5f60208284031215611a8e575f80fd5b5051919050565b5f82518060208501845e5f92019182525091905056fe71840dc4906352362b0cdaf79870196c8e42acafade72d5d5a6d59291253ceb1fc8737ab85eb45125971625a9ebdb75cc78e01d5c1fa80c4c6e5203f47bc4fab360894a13ba1a3210667c828492db98dca3e2076cc3735a920a3ca505d382bbca2646970667358221220cb3cf454cb5c21ed54b87a0ed883b0c25da00fb1d4b9e25b41586523ee802f8164736f6c634300081a0033","linkReferences":{}},"methodIdentifiers":{"DEFAULT_ADMIN_ROLE()":"a217fddf","DEPOSIT_CONTRACT()":"6b96736b","ETH1_ADDRESS_WITHDRAWAL_PREFIX()":"2d101ece","GOVERNANCE_ROLE()":"f36c8f5c","InfraredBERA()":"3c31fcdc","KEEPER_ROLE()":"364bc15a","UPGRADE_INTERFACE_VERSION()":"ad3cb1cc","currentImplementation()":"d8bd5c29","execute(bytes,uint256)":"ab5898e8","fees()":"9af1d35a","getRoleAdmin(bytes32)":"248a9ca3","grantRole(bytes32,address)":"2f2ff15d","hasRole(bytes32,address)":"91d14854","implementation()":"5c60da1b","initialize(address,address,address,address)":"f8c8765e","nonceSlip()":"c9588fb4","nonceSubmit()":"421a0b47","proxiableUUID()":"52d1902d","queue(uint256)":"ddf0b009","renounceRole(bytes32,address)":"36568abe","reserves()":"75172a8b","revokeRole(bytes32,address)":"d547741f","slips(uint256)":"361a9792","supportsInterface(bytes4)":"01ffc9a7","upgradeToAndCall(address,bytes)":"4f1ef286"},"id":107}