{"abi":[{"type":"receive","stateMutability":"payable"},{"type":"function","name":"DEFAULT_ADMIN_ROLE","inputs":[],"outputs":[{"name":"","type":"bytes32","internalType":"bytes32"}],"stateMutability":"view"},{"type":"function","name":"GOVERNANCE_ROLE","inputs":[],"outputs":[{"name":"","type":"bytes32","internalType":"bytes32"}],"stateMutability":"view"},{"type":"function","name":"InfraredBERA","inputs":[],"outputs":[{"name":"","type":"address","internalType":"address"}],"stateMutability":"view"},{"type":"function","name":"KEEPER_ROLE","inputs":[],"outputs":[{"name":"","type":"bytes32","internalType":"bytes32"}],"stateMutability":"view"},{"type":"function","name":"UPGRADE_INTERFACE_VERSION","inputs":[],"outputs":[{"name":"","type":"string","internalType":"string"}],"stateMutability":"view"},{"type":"function","name":"collect","inputs":[],"outputs":[{"name":"sharesMinted","type":"uint256","internalType":"uint256"}],"stateMutability":"nonpayable"},{"type":"function","name":"currentImplementation","inputs":[],"outputs":[{"name":"","type":"address","internalType":"address"}],"stateMutability":"view"},{"type":"function","name":"distribution","inputs":[],"outputs":[{"name":"amount","type":"uint256","internalType":"uint256"},{"name":"fees","type":"uint256","internalType":"uint256"}],"stateMutability":"view"},{"type":"function","name":"getRoleAdmin","inputs":[{"name":"role","type":"bytes32","internalType":"bytes32"}],"outputs":[{"name":"","type":"bytes32","internalType":"bytes32"}],"stateMutability":"view"},{"type":"function","name":"grantRole","inputs":[{"name":"role","type":"bytes32","internalType":"bytes32"},{"name":"account","type":"address","internalType":"address"}],"outputs":[],"stateMutability":"nonpayable"},{"type":"function","name":"hasRole","inputs":[{"name":"role","type":"bytes32","internalType":"bytes32"},{"name":"account","type":"address","internalType":"address"}],"outputs":[{"name":"","type":"bool","internalType":"bool"}],"stateMutability":"view"},{"type":"function","name":"implementation","inputs":[],"outputs":[{"name":"","type":"address","internalType":"address"}],"stateMutability":"view"},{"type":"function","name":"infrared","inputs":[],"outputs":[{"name":"","type":"address","internalType":"contract IInfrared"}],"stateMutability":"view"},{"type":"function","name":"initialize","inputs":[{"name":"_gov","type":"address","internalType":"address"},{"name":"_keeper","type":"address","internalType":"address"},{"name":"ibera","type":"address","internalType":"address"},{"name":"_infrared","type":"address","internalType":"address"}],"outputs":[],"stateMutability":"nonpayable"},{"type":"function","name":"proxiableUUID","inputs":[],"outputs":[{"name":"","type":"bytes32","internalType":"bytes32"}],"stateMutability":"view"},{"type":"function","name":"renounceRole","inputs":[{"name":"role","type":"bytes32","internalType":"bytes32"},{"name":"callerConfirmation","type":"address","internalType":"address"}],"outputs":[],"stateMutability":"nonpayable"},{"type":"function","name":"revokeRole","inputs":[{"name":"role","type":"bytes32","internalType":"bytes32"},{"name":"account","type":"address","internalType":"address"}],"outputs":[],"stateMutability":"nonpayable"},{"type":"function","name":"shareholderFees","inputs":[],"outputs":[{"name":"","type":"uint256","internalType":"uint256"}],"stateMutability":"view"},{"type":"function","name":"supportsInterface","inputs":[{"name":"interfaceId","type":"bytes4","internalType":"bytes4"}],"outputs":[{"name":"","type":"bool","internalType":"bool"}],"stateMutability":"view"},{"type":"function","name":"sweep","inputs":[],"outputs":[{"name":"amount","type":"uint256","internalType":"uint256"},{"name":"fees","type":"uint256","internalType":"uint256"}],"stateMutability":"nonpayable"},{"type":"function","name":"upgradeToAndCall","inputs":[{"name":"newImplementation","type":"address","internalType":"address"},{"name":"data","type":"bytes","internalType":"bytes"}],"outputs":[],"stateMutability":"payable"},{"type":"event","name":"Collect","inputs":[{"name":"receiver","type":"address","indexed":true,"internalType":"address"},{"name":"amount","type":"uint256","indexed":false,"internalType":"uint256"},{"name":"sharesMinted","type":"uint256","indexed":false,"internalType":"uint256"}],"anonymous":false},{"type":"event","name":"Initialized","inputs":[{"name":"version","type":"uint64","indexed":false,"internalType":"uint64"}],"anonymous":false},{"type":"event","name":"RoleAdminChanged","inputs":[{"name":"role","type":"bytes32","indexed":true,"internalType":"bytes32"},{"name":"previousAdminRole","type":"bytes32","indexed":true,"internalType":"bytes32"},{"name":"newAdminRole","type":"bytes32","indexed":true,"internalType":"bytes32"}],"anonymous":false},{"type":"event","name":"RoleGranted","inputs":[{"name":"role","type":"bytes32","indexed":true,"internalType":"bytes32"},{"name":"account","type":"address","indexed":true,"internalType":"address"},{"name":"sender","type":"address","indexed":true,"internalType":"address"}],"anonymous":false},{"type":"event","name":"RoleRevoked","inputs":[{"name":"role","type":"bytes32","indexed":true,"internalType":"bytes32"},{"name":"account","type":"address","indexed":true,"internalType":"address"},{"name":"sender","type":"address","indexed":true,"internalType":"address"}],"anonymous":false},{"type":"event","name":"Sweep","inputs":[{"name":"receiver","type":"address","indexed":true,"internalType":"address"},{"name":"amount","type":"uint256","indexed":false,"internalType":"uint256"},{"name":"fees","type":"uint256","indexed":false,"internalType":"uint256"}],"anonymous":false},{"type":"event","name":"Upgraded","inputs":[{"name":"implementation","type":"address","indexed":true,"internalType":"address"}],"anonymous":false},{"type":"error","name":"AccessControlBadConfirmation","inputs":[]},{"type":"error","name":"AccessControlUnauthorizedAccount","inputs":[{"name":"account","type":"address","internalType":"address"},{"name":"neededRole","type":"bytes32","internalType":"bytes32"}]},{"type":"error","name":"AddressEmptyCode","inputs":[{"name":"target","type":"address","internalType":"address"}]},{"type":"error","name":"ERC1967InvalidImplementation","inputs":[{"name":"implementation","type":"address","internalType":"address"}]},{"type":"error","name":"ERC1967NonPayable","inputs":[]},{"type":"error","name":"FailedInnerCall","inputs":[]},{"type":"error","name":"InvalidAmount","inputs":[]},{"type":"error","name":"InvalidInitialization","inputs":[]},{"type":"error","name":"NotInitializing","inputs":[]},{"type":"error","name":"UUPSUnauthorizedCallContext","inputs":[]},{"type":"error","name":"UUPSUnsupportedProxiableUUID","inputs":[{"name":"slot","type":"bytes32","internalType":"bytes32"}]},{"type":"error","name":"Unauthorized","inputs":[{"name":"sender","type":"address","internalType":"address"}]},{"type":"error","name":"ZeroAddress","inputs":[]}],"bytecode":{"object":"0x60a060405230608052348015610013575f80fd5b5061001c610021565b6100d3565b7ff0c57e16840df040f15088dc2f81fe391c3923bec73e23a9662efc9c229c6a00805468010000000000000000900460ff16156100715760405163f92ee8a960e01b815260040160405180910390fd5b80546001600160401b03908116146100d05780546001600160401b0319166001600160401b0390811782556040519081527fc7f505b2f371ae2175ee4913f4499e1f2633a7b5936321eed1cdaeb6115181d29060200160405180910390a15b50565b6080516112646100f95f395f8181610ae701528181610b100152610c4001526112645ff3fe6080604052600436106100fc575f3560e01c806301ffc9a71461010757806321f96c651461013b578063248a9ca3146101675780632f2ff15d1461019457806335faa416146101b5578063364bc15a146101de57806336568abe146101fe5780633c31fcdc1461021d5780634f1ef2861461023b57806352d1902d1461024e5780635c60da1b146102625780635ee58efc1461027657806391d148541461028a578063a217fddf146102a9578063ad3cb1cc146102bc578063d547741f146102f9578063d8bd5c2914610262578063dd4eeafa14610318578063e52253811461032d578063f36c8f5c14610341578063f8c8765e14610361575f80fd5b3661010357005b5f80fd5b348015610112575f80fd5b50610126610121366004610f13565b610380565b60405190151581526020015b60405180910390f35b348015610146575f80fd5b5060015461015a906001600160a01b031681565b6040516101329190610f3a565b348015610172575f80fd5b50610186610181366004610f4e565b6103b6565b604051908152602001610132565b34801561019f575f80fd5b506101b36101ae366004610f80565b6103d4565b005b3480156101c0575f80fd5b506101c96103f6565b60408051928352602083019190915201610132565b3480156101e9575f80fd5b506101865f805160206111ef83398151915281565b348015610209575f80fd5b506101b3610218366004610f80565b6104fe565b348015610228575f80fd5b505f5461015a906001600160a01b031681565b6101b3610249366004610fbe565b610536565b348015610259575f80fd5b50610186610555565b34801561026d575f80fd5b5061015a610570565b348015610281575f80fd5b506101c961057e565b348015610295575f80fd5b506101266102a4366004610f80565b610632565b3480156102b4575f80fd5b506101865f81565b3480156102c7575f80fd5b506102ec604051806040016040528060058152602001640352e302e360dc1b81525081565b604051610132919061107f565b348015610304575f80fd5b506101b3610313366004610f80565b610666565b348015610323575f80fd5b5061018660025481565b348015610338575f80fd5b50610186610682565b34801561034c575f80fd5b506101865f805160206111cf83398151915281565b34801561036c575f80fd5b506101b361037b3660046110b4565b6107da565b5f6001600160e01b03198216637965db0b60e01b14806103b057506301ffc9a760e01b6001600160e01b03198316145b92915050565b5f806103c0610997565b5f9384526020525050604090206001015490565b6103dd826103b6565b6103e6816109bb565b6103f083836109c8565b50505050565b5f8061040061057e565b90925090505f610420670de0b6b3a7640000678ac7230489e80000611119565b90508083101561043457505f928392509050565b8115610451578160025f82825461044b9190611119565b90915550505b5f8054906101000a90046001600160a01b03166001600160a01b03166335faa416846040518263ffffffff1660e01b81526004015f604051808303818588803b15801561049c575f80fd5b505af11580156104ae573d5f803e3d5ffd5b50505f54604080518881526020810188905281516001600160a01b0390931695507f3da7689974f13093359934c7f011f3c8cbe727f25892e588f8eef693942efa4c9450829003019150a2509091565b6001600160a01b03811633146105275760405163334bd91960e11b815260040160405180910390fd5b6105318282610a66565b505050565b61053e610adc565b61054782610b6c565b6105518282610b82565b5050565b5f61055e610c35565b505f8051602061120f83398151915290565b5f610579610c7e565b905090565b5f806002544761058e919061112c565b91505f805f9054906101000a90046001600160a01b03166001600160a01b031663cff81d936040518163ffffffff1660e01b8152600401602060405180830381865afa1580156105e0573d5f803e3d5ffd5b505050506040513d601f19601f82011682018060405250810190610604919061113f565b905061ffff81161561062d5761061e61ffff821684611160565b915061062a828461112c565b92505b509091565b5f8061063c610997565b5f948552602090815260408086206001600160a01b03959095168652939052505090205460ff1690565b61066f826103b6565b610678816109bb565b6103f08383610a66565b5f80546001600160a01b031633146106b8573360405163472511eb60e11b81526004016106af9190610f3a565b60405180910390fd5b6002545f8190036106ca575f91505090565b5f6106e5670de0b6b3a7640000678ac7230489e80000611119565b9050808210156107085760405163162908e360e11b815260040160405180910390fd5b811561078d575f6002819055546001546040516335313c2160e11b81526001600160a01b0392831692636a6278429286926107499290911690600401610f3a565b604080518083038185885af1158015610764573d5f803e3d5ffd5b50505050506040513d601f19601f82011682018060405250810190610789919061117f565b9350505b60015460408051848152602081018690526001600160a01b03909216917f4a1c185b7b5da020829d63d69222d8602aa53a6b7800a73ee6e3e15a625d863d910160405180910390a2505090565b5f6107e3610c99565b805490915060ff600160401b82041615906001600160401b03165f811580156108095750825b90505f826001600160401b031660011480156108245750303b155b905081158015610832575080155b156108505760405163f92ee8a960e01b815260040160405180910390fd5b84546001600160401b0319166001178555831561087957845460ff60401b1916600160401b1785555b6001600160a01b038916158061089657506001600160a01b038816155b806108a857506001600160a01b038716155b806108ba57506001600160a01b038616155b156108d85760405163d92e233d60e01b815260040160405180910390fd5b6108e0610cbd565b5f80546001600160a01b03808a166001600160a01b031992831617835560018054918a1691909216179055610915908a6109c8565b5061092d5f805160206111cf8339815191528a6109c8565b506109455f805160206111ef833981519152896109c8565b50831561098c57845460ff60401b19168555604051600181527fc7f505b2f371ae2175ee4913f4499e1f2633a7b5936321eed1cdaeb6115181d29060200160405180910390a15b505050505050505050565b7f02dd7bc7dec4dceedda775e58dd541e08a116c6c53815c0bd028192f7b62680090565b6109c58133610cd5565b50565b5f806109d2610997565b90506109de8484610632565b610a5d575f848152602082815260408083206001600160a01b03871684529091529020805460ff19166001179055610a133390565b6001600160a01b0316836001600160a01b0316857f2f8788117e7eff1d82e926ec794901d17c78024a50270940304540a733656f0d60405160405180910390a460019150506103b0565b5f9150506103b0565b5f80610a70610997565b9050610a7c8484610632565b15610a5d575f848152602082815260408083206001600160a01b0387168085529252808320805460ff1916905551339287917ff6391f5c32d9c69d2a47ea670b442974b53935d1edc7fd64eb21e047a839171b9190a460019150506103b0565b306001600160a01b037f0000000000000000000000000000000000000000000000000000000000000000161480610b4c57507f00000000000000000000000000000000000000000000000000000000000000006001600160a01b0316610b40610c7e565b6001600160a01b031614155b15610b6a5760405163703e46dd60e11b815260040160405180910390fd5b565b6109c55f805160206111cf8339815191526109bb565b816001600160a01b03166352d1902d6040518163ffffffff1660e01b8152600401602060405180830381865afa925050508015610bdc575060408051601f3d908101601f19168201909252610bd9918101906111a1565b60015b610bfb5781604051634c9c8ce360e01b81526004016106af9190610f3a565b5f8051602061120f8339815191528114610c2b57604051632a87526960e21b8152600481018290526024016106af565b6105318383610d0e565b306001600160a01b037f00000000000000000000000000000000000000000000000000000000000000001614610b6a5760405163703e46dd60e11b815260040160405180910390fd5b5f8051602061120f833981519152546001600160a01b031690565b7ff0c57e16840df040f15088dc2f81fe391c3923bec73e23a9662efc9c229c6a0090565b610cc5610d63565b610ccd610d88565b610b6a610d88565b610cdf8282610632565b6105515760405163e2517d3f60e01b81526001600160a01b0382166004820152602481018390526044016106af565b610d1782610d90565b6040516001600160a01b038316907fbc7cd75a20ee27fd9adebab32041f755214dbc6bffa90cc0225b39da2e5c2d3b905f90a2805115610d5b576105318282610dea565b610551610e5c565b610d6b610e7b565b610b6a57604051631afcd79f60e31b815260040160405180910390fd5b610b6a610d63565b806001600160a01b03163b5f03610dbc5780604051634c9c8ce360e01b81526004016106af9190610f3a565b5f8051602061120f83398151915280546001600160a01b0319166001600160a01b0392909216919091179055565b60605f80846001600160a01b031684604051610e0691906111b8565b5f60405180830381855af49150503d805f8114610e3e576040519150601f19603f3d011682016040523d82523d5f602084013e610e43565b606091505b5091509150610e53858383610e94565b95945050505050565b3415610b6a5760405163b398979f60e01b815260040160405180910390fd5b5f610e84610c99565b54600160401b900460ff16919050565b606082610ea957610ea482610eea565b610ee3565b8151158015610ec057506001600160a01b0384163b155b15610ee05783604051639996b31560e01b81526004016106af9190610f3a565b50805b9392505050565b805115610efa5780518082602001fd5b604051630a12f52160e11b815260040160405180910390fd5b5f60208284031215610f23575f80fd5b81356001600160e01b031981168114610ee3575f80fd5b6001600160a01b0391909116815260200190565b5f60208284031215610f5e575f80fd5b5035919050565b80356001600160a01b0381168114610f7b575f80fd5b919050565b5f8060408385031215610f91575f80fd5b82359150610fa160208401610f65565b90509250929050565b634e487b7160e01b5f52604160045260245ffd5b5f8060408385031215610fcf575f80fd5b610fd883610f65565b915060208301356001600160401b03811115610ff2575f80fd5b8301601f81018513611002575f80fd5b80356001600160401b0381111561101b5761101b610faa565b604051601f8201601f19908116603f011681016001600160401b038111828210171561104957611049610faa565b604052818152828201602001871015611060575f80fd5b816020840160208301375f602083830101528093505050509250929050565b602081525f82518060208401528060208501604085015e5f604082850101526040601f19601f83011684010191505092915050565b5f805f80608085870312156110c7575f80fd5b6110d085610f65565b93506110de60208601610f65565b92506110ec60408601610f65565b91506110fa60608601610f65565b905092959194509250565b634e487b7160e01b5f52601160045260245ffd5b808201808211156103b0576103b0611105565b818103818111156103b0576103b0611105565b5f6020828403121561114f575f80fd5b815161ffff81168114610ee3575f80fd5b5f8261117a57634e487b7160e01b5f52601260045260245ffd5b500490565b5f8060408385031215611190575f80fd5b505080516020909101519092909150565b5f602082840312156111b1575f80fd5b5051919050565b5f82518060208501845e5f92019182525091905056fe71840dc4906352362b0cdaf79870196c8e42acafade72d5d5a6d59291253ceb1fc8737ab85eb45125971625a9ebdb75cc78e01d5c1fa80c4c6e5203f47bc4fab360894a13ba1a3210667c828492db98dca3e2076cc3735a920a3ca505d382bbca26469706673582212202db2ec7fc053fe8a6e8a15d9825e8859b4d16cbcdcdf23dc54a911f21b34011e64736f6c634300081a0033","linkReferences":{}},"methodIdentifiers":{"DEFAULT_ADMIN_ROLE()":"a217fddf","GOVERNANCE_ROLE()":"f36c8f5c","InfraredBERA()":"3c31fcdc","KEEPER_ROLE()":"364bc15a","UPGRADE_INTERFACE_VERSION()":"ad3cb1cc","collect()":"e5225381","currentImplementation()":"d8bd5c29","distribution()":"5ee58efc","getRoleAdmin(bytes32)":"248a9ca3","grantRole(bytes32,address)":"2f2ff15d","hasRole(bytes32,address)":"91d14854","implementation()":"5c60da1b","infrared()":"21f96c65","initialize(address,address,address,address)":"f8c8765e","proxiableUUID()":"52d1902d","renounceRole(bytes32,address)":"36568abe","revokeRole(bytes32,address)":"d547741f","shareholderFees()":"dd4eeafa","supportsInterface(bytes4)":"01ffc9a7","sweep()":"35faa416","upgradeToAndCall(address,bytes)":"4f1ef286"},"id":108}