{"abi":[{"type":"receive","stateMutability":"payable"},{"type":"function","name":"DEFAULT_ADMIN_ROLE","inputs":[],"outputs":[{"name":"","type":"bytes32","internalType":"bytes32"}],"stateMutability":"view"},{"type":"function","name":"GOVERNANCE_ROLE","inputs":[],"outputs":[{"name":"","type":"bytes32","internalType":"bytes32"}],"stateMutability":"view"},{"type":"function","name":"InfraredBERA","inputs":[],"outputs":[{"name":"","type":"address","internalType":"address"}],"stateMutability":"view"},{"type":"function","name":"KEEPER_ROLE","inputs":[],"outputs":[{"name":"","type":"bytes32","internalType":"bytes32"}],"stateMutability":"view"},{"type":"function","name":"UPGRADE_INTERFACE_VERSION","inputs":[],"outputs":[{"name":"","type":"string","internalType":"string"}],"stateMutability":"view"},{"type":"function","name":"WITHDRAW_PRECOMPILE","inputs":[],"outputs":[{"name":"","type":"address","internalType":"address"}],"stateMutability":"view"},{"type":"function","name":"WITHDRAW_REQUEST_TYPE","inputs":[],"outputs":[{"name":"","type":"uint8","internalType":"uint8"}],"stateMutability":"view"},{"type":"function","name":"claimor","inputs":[],"outputs":[{"name":"","type":"address","internalType":"address"}],"stateMutability":"view"},{"type":"function","name":"currentImplementation","inputs":[],"outputs":[{"name":"","type":"address","internalType":"address"}],"stateMutability":"view"},{"type":"function","name":"execute","inputs":[{"name":"pubkey","type":"bytes","internalType":"bytes"},{"name":"amount","type":"uint256","internalType":"uint256"}],"outputs":[],"stateMutability":"payable"},{"type":"function","name":"fees","inputs":[],"outputs":[{"name":"","type":"uint256","internalType":"uint256"}],"stateMutability":"view"},{"type":"function","name":"getRoleAdmin","inputs":[{"name":"role","type":"bytes32","internalType":"bytes32"}],"outputs":[{"name":"","type":"bytes32","internalType":"bytes32"}],"stateMutability":"view"},{"type":"function","name":"grantRole","inputs":[{"name":"role","type":"bytes32","internalType":"bytes32"},{"name":"account","type":"address","internalType":"address"}],"outputs":[],"stateMutability":"nonpayable"},{"type":"function","name":"hasRole","inputs":[{"name":"role","type":"bytes32","internalType":"bytes32"},{"name":"account","type":"address","internalType":"address"}],"outputs":[{"name":"","type":"bool","internalType":"bool"}],"stateMutability":"view"},{"type":"function","name":"implementation","inputs":[],"outputs":[{"name":"","type":"address","internalType":"address"}],"stateMutability":"view"},{"type":"function","name":"initializeV2","inputs":[{"name":"_claimor","type":"address","internalType":"address"},{"name":"_withdraw_precompile","type":"address","internalType":"address"}],"outputs":[],"stateMutability":"nonpayable"},{"type":"function","name":"nonceProcess","inputs":[],"outputs":[{"name":"","type":"uint256","internalType":"uint256"}],"stateMutability":"view"},{"type":"function","name":"nonceRequest","inputs":[],"outputs":[{"name":"","type":"uint256","internalType":"uint256"}],"stateMutability":"view"},{"type":"function","name":"nonceSubmit","inputs":[],"outputs":[{"name":"","type":"uint256","internalType":"uint256"}],"stateMutability":"view"},{"type":"function","name":"process","inputs":[],"outputs":[],"stateMutability":"nonpayable"},{"type":"function","name":"proxiableUUID","inputs":[],"outputs":[{"name":"","type":"bytes32","internalType":"bytes32"}],"stateMutability":"view"},{"type":"function","name":"queue","inputs":[{"name":"receiver","type":"address","internalType":"address"},{"name":"amount","type":"uint256","internalType":"uint256"}],"outputs":[{"name":"nonce","type":"uint256","internalType":"uint256"}],"stateMutability":"payable"},{"type":"function","name":"rebalancing","inputs":[],"outputs":[{"name":"","type":"uint256","internalType":"uint256"}],"stateMutability":"view"},{"type":"function","name":"renounceRole","inputs":[{"name":"role","type":"bytes32","internalType":"bytes32"},{"name":"callerConfirmation","type":"address","internalType":"address"}],"outputs":[],"stateMutability":"nonpayable"},{"type":"function","name":"requests","inputs":[{"name":"","type":"uint256","internalType":"uint256"}],"outputs":[{"name":"receiver","type":"address","internalType":"address"},{"name":"timestamp","type":"uint96","internalType":"uint96"},{"name":"fee","type":"uint256","internalType":"uint256"},{"name":"amountSubmit","type":"uint256","internalType":"uint256"},{"name":"amountProcess","type":"uint256","internalType":"uint256"}],"stateMutability":"view"},{"type":"function","name":"reserves","inputs":[],"outputs":[{"name":"","type":"uint256","internalType":"uint256"}],"stateMutability":"view"},{"type":"function","name":"revokeRole","inputs":[{"name":"role","type":"bytes32","internalType":"bytes32"},{"name":"account","type":"address","internalType":"address"}],"outputs":[],"stateMutability":"nonpayable"},{"type":"function","name":"supportsInterface","inputs":[{"name":"interfaceId","type":"bytes4","internalType":"bytes4"}],"outputs":[{"name":"","type":"bool","internalType":"bool"}],"stateMutability":"view"},{"type":"function","name":"sweep","inputs":[{"name":"pubkey","type":"bytes","internalType":"bytes"}],"outputs":[],"stateMutability":"nonpayable"},{"type":"function","name":"upgradeToAndCall","inputs":[{"name":"newImplementation","type":"address","internalType":"address"},{"name":"data","type":"bytes","internalType":"bytes"}],"outputs":[],"stateMutability":"payable"},{"type":"event","name":"Execute","inputs":[{"name":"pubkey","type":"bytes","indexed":false,"internalType":"bytes"},{"name":"start","type":"uint256","indexed":false,"internalType":"uint256"},{"name":"end","type":"uint256","indexed":false,"internalType":"uint256"},{"name":"amount","type":"uint256","indexed":false,"internalType":"uint256"}],"anonymous":false},{"type":"event","name":"Initialized","inputs":[{"name":"version","type":"uint64","indexed":false,"internalType":"uint64"}],"anonymous":false},{"type":"event","name":"Process","inputs":[{"name":"receiver","type":"address","indexed":true,"internalType":"address"},{"name":"nonce","type":"uint256","indexed":false,"internalType":"uint256"},{"name":"amount","type":"uint256","indexed":false,"internalType":"uint256"}],"anonymous":false},{"type":"event","name":"Queue","inputs":[{"name":"receiver","type":"address","indexed":true,"internalType":"address"},{"name":"nonce","type":"uint256","indexed":false,"internalType":"uint256"},{"name":"amount","type":"uint256","indexed":false,"internalType":"uint256"}],"anonymous":false},{"type":"event","name":"RoleAdminChanged","inputs":[{"name":"role","type":"bytes32","indexed":true,"internalType":"bytes32"},{"name":"previousAdminRole","type":"bytes32","indexed":true,"internalType":"bytes32"},{"name":"newAdminRole","type":"bytes32","indexed":true,"internalType":"bytes32"}],"anonymous":false},{"type":"event","name":"RoleGranted","inputs":[{"name":"role","type":"bytes32","indexed":true,"internalType":"bytes32"},{"name":"account","type":"address","indexed":true,"internalType":"address"},{"name":"sender","type":"address","indexed":true,"internalType":"address"}],"anonymous":false},{"type":"event","name":"RoleRevoked","inputs":[{"name":"role","type":"bytes32","indexed":true,"internalType":"bytes32"},{"name":"account","type":"address","indexed":true,"internalType":"address"},{"name":"sender","type":"address","indexed":true,"internalType":"address"}],"anonymous":false},{"type":"event","name":"Sweep","inputs":[{"name":"receiver","type":"address","indexed":true,"internalType":"address"},{"name":"amount","type":"uint256","indexed":false,"internalType":"uint256"}],"anonymous":false},{"type":"event","name":"Upgraded","inputs":[{"name":"implementation","type":"address","indexed":true,"internalType":"address"}],"anonymous":false},{"type":"error","name":"AccessControlBadConfirmation","inputs":[]},{"type":"error","name":"AccessControlUnauthorizedAccount","inputs":[{"name":"account","type":"address","internalType":"address"},{"name":"neededRole","type":"bytes32","internalType":"bytes32"}]},{"type":"error","name":"AddressEmptyCode","inputs":[{"name":"target","type":"address","internalType":"address"}]},{"type":"error","name":"CallFailed","inputs":[]},{"type":"error","name":"ERC1967InvalidImplementation","inputs":[{"name":"implementation","type":"address","internalType":"address"}]},{"type":"error","name":"ERC1967NonPayable","inputs":[]},{"type":"error","name":"FailedInnerCall","inputs":[]},{"type":"error","name":"InvalidAmount","inputs":[]},{"type":"error","name":"InvalidFee","inputs":[]},{"type":"error","name":"InvalidInitialization","inputs":[]},{"type":"error","name":"InvalidReceiver","inputs":[]},{"type":"error","name":"InvalidReserves","inputs":[]},{"type":"error","name":"NotInitializing","inputs":[]},{"type":"error","name":"UUPSUnauthorizedCallContext","inputs":[]},{"type":"error","name":"UUPSUnsupportedProxiableUUID","inputs":[{"name":"slot","type":"bytes32","internalType":"bytes32"}]},{"type":"error","name":"Unauthorized","inputs":[{"name":"sender","type":"address","internalType":"address"}]},{"type":"error","name":"ValidatorForceExited","inputs":[]},{"type":"error","name":"ZeroAddress","inputs":[]}],"bytecode":{"object":"0x60a060405230608052348015610013575f80fd5b5061001c610021565b6100d3565b7ff0c57e16840df040f15088dc2f81fe391c3923bec73e23a9662efc9c229c6a00805468010000000000000000900460ff16156100715760405163f92ee8a960e01b815260040160405180910390fd5b80546001600160401b03908116146100d05780546001600160401b0319166001600160401b0390811782556040519081527fc7f505b2f371ae2175ee4913f4499e1f2633a7b5936321eed1cdaeb6115181d29060200160405180910390a15b50565b60805161214f6100f95f395f818161182c015281816118550152611985015261214f5ff3fe60806040526004361061015f575f3560e01c806301ffc9a71461016a5780630840ba721461019e578063248a9ca3146101bf5780632f2ff15d146101ec578063364bc15a1461020b57806336568abe1461023e5780633c31fcdc1461025d578063421a0b4714610289578063442871131461029e5780634f1ef286146102b157806352d1902d146102c45780635c60da1b146102d857806360e3fb6c146102ec578063738281981461031257806375172a8b1461033157806381d12c581461034557806391d14854146103db578063959b13d9146103fa5780639af1d35a1461040f578063a217fddf14610424578063a78138d214610437578063ab5898e81461044c578063ad3cb1cc1461045f578063c33fb8771461049c578063c6c7a052146104b0578063c96752cd146104ce578063d547741f146104e3578063d8bd5c29146102d8578063ef6928a414610502578063f36c8f5c14610521575f80fd5b3661016657005b5f80fd5b348015610175575f80fd5b50610189610184366004611c24565b610541565b60405190151581526020015b60405180910390f35b3480156101a9575f80fd5b506101bd6101b8366004611c5f565b610577565b005b3480156101ca575f80fd5b506101de6101d9366004611c96565b6105f8565b604051908152602001610195565b3480156101f7575f80fd5b506101bd610206366004611cad565b610616565b348015610216575f80fd5b506101de7ffc8737ab85eb45125971625a9ebdb75cc78e01d5c1fa80c4c6e5203f47bc4fab81565b348015610249575f80fd5b506101bd610258366004611cad565b610638565b348015610268575f80fd5b5060015461027c906001600160a01b031681565b6040516101959190611cd0565b348015610294575f80fd5b506101de60075481565b6101de6102ac366004611ce4565b610670565b6101bd6102bf366004611d22565b610a15565b3480156102cf575f80fd5b506101de610a34565b3480156102e3575f80fd5b5061027c610a4f565b3480156102f7575f80fd5b50610300600181565b60405160ff9091168152602001610195565b34801561031d575f80fd5b506101bd61032c366004611e29565b610a5d565b34801561033c575f80fd5b506101de610ee5565b348015610350575f80fd5b506103a161035f366004611c96565b600360208190525f918252604090912080546001820154600283015492909301546001600160a01b03821693600160a01b9092046001600160601b0316929085565b604080516001600160a01b0390961686526001600160601b039094166020860152928401919091526060830152608082015260a001610195565b3480156103e6575f80fd5b506101896103f5366004611cad565b610ef4565b348015610405575f80fd5b506101de60055481565b34801561041a575f80fd5b506101de60045481565b34801561042f575f80fd5b506101de5f81565b348015610442575f80fd5b506101de60065481565b6101bd61045a366004611e67565b610f28565b34801561046a575f80fd5b5061048f604051806040016040528060058152602001640352e302e360dc1b81525081565b6040516101959190611eae565b3480156104a7575f80fd5b506101bd6113cc565b3480156104bb575f80fd5b505f5461027c906001600160a01b031681565b3480156104d9575f80fd5b506101de60085481565b3480156104ee575f80fd5b506101bd6104fd366004611cad565b6116c0565b34801561050d575f80fd5b5060025461027c906001600160a01b031681565b34801561052c575f80fd5b506101de5f805160206120da83398151915281565b5f6001600160e01b03198216637965db0b60e01b148061057157506301ffc9a760e01b6001600160e01b03198316145b92915050565b61058d5f805160206120da8339815191526116dc565b6001600160a01b03821615806105aa57506001600160a01b038116155b156105c85760405163d92e233d60e01b815260040160405180910390fd5b5f80546001600160a01b039283166001600160a01b03199182161790915560028054939092169216919091179055565b5f806106026116e9565b5f9384526020525050604090206001015490565b61061f826105f8565b610628816116dc565b610632838361170d565b50505050565b6001600160a01b03811633146106615760405163334bd91960e11b815260040160405180910390fd5b61066b82826117ab565b505050565b600154604051631d19f0c160e31b81525f9182916001600160a01b039091169063e8cf8608906106a4903390600401611cd0565b602060405180830381865afa1580156106bf573d5f803e3d5ffd5b505050506040513d601f19601f820116820180604052508101906106e39190611ee3565b90505f60015f9054906101000a90046001600160a01b03166001600160a01b031663c7c4ff466040518163ffffffff1660e01b8152600401602060405180830381865afa158015610736573d5f803e3d5ffd5b505050506040513d601f19601f8201168201806040525081019061075a9190611f02565b6001549091506001600160a01b03163314801590610776575081155b1561079f573360405163472511eb60e11b81526004016107969190611cd0565b60405180910390fd5b8180156107be5750806001600160a01b0316856001600160a01b031614155b806107e35750811580156107e35750806001600160a01b0316856001600160a01b0316145b1561080157604051631e4ec46b60e01b815260040160405180910390fd5b806001600160a01b0316856001600160a01b031614158015610821575083155b806108505750806001600160a01b0316856001600160a01b03161480156108505750670de0b6b3a76400008411155b806108cd575060015f9054906101000a90046001600160a01b03166001600160a01b031663a968991b6040518163ffffffff1660e01b8152600401602060405180830381865afa1580156108a6573d5f803e3d5ffd5b505050506040513d601f19601f820116820180604052508101906108ca9190611f1d565b84115b156108eb5760405163162908e360e11b815260040160405180910390fd5b670de0b6b3a7640000341015610914576040516358d620b360e01b815260040160405180910390fd5b3460045f8282546109259190611f48565b90915550508115610947578360055f8282546109419190611f48565b90915550505b60068054905f61095683611f5b565b909155506040805160a0810182526001600160a01b038881168083526001600160601b03428116602080860191825234868801908152606087018d8152608088018e81525f8b81526003808652908b902099519551909616600160a01b02949097169390931787555160018701559051600286015592519301929092558251848152908101889052929550917f551fa75672f5eb70161a7f53a15a239a169b141a0240b4ab883166fbe8b5876f910160405180910390a2505092915050565b610a1d611821565b610a26826118b1565b610a3082826118c7565b5050565b5f610a3d61197a565b505f805160206120fa83398151915290565b5f610a586119c3565b905090565b60015f9054906101000a90046001600160a01b03166001600160a01b031663d0dbcd246040518163ffffffff1660e01b8152600401602060405180830381865afa158015610aad573d5f803e3d5ffd5b505050506040513d601f19601f82011682018060405250810190610ad19190611ee3565b15610af1573360405163472511eb60e11b81526004016107969190611cd0565b600154604051631d19f0c160e31b81526001600160a01b039091169063e8cf860890610b21903390600401611cd0565b602060405180830381865afa158015610b3c573d5f803e3d5ffd5b505050506040513d601f19601f82011682018060405250810190610b609190611ee3565b610b7f573360405163472511eb60e11b81526004016107969190611cd0565b600154604051631fb1c2c760e31b81526001600160a01b039091169063fd8e163890610bb19085908590600401611f9b565b602060405180830381865afa158015610bcc573d5f803e3d5ffd5b505050506040513d601f19601f82011682018060405250810190610bf09190611ee3565b15610c0e5760405163ccacce1760e01b815260040160405180910390fd5b600154604051633ab1e7d760e21b81525f916001600160a01b03169063eac79f5c90610c409086908690600401611f9b565b602060405180830381865afa158015610c5b573d5f803e3d5ffd5b505050506040513d601f19601f82011682018060405250810190610c7f9190611f1d565b90505f610c9c670de0b6b3a7640000678ac7230489e80000611f48565b905080821015610cac5750505050565b47821115610ccd5760405163162908e360e11b815260040160405180910390fd5b6001546001600160a01b0316634c98a2a98585610ce986611fb6565b6040518463ffffffff1660e01b8152600401610d0793929190611fd0565b5f604051808303815f87803b158015610d1e575f80fd5b505af1158015610d30573d5f803e3d5ffd5b5050505060015f9054906101000a90046001600160a01b03166001600160a01b031663c7c4ff466040518163ffffffff1660e01b8152600401602060405180830381865afa158015610d84573d5f803e3d5ffd5b505050506040513d601f19601f82011682018060405250810190610da89190611f02565b6001600160a01b031663ddf0b00983610dc9670de0b6b3a764000082611ff3565b6040518363ffffffff1660e01b8152600401610de791815260200190565b60206040518083038185885af1158015610e03573d5f803e3d5ffd5b50505050506040513d601f19601f82011682018060405250810190610e289190611f1d565b5060015f9054906101000a90046001600160a01b03166001600160a01b031663c7c4ff466040518163ffffffff1660e01b8152600401602060405180830381865afa158015610e79573d5f803e3d5ffd5b505050506040513d601f19601f82011682018060405250810190610e9d9190611f02565b6001600160a01b03167fab2246061d7b0dd3631d037e3f6da75782ae489eeb9f6af878a4b25df9b07c7783604051610ed791815260200190565b60405180910390a250505050565b5f60045447610a589190611ff3565b5f80610efe6116e9565b5f948552602090815260408086206001600160a01b03959095168652939052505090205460ff1690565b600154604051631d19f0c160e31b81525f916001600160a01b03169063e8cf860890610f58903390600401611cd0565b602060405180830381865afa158015610f73573d5f803e3d5ffd5b505050506040513d601f19601f82011682018060405250810190610f979190611ee3565b90508115806110145750600154604051633ab1e7d760e21b815283916001600160a01b03169063eac79f5c90610fd39088908890600401611f9b565b602060405180830381865afa158015610fee573d5f803e3d5ffd5b505050506040513d601f19601f820116820180604052508101906110129190611f1d565b105b8061102b5750611028633b9aca008361201a565b15155b8061104957506001600160401b03611047633b9aca008461202d565b115b156110675760405163162908e360e11b815260040160405180910390fd5b6007545f80845b8015611210576007545f818152600360208181526040808420815160a08101835281546001600160a01b0381168252600160a01b90046001600160601b031693810193909352600181015491830191909152600281015460608301819052920154608082015292955090036110f65760405163162908e360e11b815260040160405180910390fd5b8515801561111a5750602081015162093a8042919091036001600160601b03161015155b1561113a573360405163472511eb60e11b81526004016107969190611cd0565b60408101511561115c5760408101516111539084611f48565b5f604083015292505b5f8160600151831161116e5782611174565b81606001515b905080826060018181516111889190611ff3565b90525060608201515f036111ab5760078054905f6111a583611f5b565b91905055505b5f858152600360208181526040928390208551918601516001600160601b0316600160a01b026001600160a01b039092169190911781559184015160018301556060840151600283015560808401519101556112078184611ff3565b9250505061106e565b8160045f8282546112219190611ff3565b9091555061123190503483611f48565b9150475f6001338b8b611248633b9aca008d61202d565b60405160200161125c959493929190612040565b60408051601f19818403018152908290525f8054919350916001600160a01b0390911690869061128d908590612093565b5f6040518083038185875af1925050503d805f81146112c7576040519150601f19603f3d011682016040523d82523d5f602084013e6112cc565b606091505b50509050806112ee57604051633204506f60e01b815260040160405180910390fd5b5f6112f94785611ff3565b6113039087611ff3565b6001549091506001600160a01b0316634c98a2a98d8d6113228e611fb6565b6040518463ffffffff1660e01b815260040161134093929190611fd0565b5f604051808303815f87803b158015611357575f80fd5b505af1158015611369573d5f803e3d5ffd5b505050505f81111561137f5761137f33826119de565b7f2701a2c325a07573779e704c7cbb09080e24f6f2cc5fbd505ff501484e9720948c8c8a8a8e6040516113b69594939291906120a9565b60405180910390a1505050505050505050505050565b600854600154604080516363e27fa360e11b815290515f926001600160a01b03169163c7c4ff469160048083019260209291908290030181865afa158015611416573d5f803e3d5ffd5b505050506040513d601f19601f8201168201806040525081019061143a9190611f02565b5f83815260036020818152604092839020835160a08101855281546001600160a01b0381168252600160a01b90046001600160601b031692810192909252600181015493820193909352600283015460608201819052929091015460808201529192501515806114ac57506080810151155b156114ca5760405163162908e360e11b815260040160405180910390fd5b60808101516114d7610ee5565b8111156114f757604051633dce448b60e11b815260040160405180910390fd5b80826080018181516115099190611ff3565b90525060088054905f61151b83611f5b565b90915550505f848152600360208181526040928390208551918601516001600160601b0316600160a01b026001600160a01b0392831690811782559386015160018201556060860151600282015560808601519201919091558416900361161a578060055f82825461158d9190611ff3565b909155505081516001600160a01b031663ddf0b009826115b5670de0b6b3a764000082611ff3565b6040518363ffffffff1660e01b81526004016115d391815260200190565b60206040518083038185885af11580156115ef573d5f803e3d5ffd5b50505050506040513d601f19601f820116820180604052508101906116149190611f1d565b5061167c565b600254825160405163038ee1cb60e01b81526001600160a01b039092169163038ee1cb91849161164d9190600401611cd0565b5f604051808303818588803b158015611664575f80fd5b505af1158015611676573d5f803e3d5ffd5b50505050505b815160408051868152602081018490526001600160a01b03909216917f21f25988db8010b1032d679f7f9edfbfc4a79b6159e9025a0186b535fe6d2afb9101610ed7565b6116c9826105f8565b6116d2816116dc565b61063283836117ab565b6116e68133611a2c565b50565b7f02dd7bc7dec4dceedda775e58dd541e08a116c6c53815c0bd028192f7b62680090565b5f806117176116e9565b90506117238484610ef4565b6117a2575f848152602082815260408083206001600160a01b03871684529091529020805460ff191660011790556117583390565b6001600160a01b0316836001600160a01b0316857f2f8788117e7eff1d82e926ec794901d17c78024a50270940304540a733656f0d60405160405180910390a46001915050610571565b5f915050610571565b5f806117b56116e9565b90506117c18484610ef4565b156117a2575f848152602082815260408083206001600160a01b0387168085529252808320805460ff1916905551339287917ff6391f5c32d9c69d2a47ea670b442974b53935d1edc7fd64eb21e047a839171b9190a46001915050610571565b306001600160a01b037f000000000000000000000000000000000000000000000000000000000000000016148061189157507f00000000000000000000000000000000000000000000000000000000000000006001600160a01b03166118856119c3565b6001600160a01b031614155b156118af5760405163703e46dd60e11b815260040160405180910390fd5b565b6116e65f805160206120da8339815191526116dc565b816001600160a01b03166352d1902d6040518163ffffffff1660e01b8152600401602060405180830381865afa925050508015611921575060408051601f3d908101601f1916820190925261191e91810190611f1d565b60015b6119405781604051634c9c8ce360e01b81526004016107969190611cd0565b5f805160206120fa833981519152811461197057604051632a87526960e21b815260048101829052602401610796565b61066b8383611a65565b306001600160a01b037f000000000000000000000000000000000000000000000000000000000000000016146118af5760405163703e46dd60e11b815260040160405180910390fd5b5f805160206120fa833981519152546001600160a01b031690565b5f805f805f85875af190508061066b5760405162461bcd60e51b815260206004820152601360248201527211551217d514905394d1915497d19052531151606a1b6044820152606401610796565b611a368282610ef4565b610a305760405163e2517d3f60e01b81526001600160a01b038216600482015260248101839052604401610796565b611a6e82611aba565b6040516001600160a01b038316907fbc7cd75a20ee27fd9adebab32041f755214dbc6bffa90cc0225b39da2e5c2d3b905f90a2805115611ab25761066b8282611b14565b610a30611b86565b806001600160a01b03163b5f03611ae65780604051634c9c8ce360e01b81526004016107969190611cd0565b5f805160206120fa83398151915280546001600160a01b0319166001600160a01b0392909216919091179055565b60605f80846001600160a01b031684604051611b309190612093565b5f60405180830381855af49150503d805f8114611b68576040519150601f19603f3d011682016040523d82523d5f602084013e611b6d565b606091505b5091509150611b7d858383611ba5565b95945050505050565b34156118af5760405163b398979f60e01b815260040160405180910390fd5b606082611bba57611bb582611bfb565b611bf4565b8151158015611bd157506001600160a01b0384163b155b15611bf15783604051639996b31560e01b81526004016107969190611cd0565b50805b9392505050565b805115611c0b5780518082602001fd5b604051630a12f52160e11b815260040160405180910390fd5b5f60208284031215611c34575f80fd5b81356001600160e01b031981168114611bf4575f80fd5b6001600160a01b03811681146116e6575f80fd5b5f8060408385031215611c70575f80fd5b8235611c7b81611c4b565b91506020830135611c8b81611c4b565b809150509250929050565b5f60208284031215611ca6575f80fd5b5035919050565b5f8060408385031215611cbe575f80fd5b823591506020830135611c8b81611c4b565b6001600160a01b0391909116815260200190565b5f8060408385031215611cf5575f80fd5b8235611d0081611c4b565b946020939093013593505050565b634e487b7160e01b5f52604160045260245ffd5b5f8060408385031215611d33575f80fd5b8235611d3e81611c4b565b915060208301356001600160401b03811115611d58575f80fd5b8301601f81018513611d68575f80fd5b80356001600160401b03811115611d8157611d81611d0e565b604051601f8201601f19908116603f011681016001600160401b0381118282101715611daf57611daf611d0e565b604052818152828201602001871015611dc6575f80fd5b816020840160208301375f602083830101528093505050509250929050565b5f8083601f840112611df5575f80fd5b5081356001600160401b03811115611e0b575f80fd5b602083019150836020828501011115611e22575f80fd5b9250929050565b5f8060208385031215611e3a575f80fd5b82356001600160401b03811115611e4f575f80fd5b611e5b85828601611de5565b90969095509350505050565b5f805f60408486031215611e79575f80fd5b83356001600160401b03811115611e8e575f80fd5b611e9a86828701611de5565b909790965060209590950135949350505050565b602081525f82518060208401528060208501604085015e5f604082850101526040601f19601f83011684010191505092915050565b5f60208284031215611ef3575f80fd5b81518015158114611bf4575f80fd5b5f60208284031215611f12575f80fd5b8151611bf481611c4b565b5f60208284031215611f2d575f80fd5b5051919050565b634e487b7160e01b5f52601160045260245ffd5b8082018082111561057157610571611f34565b5f60018201611f6c57611f6c611f34565b5060010190565b81835281816020850137505f828201602090810191909152601f909101601f19169091010190565b602081525f611fae602083018486611f73565b949350505050565b5f600160ff1b8201611fca57611fca611f34565b505f0390565b604081525f611fe3604083018587611f73565b9050826020830152949350505050565b8181038181111561057157610571611f34565b634e487b7160e01b5f52601260045260245ffd5b5f8261202857612028612006565b500690565b5f8261203b5761203b612006565b500490565b60f886901b6001600160f81b0319168152606085901b6001600160601b03191660018201528284601583013760c09190911b6001600160c01b03191660159190920190810191909152601d019392505050565b5f82518060208501845e5f920191825250919050565b608081525f6120bc608083018789611f73565b60208301959095525060408101929092526060909101529291505056fe71840dc4906352362b0cdaf79870196c8e42acafade72d5d5a6d59291253ceb1360894a13ba1a3210667c828492db98dca3e2076cc3735a920a3ca505d382bbca264697066735822122079d095b290c78068d9aaa50109d400cc4ef42d7330a891fe21556f6e6881996264736f6c634300081a0033","linkReferences":{}},"methodIdentifiers":{"DEFAULT_ADMIN_ROLE()":"a217fddf","GOVERNANCE_ROLE()":"f36c8f5c","InfraredBERA()":"3c31fcdc","KEEPER_ROLE()":"364bc15a","UPGRADE_INTERFACE_VERSION()":"ad3cb1cc","WITHDRAW_PRECOMPILE()":"c6c7a052","WITHDRAW_REQUEST_TYPE()":"60e3fb6c","claimor()":"ef6928a4","currentImplementation()":"d8bd5c29","execute(bytes,uint256)":"ab5898e8","fees()":"9af1d35a","getRoleAdmin(bytes32)":"248a9ca3","grantRole(bytes32,address)":"2f2ff15d","hasRole(bytes32,address)":"91d14854","implementation()":"5c60da1b","initializeV2(address,address)":"0840ba72","nonceProcess()":"c96752cd","nonceRequest()":"a78138d2","nonceSubmit()":"421a0b47","process()":"c33fb877","proxiableUUID()":"52d1902d","queue(address,uint256)":"44287113","rebalancing()":"959b13d9","renounceRole(bytes32,address)":"36568abe","requests(uint256)":"81d12c58","reserves()":"75172a8b","revokeRole(bytes32,address)":"d547741f","supportsInterface(bytes4)":"01ffc9a7","sweep(bytes)":"73828198","upgradeToAndCall(address,bytes)":"4f1ef286"},"id":109}