{"abi":[{"type":"constructor","inputs":[{"name":"_bgt","type":"address","internalType":"address"},{"name":"_admin","type":"address","internalType":"address"},{"name":"_minter","type":"address","internalType":"address"},{"name":"_pauser","type":"address","internalType":"address"}],"stateMutability":"nonpayable"},{"type":"function","name":"DEFAULT_ADMIN_ROLE","inputs":[],"outputs":[{"name":"","type":"bytes32","internalType":"bytes32"}],"stateMutability":"view"},{"type":"function","name":"MINTER_ROLE","inputs":[],"outputs":[{"name":"","type":"bytes32","internalType":"bytes32"}],"stateMutability":"view"},{"type":"function","name":"PAUSER_ROLE","inputs":[],"outputs":[{"name":"","type":"bytes32","internalType":"bytes32"}],"stateMutability":"view"},{"type":"function","name":"allowance","inputs":[{"name":"owner","type":"address","internalType":"address"},{"name":"spender","type":"address","internalType":"address"}],"outputs":[{"name":"","type":"uint256","internalType":"uint256"}],"stateMutability":"view"},{"type":"function","name":"approve","inputs":[{"name":"spender","type":"address","internalType":"address"},{"name":"value","type":"uint256","internalType":"uint256"}],"outputs":[{"name":"","type":"bool","internalType":"bool"}],"stateMutability":"nonpayable"},{"type":"function","name":"balanceOf","inputs":[{"name":"account","type":"address","internalType":"address"}],"outputs":[{"name":"","type":"uint256","internalType":"uint256"}],"stateMutability":"view"},{"type":"function","name":"bgt","inputs":[],"outputs":[{"name":"","type":"address","internalType":"address"}],"stateMutability":"view"},{"type":"function","name":"burn","inputs":[{"name":"value","type":"uint256","internalType":"uint256"}],"outputs":[],"stateMutability":"nonpayable"},{"type":"function","name":"burnFrom","inputs":[{"name":"account","type":"address","internalType":"address"},{"name":"value","type":"uint256","internalType":"uint256"}],"outputs":[],"stateMutability":"nonpayable"},{"type":"function","name":"decimals","inputs":[],"outputs":[{"name":"","type":"uint8","internalType":"uint8"}],"stateMutability":"view"},{"type":"function","name":"getRoleAdmin","inputs":[{"name":"role","type":"bytes32","internalType":"bytes32"}],"outputs":[{"name":"","type":"bytes32","internalType":"bytes32"}],"stateMutability":"view"},{"type":"function","name":"getRoleMember","inputs":[{"name":"role","type":"bytes32","internalType":"bytes32"},{"name":"index","type":"uint256","internalType":"uint256"}],"outputs":[{"name":"","type":"address","internalType":"address"}],"stateMutability":"view"},{"type":"function","name":"getRoleMemberCount","inputs":[{"name":"role","type":"bytes32","internalType":"bytes32"}],"outputs":[{"name":"","type":"uint256","internalType":"uint256"}],"stateMutability":"view"},{"type":"function","name":"grantRole","inputs":[{"name":"role","type":"bytes32","internalType":"bytes32"},{"name":"account","type":"address","internalType":"address"}],"outputs":[],"stateMutability":"nonpayable"},{"type":"function","name":"hasRole","inputs":[{"name":"role","type":"bytes32","internalType":"bytes32"},{"name":"account","type":"address","internalType":"address"}],"outputs":[{"name":"","type":"bool","internalType":"bool"}],"stateMutability":"view"},{"type":"function","name":"mint","inputs":[{"name":"to","type":"address","internalType":"address"},{"name":"amount","type":"uint256","internalType":"uint256"}],"outputs":[],"stateMutability":"nonpayable"},{"type":"function","name":"name","inputs":[],"outputs":[{"name":"","type":"string","internalType":"string"}],"stateMutability":"view"},{"type":"function","name":"pause","inputs":[],"outputs":[],"stateMutability":"nonpayable"},{"type":"function","name":"paused","inputs":[],"outputs":[{"name":"","type":"bool","internalType":"bool"}],"stateMutability":"view"},{"type":"function","name":"renounceRole","inputs":[{"name":"role","type":"bytes32","internalType":"bytes32"},{"name":"callerConfirmation","type":"address","internalType":"address"}],"outputs":[],"stateMutability":"nonpayable"},{"type":"function","name":"revokeRole","inputs":[{"name":"role","type":"bytes32","internalType":"bytes32"},{"name":"account","type":"address","internalType":"address"}],"outputs":[],"stateMutability":"nonpayable"},{"type":"function","name":"supportsInterface","inputs":[{"name":"interfaceId","type":"bytes4","internalType":"bytes4"}],"outputs":[{"name":"","type":"bool","internalType":"bool"}],"stateMutability":"view"},{"type":"function","name":"symbol","inputs":[],"outputs":[{"name":"","type":"string","internalType":"string"}],"stateMutability":"view"},{"type":"function","name":"totalSupply","inputs":[],"outputs":[{"name":"","type":"uint256","internalType":"uint256"}],"stateMutability":"view"},{"type":"function","name":"transfer","inputs":[{"name":"to","type":"address","internalType":"address"},{"name":"value","type":"uint256","internalType":"uint256"}],"outputs":[{"name":"","type":"bool","internalType":"bool"}],"stateMutability":"nonpayable"},{"type":"function","name":"transferFrom","inputs":[{"name":"from","type":"address","internalType":"address"},{"name":"to","type":"address","internalType":"address"},{"name":"value","type":"uint256","internalType":"uint256"}],"outputs":[{"name":"","type":"bool","internalType":"bool"}],"stateMutability":"nonpayable"},{"type":"function","name":"unpause","inputs":[],"outputs":[],"stateMutability":"nonpayable"},{"type":"event","name":"Approval","inputs":[{"name":"owner","type":"address","indexed":true,"internalType":"address"},{"name":"spender","type":"address","indexed":true,"internalType":"address"},{"name":"value","type":"uint256","indexed":false,"internalType":"uint256"}],"anonymous":false},{"type":"event","name":"Paused","inputs":[{"name":"account","type":"address","indexed":false,"internalType":"address"}],"anonymous":false},{"type":"event","name":"RoleAdminChanged","inputs":[{"name":"role","type":"bytes32","indexed":true,"internalType":"bytes32"},{"name":"previousAdminRole","type":"bytes32","indexed":true,"internalType":"bytes32"},{"name":"newAdminRole","type":"bytes32","indexed":true,"internalType":"bytes32"}],"anonymous":false},{"type":"event","name":"RoleGranted","inputs":[{"name":"role","type":"bytes32","indexed":true,"internalType":"bytes32"},{"name":"account","type":"address","indexed":true,"internalType":"address"},{"name":"sender","type":"address","indexed":true,"internalType":"address"}],"anonymous":false},{"type":"event","name":"RoleRevoked","inputs":[{"name":"role","type":"bytes32","indexed":true,"internalType":"bytes32"},{"name":"account","type":"address","indexed":true,"internalType":"address"},{"name":"sender","type":"address","indexed":true,"internalType":"address"}],"anonymous":false},{"type":"event","name":"Transfer","inputs":[{"name":"from","type":"address","indexed":true,"internalType":"address"},{"name":"to","type":"address","indexed":true,"internalType":"address"},{"name":"value","type":"uint256","indexed":false,"internalType":"uint256"}],"anonymous":false},{"type":"event","name":"Unpaused","inputs":[{"name":"account","type":"address","indexed":false,"internalType":"address"}],"anonymous":false},{"type":"error","name":"AccessControlBadConfirmation","inputs":[]},{"type":"error","name":"AccessControlUnauthorizedAccount","inputs":[{"name":"account","type":"address","internalType":"address"},{"name":"neededRole","type":"bytes32","internalType":"bytes32"}]},{"type":"error","name":"ERC20InsufficientAllowance","inputs":[{"name":"spender","type":"address","internalType":"address"},{"name":"allowance","type":"uint256","internalType":"uint256"},{"name":"needed","type":"uint256","internalType":"uint256"}]},{"type":"error","name":"ERC20InsufficientBalance","inputs":[{"name":"sender","type":"address","internalType":"address"},{"name":"balance","type":"uint256","internalType":"uint256"},{"name":"needed","type":"uint256","internalType":"uint256"}]},{"type":"error","name":"ERC20InvalidApprover","inputs":[{"name":"approver","type":"address","internalType":"address"}]},{"type":"error","name":"ERC20InvalidReceiver","inputs":[{"name":"receiver","type":"address","internalType":"address"}]},{"type":"error","name":"ERC20InvalidSender","inputs":[{"name":"sender","type":"address","internalType":"address"}]},{"type":"error","name":"ERC20InvalidSpender","inputs":[{"name":"spender","type":"address","internalType":"address"}]},{"type":"error","name":"EnforcedPause","inputs":[]},{"type":"error","name":"ExpectedPause","inputs":[]},{"type":"error","name":"ZeroAddress","inputs":[]}],"bytecode":{"object":"0x60a060405234801561000f575f80fd5b5060405161159138038061159183398101604081905261002e9161028d565b6040518060400160405280600c81526020016b125b999c985c9959081091d560a21b815250604051806040016040528060048152602001631a5091d560e21b815250848484848481600590816100849190610376565b5060066100918282610376565b50506007805460ff19169055506100a85f84610141565b506100d37f9f2df0fed2c77648de5860a4cc508cd0818c85b8b8a1ab4ceeef8d981c8956a683610141565b506100fe7f65d7a28e3265b37a6474929f336521b332c1681b933f6cb9f3376673440d862a82610141565b5050506001600160a01b038716925061012d9150505760405163d92e233d60e01b815260040160405180910390fd5b5050506001600160a01b0316608052610430565b5f8061014d8484610177565b9050801561016e575f84815260016020526040902061016c908461021e565b505b90505b92915050565b5f828152602081815260408083206001600160a01b038516845290915281205460ff16610217575f838152602081815260408083206001600160a01b03861684529091529020805460ff191660011790556101cf3390565b6001600160a01b0316826001600160a01b0316847f2f8788117e7eff1d82e926ec794901d17c78024a50270940304540a733656f0d60405160405180910390a4506001610171565b505f610171565b5f61016e836001600160a01b0384165f81815260018301602052604081205461021757508154600181810184555f848152602080822090930184905584548482528286019093526040902091909155610171565b80516001600160a01b0381168114610288575f80fd5b919050565b5f805f80608085870312156102a0575f80fd5b6102a985610272565b93506102b760208601610272565b92506102c560408601610272565b91506102d360608601610272565b905092959194509250565b634e487b7160e01b5f52604160045260245ffd5b600181811c9082168061030657607f821691505b60208210810361032457634e487b7160e01b5f52602260045260245ffd5b50919050565b601f82111561037157805f5260205f20601f840160051c8101602085101561034f5750805b601f840160051c820191505b8181101561036e575f815560010161035b565b50505b505050565b81516001600160401b0381111561038f5761038f6102de565b6103a38161039d84546102f2565b8461032a565b6020601f8211600181146103d5575f83156103be5750848201515b5f19600385901b1c1916600184901b17845561036e565b5f84815260208120601f198516915b8281101561040457878501518255602094850194600190920191016103e4565b508482101561042157868401515f19600387901b60f8161c191681555b50505050600190811b01905550565b6080516111496104485f395f6102c601526111495ff3fe608060405234801561000f575f80fd5b5060043610610147575f3560e01c806301ffc9a71461014b57806306fdde0314610173578063095ea7b31461018857806318160ddd1461019b57806323b872dd146101ad578063248a9ca3146101c05780632f2ff15d146101d3578063313ce567146101e857806336568abe146101f75780633f4ba83a1461020a57806340c10f191461021257806342966c68146102255780635c975abb1461023857806370a082311461024357806379cc67901461026b5780638456cb591461027e5780639010d07c1461028657806391d14854146102a657806395d89b41146102b95780639a6c31c4146102c1578063a217fddf146102e8578063a9059cbb146102ef578063ca15c87314610302578063d539139314610315578063d547741f14610329578063dd62ed3e1461033c578063e63ab1e91461034f575b5f80fd5b61015e610159366004610e69565b610363565b60405190151581526020015b60405180910390f35b61017b61038d565b60405161016a9190610e90565b61015e610196366004610ee0565b61041d565b6004545b60405190815260200161016a565b61015e6101bb366004610f08565b610434565b61019f6101ce366004610f42565b610457565b6101e66101e1366004610f59565b61046b565b005b6040516012815260200161016a565b6101e6610205366004610f59565b61048d565b6101e66104c5565b6101e6610220366004610ee0565b610546565b6101e6610233366004610f42565b6105c3565b60075460ff1661015e565b61019f610251366004610f83565b6001600160a01b03165f9081526002602052604090205490565b6101e6610279366004610ee0565b6105d0565b6101e66105e5565b610299610294366004610f9c565b61065d565b60405161016a9190610fbc565b61015e6102b4366004610f59565b61067b565b61017b6106a3565b6102997f000000000000000000000000000000000000000000000000000000000000000081565b61019f5f81565b61015e6102fd366004610ee0565b6106b2565b61019f610310366004610f42565b6106bf565b61019f5f805160206110f483398151915281565b6101e6610337366004610f59565b6106d5565b61019f61034a366004610fd0565b6106f1565b61019f5f805160206110d483398151915281565b5f6001600160e01b03198216635a05180f60e01b148061038757506103878261071b565b92915050565b60606005805461039c90610ff8565b80601f01602080910402602001604051908101604052809291908181526020018280546103c890610ff8565b80156104135780601f106103ea57610100808354040283529160200191610413565b820191905f5260205f20905b8154815290600101906020018083116103f657829003601f168201915b5050505050905090565b5f3361042a81858561074f565b5060019392505050565b5f3361044185828561075c565b61044c8585856107a6565b506001949350505050565b5f9081526020819052604090206001015490565b61047482610457565b61047d81610803565b610487838361080d565b50505050565b6001600160a01b03811633146104b65760405163334bd91960e11b815260040160405180910390fd5b6104c08282610840565b505050565b6104dc5f805160206110d48339815191523361067b565b61053c5760405162461bcd60e51b815260206004820152603960248201525f805160206110b483398151915260448201527876652070617573657220726f6c6520746f20756e706175736560381b60648201526084015b60405180910390fd5b61054461086b565b565b61055d5f805160206110f48339815191523361067b565b6105b55760405162461bcd60e51b815260206004820152603660248201525f805160206110b48339815191526044820152751d99481b5a5b9d195c881c9bdb19481d1bc81b5a5b9d60521b6064820152608401610533565b6105bf82826108b7565b5050565b6105cd33826108eb565b50565b6105db82338361075c565b6105bf82826108eb565b6105fc5f805160206110d48339815191523361067b565b6106555760405162461bcd60e51b815260206004820152603760248201525f805160206110b483398151915260448201527676652070617573657220726f6c6520746f20706175736560481b6064820152608401610533565b61054461091f565b5f828152600160205260408120610674908361095c565b9392505050565b5f918252602082815260408084206001600160a01b0393909316845291905290205460ff1690565b60606006805461039c90610ff8565b5f3361042a8185856107a6565b5f81815260016020526040812061038790610967565b6106de82610457565b6106e781610803565b6104878383610840565b6001600160a01b039182165f90815260036020908152604080832093909416825291909152205490565b5f6001600160e01b03198216637965db0b60e01b148061038757506301ffc9a760e01b6001600160e01b0319831614610387565b6104c08383836001610970565b5f61076784846106f1565b90505f198114610487578181101561079857828183604051637dc7a0d960e11b815260040161053393929190611030565b61048784848484035f610970565b6001600160a01b0383166107cf575f604051634b637e8f60e11b81526004016105339190610fbc565b6001600160a01b0382166107f8575f60405163ec442f0560e01b81526004016105339190610fbc565b6104c0838383610a42565b6105cd8133610a55565b5f806108198484610a8e565b90508015610674575f8481526001602052604090206108389084610b1d565b509392505050565b5f8061084c8484610b31565b90508015610674575f8481526001602052604090206108389084610b9a565b610873610bae565b6007805460ff191690557f5db9ee0a495bf2e6ff9c91a7834c1ba4fdd244a5e8aa4e537bd38aeae4b073aa335b6040516108ad9190610fbc565b60405180910390a1565b6001600160a01b0382166108e0575f60405163ec442f0560e01b81526004016105339190610fbc565b6105bf5f8383610a42565b6001600160a01b038216610914575f604051634b637e8f60e11b81526004016105339190610fbc565b6105bf825f83610a42565b610927610bd1565b6007805460ff191660011790557f62e78cea01bee320cd4e420270b5ea74000d11b0c9f74754ebdbfc544b05a2586108a03390565b5f6106748383610bf5565b5f610387825490565b6001600160a01b038416610999575f60405163e602df0560e01b81526004016105339190610fbc565b6001600160a01b0383166109c2575f604051634a1406b160e11b81526004016105339190610fbc565b6001600160a01b038085165f908152600360209081526040808320938716835292905220829055801561048757826001600160a01b0316846001600160a01b03167f8c5be1e5ebec7d5bd14f71427d1e84f3dd0314c0f7b2291e5b200ac8c7c3b92584604051610a3491815260200190565b60405180910390a350505050565b610a4a610bd1565b6104c0838383610c1b565b610a5f828261067b565b6105bf5760405163e2517d3f60e01b81526001600160a01b038216600482015260248101839052604401610533565b5f610a99838361067b565b610b16575f838152602081815260408083206001600160a01b03861684529091529020805460ff19166001179055610ace3390565b6001600160a01b0316826001600160a01b0316847f2f8788117e7eff1d82e926ec794901d17c78024a50270940304540a733656f0d60405160405180910390a4506001610387565b505f610387565b5f610674836001600160a01b038416610c2e565b5f610b3c838361067b565b15610b16575f838152602081815260408083206001600160a01b0386168085529252808320805460ff1916905551339286917ff6391f5c32d9c69d2a47ea670b442974b53935d1edc7fd64eb21e047a839171b9190a4506001610387565b5f610674836001600160a01b038416610c73565b60075460ff1661054457604051638dfc202b60e01b815260040160405180910390fd5b60075460ff16156105445760405163d93c066560e01b815260040160405180910390fd5b5f825f018281548110610c0a57610c0a611051565b905f5260205f200154905092915050565b610c23610bd1565b6104c0838383610d56565b5f818152600183016020526040812054610b1657508154600181810184555f848152602080822090930184905584548482528286019093526040902091909155610387565b5f8181526001830160205260408120548015610d4d575f610c95600183611079565b85549091505f90610ca890600190611079565b9050808214610d07575f865f018281548110610cc657610cc6611051565b905f5260205f200154905080875f018481548110610ce657610ce6611051565b5f918252602080832090910192909255918252600188019052604090208390555b8554869080610d1857610d1861108c565b600190038181905f5260205f20015f90559055856001015f8681526020019081526020015f205f905560019350505050610387565b5f915050610387565b6001600160a01b038316610d80578060045f828254610d7591906110a0565b90915550610ddd9050565b6001600160a01b0383165f9081526002602052604090205481811015610dbf5783818360405163391434e360e21b815260040161053393929190611030565b6001600160a01b0384165f9081526002602052604090209082900390555b6001600160a01b038216610df957600480548290039055610e17565b6001600160a01b0382165f9081526002602052604090208054820190555b816001600160a01b0316836001600160a01b03167fddf252ad1be2c89b69c2b068fc378daa952ba7f163c4a11628f55a4df523b3ef83604051610e5c91815260200190565b60405180910390a3505050565b5f60208284031215610e79575f80fd5b81356001600160e01b031981168114610674575f80fd5b602081525f82518060208401528060208501604085015e5f604082850101526040601f19601f83011684010191505092915050565b80356001600160a01b0381168114610edb575f80fd5b919050565b5f8060408385031215610ef1575f80fd5b610efa83610ec5565b946020939093013593505050565b5f805f60608486031215610f1a575f80fd5b610f2384610ec5565b9250610f3160208501610ec5565b929592945050506040919091013590565b5f60208284031215610f52575f80fd5b5035919050565b5f8060408385031215610f6a575f80fd5b82359150610f7a60208401610ec5565b90509250929050565b5f60208284031215610f93575f80fd5b61067482610ec5565b5f8060408385031215610fad575f80fd5b50508035926020909101359150565b6001600160a01b0391909116815260200190565b5f8060408385031215610fe1575f80fd5b610fea83610ec5565b9150610f7a60208401610ec5565b600181811c9082168061100c57607f821691505b60208210810361102a57634e487b7160e01b5f52602260045260245ffd5b50919050565b6001600160a01b039390931683526020830191909152604082015260600190565b634e487b7160e01b5f52603260045260245ffd5b634e487b7160e01b5f52601160045260245ffd5b8181038181111561038757610387611065565b634e487b7160e01b5f52603160045260245ffd5b808201808211156103875761038761106556fe45524332305072657365744d696e7465725061757365723a206d75737420686165d7a28e3265b37a6474929f336521b332c1681b933f6cb9f3376673440d862a9f2df0fed2c77648de5860a4cc508cd0818c85b8b8a1ab4ceeef8d981c8956a6a2646970667358221220b0d1de68cf3b588eeeac6fd6682fa01b81a26b51c0f4846b8b8173329c15375464736f6c634300081a0033","linkReferences":{}},"methodIdentifiers":{"DEFAULT_ADMIN_ROLE()":"a217fddf","MINTER_ROLE()":"d5391393","PAUSER_ROLE()":"e63ab1e9","allowance(address,address)":"dd62ed3e","approve(address,uint256)":"095ea7b3","balanceOf(address)":"70a08231","bgt()":"9a6c31c4","burn(uint256)":"42966c68","burnFrom(address,uint256)":"79cc6790","decimals()":"313ce567","getRoleAdmin(bytes32)":"248a9ca3","getRoleMember(bytes32,uint256)":"9010d07c","getRoleMemberCount(bytes32)":"ca15c873","grantRole(bytes32,address)":"2f2ff15d","hasRole(bytes32,address)":"91d14854","mint(address,uint256)":"40c10f19","name()":"06fdde03","pause()":"8456cb59","paused()":"5c975abb","renounceRole(bytes32,address)":"36568abe","revokeRole(bytes32,address)":"d547741f","supportsInterface(bytes4)":"01ffc9a7","symbol()":"95d89b41","totalSupply()":"18160ddd","transfer(address,uint256)":"a9059cbb","transferFrom(address,address,uint256)":"23b872dd","unpause()":"3f4ba83a"},"id":75}