{"abi":[{"type":"constructor","inputs":[{"name":"_infrared","type":"address","internalType":"address"}],"stateMutability":"nonpayable"},{"type":"function","name":"DEFAULT_ADMIN_ROLE","inputs":[],"outputs":[{"name":"","type":"bytes32","internalType":"bytes32"}],"stateMutability":"view"},{"type":"function","name":"GOVERNANCE_ROLE","inputs":[],"outputs":[{"name":"","type":"bytes32","internalType":"bytes32"}],"stateMutability":"view"},{"type":"function","name":"KEEPER_ROLE","inputs":[],"outputs":[{"name":"","type":"bytes32","internalType":"bytes32"}],"stateMutability":"view"},{"type":"function","name":"UPGRADE_INTERFACE_VERSION","inputs":[],"outputs":[{"name":"","type":"string","internalType":"string"}],"stateMutability":"view"},{"type":"function","name":"bribeVaults","inputs":[{"name":"","type":"address","internalType":"address"}],"outputs":[{"name":"","type":"address","internalType":"address"}],"stateMutability":"view"},{"type":"function","name":"claimBribes","inputs":[{"name":"_bribes","type":"address[]","internalType":"address[]"},{"name":"_tokens","type":"address[][]","internalType":"address[][]"},{"name":"_tokenId","type":"uint256","internalType":"uint256"}],"outputs":[],"stateMutability":"nonpayable"},{"type":"function","name":"claimFees","inputs":[{"name":"_tokens","type":"address[]","internalType":"address[]"},{"name":"_tokenId","type":"uint256","internalType":"uint256"}],"outputs":[],"stateMutability":"nonpayable"},{"type":"function","name":"createBribeVault","inputs":[{"name":"_stakingToken","type":"address","internalType":"address"},{"name":"_rewards","type":"address[]","internalType":"address[]"}],"outputs":[{"name":"","type":"address","internalType":"address"}],"stateMutability":"nonpayable"},{"type":"function","name":"currentImplementation","inputs":[],"outputs":[{"name":"","type":"address","internalType":"address"}],"stateMutability":"view"},{"type":"function","name":"depositManaged","inputs":[{"name":"_tokenId","type":"uint256","internalType":"uint256"},{"name":"_mTokenId","type":"uint256","internalType":"uint256"}],"outputs":[],"stateMutability":"nonpayable"},{"type":"function","name":"epochNext","inputs":[{"name":"_timestamp","type":"uint256","internalType":"uint256"}],"outputs":[{"name":"","type":"uint256","internalType":"uint256"}],"stateMutability":"pure"},{"type":"function","name":"epochStart","inputs":[{"name":"_timestamp","type":"uint256","internalType":"uint256"}],"outputs":[{"name":"","type":"uint256","internalType":"uint256"}],"stateMutability":"pure"},{"type":"function","name":"epochVoteEnd","inputs":[{"name":"_timestamp","type":"uint256","internalType":"uint256"}],"outputs":[{"name":"","type":"uint256","internalType":"uint256"}],"stateMutability":"pure"},{"type":"function","name":"epochVoteStart","inputs":[{"name":"_timestamp","type":"uint256","internalType":"uint256"}],"outputs":[{"name":"","type":"uint256","internalType":"uint256"}],"stateMutability":"pure"},{"type":"function","name":"feeVault","inputs":[],"outputs":[{"name":"","type":"address","internalType":"address"}],"stateMutability":"view"},{"type":"function","name":"getRoleAdmin","inputs":[{"name":"role","type":"bytes32","internalType":"bytes32"}],"outputs":[{"name":"","type":"bytes32","internalType":"bytes32"}],"stateMutability":"view"},{"type":"function","name":"getStakingTokenWeights","inputs":[],"outputs":[{"name":"_stakingTokens","type":"address[]","internalType":"address[]"},{"name":"_weights","type":"uint256[]","internalType":"uint256[]"},{"name":"_totalWeight","type":"uint256","internalType":"uint256"}],"stateMutability":"view"},{"type":"function","name":"grantRole","inputs":[{"name":"role","type":"bytes32","internalType":"bytes32"},{"name":"account","type":"address","internalType":"address"}],"outputs":[],"stateMutability":"nonpayable"},{"type":"function","name":"hasRole","inputs":[{"name":"role","type":"bytes32","internalType":"bytes32"},{"name":"account","type":"address","internalType":"address"}],"outputs":[{"name":"","type":"bool","internalType":"bool"}],"stateMutability":"view"},{"type":"function","name":"implementation","inputs":[],"outputs":[{"name":"","type":"address","internalType":"address"}],"stateMutability":"view"},{"type":"function","name":"infrared","inputs":[],"outputs":[{"name":"","type":"address","internalType":"contract IInfrared"}],"stateMutability":"view"},{"type":"function","name":"initialize","inputs":[{"name":"_ve","type":"address","internalType":"address"},{"name":"_gov","type":"address","internalType":"address"},{"name":"_keeper","type":"address","internalType":"address"}],"outputs":[],"stateMutability":"nonpayable"},{"type":"function","name":"isAlive","inputs":[{"name":"","type":"address","internalType":"address"}],"outputs":[{"name":"","type":"bool","internalType":"bool"}],"stateMutability":"view"},{"type":"function","name":"isWhitelistedNFT","inputs":[{"name":"","type":"uint256","internalType":"uint256"}],"outputs":[{"name":"","type":"bool","internalType":"bool"}],"stateMutability":"view"},{"type":"function","name":"isWhitelistedToken","inputs":[{"name":"_token","type":"address","internalType":"address"}],"outputs":[{"name":"","type":"bool","internalType":"bool"}],"stateMutability":"view"},{"type":"function","name":"killBribeVault","inputs":[{"name":"_stakingToken","type":"address","internalType":"address"}],"outputs":[],"stateMutability":"nonpayable"},{"type":"function","name":"lastVoted","inputs":[{"name":"","type":"uint256","internalType":"uint256"}],"outputs":[{"name":"","type":"uint256","internalType":"uint256"}],"stateMutability":"view"},{"type":"function","name":"length","inputs":[],"outputs":[{"name":"","type":"uint256","internalType":"uint256"}],"stateMutability":"view"},{"type":"function","name":"maxVotingNum","inputs":[],"outputs":[{"name":"","type":"uint256","internalType":"uint256"}],"stateMutability":"view"},{"type":"function","name":"poke","inputs":[{"name":"_tokenId","type":"uint256","internalType":"uint256"}],"outputs":[],"stateMutability":"nonpayable"},{"type":"function","name":"proxiableUUID","inputs":[],"outputs":[{"name":"","type":"bytes32","internalType":"bytes32"}],"stateMutability":"view"},{"type":"function","name":"renounceRole","inputs":[{"name":"role","type":"bytes32","internalType":"bytes32"},{"name":"callerConfirmation","type":"address","internalType":"address"}],"outputs":[],"stateMutability":"nonpayable"},{"type":"function","name":"reset","inputs":[{"name":"_tokenId","type":"uint256","internalType":"uint256"}],"outputs":[],"stateMutability":"nonpayable"},{"type":"function","name":"reviveBribeVault","inputs":[{"name":"_stakingToken","type":"address","internalType":"address"}],"outputs":[],"stateMutability":"nonpayable"},{"type":"function","name":"revokeRole","inputs":[{"name":"role","type":"bytes32","internalType":"bytes32"},{"name":"account","type":"address","internalType":"address"}],"outputs":[],"stateMutability":"nonpayable"},{"type":"function","name":"setMaxVotingNum","inputs":[{"name":"_maxVotingNum","type":"uint256","internalType":"uint256"}],"outputs":[],"stateMutability":"nonpayable"},{"type":"function","name":"stakingTokenVote","inputs":[{"name":"","type":"uint256","internalType":"uint256"},{"name":"","type":"uint256","internalType":"uint256"}],"outputs":[{"name":"","type":"address","internalType":"address"}],"stateMutability":"view"},{"type":"function","name":"stakingTokens","inputs":[{"name":"","type":"uint256","internalType":"uint256"}],"outputs":[{"name":"","type":"address","internalType":"address"}],"stateMutability":"view"},{"type":"function","name":"supportsInterface","inputs":[{"name":"interfaceId","type":"bytes4","internalType":"bytes4"}],"outputs":[{"name":"","type":"bool","internalType":"bool"}],"stateMutability":"view"},{"type":"function","name":"totalWeight","inputs":[],"outputs":[{"name":"","type":"uint256","internalType":"uint256"}],"stateMutability":"view"},{"type":"function","name":"upgradeToAndCall","inputs":[{"name":"newImplementation","type":"address","internalType":"address"},{"name":"data","type":"bytes","internalType":"bytes"}],"outputs":[],"stateMutability":"payable"},{"type":"function","name":"usedWeights","inputs":[{"name":"","type":"uint256","internalType":"uint256"}],"outputs":[{"name":"","type":"uint256","internalType":"uint256"}],"stateMutability":"view"},{"type":"function","name":"ve","inputs":[],"outputs":[{"name":"","type":"address","internalType":"address"}],"stateMutability":"view"},{"type":"function","name":"vote","inputs":[{"name":"_tokenId","type":"uint256","internalType":"uint256"},{"name":"_stakingTokenVote","type":"address[]","internalType":"address[]"},{"name":"_weights","type":"uint256[]","internalType":"uint256[]"}],"outputs":[],"stateMutability":"nonpayable"},{"type":"function","name":"votes","inputs":[{"name":"","type":"uint256","internalType":"uint256"},{"name":"","type":"address","internalType":"address"}],"outputs":[{"name":"","type":"uint256","internalType":"uint256"}],"stateMutability":"view"},{"type":"function","name":"weights","inputs":[{"name":"","type":"address","internalType":"address"}],"outputs":[{"name":"","type":"uint256","internalType":"uint256"}],"stateMutability":"view"},{"type":"function","name":"whitelistNFT","inputs":[{"name":"_tokenId","type":"uint256","internalType":"uint256"},{"name":"_bool","type":"bool","internalType":"bool"}],"outputs":[],"stateMutability":"nonpayable"},{"type":"function","name":"withdrawManaged","inputs":[{"name":"_tokenId","type":"uint256","internalType":"uint256"}],"outputs":[],"stateMutability":"nonpayable"},{"type":"event","name":"Abstained","inputs":[{"name":"voter","type":"address","indexed":true,"internalType":"address"},{"name":"stakingToken","type":"address","indexed":true,"internalType":"address"},{"name":"tokenId","type":"uint256","indexed":true,"internalType":"uint256"},{"name":"weight","type":"uint256","indexed":false,"internalType":"uint256"},{"name":"totalWeight","type":"uint256","indexed":false,"internalType":"uint256"},{"name":"timestamp","type":"uint256","indexed":false,"internalType":"uint256"}],"anonymous":false},{"type":"event","name":"BribeVaultCreated","inputs":[{"name":"stakingToken","type":"address","indexed":false,"internalType":"address"},{"name":"bribeVault","type":"address","indexed":false,"internalType":"address"},{"name":"creator","type":"address","indexed":false,"internalType":"address"}],"anonymous":false},{"type":"event","name":"BribeVaultKilled","inputs":[{"name":"bribeVault","type":"address","indexed":true,"internalType":"address"}],"anonymous":false},{"type":"event","name":"BribeVaultRevived","inputs":[{"name":"bribeVault","type":"address","indexed":true,"internalType":"address"}],"anonymous":false},{"type":"event","name":"Initialized","inputs":[{"name":"version","type":"uint64","indexed":false,"internalType":"uint64"}],"anonymous":false},{"type":"event","name":"MaxVotingNumSet","inputs":[{"name":"maxVotingNum","type":"uint256","indexed":true,"internalType":"uint256"}],"anonymous":false},{"type":"event","name":"RoleAdminChanged","inputs":[{"name":"role","type":"bytes32","indexed":true,"internalType":"bytes32"},{"name":"previousAdminRole","type":"bytes32","indexed":true,"internalType":"bytes32"},{"name":"newAdminRole","type":"bytes32","indexed":true,"internalType":"bytes32"}],"anonymous":false},{"type":"event","name":"RoleGranted","inputs":[{"name":"role","type":"bytes32","indexed":true,"internalType":"bytes32"},{"name":"account","type":"address","indexed":true,"internalType":"address"},{"name":"sender","type":"address","indexed":true,"internalType":"address"}],"anonymous":false},{"type":"event","name":"RoleRevoked","inputs":[{"name":"role","type":"bytes32","indexed":true,"internalType":"bytes32"},{"name":"account","type":"address","indexed":true,"internalType":"address"},{"name":"sender","type":"address","indexed":true,"internalType":"address"}],"anonymous":false},{"type":"event","name":"SkipKilledBribeVault","inputs":[{"name":"stakingToken","type":"address","indexed":true,"internalType":"address"},{"name":"tokenId","type":"uint256","indexed":true,"internalType":"uint256"}],"anonymous":false},{"type":"event","name":"Upgraded","inputs":[{"name":"implementation","type":"address","indexed":true,"internalType":"address"}],"anonymous":false},{"type":"event","name":"Voted","inputs":[{"name":"voter","type":"address","indexed":true,"internalType":"address"},{"name":"stakingToken","type":"address","indexed":true,"internalType":"address"},{"name":"tokenId","type":"uint256","indexed":true,"internalType":"uint256"},{"name":"weight","type":"uint256","indexed":false,"internalType":"uint256"},{"name":"totalWeight","type":"uint256","indexed":false,"internalType":"uint256"},{"name":"timestamp","type":"uint256","indexed":false,"internalType":"uint256"}],"anonymous":false},{"type":"event","name":"WhitelistNFT","inputs":[{"name":"whitelister","type":"address","indexed":true,"internalType":"address"},{"name":"tokenId","type":"uint256","indexed":true,"internalType":"uint256"},{"name":"_bool","type":"bool","indexed":true,"internalType":"bool"}],"anonymous":false},{"type":"error","name":"AccessControlBadConfirmation","inputs":[]},{"type":"error","name":"AccessControlUnauthorizedAccount","inputs":[{"name":"account","type":"address","internalType":"address"},{"name":"neededRole","type":"bytes32","internalType":"bytes32"}]},{"type":"error","name":"AddressEmptyCode","inputs":[{"name":"target","type":"address","internalType":"address"}]},{"type":"error","name":"AlreadyVotedOrDeposited","inputs":[]},{"type":"error","name":"BribeVaultAlreadyKilled","inputs":[]},{"type":"error","name":"BribeVaultAlreadyRevived","inputs":[]},{"type":"error","name":"BribeVaultDoesNotExist","inputs":[{"name":"_stakingToken","type":"address","internalType":"address"}]},{"type":"error","name":"BribeVaultExists","inputs":[]},{"type":"error","name":"BribeVaultNotAlive","inputs":[{"name":"_stakingToken","type":"address","internalType":"address"}]},{"type":"error","name":"DistributeWindow","inputs":[]},{"type":"error","name":"ERC1967InvalidImplementation","inputs":[{"name":"implementation","type":"address","internalType":"address"}]},{"type":"error","name":"ERC1967NonPayable","inputs":[]},{"type":"error","name":"FailedInnerCall","inputs":[]},{"type":"error","name":"InactiveManagedNFT","inputs":[]},{"type":"error","name":"InvalidInitialization","inputs":[]},{"type":"error","name":"MaximumVotingNumberTooLow","inputs":[]},{"type":"error","name":"NonZeroVotes","inputs":[]},{"type":"error","name":"NotAStakingToken","inputs":[]},{"type":"error","name":"NotApprovedOrOwner","inputs":[]},{"type":"error","name":"NotGovernor","inputs":[]},{"type":"error","name":"NotInitialized","inputs":[]},{"type":"error","name":"NotInitializing","inputs":[]},{"type":"error","name":"NotWhitelistedNFT","inputs":[]},{"type":"error","name":"NotWhitelistedToken","inputs":[]},{"type":"error","name":"ReentrancyGuardReentrantCall","inputs":[]},{"type":"error","name":"SameValue","inputs":[]},{"type":"error","name":"SpecialVotingWindow","inputs":[]},{"type":"error","name":"TooManyStakingTokens","inputs":[]},{"type":"error","name":"UUPSUnauthorizedCallContext","inputs":[]},{"type":"error","name":"UUPSUnsupportedProxiableUUID","inputs":[{"name":"slot","type":"bytes32","internalType":"bytes32"}]},{"type":"error","name":"UnequalLengths","inputs":[]},{"type":"error","name":"VaultNotRegistered","inputs":[]},{"type":"error","name":"ZeroAddress","inputs":[]},{"type":"error","name":"ZeroAddress","inputs":[]},{"type":"error","name":"ZeroBalance","inputs":[]}],"bytecode":{"object":"0x60c060405230608052348015610013575f80fd5b506040516155c33803806155c383398101604081905261003291610130565b8061003b61007e565b6001600160a01b03811660a05261005061007e565b506001600160a01b0381166100785760405163d92e233d60e01b815260040160405180910390fd5b5061015d565b7ff0c57e16840df040f15088dc2f81fe391c3923bec73e23a9662efc9c229c6a00805468010000000000000000900460ff16156100ce5760405163f92ee8a960e01b815260040160405180910390fd5b80546001600160401b039081161461012d5780546001600160401b0319166001600160401b0390811782556040519081527fc7f505b2f371ae2175ee4913f4499e1f2633a7b5936321eed1cdaeb6115181d29060200160405180910390a15b50565b5f60208284031215610140575f80fd5b81516001600160a01b0381168114610156575f80fd5b9392505050565b60805160a0516154146101af5f395f81816102e2015281816116c8015281816117b30152818161189b01528181611b7d0152611c2f01525f81816126650152818161268e01526127c701526154145ff3fe608060405260043610610222575f3560e01c806301ffc9a7146102265780631703e5f91461025a5780631f7b6d32146102885780631f850716146102a657806321f96c65146102d1578063248a9ca3146103045780632f2ff15d1461032357806330331b2f14610344578063310bd74b1461036357806332145f9014610382578063344e5e34146103a1578063364bc15a146103c057806336568abe146103e0578063370fb5fa146103ff57806339e9f3b61461041e578063478222c21461043d5780634f1ef2861461045c57806352d1902d1461046f57806352f52885146104835780635c60da1b146104a25780637715ee75146104b65780637850adee146104d557806379e93824146104f45780637ac09bf71461051f578063880e36fc1461053e5780638f052d4d1461055d57806391d148541461057c57806396c82e571461059b5780639d169cd5146105b0578063a217fddf146105d3578063a7cac846146105e6578063aa9354a314610611578063aab014eb14610630578063ab37f4861461064f578063ad3cb1cc1461066e578063ae58cb43146106ab578063b72fd21b146106df578063c0c53b8b146106fe578063d23254b41461071d578063d4e2616f14610753578063d547741f14610781578063d58b15d4146107a0578063d8bd5c29146104a2578063e0c11f9a146107bf578063e2819d5c146107de578063e8b3fd57146107fd578063f3594be014610812578063f36c8f5c1461083d575b5f80fd5b348015610231575f80fd5b50610245610240366004612f58565b61085d565b60405190151581526020015b60405180910390f35b348015610265575f80fd5b50610245610274366004612f93565b600c6020525f908152604090205460ff1681565b348015610293575f80fd5b506004545b604051908152602001610251565b3480156102b1575f80fd5b505f546102c4906001600160a01b031681565b6040516102519190612fae565b3480156102dc575f80fd5b506102c47f000000000000000000000000000000000000000000000000000000000000000081565b34801561030f575f80fd5b5061029861031e366004612fc2565b610893565b34801561032e575f80fd5b5061034261033d366004612fd9565b6108b1565b005b34801561034f575f80fd5b5061034261035e366004612fc2565b6108d3565b34801561036e575f80fd5b5061034261037d366004612fc2565b61095f565b34801561038d575f80fd5b5061034261039c366004612fc2565b610a6f565b3480156103ac575f80fd5b506102c46103bb366004612fc2565b610b22565b3480156103cb575f80fd5b506102985f8051602061539f83398151915281565b3480156103eb575f80fd5b506103426103fa366004612fd9565b610b4a565b34801561040a575f80fd5b50610342610419366004612fc2565b610b82565b348015610429575f80fd5b50610298610438366004612fc2565b610dec565b348015610448575f80fd5b506003546102c4906001600160a01b031681565b61034261046a36600461304b565b610df6565b34801561047a575f80fd5b50610298610e11565b34801561048e575f80fd5b5061034261049d366004612f93565b610e2c565b3480156104ad575f80fd5b506102c4610ec2565b3480156104c1575f80fd5b506103426104d0366004613185565b610ed0565b3480156104e0575f80fd5b506103426104ef366004612f93565b61102b565b3480156104ff575f80fd5b5061029861050e366004612fc2565b60096020525f908152604090205481565b34801561052a575f80fd5b506103426105393660046132ae565b6110c4565b348015610549575f80fd5b50610298610558366004612fc2565b6113c9565b348015610568575f80fd5b50610342610577366004613325565b6113d9565b348015610587575f80fd5b50610245610596366004612fd9565b6114c2565b3480156105a6575f80fd5b5061029860015481565b3480156105bb575f80fd5b506105c46114f6565b604051610251939291906133a9565b3480156105de575f80fd5b506102985f81565b3480156105f1575f80fd5b50610298610600366004612f93565b60066020525f908152604090205481565b34801561061c575f80fd5b5061029861062b366004612fc2565b61166d565b34801561063b575f80fd5b506102c461064a366004613409565b61167b565b34801561065a575f80fd5b50610245610669366004612f93565b6116af565b348015610679575f80fd5b5061069e604051806040016040528060058152602001640352e302e360dc1b81525081565b6040516102519190613429565b3480156106b6575f80fd5b506102c46106c5366004612f93565b60056020525f90815260409020546001600160a01b031681565b3480156106ea575f80fd5b506102c46106f936600461345e565b61173c565b348015610709575f80fd5b506103426107183660046134ae565b611a76565b348015610728575f80fd5b50610298610737366004612fd9565b600760209081525f928352604080842090915290825290205481565b34801561075e575f80fd5b5061024561076d366004612fc2565b600b6020525f908152604090205460ff1681565b34801561078c575f80fd5b5061034261079b366004612fd9565b611dcf565b3480156107ab575f80fd5b506102986107ba366004612fc2565b611deb565b3480156107ca575f80fd5b506103426107d9366004613409565b611df5565b3480156107e9575f80fd5b506103426107f8366004613503565b6120a1565b348015610808575f80fd5b5061029860025481565b34801561081d575f80fd5b5061029861082c366004612fc2565b600a6020525f908152604090205481565b348015610848575f80fd5b506102985f8051602061537f83398151915281565b5f6001600160e01b03198216637965db0b60e01b148061088d57506301ffc9a760e01b6001600160e01b03198316145b92915050565b5f8061089d612103565b5f9384526020525050604090206001015490565b6108ba82610893565b6108c381612127565b6108cd8383612131565b50505050565b6108e95f8051602061537f833981519152612127565b600181101561090b57604051632db4ddc160e11b815260040160405180910390fd5b600254810361092d5760405163c23f6ccb60e01b815260040160405180910390fd5b600281905560405181907f570570b221cb14706e1bd90180bd79e47d0375cf953ccd13f34fcaa1073646d1905f90a250565b5f818152600a6020526040902054819061097e4262093a808106900390565b1161099c5760405163cade311f60e01b815260040160405180910390fd5b6109a5426121cf565b42116109c457604051635a780bad60e01b815260040160405180910390fd5b6109cc6121de565b5f5460405163430c208160e01b81526001600160a01b039091169063430c2081906109fd9033908690600401613526565b6020604051808303815f875af1158015610a19573d5f803e3d5ffd5b505050506040513d601f19601f82011682018060405250810190610a3d919061353f565b610a5a5760405163390cdd9b60e21b815260040160405180910390fd5b610a6382612213565b610a6b61249c565b5050565b610a776121de565b610a80426121cf565b4211610a9f57604051635a780bad60e01b815260040160405180910390fd5b5f80546040516339f890b560e21b8152600481018490526001600160a01b039091169063e7e242d490602401602060405180830381865afa158015610ae6573d5f803e3d5ffd5b505050506040513d601f19601f82011682018060405250810190610b0a919061355a565b9050610b1682826124ac565b50610b1f61249c565b50565b60048181548110610b31575f80fd5b5f918252602090912001546001600160a01b0316905081565b6001600160a01b0381163314610b735760405163334bd91960e11b815260040160405180910390fd5b610b7d82826125e4565b505050565b610b8a6121de565b5f818152600a60205260409020548190610ba94262093a808106900390565b11610bc75760405163cade311f60e01b815260040160405180910390fd5b610bd0426121cf565b4211610bef57604051635a780bad60e01b815260040160405180910390fd5b5f5460405163430c208160e01b81526001600160a01b039091169063430c208190610c209033908690600401613526565b6020604051808303815f875af1158015610c3c573d5f803e3d5ffd5b505050506040513d601f19601f82011682018060405250810190610c60919061353f565b610c7d5760405163390cdd9b60e21b815260040160405180910390fd5b5f80546040516319a0a9d560e01b8152600481018590526001600160a01b03909116906319a0a9d590602401602060405180830381865afa158015610cc4573d5f803e3d5ffd5b505050506040513d601f19601f82011682018060405250810190610ce8919061355a565b5f54604051631b87dafd60e11b8152600481018690529192506001600160a01b03169063370fb5fa906024015f604051808303815f87803b158015610d2b575f80fd5b505af1158015610d3d573d5f803e3d5ffd5b50505f8054604051637028a55d60e11b81529193506001600160a01b0316915063e0514aba90610d739085904290600401613571565b602060405180830381865afa158015610d8e573d5f803e3d5ffd5b505050506040513d601f19601f82011682018060405250810190610db2919061355a565b9050805f03610dd757610dc482612213565b5f828152600a6020526040812055610de1565b610de182826124ac565b505050610b1f61249c565b5f61088d826121cf565b610dfe61265a565b610e07826126ea565b610a6b8282612700565b5f610e1a6127bc565b505f805160206153bf83398151915290565b610e425f8051602061537f833981519152612127565b6001600160a01b0381165f908152600c602052604090205460ff16610e7a57604051630e3cf9e960e01b815260040160405180910390fd5b6001600160a01b0381165f818152600c6020526040808220805460ff19169055517f639c4d4b18aed267e7bf5787a3b980fffaa3088bdf13f201cde8f13e2797dc3c9190a250565b5f610ecb612805565b905090565b5f5460405163430c208160e01b81526001600160a01b039091169063430c208190610f019033908590600401613526565b6020604051808303815f875af1158015610f1d573d5f803e3d5ffd5b505050506040513d601f19601f82011682018060405250810190610f41919061353f565b610f5e5760405163390cdd9b60e21b815260040160405180910390fd5b825182518114610f815760405163332ac86360e21b815260040160405180910390fd5b5f5b8181101561102457848181518110610f9d57610f9d61357f565b60200260200101516001600160a01b031663f5f8d36584868481518110610fc657610fc661357f565b60200260200101516040518363ffffffff1660e01b8152600401610feb929190613593565b5f604051808303815f87803b158015611002575f80fd5b505af1158015611014573d5f803e3d5ffd5b505060019092019150610f839050565b5050505050565b6110415f8051602061537f833981519152612127565b6001600160a01b0381165f908152600c602052604090205460ff161561107a576040516351b9f14360e01b815260040160405180910390fd5b6001600160a01b0381165f818152600c6020526040808220805460ff19166001179055517ecddea0ee6cd877dda5aad5a66a96e27a67466551f59527ce7de1c4c1e686c29190a250565b5f858152600a602052604090205485906110e34262093a808106900390565b116111015760405163cade311f60e01b815260040160405180910390fd5b61110a426121cf565b421161112957604051635a780bad60e01b815260040160405180910390fd5b6111316121de565b5f5460405163430c208160e01b81526001600160a01b039091169063430c2081906111629033908a90600401613526565b6020604051808303815f875af115801561117e573d5f803e3d5ffd5b505050506040513d601f19601f820116820180604052508101906111a2919061353f565b6111bf5760405163390cdd9b60e21b815260040160405180910390fd5b8382146111df5760405163332ac86360e21b815260040160405180910390fd5b60025484111561120257604051634bc367d160e11b815260040160405180910390fd5b5f54604051632a266cdb60e21b8152600481018890526001600160a01b039091169063a899b36c90602401602060405180830381865afa158015611248573d5f803e3d5ffd5b505050506040513d601f19601f8201168201806040525081019061126c919061353f565b1561128a576040516308910b2560e01b815260040160405180910390fd5b4261129481612820565b811180156112b057505f878152600b602052604090205460ff16155b156112ce57604051630392978d60e41b815260040160405180910390fd5b5f878152600a6020526040808220839055815490516339f890b560e21b8152600481018a90526001600160a01b039091169063e7e242d490602401602060405180830381865afa158015611324573d5f803e3d5ffd5b505050506040513d601f19601f82011682018060405250810190611348919061355a565b90506113b788828989808060200260200160405190810160405280939291908181526020018383602002808284375f9201919091525050604080516020808d0282810182019093528c82529093508c92508b9182918501908490808284375f9201829052509250612830915050565b50506113c161249c565b505050505050565b5f62093a8080830683030161088d565b5f5460405163430c208160e01b81526001600160a01b039091169063430c20819061140a9033908590600401613526565b6020604051808303815f875af1158015611426573d5f803e3d5ffd5b505050506040513d601f19601f8201168201806040525081019061144a919061353f565b6114675760405163390cdd9b60e21b815260040160405180910390fd5b60035460405163f5f8d36560e01b81526001600160a01b039091169063f5f8d365906114999084908690600401613593565b5f604051808303815f87803b1580156114b0575f80fd5b505af11580156113c1573d5f803e3d5ffd5b5f806114cc612103565b5f948552602090815260408086206001600160a01b03959095168652939052505090205460ff1690565b60045460609081905f90806001600160401b0381111561151857611518613007565b604051908082528060200260200182016040528015611541578160200160208202803683370190505b509250806001600160401b0381111561155c5761155c613007565b604051908082528060200260200182016040528015611585578160200160208202803683370190505b5093505f805b8281101561165f575f600482815481106115a7576115a761357f565b5f9182526020808320909101546001600160a01b031680835260069091526040909120548751919250908790859081106115e3576115e361357f565b602002602001018181525050808784815181106116025761160261357f565b60200260200101906001600160a01b031690816001600160a01b0316815250508583815181106116345761163461357f565b60200260200101518561164791906135c7565b945082611653816135da565b9350505060010161158b565b508084528085525050909192565b5f62093a808206820361088d565b6008602052815f5260405f208181548110611694575f80fd5b5f918252602090912001546001600160a01b03169150829050565b604051635225f98760e01b81525f906001600160a01b037f00000000000000000000000000000000000000000000000000000000000000001690635225f987906116fd908590600401612fae565b602060405180830381865afa158015611718573d5f803e3d5ffd5b505050506040513d601f19601f8201168201806040525081019061088d919061353f565b5f6117535f8051602061539f833981519152612127565b61175b6121de565b5f611764612c50565b90506001600160401b038116158061178457506001600160401b03818116145b156117a2576040516321c4e35760e21b815260040160405180910390fd5b604051632a43df5b60e11b81525f907f00000000000000000000000000000000000000000000000000000000000000006001600160a01b031690635487beb6906117f0908990600401612fae565b602060405180830381865afa15801561180b573d5f803e3d5ffd5b505050506040513d601f19601f8201168201806040525081019061182f91906135f2565b6001600160a01b0316036118565760405163775a7b0960e11b815260040160405180910390fd5b6001600160a01b038581165f90815260056020526040902054161561188e57604051634b75644d60e01b815260040160405180910390fd5b825f5b8181101561196f577f00000000000000000000000000000000000000000000000000000000000000006001600160a01b0316635225f9878787848181106118da576118da61357f565b90506020020160208101906118ef9190612f93565b6040518263ffffffff1660e01b815260040161190b9190612fae565b602060405180830381865afa158015611926573d5f803e3d5ffd5b505050506040513d601f19601f8201168201806040525081019061194a919061353f565b611967576040516365a9cebb60e01b815260040160405180910390fd5b600101611891565b505f30868660405161198090612f1d565b61198c9392919061360d565b604051809103905ff0801580156119a5573d5f803e3d5ffd5b506001600160a01b038881165f81815260056020908152604080832080549587166001600160a01b031996871681179091556004805460018181019092557f8a35acfbc15ff81a39ae7d344fd709f28e8600b4aa8c65c6b64bfe7fe36bd19b0180549097168617909655600c835292819020805460ff1916909517909455835192835282015233918101919091529091507f5d6aaae659e91fd3a26b50a582f98e1bd5f64014785200c56f52121e92f1a87d9060600160405180910390a192505050611a6f61249c565b9392505050565b5f611a7f612c68565b805490915060ff600160401b82041615906001600160401b03165f81158015611aa55750825b90505f826001600160401b03166001148015611ac05750303b155b905081158015611ace575080155b15611aec5760405163f92ee8a960e01b815260040160405180910390fd5b84546001600160401b03191660011785558315611b1557845460ff60401b1916600160401b1785555b6001600160a01b038816611b3c5760405163d92e233d60e01b815260040160405180910390fd5b5f80546001600160a01b0319166001600160a01b038a16178155601e60029081556040805182815260608101825291906020830190803683370190505090507f00000000000000000000000000000000000000000000000000000000000000006001600160a01b0316633dafa4f36040518163ffffffff1660e01b8152600401602060405180830381865afa158015611bd7573d5f803e3d5ffd5b505050506040513d601f19601f82011682018060405250810190611bfb91906135f2565b815f81518110611c0d57611c0d61357f565b60200260200101906001600160a01b031690816001600160a01b0316815250507f00000000000000000000000000000000000000000000000000000000000000006001600160a01b03166336b2c4b26040518163ffffffff1660e01b8152600401602060405180830381865afa158015611c89573d5f803e3d5ffd5b505050506040513d601f19601f82011682018060405250810190611cad91906135f2565b81600181518110611cc057611cc061357f565b60200260200101906001600160a01b031690816001600160a01b0316815250503081604051611cee90612f1d565b611cf992919061366a565b604051809103905ff080158015611d12573d5f803e3d5ffd5b50600380546001600160a01b0319166001600160a01b0392909216919091179055611d3d5f89612131565b50611d555f8051602061537f83398151915289612131565b50611d6d5f8051602061539f83398151915288612131565b50611d76612c8c565b611d7e612c9c565b508315611dc557845460ff60401b19168555604051600181527fc7f505b2f371ae2175ee4913f4499e1f2633a7b5936321eed1cdaeb6115181d29060200160405180910390a15b5050505050505050565b611dd882610893565b611de181612127565b6108cd83836125e4565b5f61088d82612820565b611dfd6121de565b5f828152600a60205260409020548290611e1c4262093a808106900390565b11611e3a5760405163cade311f60e01b815260040160405180910390fd5b611e43426121cf565b4211611e6257604051635a780bad60e01b815260040160405180910390fd5b5f5460405163430c208160e01b81526001600160a01b039091169063430c208190611e939033908790600401613526565b6020604051808303815f875af1158015611eaf573d5f803e3d5ffd5b505050506040513d601f19601f82011682018060405250810190611ed3919061353f565b611ef05760405163390cdd9b60e21b815260040160405180910390fd5b5f54604051632a266cdb60e21b8152600481018490526001600160a01b039091169063a899b36c90602401602060405180830381865afa158015611f36573d5f803e3d5ffd5b505050506040513d601f19601f82011682018060405250810190611f5a919061353f565b15611f78576040516308910b2560e01b815260040160405180910390fd5b611f8183612213565b42611f8b81612820565b811115611fab57604051631f3ecf5b60e21b815260040160405180910390fd5b5f848152600a6020526040808220839055905490516370608fcd60e11b81526001600160a01b039091169063e0c11f9a90611fec9087908790600401613571565b5f604051808303815f87803b158015612003575f80fd5b505af1158015612015573d5f803e3d5ffd5b50505f8054604051637028a55d60e11b81529193506001600160a01b0316915063e0514aba9061204b9087904290600401613571565b602060405180830381865afa158015612066573d5f803e3d5ffd5b505050506040513d601f19601f8201168201806040525081019061208a919061355a565b905061209684826124ac565b505050610a6b61249c565b6120b75f8051602061537f833981519152612127565b5f828152600b6020526040808220805460ff191684151590811790915590519091849133917f8a6ff732c8641e1e34d771e1f8b1673e988c1abdfb694ebdf6c910a5e3d0d85391a45050565b7f02dd7bc7dec4dceedda775e58dd541e08a116c6c53815c0bd028192f7b62680090565b610b1f8133612cac565b5f8061213b612103565b905061214784846114c2565b6121c6575f848152602082815260408083206001600160a01b03871684529091529020805460ff1916600117905561217c3390565b6001600160a01b0316836001600160a01b0316857f2f8788117e7eff1d82e926ec794901d17c78024a50270940304540a733656f0d60405160405180910390a4600191505061088d565b5f91505061088d565b62093a8081069003610e100190565b5f6121e7612cd7565b80549091506001190161220d57604051633ee5aeb560e01b815260040160405180910390fd5b60029055565b5f81815260086020526040812080549091805b82811015612397575f8482815481106122415761224161357f565b5f9182526020808320909101548883526007825260408084206001600160a01b0390921680855291909252912054909150801561238d576001600160a01b0382165f908152600660205260408120805483929061229f90849061368d565b90915550505f8781526007602090815260408083206001600160a01b03808716855290835281842084905560059092529182902054915163278afc8b60e21b8152911690639e2bf22c906122f99084908b90600401613571565b5f604051808303815f87803b158015612310575f80fd5b505af1158015612322573d5f803e3d5ffd5b50505050808461233291906135c7565b6001600160a01b0383165f8181526006602052604090819020549051929650899233917fadab630928b1d46214641293704a312ee7ad87e03ae14a7fd95e7308b93998df9161238491879142906136a0565b60405180910390a45b5050600101612226565b505f8054604051632d27a2cd60e11b81526004810187905260248101929092526001600160a01b031690635a4f459a906044015f604051808303815f87803b1580156123e1575f80fd5b505af11580156123f3573d5f803e3d5ffd5b50506003545f878152600960205260409081902054905163278afc8b60e21b81526001600160a01b039092169350639e2bf22c9250612436918890600401613571565b5f604051808303815f87803b15801561244d575f80fd5b505af115801561245f573d5f803e3d5ffd5b505050508060015f828254612474919061368d565b90915550505f848152600960209081526040808320839055600890915281206108cd91612f2a565b5f6124a5612cd7565b6001905550565b5f8281526008602090815260408083208054825181850281018501909352808352919290919083018282801561250957602002820191905f5260205f20905b81546001600160a01b031681526001909101906020018083116124eb575b505050505090505f815190505f816001600160401b0381111561252e5761252e613007565b604051908082528060200260200182016040528015612557578160200160208202803683370190505b5090505f5b828110156125d55760075f8781526020019081526020015f205f8583815181106125885761258861357f565b60200260200101516001600160a01b03166001600160a01b031681526020019081526020015f20548282815181106125c2576125c261357f565b602090810291909101015260010161255c565b50611024858585846001612830565b5f806125ee612103565b90506125fa84846114c2565b156121c6575f848152602082815260408083206001600160a01b0387168085529252808320805460ff1916905551339287917ff6391f5c32d9c69d2a47ea670b442974b53935d1edc7fd64eb21e047a839171b9190a4600191505061088d565b306001600160a01b037f00000000000000000000000000000000000000000000000000000000000000001614806126ca57507f00000000000000000000000000000000000000000000000000000000000000006001600160a01b03166126be612805565b6001600160a01b031614155b156126e85760405163703e46dd60e11b815260040160405180910390fd5b565b610b1f5f8051602061537f833981519152612127565b816001600160a01b03166352d1902d6040518163ffffffff1660e01b8152600401602060405180830381865afa92505050801561275a575060408051601f3d908101601f191682019092526127579181019061355a565b60015b6127825781604051634c9c8ce360e01b81526004016127799190612fae565b60405180910390fd5b5f805160206153bf83398151915281146127b257604051632a87526960e21b815260048101829052602401612779565b610b7d8383612cfb565b306001600160a01b037f000000000000000000000000000000000000000000000000000000000000000016146126e85760405163703e46dd60e11b815260040160405180910390fd5b5f805160206153bf833981519152546001600160a01b031690565b62093a808106900362092c700190565b61283985612213565b82515f8080805b848110156128775786818151811061285a5761285a61357f565b60200260200101518461286d91906135c7565b9350600101612840565b505f5b84811015612b59575f8882815181106128955761289561357f565b6020908102919091018101516001600160a01b038082165f908152600590935260409092205490925016806128df578160405163189b8ac960e01b81526004016127799190612fae565b6001600160a01b0382165f908152600c602052604090205460ff1661295b578715612940576040518c906001600160a01b038416907fb37fb83bbf909074f73bad2d0db1339413c334337a5df5e6d3c8abac151ddc4a905f90a35050612b51565b80604051631ea5629360e21b81526004016127799190612fae565b5f868c8b86815181106129705761297061357f565b602002602001015161298291906136b6565b61298c91906136cd565b5f8e81526007602090815260408083206001600160a01b0388168452909152902054909150156129cf5760405163315f6a3d60e01b815260040160405180910390fd5b805f036129ef5760405163334ab3f560e11b815260040160405180910390fd5b5f8d815260086020908152604080832080546001810182559084528284200180546001600160a01b0319166001600160a01b0388169081179091558352600690915281208054839290612a439084906135c7565b90915550505f8d81526007602090815260408083206001600160a01b038716845290915281208054839290612a799084906135c7565b92505081905550816001600160a01b031663f3207723828f6040518363ffffffff1660e01b8152600401612aae929190613571565b5f604051808303815f87803b158015612ac5575f80fd5b505af1158015612ad7573d5f803e3d5ffd5b505050508085612ae791906135c7565b9450612af381876135c7565b6001600160a01b0384165f81815260066020526040908190205490519298508f9233917f452d440efc30dfa14a0ef803ccb55936af860ec6a6960ed27f129bef913f296a91612b4591879142906136a0565b60405180910390a45050505b60010161287a565b508015612c1f575f54604051632d27a2cd60e11b8152600481018b9052600160248201526001600160a01b0390911690635a4f459a906044015f604051808303815f87803b158015612ba9575f80fd5b505af1158015612bbb573d5f803e3d5ffd5b505060035460405163f320772360e01b81526001600160a01b03909116925063f32077239150612bf19084908d90600401613571565b5f604051808303815f87803b158015612c08575f80fd5b505af1158015612c1a573d5f803e3d5ffd5b505050505b8160015f828254612c3091906135c7565b90915550505f988952600960205260409098209790975550505050505050565b5f612c59612c68565b546001600160401b0316919050565b7ff0c57e16840df040f15088dc2f81fe391c3923bec73e23a9662efc9c229c6a0090565b612c94612d50565b6126e8612d75565b612ca4612d50565b6126e8612d7d565b612cb682826114c2565b610a6b57808260405163e2517d3f60e01b8152600401612779929190613526565b7f9b779b17422d0df92223018b32b4d1fa46e071723d6817e2486d003becc55f0090565b612d0482612d95565b6040516001600160a01b038316907fbc7cd75a20ee27fd9adebab32041f755214dbc6bffa90cc0225b39da2e5c2d3b905f90a2805115612d4857610b7d8282612def565b610a6b612e61565b612d58612e80565b6126e857604051631afcd79f60e31b815260040160405180910390fd5b61249c612d50565b612d85612d50565b612d8d612e99565b6126e8612e99565b806001600160a01b03163b5f03612dc15780604051634c9c8ce360e01b81526004016127799190612fae565b5f805160206153bf83398151915280546001600160a01b0319166001600160a01b0392909216919091179055565b60605f80846001600160a01b031684604051612e0b91906136ec565b5f60405180830381855af49150503d805f8114612e43576040519150601f19603f3d011682016040523d82523d5f602084013e612e48565b606091505b5091509150612e58858383612ea1565b95945050505050565b34156126e85760405163b398979f60e01b815260040160405180910390fd5b5f612e89612c68565b54600160401b900460ff16919050565b6126e8612d50565b606082612eb657612eb182612ef4565b611a6f565b8151158015612ecd57506001600160a01b0384163b155b15612eed5783604051639996b31560e01b81526004016127799190612fae565b5080611a6f565b805115612f045780518082602001fd5b604051630a12f52160e11b815260040160405180910390fd5b611c7c8061370383390190565b5080545f8255905f5260205f2090810190610b1f91905b80821115612f54575f8155600101612f41565b5090565b5f60208284031215612f68575f80fd5b81356001600160e01b031981168114611a6f575f80fd5b6001600160a01b0381168114610b1f575f80fd5b5f60208284031215612fa3575f80fd5b8135611a6f81612f7f565b6001600160a01b0391909116815260200190565b5f60208284031215612fd2575f80fd5b5035919050565b5f8060408385031215612fea575f80fd5b823591506020830135612ffc81612f7f565b809150509250929050565b634e487b7160e01b5f52604160045260245ffd5b604051601f8201601f191681016001600160401b038111828210171561304357613043613007565b604052919050565b5f806040838503121561305c575f80fd5b823561306781612f7f565b915060208301356001600160401b03811115613081575f80fd5b8301601f81018513613091575f80fd5b80356001600160401b038111156130aa576130aa613007565b6130bd601f8201601f191660200161301b565b8181528660208385010111156130d1575f80fd5b816020840160208301375f602083830101528093505050509250929050565b5f6001600160401b0382111561310857613108613007565b5060051b60200190565b5f82601f830112613121575f80fd5b813561313461312f826130f0565b61301b565b8082825260208201915060208360051b860101925085831115613155575f80fd5b602085015b8381101561317b57803561316d81612f7f565b83526020928301920161315a565b5095945050505050565b5f805f60608486031215613197575f80fd5b83356001600160401b038111156131ac575f80fd5b6131b886828701613112565b93505060208401356001600160401b038111156131d3575f80fd5b8401601f810186136131e3575f80fd5b80356131f161312f826130f0565b8082825260208201915060208360051b850101925088831115613212575f80fd5b602084015b838110156132525780356001600160401b03811115613234575f80fd5b6132438b602083890101613112565b84525060209283019201613217565b50959895975050505060409390930135925050565b5f8083601f840112613277575f80fd5b5081356001600160401b0381111561328d575f80fd5b6020830191508360208260051b85010111156132a7575f80fd5b9250929050565b5f805f805f606086880312156132c2575f80fd5b8535945060208601356001600160401b038111156132de575f80fd5b6132ea88828901613267565b90955093505060408601356001600160401b03811115613308575f80fd5b61331488828901613267565b969995985093965092949392505050565b5f8060408385031215613336575f80fd5b82356001600160401b0381111561334b575f80fd5b61335785828601613112565b95602094909401359450505050565b5f8151808452602084019350602083015f5b8281101561339f5781516001600160a01b0316865260209586019590910190600101613378565b5093949350505050565b606081525f6133bb6060830186613366565b82810360208401528085518083526020830191506020870192505f5b818110156133f55783518352602093840193909201916001016133d7565b505060409390930193909352509392505050565b5f806040838503121561341a575f80fd5b50508035926020909101359150565b602081525f82518060208401528060208501604085015e5f604082850101526040601f19601f83011684010191505092915050565b5f805f60408486031215613470575f80fd5b833561347b81612f7f565b925060208401356001600160401b03811115613495575f80fd5b6134a186828701613267565b9497909650939450505050565b5f805f606084860312156134c0575f80fd5b83356134cb81612f7f565b925060208401356134db81612f7f565b915060408401356134eb81612f7f565b809150509250925092565b8015158114610b1f575f80fd5b5f8060408385031215613514575f80fd5b823591506020830135612ffc816134f6565b6001600160a01b03929092168252602082015260400190565b5f6020828403121561354f575f80fd5b8151611a6f816134f6565b5f6020828403121561356a575f80fd5b5051919050565b918252602082015260400190565b634e487b7160e01b5f52603260045260245ffd5b828152604060208201525f6135ab6040830184613366565b949350505050565b634e487b7160e01b5f52601160045260245ffd5b8082018082111561088d5761088d6135b3565b5f600182016135eb576135eb6135b3565b5060010190565b5f60208284031215613602575f80fd5b8151611a6f81612f7f565b6001600160a01b038416815260406020820181905281018290525f8360608301825b8581101561365f57823561364281612f7f565b6001600160a01b031682526020928301929091019060010161362f565b509695505050505050565b6001600160a01b03831681526040602082018190525f906135ab90830184613366565b8181038181111561088d5761088d6135b3565b9283526020830191909152604082015260600190565b808202811582820484141761088d5761088d6135b3565b5f826136e757634e487b7160e01b5f52601260045260245ffd5b500490565b5f82518060208501845e5f92019182525091905056fe60e060405234801561000f575f80fd5b50604051611c7c380380611c7c83398101604081905261002e916101e0565b60015f556001600160a01b038216608081905260408051630fc2838b60e11b81529051849284928492631f850716916004808201926020929091908290030181865afa158015610080573d5f803e3d5ffd5b505050506040513d601f19601f820116820180604052508101906100a491906102be565b6001600160a01b031660a0525080515f5b8181101561019a575f6001600160a01b03168382815181106100d9576100d96102de565b60200260200101516001600160a01b03161461019257600160075f858481518110610106576101066102de565b60200260200101516001600160a01b03166001600160a01b031681526020019081526020015f205f6101000a81548160ff0219169083151502179055506003838281518110610157576101576102de565b60209081029190910181015182546001810184555f938452919092200180546001600160a01b0319166001600160a01b039092169190911790555b6001016100b5565b5050506001600160a01b031660c052506102f29050565b80516001600160a01b03811681146101c7575f80fd5b919050565b634e487b7160e01b5f52604160045260245ffd5b5f80604083850312156101f1575f80fd5b6101fa836101b1565b60208401519092506001600160401b03811115610215575f80fd5b8301601f81018513610225575f80fd5b80516001600160401b0381111561023e5761023e6101cc565b604051600582901b90603f8201601f191681016001600160401b038111828210171561026c5761026c6101cc565b604052918252602081840181019290810188841115610289575f80fd5b6020850194505b838510156102af576102a1856101b1565b815260209485019401610290565b50809450505050509250929050565b5f602082840312156102ce575f80fd5b6102d7826101b1565b9392505050565b634e487b7160e01b5f52603260045260245ffd5b60805160a05160c05161192f61034d5f395f81816101b1015281816109dc0152610e9101525f818161016a01528181610f80015261105e01525f81816101d8015281816103df01528181610c280152611005015261192f5ff3fe608060405234801561000f575f80fd5b5060043610610126575f3560e01c80630a664ad71461012a57806318160ddd1461013f5780631be052891461015b5780631f850716146101655780633e491d4714610199578063456cb7c6146101ac57806346c96aac146101d357806349dcc204146101fa5780634d5ce03814610240578063505897931461027257806376f4be361461029157806392777b29146102a45780639cc7f708146102ce5780639e2bf22c146102ed578063a28d4c9c14610300578063b66503cf14610313578063dfa0ba1014610326578063e688639614610339578063e8111a1214610341578063f25e55a51461034a578063f301af4214610374578063f320772314610387578063f5f8d3651461039a578063f7412baf146103ad575b5f80fd5b61013d6101383660046115c9565b6103d3565b005b61014860015481565b6040519081526020015b60405180910390f35b61014862093a8081565b61018c7f000000000000000000000000000000000000000000000000000000000000000081565b6040516101529190611638565b6101486101a7366004611673565b6106bd565b61018c7f000000000000000000000000000000000000000000000000000000000000000081565b61018c7f000000000000000000000000000000000000000000000000000000000000000081565b61022b61020836600461169d565b600860209081525f92835260408084209091529082529020805460019091015482565b60408051928352602083019190915201610152565b61026261024e3660046116bd565b60076020525f908152604090205460ff1681565b6040519015158152602001610152565b6101486102803660046116d8565b60096020525f908152604090205481565b61014861029f3660046116d8565b6108a7565b6101486102b2366004611673565b600560209081525f928352604080842090915290825290205481565b6101486102dc3660046116d8565b60046020525f908152604090205481565b61013d6102fb36600461169d565b6109d1565b61014861030e36600461169d565b610aaf565b61013d610321366004611673565b610bea565b61013d6103343660046116ef565b610d36565b600354610148565b61014860025481565b610148610358366004611673565b600660209081525f928352604080842090915290825290205481565b61018c6103823660046116d8565b610e5e565b61013d61039536600461169d565b610e86565b61013d6103a8366004611731565b610f5c565b61022b6103bb3660046116d8565b600a6020525f90815260409020805460019091015482565b5f5b818110156106b8577f00000000000000000000000000000000000000000000000000000000000000006001600160a01b031663ab37f48684848481811061041e5761041e611807565b905060200201602081019061043391906116bd565b6040518263ffffffff1660e01b815260040161044f9190611638565b602060405180830381865afa15801561046a573d5f803e3d5ffd5b505050506040513d601f19601f8201168201806040525081019061048e919061181b565b1580156104dd575060075f8484848181106104ab576104ab611807565b90506020020160208101906104c091906116bd565b6001600160a01b0316815260208101919091526040015f205460ff165b156106b0575f60075f8585858181106104f8576104f8611807565b905060200201602081019061050d91906116bd565b6001600160a01b0316815260208101919091526040015f908120805460ff1916921515929092179091555b6003548110156106525783838381811061055457610554611807565b905060200201602081019061056991906116bd565b6001600160a01b03166003828154811061058557610585611807565b5f918252602090912001546001600160a01b03160361064a57600380546105ae9060019061184e565b815481106105be576105be611807565b5f91825260209091200154600380546001600160a01b0390921691839081106105e9576105e9611807565b905f5260205f20015f6101000a8154816001600160a01b0302191690836001600160a01b03160217905550600380548061062557610625611861565b5f8281526020902081015f1990810180546001600160a01b0319169055019055610652565b600101610538565b5082828281811061066557610665611807565b905060200201602081019061067a91906116bd565b6001600160a01b03167f2882a42bf2b3e503b8a19268c1e7713db8d90a6f51cde6d3326e9b02b0a68eae60405160405180910390a25b6001016103d5565b505050565b5f8181526009602052604081205481036106d857505f6108a1565b6001600160a01b0383165f90815260066020908152604080832085845290915281205460019062093a8081069003826107118683610aaf565b5f87815260086020908152604080832084845282529182902082518084019093528054808452600190910154918301919091529192509062093a8081069003831161076557805162093a8081069003610767565b825b92505f62093a8061077d8542838106900361184e565b6107879190611875565b90508015610898575f5b81811015610896576107b68960016107ac62093a8089611894565b61030e919061184e565b5f8a815260086020908152604080832084845282528083208151808301909252805482526001908101549282019290925292965091945090600a90829061080e9061080462093a808b611894565b61029f919061184e565b81526020019081526020015f2060010154905060018111610830576001610832565b805b6001600160a01b038c165f9081526005602090815260408083208a845282529091205490860151919850889161086891906118a7565b6108729190611875565b61087c9089611894565b975061088b62093a8087611894565b955050600101610791565b505b50939450505050505b92915050565b6002545f908082036108bb57505f92915050565b82600a5f6108ca60018561184e565b81526020019081526020015f205f0154116108f1576108ea60018261184e565b9392505050565b5f8052600a6020527f13da86008ba1c6922daee3e07db95305ef49ebced9f5467a0b8613fcc6b343e35483101561092a57505f92915050565b5f8061093760018461184e565b90505b818111156109c9575f600261094f848461184e565b6109599190611875565b610963908361184e565b5f818152600a60209081526040918290208251808401909352805480845260019091015491830191909152919250908790036109a3575095945050505050565b80518711156109b4578193506109c2565b6109bf60018361184e565b92505b505061093a565b509392505050565b336001600160a01b037f00000000000000000000000000000000000000000000000000000000000000001614610a1a5760405163ea8e4eb560e01b815260040160405180910390fd5b8160015f828254610a2b919061184e565b90915550505f8181526004602052604081208054849290610a4d90849061184e565b90915550505f81815260046020526040902054610a6b9082906110e6565b610a736111e8565b604051828152819033907ff279e6a1f5e320cca91135676d9cb6e44ca8a08c0b88342bcdb1144f6511b568906020015b60405180910390a35050565b5f82815260096020526040812054808203610acd575f9150506108a1565b5f8481526008602052604081208491610ae760018561184e565b81526020019081526020015f205f015411610b0f57610b0760018261184e565b9150506108a1565b5f848152600860209081526040808320838052909152902054831015610b38575f9150506108a1565b5f80610b4560018461184e565b90505b81811115610be1575f6002610b5d848461184e565b610b679190611875565b610b71908361184e565b5f888152600860209081526040808320848452825291829020825180840190935280548084526001909101549183019190915291925090879003610bbb575093506108a192505050565b8051871115610bcc57819350610bda565b610bd760018361184e565b92505b5050610b48565b50949350505050565b610bf261129f565b6001600160a01b0382165f9081526007602052604090205460ff16610d1e5760405163559bfa4360e11b81526001600160a01b037f0000000000000000000000000000000000000000000000000000000000000000169063ab37f48690610c5d908590600401611638565b602060405180830381865afa158015610c78573d5f803e3d5ffd5b505050506040513d601f19601f82011682018060405250810190610c9c919061181b565b610cb957604051630b094f2760e31b815260040160405180910390fd5b6001600160a01b0382165f818152600760205260408120805460ff191660019081179091556003805491820181559091527fc2575a0e9e593c00f959f8c92f12db2869c3395a3b0502d05e2516446f71f85b0180546001600160a01b03191690911790555b610d293383836112c7565b610d3260015f55565b5050565b62093a808083068303905f904290810690036001600160a01b0384165f908152600560209081526040808320868452909152812054919250610d77866108a7565b9050815f03610d9957604051631f2a200560e01b815260040160405180910390fd5b838311610db957604051630121356d60e11b815260040160405180910390fd5b5f818152600a602052604090206001015415610de75760405162759e2160e31b815260040160405180910390fd5b6001600160a01b0385165f90815260056020908152604080832087845290915280822082905584825281208054849290610e22908490611894565b909155505060405182815284906001600160a01b0387169030905f805160206118da8339815191529060200160405180910390a4505050505050565b60038181548110610e6d575f80fd5b5f918252602090912001546001600160a01b0316905081565b336001600160a01b037f00000000000000000000000000000000000000000000000000000000000000001614610ecf5760405163ea8e4eb560e01b815260040160405180910390fd5b8160015f828254610ee09190611894565b90915550505f8181526004602052604081208054849290610f02908490611894565b90915550505f81815260046020526040902054610f209082906110e6565b610f286111e8565b604051828152819033907f90890809c654f11d6e72a28fa60149770a0d11ec6c92319d6ceb2bb0a4ea1a1590602001610aa3565b610f6461129f565b60405163430c208160e01b8152336004820152602481018390527f00000000000000000000000000000000000000000000000000000000000000006001600160a01b03169063430c2081906044016020604051808303815f875af1158015610fce573d5f803e3d5ffd5b505050506040513d601f19601f82011682018060405250810190610ff2919061181b565b1580156110285750336001600160a01b037f00000000000000000000000000000000000000000000000000000000000000001614155b156110465760405163ea8e4eb560e01b815260040160405180910390fd5b6040516331a9108f60e11b8152600481018390525f907f00000000000000000000000000000000000000000000000000000000000000006001600160a01b031690636352211e90602401602060405180830381865afa1580156110ab573d5f803e3d5ffd5b505050506040513d601f19601f820116820180604052508101906110cf91906118be565b90506110dc81848461138b565b50610d3260015f55565b5f82815260096020526040902054428115801590611140575062093a80810681035f85815260086020526040812061113e9161112360018761184e565b81526020019081526020015f205f015462093a808106900390565b145b156111945760408051808201825282815260208082018690525f8781526008909152918220909161117260018661184e565b81526020808201929092526040015f20825181559101516001909101556111e2565b60408051808201825282815260208082018681525f888152600883528481208782529092529290209051815590516001918201556111d3908390611894565b5f858152600960205260409020555b50505050565b600254428115801590611211575062093a808106810361120f600a5f61112360018761184e565b145b1561125e576040518060400160405280828152602001600154815250600a5f60018561123d919061184e565b81526020808201929092526040015f20825181559101516001909101555050565b6040805180820182528281526001805460208084019182525f878152600a9091529390932091518255915190820155611298908390611894565b6002555050565b60025f54036112c157604051633ee5aeb560e01b815260040160405180910390fd5b60025f55565b805f036112e757604051631f2a200560e01b815260040160405180910390fd5b6112fc6001600160a01b0383168430846114b6565b5f61130c4262093a808106900390565b6001600160a01b0384165f908152600560209081526040808320848452909152812080549293508492909190611343908490611894565b9250508190555080836001600160a01b0316856001600160a01b03165f805160206118da8339815191528560405161137d91815260200190565b60405180910390a450505050565b80515f5b818110156114af575f6113bb8483815181106113ad576113ad611807565b6020026020010151866106bd565b90504260065f8685815181106113d3576113d3611807565b6020908102919091018101516001600160a01b031682528181019290925260409081015f908120898252909252902055801561144057611440868286858151811061142057611420611807565b60200260200101516001600160a01b031661154c9092919063ffffffff16565b83828151811061145257611452611807565b60200260200101516001600160a01b0316866001600160a01b03167f9aa05b3d70a9e3e2f004f039648839560576334fb45c81f91b6db03ad9e2efc98360405161149e91815260200190565b60405180910390a35060010161138f565b5050505050565b5f6040516323b872dd60e01b81526001600160a01b03851660048201526001600160a01b038416602482015282604482015260205f6064835f8a5af13d15601f3d1160015f5114161716915050806114af5760405162461bcd60e51b81526020600482015260146024820152731514905394d1915497d19493d357d1905253115160621b60448201526064015b60405180910390fd5b5f60405163a9059cbb60e01b81526001600160a01b038416600482015282602482015260205f6044835f895af13d15601f3d1160015f5114161716915050806111e25760405162461bcd60e51b815260206004820152600f60248201526e1514905394d1915497d19052531151608a1b6044820152606401611543565b5f80602083850312156115da575f80fd5b82356001600160401b038111156115ef575f80fd5b8301601f810185136115ff575f80fd5b80356001600160401b03811115611614575f80fd5b8560208260051b8401011115611628575f80fd5b6020919091019590945092505050565b6001600160a01b0391909116815260200190565b6001600160a01b0381168114611660575f80fd5b50565b803561166e8161164c565b919050565b5f8060408385031215611684575f80fd5b823561168f8161164c565b946020939093013593505050565b5f80604083850312156116ae575f80fd5b50508035926020909101359150565b5f602082840312156116cd575f80fd5b81356108ea8161164c565b5f602082840312156116e8575f80fd5b5035919050565b5f8060408385031215611700575f80fd5b8235915060208301356117128161164c565b809150509250929050565b634e487b7160e01b5f52604160045260245ffd5b5f8060408385031215611742575f80fd5b8235915060208301356001600160401b0381111561175e575f80fd5b8301601f8101851361176e575f80fd5b80356001600160401b038111156117875761178761171d565b604051600582901b90603f8201601f191681016001600160401b03811182821017156117b5576117b561171d565b6040529182526020818401810192908101888411156117d2575f80fd5b6020850194505b838510156117f8576117ea85611663565b8152602094850194016117d9565b50809450505050509250929050565b634e487b7160e01b5f52603260045260245ffd5b5f6020828403121561182b575f80fd5b815180151581146108ea575f80fd5b634e487b7160e01b5f52601160045260245ffd5b818103818111156108a1576108a161183a565b634e487b7160e01b5f52603160045260245ffd5b5f8261188f57634e487b7160e01b5f52601260045260245ffd5b500490565b808201808211156108a1576108a161183a565b80820281158282048414176108a1576108a161183a565b5f602082840312156118ce575f80fd5b81516108ea8161164c56fe52977ea98a2220a03ee9ba5cb003ada08d394ea10155483c95dc2dc77a7eb24ba2646970667358221220343e0d31f53e3e64596dd1b396bf2aae19f50bf0f6cf6831ee92f5701cc38b1f64736f6c634300081a003371840dc4906352362b0cdaf79870196c8e42acafade72d5d5a6d59291253ceb1fc8737ab85eb45125971625a9ebdb75cc78e01d5c1fa80c4c6e5203f47bc4fab360894a13ba1a3210667c828492db98dca3e2076cc3735a920a3ca505d382bbca2646970667358221220a3f7565d2ea4bfcfcfeafa27e711abd01896a817b52416c201b62ba8c98dfe8064736f6c634300081a0033","linkReferences":{}},"methodIdentifiers":{"DEFAULT_ADMIN_ROLE()":"a217fddf","GOVERNANCE_ROLE()":"f36c8f5c","KEEPER_ROLE()":"364bc15a","UPGRADE_INTERFACE_VERSION()":"ad3cb1cc","bribeVaults(address)":"ae58cb43","claimBribes(address[],address[][],uint256)":"7715ee75","claimFees(address[],uint256)":"8f052d4d","createBribeVault(address,address[])":"b72fd21b","currentImplementation()":"d8bd5c29","depositManaged(uint256,uint256)":"e0c11f9a","epochNext(uint256)":"880e36fc","epochStart(uint256)":"aa9354a3","epochVoteEnd(uint256)":"d58b15d4","epochVoteStart(uint256)":"39e9f3b6","feeVault()":"478222c2","getRoleAdmin(bytes32)":"248a9ca3","getStakingTokenWeights()":"9d169cd5","grantRole(bytes32,address)":"2f2ff15d","hasRole(bytes32,address)":"91d14854","implementation()":"5c60da1b","infrared()":"21f96c65","initialize(address,address,address)":"c0c53b8b","isAlive(address)":"1703e5f9","isWhitelistedNFT(uint256)":"d4e2616f","isWhitelistedToken(address)":"ab37f486","killBribeVault(address)":"52f52885","lastVoted(uint256)":"f3594be0","length()":"1f7b6d32","maxVotingNum()":"e8b3fd57","poke(uint256)":"32145f90","proxiableUUID()":"52d1902d","renounceRole(bytes32,address)":"36568abe","reset(uint256)":"310bd74b","reviveBribeVault(address)":"7850adee","revokeRole(bytes32,address)":"d547741f","setMaxVotingNum(uint256)":"30331b2f","stakingTokenVote(uint256,uint256)":"aab014eb","stakingTokens(uint256)":"344e5e34","supportsInterface(bytes4)":"01ffc9a7","totalWeight()":"96c82e57","upgradeToAndCall(address,bytes)":"4f1ef286","usedWeights(uint256)":"79e93824","ve()":"1f850716","vote(uint256,address[],uint256[])":"7ac09bf7","votes(uint256,address)":"d23254b4","weights(address)":"a7cac846","whitelistNFT(uint256,bool)":"e2819d5c","withdrawManaged(uint256)":"370fb5fa"},"id":116}