{"abi":[{"type":"constructor","inputs":[{"name":"_stakingToken","type":"address","internalType":"address"},{"name":"_rewardsDuration","type":"uint256","internalType":"uint256"}],"stateMutability":"nonpayable"},{"type":"function","name":"MAX_NUM_REWARD_TOKENS","inputs":[],"outputs":[{"name":"","type":"uint256","internalType":"uint256"}],"stateMutability":"view"},{"type":"function","name":"addReward","inputs":[{"name":"_rewardsToken","type":"address","internalType":"address"},{"name":"_rewardsDuration","type":"uint256","internalType":"uint256"}],"outputs":[],"stateMutability":"nonpayable"},{"type":"function","name":"balanceOf","inputs":[{"name":"account","type":"address","internalType":"address"}],"outputs":[{"name":"_balance","type":"uint256","internalType":"uint256"}],"stateMutability":"view"},{"type":"function","name":"earned","inputs":[{"name":"account","type":"address","internalType":"address"},{"name":"_rewardsToken","type":"address","internalType":"address"}],"outputs":[{"name":"","type":"uint256","internalType":"uint256"}],"stateMutability":"view"},{"type":"function","name":"exit","inputs":[],"outputs":[],"stateMutability":"nonpayable"},{"type":"function","name":"getAllRewardTokens","inputs":[],"outputs":[{"name":"","type":"address[]","internalType":"address[]"}],"stateMutability":"view"},{"type":"function","name":"getAllRewardsForUser","inputs":[{"name":"_user","type":"address","internalType":"address"}],"outputs":[{"name":"","type":"tuple[]","internalType":"struct IInfraredVault.UserReward[]","components":[{"name":"token","type":"address","internalType":"address"},{"name":"amount","type":"uint256","internalType":"uint256"}]}],"stateMutability":"view"},{"type":"function","name":"getReward","inputs":[],"outputs":[],"stateMutability":"nonpayable"},{"type":"function","name":"getRewardForDuration","inputs":[{"name":"_rewardsToken","type":"address","internalType":"address"}],"outputs":[{"name":"","type":"uint256","internalType":"uint256"}],"stateMutability":"view"},{"type":"function","name":"getRewardForUser","inputs":[{"name":"_user","type":"address","internalType":"address"}],"outputs":[],"stateMutability":"nonpayable"},{"type":"function","name":"infrared","inputs":[],"outputs":[{"name":"","type":"address","internalType":"address"}],"stateMutability":"view"},{"type":"function","name":"lastTimeRewardApplicable","inputs":[{"name":"_rewardsToken","type":"address","internalType":"address"}],"outputs":[{"name":"","type":"uint256","internalType":"uint256"}],"stateMutability":"view"},{"type":"function","name":"notifyRewardAmount","inputs":[{"name":"_rewardToken","type":"address","internalType":"address"},{"name":"_reward","type":"uint256","internalType":"uint256"}],"outputs":[],"stateMutability":"nonpayable"},{"type":"function","name":"paused","inputs":[],"outputs":[{"name":"","type":"bool","internalType":"bool"}],"stateMutability":"view"},{"type":"function","name":"recoverERC20","inputs":[{"name":"_to","type":"address","internalType":"address"},{"name":"_token","type":"address","internalType":"address"},{"name":"_amount","type":"uint256","internalType":"uint256"}],"outputs":[],"stateMutability":"nonpayable"},{"type":"function","name":"rewardData","inputs":[{"name":"","type":"address","internalType":"address"}],"outputs":[{"name":"rewardsDistributor","type":"address","internalType":"address"},{"name":"rewardsDuration","type":"uint256","internalType":"uint256"},{"name":"periodFinish","type":"uint256","internalType":"uint256"},{"name":"rewardRate","type":"uint256","internalType":"uint256"},{"name":"lastUpdateTime","type":"uint256","internalType":"uint256"},{"name":"rewardPerTokenStored","type":"uint256","internalType":"uint256"},{"name":"rewardResidual","type":"uint256","internalType":"uint256"}],"stateMutability":"view"},{"type":"function","name":"rewardPerToken","inputs":[{"name":"_rewardsToken","type":"address","internalType":"address"}],"outputs":[{"name":"","type":"uint256","internalType":"uint256"}],"stateMutability":"view"},{"type":"function","name":"rewardTokens","inputs":[{"name":"","type":"uint256","internalType":"uint256"}],"outputs":[{"name":"","type":"address","internalType":"address"}],"stateMutability":"view"},{"type":"function","name":"rewards","inputs":[{"name":"","type":"address","internalType":"address"},{"name":"","type":"address","internalType":"address"}],"outputs":[{"name":"","type":"uint256","internalType":"uint256"}],"stateMutability":"view"},{"type":"function","name":"rewardsVault","inputs":[],"outputs":[{"name":"","type":"address","internalType":"contract IRewardVault"}],"stateMutability":"view"},{"type":"function","name":"stake","inputs":[{"name":"amount","type":"uint256","internalType":"uint256"}],"outputs":[],"stateMutability":"nonpayable"},{"type":"function","name":"stakingToken","inputs":[],"outputs":[{"name":"","type":"address","internalType":"contract ERC20"}],"stateMutability":"view"},{"type":"function","name":"togglePause","inputs":[],"outputs":[],"stateMutability":"nonpayable"},{"type":"function","name":"totalSupply","inputs":[],"outputs":[{"name":"","type":"uint256","internalType":"uint256"}],"stateMutability":"view"},{"type":"function","name":"updateRewardsDuration","inputs":[{"name":"_rewardsToken","type":"address","internalType":"address"},{"name":"_rewardsDuration","type":"uint256","internalType":"uint256"}],"outputs":[],"stateMutability":"nonpayable"},{"type":"function","name":"userRewardPerTokenPaid","inputs":[{"name":"","type":"address","internalType":"address"},{"name":"","type":"address","internalType":"address"}],"outputs":[{"name":"","type":"uint256","internalType":"uint256"}],"stateMutability":"view"},{"type":"function","name":"withdraw","inputs":[{"name":"amount","type":"uint256","internalType":"uint256"}],"outputs":[],"stateMutability":"nonpayable"},{"type":"event","name":"Paused","inputs":[{"name":"account","type":"address","indexed":false,"internalType":"address"}],"anonymous":false},{"type":"event","name":"Recovered","inputs":[{"name":"token","type":"address","indexed":false,"internalType":"address"},{"name":"amount","type":"uint256","indexed":false,"internalType":"uint256"}],"anonymous":false},{"type":"event","name":"RewardAdded","inputs":[{"name":"rewardsToken","type":"address","indexed":true,"internalType":"address"},{"name":"reward","type":"uint256","indexed":false,"internalType":"uint256"}],"anonymous":false},{"type":"event","name":"RewardPaid","inputs":[{"name":"user","type":"address","indexed":true,"internalType":"address"},{"name":"rewardsToken","type":"address","indexed":true,"internalType":"address"},{"name":"reward","type":"uint256","indexed":false,"internalType":"uint256"}],"anonymous":false},{"type":"event","name":"RewardStored","inputs":[{"name":"rewardsToken","type":"address","indexed":false,"internalType":"address"},{"name":"rewardsDuration","type":"uint256","indexed":false,"internalType":"uint256"}],"anonymous":false},{"type":"event","name":"RewardsDistributorUpdated","inputs":[{"name":"rewardsToken","type":"address","indexed":true,"internalType":"address"},{"name":"newDistributor","type":"address","indexed":true,"internalType":"address"}],"anonymous":false},{"type":"event","name":"RewardsDurationUpdated","inputs":[{"name":"token","type":"address","indexed":false,"internalType":"address"},{"name":"newDuration","type":"uint256","indexed":false,"internalType":"uint256"}],"anonymous":false},{"type":"event","name":"Staked","inputs":[{"name":"user","type":"address","indexed":true,"internalType":"address"},{"name":"amount","type":"uint256","indexed":false,"internalType":"uint256"}],"anonymous":false},{"type":"event","name":"Unpaused","inputs":[{"name":"account","type":"address","indexed":false,"internalType":"address"}],"anonymous":false},{"type":"event","name":"Withdrawn","inputs":[{"name":"user","type":"address","indexed":true,"internalType":"address"},{"name":"amount","type":"uint256","indexed":false,"internalType":"uint256"}],"anonymous":false},{"type":"error","name":"EnforcedPause","inputs":[]},{"type":"error","name":"ExpectedPause","inputs":[]},{"type":"error","name":"MaxNumberOfRewards","inputs":[]},{"type":"error","name":"ReentrancyGuardReentrantCall","inputs":[]},{"type":"error","name":"Unauthorized","inputs":[{"name":"sender","type":"address","internalType":"address"}]},{"type":"error","name":"ZeroAddress","inputs":[]},{"type":"error","name":"ZeroAmount","inputs":[]}],"bytecode":{"object":"0x60e060405234801561000f575f80fd5b5060405161247338038061247383398101604081905261002e916103f3565b60015f819055805460ff191690556001600160a01b03821660808190523360a05261006c5760405163d92e233d60e01b815260040160405180910390fd5b805f0361008c57604051631f2a200560e01b815260040160405180910390fd5b60a05161009990836101b1565b6001600160a01b031660c081905260a05160405163b3ab15fb60e01b815263b3ab15fb916100c99160040161041f565b5f604051808303815f87803b1580156100e0575f80fd5b505af11580156100f2573d5f803e3d5ffd5b505050505f60a0516001600160a01b0316633dafa4f36040518163ffffffff1660e01b8152600401602060405180830381865afa158015610135573d5f803e3d5ffd5b505050506040513d601f19601f820116820180604052508101906101599190610433565b905061016e8160a0518461030a60201b60201c565b60065461017c906001610455565b600655335f90815260076020526040902054610199906001610455565b335f9081526007602052604090205550610474915050565b5f80836001600160a01b03166351d089446040518163ffffffff1660e01b8152600401602060405180830381865afa1580156101ef573d5f803e3d5ffd5b505050506040513d601f19601f820116820180604052508101906102139190610433565b90505f816001600160a01b0316630eb9af38856040518263ffffffff1660e01b8152600401610242919061041f565b602060405180830381865afa15801561025d573d5f803e3d5ffd5b505050506040513d601f19601f820116820180604052508101906102819190610433565b90506001600160a01b0381166103005760405163577ee5c760e01b81526001600160a01b0383169063577ee5c7906102bd90879060040161041f565b6020604051808303815f875af11580156102d9573d5f803e3d5ffd5b505050506040513d601f19601f820116820180604052508101906102fd9190610433565b90505b9150505b92915050565b6001600160a01b0383165f908152600260205260409020600101541561032e575f80fd5b6003805460018082019092557fc2575a0e9e593c00f959f8c92f12db2869c3395a3b0502d05e2516446f71f85b0180546001600160a01b03199081166001600160a01b038781169182179093555f8181526002602090815260409182902080549094169488169490941783559190930184905580519283529082018390527f7589b0732052d2ded19f37e278ed2ae0d7d2e93b21d3931b73c5200a13671653910160405180910390a1505050565b6001600160a01b03811681146103f0575f80fd5b50565b5f8060408385031215610404575f80fd5b825161040f816103dc565b6020939093015192949293505050565b6001600160a01b0391909116815260200190565b5f60208284031215610443575f80fd5b815161044e816103dc565b9392505050565b8082018082111561030457634e487b7160e01b5f52601160045260245ffd5b60805160a05160c051611f736105005f395f81816102aa0152818161132c015281816115b701526115f201525f81816101a80152818161045301528181610a1701528181610ac801528181610ce401528181610dac01528181610e480152611b6101525f818161034c0152818161093c01528181610c6e015281816115950152611b8e0152611f735ff3fe608060405234801561000f575f80fd5b5060043610610147575f3560e01c80631171bda91461014b57806312edb24c1461016057806318160ddd1461017e578063211dc32d1461019057806321f96c65146101a35780632a170546146101d75780632e1a7d4d146101f75780633d18b9121461020a57806348e5d9f8146102125780635579ed01146102a55780635c975abb146102cc578063638634ee146102e25780637035ab98146102f557806370a082311461031f57806372f702f3146103475780637bb7bed11461036e5780639feb8f5014610381578063a694fc3a14610394578063b66503cf146103a7578063bcd11014146103ba578063c004ac61146103cd578063c4ae3168146103e0578063e70b9e27146103e8578063e9fad8ee14610412578063ef790a821461041a578063f12297771461042d578063f65ae95914610440575b5f80fd5b61015e610159366004611caf565b610448565b005b610168610507565b6040516101759190611ce9565b60405180910390f35b6006545b604051908152602001610175565b61018261019e366004611d34565b610567565b6101ca7f000000000000000000000000000000000000000000000000000000000000000081565b6040516101759190611d65565b6101ea6101e5366004611d79565b6105ff565b6040516101759190611d92565b61015e610205366004611dde565b6107b7565b61015e6109a6565b610266610220366004611d79565b600260208190525f918252604090912080546001820154928201546003830154600484015460058501546006909501546001600160a01b03909416959492939192909187565b604080516001600160a01b0390981688526020880196909652948601939093526060850191909152608084015260a083015260c082015260e001610175565b6101ca7f000000000000000000000000000000000000000000000000000000000000000081565b60015460ff166040519015158152602001610175565b6101826102f0366004611d79565b6109b1565b610182610303366004611d34565b600460209081525f928352604080842090915290825290205481565b61018261032d366004611d79565b6001600160a01b03165f9081526007602052604090205490565b6101ca7f000000000000000000000000000000000000000000000000000000000000000081565b6101ca61037c366004611dde565b6109e4565b61015e61038f366004611df5565b610a0c565b61015e6103a2366004611dde565b610af1565b61015e6103b5366004611df5565b610cd9565b6101826103c8366004611d79565b610d75565b61015e6103db366004611df5565b610da1565b61015e610e3d565b6101826103f6366004611d34565b600560209081525f928352604080842090915290825290205481565b61015e610ead565b61015e610428366004611d79565b610ecd565b61018261043b366004611d79565b61118a565b610182600a81565b336001600160a01b037f0000000000000000000000000000000000000000000000000000000000000000161461049c573360405163472511eb60e11b81526004016104939190611d65565b60405180910390fd5b6001600160a01b03831615806104b957506001600160a01b038216155b156104d75760405163d92e233d60e01b815260040160405180910390fd5b805f036104f757604051631f2a200560e01b815260040160405180910390fd5b610502838383611235565b505050565b6060600380548060200260200160405190810160405280929190818152602001828054801561055d57602002820191905f5260205f20905b81546001600160a01b0316815260019091019060200180831161053f575b5050505050905090565b6001600160a01b038083165f818152600560209081526040808320948616808452948252808320549383526004825280832094835293905291822054670de0b6b3a7640000906105b68561118a565b6105c09190611e31565b6001600160a01b0386165f908152600760205260409020546105e29190611e44565b6105ec9190611e6f565b6105f69190611e82565b90505b92915050565b6003546060905f816001600160401b0381111561061e5761061e611e95565b60405190808252806020026020018201604052801561065757816020015b610644611c7e565b81526020019060019003908161063c5790505b5090505f805b8381101561070e575f610696876003848154811061067d5761067d611ea9565b5f918252602090912001546001600160a01b0316610567565b90508015610705576040518060400160405280600384815481106106bc576106bc611ea9565b5f91825260209182902001546001600160a01b031682520182905284518590859081106106eb576106eb611ea9565b6020026020010181905250828061070190611ebd565b9350505b5060010161065d565b505f816001600160401b0381111561072857610728611e95565b60405190808252806020026020018201604052801561076157816020015b61074e611c7e565b8152602001906001900390816107465790505b5090505f5b828110156107ad5783818151811061078057610780611ea9565b602002602001015182828151811061079a5761079a611ea9565b6020908102919091010152600101610766565b5095945050505050565b6107bf6112ee565b335f5b6003548110156108a8575f600382815481106107e0576107e0611ea9565b5f918252602090912001546001600160a01b031690506107ff8161118a565b6001600160a01b0382165f90815260026020526040902060050155610823816109b1565b6001600160a01b038083165f9081526002602052604090206004019190915583161561089f576108538382610567565b6001600160a01b038085165f8181526005602081815260408084209588168085529582528084209690965560028152858320909101549282526004815284822093825292909252919020555b506001016107c2565b505f82116108ec5760405162461bcd60e51b8152602060048201526011602482015270043616e6e6f74207769746864726177203607c1b6044820152606401610493565b816006546108fa9190611e31565b600655335f90815260076020526040902054610917908390611e31565b335f9081526007602052604090205561092f82611316565b6109636001600160a01b037f000000000000000000000000000000000000000000000000000000000000000016338461138f565b60405182815233907f7084f5476618d8e60b11ef0d7d3f06914655adb8793e28ff7f018d4c76d505d5906020015b60405180910390a2506109a360015f55565b50565b6109af33610ecd565b565b6001600160a01b0381165f90815260026020819052604082200154428181106109da57816109dc565b805b949350505050565b600381815481106109f3575f80fd5b5f918252602090912001546001600160a01b0316905081565b336001600160a01b037f00000000000000000000000000000000000000000000000000000000000000001614610a57573360405163472511eb60e11b81526004016104939190611d65565b6001600160a01b038216610a7e5760405163d92e233d60e01b815260040160405180910390fd5b805f03610a9e57604051631f2a200560e01b815260040160405180910390fd5b60035460091901610ac25760405163aa4f98e760e01b815260040160405180910390fd5b610aed827f000000000000000000000000000000000000000000000000000000000000000083611412565b5050565b610af96112ee565b610b016114d3565b335f5b600354811015610bea575f60038281548110610b2257610b22611ea9565b5f918252602090912001546001600160a01b03169050610b418161118a565b6001600160a01b0382165f90815260026020526040902060050155610b65816109b1565b6001600160a01b038083165f90815260026020526040902060040191909155831615610be157610b958382610567565b6001600160a01b038085165f8181526005602081815260408084209588168085529582528084209690965560028152858320909101549282526004815284822093825292909252919020555b50600101610b04565b505f8211610c2b5760405162461bcd60e51b815260206004820152600e60248201526d043616e6e6f74207374616b6520360941b6044820152606401610493565b81600654610c399190611e82565b600655335f90815260076020526040902054610c56908390611e82565b335f81815260076020526040902091909155610c9e907f00000000000000000000000000000000000000000000000000000000000000006001600160a01b03169030856114f7565b610ca782611588565b60405182815233907f9e71bc8eea02a63969f509818f2dafb9254532904319f9dbda79b67bd34a5f3d90602001610991565b336001600160a01b037f00000000000000000000000000000000000000000000000000000000000000001614610d24573360405163472511eb60e11b81526004016104939190611d65565b6001600160a01b038216610d4b5760405163d92e233d60e01b815260040160405180910390fd5b805f03610d6b57604051631f2a200560e01b815260040160405180910390fd5b610aed8282611629565b6001600160a01b0381165f90815260026020526040812060018101546003909101546105f99190611e44565b336001600160a01b037f00000000000000000000000000000000000000000000000000000000000000001614610dec573360405163472511eb60e11b81526004016104939190611d65565b6001600160a01b038216610e135760405163d92e233d60e01b815260040160405180910390fd5b805f03610e3357604051631f2a200560e01b815260040160405180910390fd5b610aed82826119b2565b336001600160a01b037f00000000000000000000000000000000000000000000000000000000000000001614610e88573360405163472511eb60e11b81526004016104939190611d65565b5f610e9560015460ff1690565b90508015610ea5576109a3611ac3565b6109a3611b0f565b335f90815260076020526040902054610ec5906107b7565b6109af6109a6565b610ed56112ee565b805f5b600354811015610fbe575f60038281548110610ef657610ef6611ea9565b5f918252602090912001546001600160a01b03169050610f158161118a565b6001600160a01b0382165f90815260026020526040902060050155610f39816109b1565b6001600160a01b038083165f90815260026020526040902060040191909155831615610fb557610f698382610567565b6001600160a01b038085165f8181526005602081815260408084209588168085529582528084209690965560028152858320909101549282526004815284822093825292909252919020555b50600101610ed8565b50610fc7611b4a565b6003545f5b8181101561117e575f60038281548110610fe857610fe8611ea9565b5f9182526020808320909101546001600160a01b038881168452600583526040808520919092168085529252909120549091508015611173576001600160a01b038087165f90815260056020908152604080832093861680845293909152808220829055519091829163a9059cbb60e01b9061106a908b908790602401611ed5565b60408051601f198184030181529181526020820180516001600160e01b03166001600160e01b03199094169390931790925290516110a89190611eee565b5f604051808303815f865af19150503d805f81146110e1576040519150601f19603f3d011682016040523d82523d5f602084013e6110e6565b606091505b50915091508180156111105750805115806111105750808060200190518101906111109190611f04565b1561116757836001600160a01b0316886001600160a01b03167f540798df468d7b23d11f156fdb954cb19ad414d150722a7b6d55ba369dea792e8560405161115a91815260200190565b60405180910390a3611170565b50505050611176565b50505b50505b600101610fcc565b5050506109a360015f55565b5f6006545f036111b257506001600160a01b03165f9081526002602052604090206005015490565b6006546001600160a01b0383165f90815260026020526040902060038101546004909101546111e0856109b1565b6111ea9190611e31565b6111f49190611e44565b61120690670de0b6b3a7640000611e44565b6112109190611e6f565b6001600160a01b0383165f908152600260205260409020600501546105f99190611e82565b6001600160a01b0382165f908152600260205260409020600401541561129c5760405162461bcd60e51b815260206004820152601c60248201527b21b0b73737ba103bb4ba34323930bb903932bbb0b932103a37b5b2b760211b6044820152606401610493565b6112b06001600160a01b038316848361138f565b7f8c1256b8896378cd5044f80c202f9772b9d77dc85c8a6eb51967210b09bfaa2882826040516112e1929190611ed5565b60405180910390a1505050565b60025f540361131057604051633ee5aeb560e01b815260040160405180910390fd5b60025f55565b604051632e1a7d4d60e01b8152600481018290527f00000000000000000000000000000000000000000000000000000000000000006001600160a01b031690632e1a7d4d906024015b5f604051808303815f87803b158015611376575f80fd5b505af1158015611388573d5f803e3d5ffd5b5050505050565b5f60405163a9059cbb60e01b81526001600160a01b038416600482015282602482015260205f6044835f895af13d15601f3d1160015f51141617169150508061140c5760405162461bcd60e51b815260206004820152600f60248201526e1514905394d1915497d19052531151608a1b6044820152606401610493565b50505050565b6001600160a01b0383165f9081526002602052604090206001015415611436575f80fd5b6003805460018181019092557fc2575a0e9e593c00f959f8c92f12db2869c3395a3b0502d05e2516446f71f85b0180546001600160a01b038087166001600160a01b031992831681179093555f9283526002602052604092839020805491871691909216178155909101829055517f7589b0732052d2ded19f37e278ed2ae0d7d2e93b21d3931b73c5200a13671653906112e19085908490611ed5565b60015460ff16156109af5760405163d93c066560e01b815260040160405180910390fd5b5f6040516323b872dd60e01b81526001600160a01b03851660048201526001600160a01b038416602482015282604482015260205f6064835f8a5af13d15601f3d1160015f5114161716915050806113885760405162461bcd60e51b81526020600482015260146024820152731514905394d1915497d19493d357d1905253115160621b6044820152606401610493565b6115dc6001600160a01b037f0000000000000000000000000000000000000000000000000000000000000000167f000000000000000000000000000000000000000000000000000000000000000083611bdf565b60405163534a7e1d60e11b8152600481018290527f00000000000000000000000000000000000000000000000000000000000000006001600160a01b03169063a694fc3a9060240161135f565b6116316114d3565b5f805b60035481101561171a575f6003828154811061165257611652611ea9565b5f918252602090912001546001600160a01b031690506116718161118a565b6001600160a01b0382165f90815260026020526040902060050155611695816109b1565b6001600160a01b038083165f90815260026020526040902060040191909155831615611711576116c58382610567565b6001600160a01b038085165f8181526005602081815260408084209588168085529582528084209690965560028152858320909101549282526004815284822093825292909252919020555b50600101611634565b506117306001600160a01b0384163330856114f7565b6001600160a01b0383165f908152600260205260409020600601546117559083611e82565b6001600160a01b0384165f9081526002602052604090206001015490925061177d9083611f2a565b6001600160a01b0384165f9081526002602052604090206006018190556117a49083611e31565b6001600160a01b0384165f9081526002602081905260409091200154909250421061180e576001600160a01b0383165f908152600260205260409020600101546117ee9083611e6f565b6001600160a01b0384165f90815260026020526040902060030155611926565b6001600160a01b0383165f90815260026020819052604082200154611834904290611e31565b6001600160a01b0385165f908152600260205260408120600301549192509061185d9083611e44565b6001600160a01b0386165f90815260026020526040812060060154919250906118868387611e82565b6118909190611e82565b6001600160a01b0387165f908152600260205260409020600101549091506118b89082611f2a565b6001600160a01b0387165f9081526002602052604090206006018190556118df9082611e31565b6001600160a01b0387165f908152600260205260409020600101549091506119079082611e6f565b6001600160a01b0387165f908152600260205260409020600301555050505b6001600160a01b0383165f908152600260205260409020426004820181905560019091015461195491611e82565b6001600160a01b0384165f81815260026020819052604091829020019290925590517fac24935fd910bc682b5ccb1a07b718cadf8cf2f6d1404c4f3ddc3662dae40e29906119a59085815260200190565b60405180910390a2505050565b6001600160a01b0382165f90815260026020819052604090912001544211611a195760405162461bcd60e51b815260206004820152601a60248201527952657761726420706572696f64207374696c6c2061637469766560301b6044820152606401610493565b5f8111611a685760405162461bcd60e51b815260206004820181905260248201527f526577617264206475726174696f6e206d757374206265206e6f6e2d7a65726f6044820152606401610493565b6001600160a01b0382165f9081526002602052604090819020600101829055517fad2f86b01ed93b4b3a150d448c61a4f5d8d38075d3c0c64cc0a26fd6e1f4954590611ab79084908490611ed5565b60405180910390a15050565b611acb611c5b565b6001805460ff191690557f5db9ee0a495bf2e6ff9c91a7834c1ba4fdd244a5e8aa4e537bd38aeae4b073aa335b604051611b059190611d65565b60405180910390a1565b611b176114d3565b6001805460ff1916811790557f62e78cea01bee320cd4e420270b5ea74000d11b0c9f74754ebdbfc544b05a25833611af8565b604051630517811f60e11b81526001600160a01b037f00000000000000000000000000000000000000000000000000000000000000001690630a2f023e90611bb6907f000000000000000000000000000000000000000000000000000000000000000090600401611d65565b5f604051808303815f87803b158015611bcd575f80fd5b505af115801561140c573d5f803e3d5ffd5b5f60405163095ea7b360e01b81526001600160a01b038416600482015282602482015260205f6044835f895af13d15601f3d1160015f51141617169150508061140c5760405162461bcd60e51b815260206004820152600e60248201526d1054141493d59157d1905253115160921b6044820152606401610493565b60015460ff166109af57604051638dfc202b60e01b815260040160405180910390fd5b604080518082019091525f808252602082015290565b80356001600160a01b0381168114611caa575f80fd5b919050565b5f805f60608486031215611cc1575f80fd5b611cca84611c94565b9250611cd860208501611c94565b929592945050506040919091013590565b602080825282518282018190525f918401906040840190835b81811015611d295783516001600160a01b0316835260209384019390920191600101611d02565b509095945050505050565b5f8060408385031215611d45575f80fd5b611d4e83611c94565b9150611d5c60208401611c94565b90509250929050565b6001600160a01b0391909116815260200190565b5f60208284031215611d89575f80fd5b6105f682611c94565b602080825282518282018190525f918401906040840190835b81811015611d2957835180516001600160a01b031684526020908101518185015290930192604090920191600101611dab565b5f60208284031215611dee575f80fd5b5035919050565b5f8060408385031215611e06575f80fd5b611e0f83611c94565b946020939093013593505050565b634e487b7160e01b5f52601160045260245ffd5b818103818111156105f9576105f9611e1d565b80820281158282048414176105f9576105f9611e1d565b634e487b7160e01b5f52601260045260245ffd5b5f82611e7d57611e7d611e5b565b500490565b808201808211156105f9576105f9611e1d565b634e487b7160e01b5f52604160045260245ffd5b634e487b7160e01b5f52603260045260245ffd5b5f60018201611ece57611ece611e1d565b5060010190565b6001600160a01b03929092168252602082015260400190565b5f82518060208501845e5f920191825250919050565b5f60208284031215611f14575f80fd5b81518015158114611f23575f80fd5b9392505050565b5f82611f3857611f38611e5b565b50069056fea2646970667358221220e5823b3c7ead0a185bb177b3abf5d9a846bd852297810698d5718bf2c589451f64736f6c634300081a0033","linkReferences":{}},"methodIdentifiers":{"MAX_NUM_REWARD_TOKENS()":"f65ae959","addReward(address,uint256)":"9feb8f50","balanceOf(address)":"70a08231","earned(address,address)":"211dc32d","exit()":"e9fad8ee","getAllRewardTokens()":"12edb24c","getAllRewardsForUser(address)":"2a170546","getReward()":"3d18b912","getRewardForDuration(address)":"bcd11014","getRewardForUser(address)":"ef790a82","infrared()":"21f96c65","lastTimeRewardApplicable(address)":"638634ee","notifyRewardAmount(address,uint256)":"b66503cf","paused()":"5c975abb","recoverERC20(address,address,uint256)":"1171bda9","rewardData(address)":"48e5d9f8","rewardPerToken(address)":"f1229777","rewardTokens(uint256)":"7bb7bed1","rewards(address,address)":"e70b9e27","rewardsVault()":"5579ed01","stake(uint256)":"a694fc3a","stakingToken()":"72f702f3","togglePause()":"c4ae3168","totalSupply()":"18160ddd","updateRewardsDuration(address,uint256)":"c004ac61","userRewardPerTokenPaid(address,address)":"7035ab98","withdraw(uint256)":"2e1a7d4d"},"id":78}