{"abi":[{"type":"constructor","inputs":[{"name":"_voter","type":"address","internalType":"address"},{"name":"_rewards","type":"address[]","internalType":"address[]"}],"stateMutability":"nonpayable"},{"type":"function","name":"DURATION","inputs":[],"outputs":[{"name":"","type":"uint256","internalType":"uint256"}],"stateMutability":"view"},{"type":"function","name":"_deposit","inputs":[{"name":"amount","type":"uint256","internalType":"uint256"},{"name":"tokenId","type":"uint256","internalType":"uint256"}],"outputs":[],"stateMutability":"nonpayable"},{"type":"function","name":"_withdraw","inputs":[{"name":"amount","type":"uint256","internalType":"uint256"},{"name":"tokenId","type":"uint256","internalType":"uint256"}],"outputs":[],"stateMutability":"nonpayable"},{"type":"function","name":"authorized","inputs":[],"outputs":[{"name":"","type":"address","internalType":"address"}],"stateMutability":"view"},{"type":"function","name":"balanceOf","inputs":[{"name":"","type":"uint256","internalType":"uint256"}],"outputs":[{"name":"","type":"uint256","internalType":"uint256"}],"stateMutability":"view"},{"type":"function","name":"checkpoints","inputs":[{"name":"","type":"uint256","internalType":"uint256"},{"name":"","type":"uint256","internalType":"uint256"}],"outputs":[{"name":"timestamp","type":"uint256","internalType":"uint256"},{"name":"balanceOf","type":"uint256","internalType":"uint256"}],"stateMutability":"view"},{"type":"function","name":"earned","inputs":[{"name":"token","type":"address","internalType":"address"},{"name":"tokenId","type":"uint256","internalType":"uint256"}],"outputs":[{"name":"","type":"uint256","internalType":"uint256"}],"stateMutability":"view"},{"type":"function","name":"getPriorBalanceIndex","inputs":[{"name":"tokenId","type":"uint256","internalType":"uint256"},{"name":"timestamp","type":"uint256","internalType":"uint256"}],"outputs":[{"name":"","type":"uint256","internalType":"uint256"}],"stateMutability":"view"},{"type":"function","name":"getPriorSupplyIndex","inputs":[{"name":"timestamp","type":"uint256","internalType":"uint256"}],"outputs":[{"name":"","type":"uint256","internalType":"uint256"}],"stateMutability":"view"},{"type":"function","name":"getReward","inputs":[{"name":"tokenId","type":"uint256","internalType":"uint256"},{"name":"tokens","type":"address[]","internalType":"address[]"}],"outputs":[],"stateMutability":"nonpayable"},{"type":"function","name":"isReward","inputs":[{"name":"","type":"address","internalType":"address"}],"outputs":[{"name":"","type":"bool","internalType":"bool"}],"stateMutability":"view"},{"type":"function","name":"lastEarn","inputs":[{"name":"","type":"address","internalType":"address"},{"name":"","type":"uint256","internalType":"uint256"}],"outputs":[{"name":"","type":"uint256","internalType":"uint256"}],"stateMutability":"view"},{"type":"function","name":"notifyRewardAmount","inputs":[{"name":"token","type":"address","internalType":"address"},{"name":"amount","type":"uint256","internalType":"uint256"}],"outputs":[],"stateMutability":"nonpayable"},{"type":"function","name":"numCheckpoints","inputs":[{"name":"","type":"uint256","internalType":"uint256"}],"outputs":[{"name":"","type":"uint256","internalType":"uint256"}],"stateMutability":"view"},{"type":"function","name":"removeNoLongerWhitelistedTokens","inputs":[{"name":"tokens","type":"address[]","internalType":"address[]"}],"outputs":[],"stateMutability":"nonpayable"},{"type":"function","name":"renotifyRewardAmount","inputs":[{"name":"timestamp","type":"uint256","internalType":"uint256"},{"name":"token","type":"address","internalType":"address"}],"outputs":[],"stateMutability":"nonpayable"},{"type":"function","name":"rewards","inputs":[{"name":"","type":"uint256","internalType":"uint256"}],"outputs":[{"name":"","type":"address","internalType":"address"}],"stateMutability":"view"},{"type":"function","name":"rewardsListLength","inputs":[],"outputs":[{"name":"","type":"uint256","internalType":"uint256"}],"stateMutability":"view"},{"type":"function","name":"supplyCheckpoints","inputs":[{"name":"","type":"uint256","internalType":"uint256"}],"outputs":[{"name":"timestamp","type":"uint256","internalType":"uint256"},{"name":"supply","type":"uint256","internalType":"uint256"}],"stateMutability":"view"},{"type":"function","name":"supplyNumCheckpoints","inputs":[],"outputs":[{"name":"","type":"uint256","internalType":"uint256"}],"stateMutability":"view"},{"type":"function","name":"tokenRewardsPerEpoch","inputs":[{"name":"","type":"address","internalType":"address"},{"name":"","type":"uint256","internalType":"uint256"}],"outputs":[{"name":"","type":"uint256","internalType":"uint256"}],"stateMutability":"view"},{"type":"function","name":"totalSupply","inputs":[],"outputs":[{"name":"","type":"uint256","internalType":"uint256"}],"stateMutability":"view"},{"type":"function","name":"ve","inputs":[],"outputs":[{"name":"","type":"address","internalType":"address"}],"stateMutability":"view"},{"type":"function","name":"voter","inputs":[],"outputs":[{"name":"","type":"address","internalType":"address"}],"stateMutability":"view"},{"type":"event","name":"ClaimRewards","inputs":[{"name":"from","type":"address","indexed":true,"internalType":"address"},{"name":"reward","type":"address","indexed":true,"internalType":"address"},{"name":"amount","type":"uint256","indexed":false,"internalType":"uint256"}],"anonymous":false},{"type":"event","name":"Deposit","inputs":[{"name":"from","type":"address","indexed":true,"internalType":"address"},{"name":"tokenId","type":"uint256","indexed":true,"internalType":"uint256"},{"name":"amount","type":"uint256","indexed":false,"internalType":"uint256"}],"anonymous":false},{"type":"event","name":"NoLongerWhitelistedTokenRemoved","inputs":[{"name":"token","type":"address","indexed":true,"internalType":"address"}],"anonymous":false},{"type":"event","name":"NotifyReward","inputs":[{"name":"from","type":"address","indexed":true,"internalType":"address"},{"name":"reward","type":"address","indexed":true,"internalType":"address"},{"name":"epoch","type":"uint256","indexed":true,"internalType":"uint256"},{"name":"amount","type":"uint256","indexed":false,"internalType":"uint256"}],"anonymous":false},{"type":"event","name":"Withdraw","inputs":[{"name":"from","type":"address","indexed":true,"internalType":"address"},{"name":"tokenId","type":"uint256","indexed":true,"internalType":"uint256"},{"name":"amount","type":"uint256","indexed":false,"internalType":"uint256"}],"anonymous":false},{"type":"error","name":"ActiveEpoch","inputs":[]},{"type":"error","name":"InvalidReward","inputs":[]},{"type":"error","name":"NonZeroSupply","inputs":[]},{"type":"error","name":"NotAuthorized","inputs":[]},{"type":"error","name":"NotWhitelisted","inputs":[]},{"type":"error","name":"ReentrancyGuardReentrantCall","inputs":[]},{"type":"error","name":"ZeroAmount","inputs":[]}],"bytecode":{"object":"0x60e060405234801561000f575f80fd5b50604051611c7c380380611c7c83398101604081905261002e916101e0565b60015f556001600160a01b038216608081905260408051630fc2838b60e11b81529051849284928492631f850716916004808201926020929091908290030181865afa158015610080573d5f803e3d5ffd5b505050506040513d601f19601f820116820180604052508101906100a491906102be565b6001600160a01b031660a0525080515f5b8181101561019a575f6001600160a01b03168382815181106100d9576100d96102de565b60200260200101516001600160a01b03161461019257600160075f858481518110610106576101066102de565b60200260200101516001600160a01b03166001600160a01b031681526020019081526020015f205f6101000a81548160ff0219169083151502179055506003838281518110610157576101576102de565b60209081029190910181015182546001810184555f938452919092200180546001600160a01b0319166001600160a01b039092169190911790555b6001016100b5565b5050506001600160a01b031660c052506102f29050565b80516001600160a01b03811681146101c7575f80fd5b919050565b634e487b7160e01b5f52604160045260245ffd5b5f80604083850312156101f1575f80fd5b6101fa836101b1565b60208401519092506001600160401b03811115610215575f80fd5b8301601f81018513610225575f80fd5b80516001600160401b0381111561023e5761023e6101cc565b604051600582901b90603f8201601f191681016001600160401b038111828210171561026c5761026c6101cc565b604052918252602081840181019290810188841115610289575f80fd5b6020850194505b838510156102af576102a1856101b1565b815260209485019401610290565b50809450505050509250929050565b5f602082840312156102ce575f80fd5b6102d7826101b1565b9392505050565b634e487b7160e01b5f52603260045260245ffd5b60805160a05160c05161192f61034d5f395f81816101b1015281816109dc0152610e9101525f818161016a01528181610f80015261105e01525f81816101d8015281816103df01528181610c280152611005015261192f5ff3fe608060405234801561000f575f80fd5b5060043610610126575f3560e01c80630a664ad71461012a57806318160ddd1461013f5780631be052891461015b5780631f850716146101655780633e491d4714610199578063456cb7c6146101ac57806346c96aac146101d357806349dcc204146101fa5780634d5ce03814610240578063505897931461027257806376f4be361461029157806392777b29146102a45780639cc7f708146102ce5780639e2bf22c146102ed578063a28d4c9c14610300578063b66503cf14610313578063dfa0ba1014610326578063e688639614610339578063e8111a1214610341578063f25e55a51461034a578063f301af4214610374578063f320772314610387578063f5f8d3651461039a578063f7412baf146103ad575b5f80fd5b61013d6101383660046115c9565b6103d3565b005b61014860015481565b6040519081526020015b60405180910390f35b61014862093a8081565b61018c7f000000000000000000000000000000000000000000000000000000000000000081565b6040516101529190611638565b6101486101a7366004611673565b6106bd565b61018c7f000000000000000000000000000000000000000000000000000000000000000081565b61018c7f000000000000000000000000000000000000000000000000000000000000000081565b61022b61020836600461169d565b600860209081525f92835260408084209091529082529020805460019091015482565b60408051928352602083019190915201610152565b61026261024e3660046116bd565b60076020525f908152604090205460ff1681565b6040519015158152602001610152565b6101486102803660046116d8565b60096020525f908152604090205481565b61014861029f3660046116d8565b6108a7565b6101486102b2366004611673565b600560209081525f928352604080842090915290825290205481565b6101486102dc3660046116d8565b60046020525f908152604090205481565b61013d6102fb36600461169d565b6109d1565b61014861030e36600461169d565b610aaf565b61013d610321366004611673565b610bea565b61013d6103343660046116ef565b610d36565b600354610148565b61014860025481565b610148610358366004611673565b600660209081525f928352604080842090915290825290205481565b61018c6103823660046116d8565b610e5e565b61013d61039536600461169d565b610e86565b61013d6103a8366004611731565b610f5c565b61022b6103bb3660046116d8565b600a6020525f90815260409020805460019091015482565b5f5b818110156106b8577f00000000000000000000000000000000000000000000000000000000000000006001600160a01b031663ab37f48684848481811061041e5761041e611807565b905060200201602081019061043391906116bd565b6040518263ffffffff1660e01b815260040161044f9190611638565b602060405180830381865afa15801561046a573d5f803e3d5ffd5b505050506040513d601f19601f8201168201806040525081019061048e919061181b565b1580156104dd575060075f8484848181106104ab576104ab611807565b90506020020160208101906104c091906116bd565b6001600160a01b0316815260208101919091526040015f205460ff165b156106b0575f60075f8585858181106104f8576104f8611807565b905060200201602081019061050d91906116bd565b6001600160a01b0316815260208101919091526040015f908120805460ff1916921515929092179091555b6003548110156106525783838381811061055457610554611807565b905060200201602081019061056991906116bd565b6001600160a01b03166003828154811061058557610585611807565b5f918252602090912001546001600160a01b03160361064a57600380546105ae9060019061184e565b815481106105be576105be611807565b5f91825260209091200154600380546001600160a01b0390921691839081106105e9576105e9611807565b905f5260205f20015f6101000a8154816001600160a01b0302191690836001600160a01b03160217905550600380548061062557610625611861565b5f8281526020902081015f1990810180546001600160a01b0319169055019055610652565b600101610538565b5082828281811061066557610665611807565b905060200201602081019061067a91906116bd565b6001600160a01b03167f2882a42bf2b3e503b8a19268c1e7713db8d90a6f51cde6d3326e9b02b0a68eae60405160405180910390a25b6001016103d5565b505050565b5f8181526009602052604081205481036106d857505f6108a1565b6001600160a01b0383165f90815260066020908152604080832085845290915281205460019062093a8081069003826107118683610aaf565b5f87815260086020908152604080832084845282529182902082518084019093528054808452600190910154918301919091529192509062093a8081069003831161076557805162093a8081069003610767565b825b92505f62093a8061077d8542838106900361184e565b6107879190611875565b90508015610898575f5b81811015610896576107b68960016107ac62093a8089611894565b61030e919061184e565b5f8a815260086020908152604080832084845282528083208151808301909252805482526001908101549282019290925292965091945090600a90829061080e9061080462093a808b611894565b61029f919061184e565b81526020019081526020015f2060010154905060018111610830576001610832565b805b6001600160a01b038c165f9081526005602090815260408083208a845282529091205490860151919850889161086891906118a7565b6108729190611875565b61087c9089611894565b975061088b62093a8087611894565b955050600101610791565b505b50939450505050505b92915050565b6002545f908082036108bb57505f92915050565b82600a5f6108ca60018561184e565b81526020019081526020015f205f0154116108f1576108ea60018261184e565b9392505050565b5f8052600a6020527f13da86008ba1c6922daee3e07db95305ef49ebced9f5467a0b8613fcc6b343e35483101561092a57505f92915050565b5f8061093760018461184e565b90505b818111156109c9575f600261094f848461184e565b6109599190611875565b610963908361184e565b5f818152600a60209081526040918290208251808401909352805480845260019091015491830191909152919250908790036109a3575095945050505050565b80518711156109b4578193506109c2565b6109bf60018361184e565b92505b505061093a565b509392505050565b336001600160a01b037f00000000000000000000000000000000000000000000000000000000000000001614610a1a5760405163ea8e4eb560e01b815260040160405180910390fd5b8160015f828254610a2b919061184e565b90915550505f8181526004602052604081208054849290610a4d90849061184e565b90915550505f81815260046020526040902054610a6b9082906110e6565b610a736111e8565b604051828152819033907ff279e6a1f5e320cca91135676d9cb6e44ca8a08c0b88342bcdb1144f6511b568906020015b60405180910390a35050565b5f82815260096020526040812054808203610acd575f9150506108a1565b5f8481526008602052604081208491610ae760018561184e565b81526020019081526020015f205f015411610b0f57610b0760018261184e565b9150506108a1565b5f848152600860209081526040808320838052909152902054831015610b38575f9150506108a1565b5f80610b4560018461184e565b90505b81811115610be1575f6002610b5d848461184e565b610b679190611875565b610b71908361184e565b5f888152600860209081526040808320848452825291829020825180840190935280548084526001909101549183019190915291925090879003610bbb575093506108a192505050565b8051871115610bcc57819350610bda565b610bd760018361184e565b92505b5050610b48565b50949350505050565b610bf261129f565b6001600160a01b0382165f9081526007602052604090205460ff16610d1e5760405163559bfa4360e11b81526001600160a01b037f0000000000000000000000000000000000000000000000000000000000000000169063ab37f48690610c5d908590600401611638565b602060405180830381865afa158015610c78573d5f803e3d5ffd5b505050506040513d601f19601f82011682018060405250810190610c9c919061181b565b610cb957604051630b094f2760e31b815260040160405180910390fd5b6001600160a01b0382165f818152600760205260408120805460ff191660019081179091556003805491820181559091527fc2575a0e9e593c00f959f8c92f12db2869c3395a3b0502d05e2516446f71f85b0180546001600160a01b03191690911790555b610d293383836112c7565b610d3260015f55565b5050565b62093a808083068303905f904290810690036001600160a01b0384165f908152600560209081526040808320868452909152812054919250610d77866108a7565b9050815f03610d9957604051631f2a200560e01b815260040160405180910390fd5b838311610db957604051630121356d60e11b815260040160405180910390fd5b5f818152600a602052604090206001015415610de75760405162759e2160e31b815260040160405180910390fd5b6001600160a01b0385165f90815260056020908152604080832087845290915280822082905584825281208054849290610e22908490611894565b909155505060405182815284906001600160a01b0387169030905f805160206118da8339815191529060200160405180910390a4505050505050565b60038181548110610e6d575f80fd5b5f918252602090912001546001600160a01b0316905081565b336001600160a01b037f00000000000000000000000000000000000000000000000000000000000000001614610ecf5760405163ea8e4eb560e01b815260040160405180910390fd5b8160015f828254610ee09190611894565b90915550505f8181526004602052604081208054849290610f02908490611894565b90915550505f81815260046020526040902054610f209082906110e6565b610f286111e8565b604051828152819033907f90890809c654f11d6e72a28fa60149770a0d11ec6c92319d6ceb2bb0a4ea1a1590602001610aa3565b610f6461129f565b60405163430c208160e01b8152336004820152602481018390527f00000000000000000000000000000000000000000000000000000000000000006001600160a01b03169063430c2081906044016020604051808303815f875af1158015610fce573d5f803e3d5ffd5b505050506040513d601f19601f82011682018060405250810190610ff2919061181b565b1580156110285750336001600160a01b037f00000000000000000000000000000000000000000000000000000000000000001614155b156110465760405163ea8e4eb560e01b815260040160405180910390fd5b6040516331a9108f60e11b8152600481018390525f907f00000000000000000000000000000000000000000000000000000000000000006001600160a01b031690636352211e90602401602060405180830381865afa1580156110ab573d5f803e3d5ffd5b505050506040513d601f19601f820116820180604052508101906110cf91906118be565b90506110dc81848461138b565b50610d3260015f55565b5f82815260096020526040902054428115801590611140575062093a80810681035f85815260086020526040812061113e9161112360018761184e565b81526020019081526020015f205f015462093a808106900390565b145b156111945760408051808201825282815260208082018690525f8781526008909152918220909161117260018661184e565b81526020808201929092526040015f20825181559101516001909101556111e2565b60408051808201825282815260208082018681525f888152600883528481208782529092529290209051815590516001918201556111d3908390611894565b5f858152600960205260409020555b50505050565b600254428115801590611211575062093a808106810361120f600a5f61112360018761184e565b145b1561125e576040518060400160405280828152602001600154815250600a5f60018561123d919061184e565b81526020808201929092526040015f20825181559101516001909101555050565b6040805180820182528281526001805460208084019182525f878152600a9091529390932091518255915190820155611298908390611894565b6002555050565b60025f54036112c157604051633ee5aeb560e01b815260040160405180910390fd5b60025f55565b805f036112e757604051631f2a200560e01b815260040160405180910390fd5b6112fc6001600160a01b0383168430846114b6565b5f61130c4262093a808106900390565b6001600160a01b0384165f908152600560209081526040808320848452909152812080549293508492909190611343908490611894565b9250508190555080836001600160a01b0316856001600160a01b03165f805160206118da8339815191528560405161137d91815260200190565b60405180910390a450505050565b80515f5b818110156114af575f6113bb8483815181106113ad576113ad611807565b6020026020010151866106bd565b90504260065f8685815181106113d3576113d3611807565b6020908102919091018101516001600160a01b031682528181019290925260409081015f908120898252909252902055801561144057611440868286858151811061142057611420611807565b60200260200101516001600160a01b031661154c9092919063ffffffff16565b83828151811061145257611452611807565b60200260200101516001600160a01b0316866001600160a01b03167f9aa05b3d70a9e3e2f004f039648839560576334fb45c81f91b6db03ad9e2efc98360405161149e91815260200190565b60405180910390a35060010161138f565b5050505050565b5f6040516323b872dd60e01b81526001600160a01b03851660048201526001600160a01b038416602482015282604482015260205f6064835f8a5af13d15601f3d1160015f5114161716915050806114af5760405162461bcd60e51b81526020600482015260146024820152731514905394d1915497d19493d357d1905253115160621b60448201526064015b60405180910390fd5b5f60405163a9059cbb60e01b81526001600160a01b038416600482015282602482015260205f6044835f895af13d15601f3d1160015f5114161716915050806111e25760405162461bcd60e51b815260206004820152600f60248201526e1514905394d1915497d19052531151608a1b6044820152606401611543565b5f80602083850312156115da575f80fd5b82356001600160401b038111156115ef575f80fd5b8301601f810185136115ff575f80fd5b80356001600160401b03811115611614575f80fd5b8560208260051b8401011115611628575f80fd5b6020919091019590945092505050565b6001600160a01b0391909116815260200190565b6001600160a01b0381168114611660575f80fd5b50565b803561166e8161164c565b919050565b5f8060408385031215611684575f80fd5b823561168f8161164c565b946020939093013593505050565b5f80604083850312156116ae575f80fd5b50508035926020909101359150565b5f602082840312156116cd575f80fd5b81356108ea8161164c565b5f602082840312156116e8575f80fd5b5035919050565b5f8060408385031215611700575f80fd5b8235915060208301356117128161164c565b809150509250929050565b634e487b7160e01b5f52604160045260245ffd5b5f8060408385031215611742575f80fd5b8235915060208301356001600160401b0381111561175e575f80fd5b8301601f8101851361176e575f80fd5b80356001600160401b038111156117875761178761171d565b604051600582901b90603f8201601f191681016001600160401b03811182821017156117b5576117b561171d565b6040529182526020818401810192908101888411156117d2575f80fd5b6020850194505b838510156117f8576117ea85611663565b8152602094850194016117d9565b50809450505050509250929050565b634e487b7160e01b5f52603260045260245ffd5b5f6020828403121561182b575f80fd5b815180151581146108ea575f80fd5b634e487b7160e01b5f52601160045260245ffd5b818103818111156108a1576108a161183a565b634e487b7160e01b5f52603160045260245ffd5b5f8261188f57634e487b7160e01b5f52601260045260245ffd5b500490565b808201808211156108a1576108a161183a565b80820281158282048414176108a1576108a161183a565b5f602082840312156118ce575f80fd5b81516108ea8161164c56fe52977ea98a2220a03ee9ba5cb003ada08d394ea10155483c95dc2dc77a7eb24ba2646970667358221220343e0d31f53e3e64596dd1b396bf2aae19f50bf0f6cf6831ee92f5701cc38b1f64736f6c634300081a0033","linkReferences":{}},"methodIdentifiers":{"DURATION()":"1be05289","_deposit(uint256,uint256)":"f3207723","_withdraw(uint256,uint256)":"9e2bf22c","authorized()":"456cb7c6","balanceOf(uint256)":"9cc7f708","checkpoints(uint256,uint256)":"49dcc204","earned(address,uint256)":"3e491d47","getPriorBalanceIndex(uint256,uint256)":"a28d4c9c","getPriorSupplyIndex(uint256)":"76f4be36","getReward(uint256,address[])":"f5f8d365","isReward(address)":"4d5ce038","lastEarn(address,uint256)":"f25e55a5","notifyRewardAmount(address,uint256)":"b66503cf","numCheckpoints(uint256)":"50589793","removeNoLongerWhitelistedTokens(address[])":"0a664ad7","renotifyRewardAmount(uint256,address)":"dfa0ba10","rewards(uint256)":"f301af42","rewardsListLength()":"e6886396","supplyCheckpoints(uint256)":"f7412baf","supplyNumCheckpoints()":"e8111a12","tokenRewardsPerEpoch(address,uint256)":"92777b29","totalSupply()":"18160ddd","ve()":"1f850716","voter()":"46c96aac"},"id":126}