{"abi":[{"type":"constructor","inputs":[{"name":"name","type":"string","internalType":"string"},{"name":"symbol","type":"string","internalType":"string"},{"name":"_admin","type":"address","internalType":"address"},{"name":"_minter","type":"address","internalType":"address"},{"name":"_pauser","type":"address","internalType":"address"}],"stateMutability":"nonpayable"},{"type":"function","name":"DEFAULT_ADMIN_ROLE","inputs":[],"outputs":[{"name":"","type":"bytes32","internalType":"bytes32"}],"stateMutability":"view"},{"type":"function","name":"MINTER_ROLE","inputs":[],"outputs":[{"name":"","type":"bytes32","internalType":"bytes32"}],"stateMutability":"view"},{"type":"function","name":"PAUSER_ROLE","inputs":[],"outputs":[{"name":"","type":"bytes32","internalType":"bytes32"}],"stateMutability":"view"},{"type":"function","name":"allowance","inputs":[{"name":"owner","type":"address","internalType":"address"},{"name":"spender","type":"address","internalType":"address"}],"outputs":[{"name":"","type":"uint256","internalType":"uint256"}],"stateMutability":"view"},{"type":"function","name":"approve","inputs":[{"name":"spender","type":"address","internalType":"address"},{"name":"value","type":"uint256","internalType":"uint256"}],"outputs":[{"name":"","type":"bool","internalType":"bool"}],"stateMutability":"nonpayable"},{"type":"function","name":"balanceOf","inputs":[{"name":"account","type":"address","internalType":"address"}],"outputs":[{"name":"","type":"uint256","internalType":"uint256"}],"stateMutability":"view"},{"type":"function","name":"burn","inputs":[{"name":"value","type":"uint256","internalType":"uint256"}],"outputs":[],"stateMutability":"nonpayable"},{"type":"function","name":"burnFrom","inputs":[{"name":"account","type":"address","internalType":"address"},{"name":"value","type":"uint256","internalType":"uint256"}],"outputs":[],"stateMutability":"nonpayable"},{"type":"function","name":"decimals","inputs":[],"outputs":[{"name":"","type":"uint8","internalType":"uint8"}],"stateMutability":"view"},{"type":"function","name":"getRoleAdmin","inputs":[{"name":"role","type":"bytes32","internalType":"bytes32"}],"outputs":[{"name":"","type":"bytes32","internalType":"bytes32"}],"stateMutability":"view"},{"type":"function","name":"getRoleMember","inputs":[{"name":"role","type":"bytes32","internalType":"bytes32"},{"name":"index","type":"uint256","internalType":"uint256"}],"outputs":[{"name":"","type":"address","internalType":"address"}],"stateMutability":"view"},{"type":"function","name":"getRoleMemberCount","inputs":[{"name":"role","type":"bytes32","internalType":"bytes32"}],"outputs":[{"name":"","type":"uint256","internalType":"uint256"}],"stateMutability":"view"},{"type":"function","name":"grantRole","inputs":[{"name":"role","type":"bytes32","internalType":"bytes32"},{"name":"account","type":"address","internalType":"address"}],"outputs":[],"stateMutability":"nonpayable"},{"type":"function","name":"hasRole","inputs":[{"name":"role","type":"bytes32","internalType":"bytes32"},{"name":"account","type":"address","internalType":"address"}],"outputs":[{"name":"","type":"bool","internalType":"bool"}],"stateMutability":"view"},{"type":"function","name":"mint","inputs":[{"name":"to","type":"address","internalType":"address"},{"name":"amount","type":"uint256","internalType":"uint256"}],"outputs":[],"stateMutability":"nonpayable"},{"type":"function","name":"name","inputs":[],"outputs":[{"name":"","type":"string","internalType":"string"}],"stateMutability":"view"},{"type":"function","name":"pause","inputs":[],"outputs":[],"stateMutability":"nonpayable"},{"type":"function","name":"paused","inputs":[],"outputs":[{"name":"","type":"bool","internalType":"bool"}],"stateMutability":"view"},{"type":"function","name":"renounceRole","inputs":[{"name":"role","type":"bytes32","internalType":"bytes32"},{"name":"callerConfirmation","type":"address","internalType":"address"}],"outputs":[],"stateMutability":"nonpayable"},{"type":"function","name":"revokeRole","inputs":[{"name":"role","type":"bytes32","internalType":"bytes32"},{"name":"account","type":"address","internalType":"address"}],"outputs":[],"stateMutability":"nonpayable"},{"type":"function","name":"supportsInterface","inputs":[{"name":"interfaceId","type":"bytes4","internalType":"bytes4"}],"outputs":[{"name":"","type":"bool","internalType":"bool"}],"stateMutability":"view"},{"type":"function","name":"symbol","inputs":[],"outputs":[{"name":"","type":"string","internalType":"string"}],"stateMutability":"view"},{"type":"function","name":"totalSupply","inputs":[],"outputs":[{"name":"","type":"uint256","internalType":"uint256"}],"stateMutability":"view"},{"type":"function","name":"transfer","inputs":[{"name":"to","type":"address","internalType":"address"},{"name":"value","type":"uint256","internalType":"uint256"}],"outputs":[{"name":"","type":"bool","internalType":"bool"}],"stateMutability":"nonpayable"},{"type":"function","name":"transferFrom","inputs":[{"name":"from","type":"address","internalType":"address"},{"name":"to","type":"address","internalType":"address"},{"name":"value","type":"uint256","internalType":"uint256"}],"outputs":[{"name":"","type":"bool","internalType":"bool"}],"stateMutability":"nonpayable"},{"type":"function","name":"unpause","inputs":[],"outputs":[],"stateMutability":"nonpayable"},{"type":"event","name":"Approval","inputs":[{"name":"owner","type":"address","indexed":true,"internalType":"address"},{"name":"spender","type":"address","indexed":true,"internalType":"address"},{"name":"value","type":"uint256","indexed":false,"internalType":"uint256"}],"anonymous":false},{"type":"event","name":"Paused","inputs":[{"name":"account","type":"address","indexed":false,"internalType":"address"}],"anonymous":false},{"type":"event","name":"RoleAdminChanged","inputs":[{"name":"role","type":"bytes32","indexed":true,"internalType":"bytes32"},{"name":"previousAdminRole","type":"bytes32","indexed":true,"internalType":"bytes32"},{"name":"newAdminRole","type":"bytes32","indexed":true,"internalType":"bytes32"}],"anonymous":false},{"type":"event","name":"RoleGranted","inputs":[{"name":"role","type":"bytes32","indexed":true,"internalType":"bytes32"},{"name":"account","type":"address","indexed":true,"internalType":"address"},{"name":"sender","type":"address","indexed":true,"internalType":"address"}],"anonymous":false},{"type":"event","name":"RoleRevoked","inputs":[{"name":"role","type":"bytes32","indexed":true,"internalType":"bytes32"},{"name":"account","type":"address","indexed":true,"internalType":"address"},{"name":"sender","type":"address","indexed":true,"internalType":"address"}],"anonymous":false},{"type":"event","name":"Transfer","inputs":[{"name":"from","type":"address","indexed":true,"internalType":"address"},{"name":"to","type":"address","indexed":true,"internalType":"address"},{"name":"value","type":"uint256","indexed":false,"internalType":"uint256"}],"anonymous":false},{"type":"event","name":"Unpaused","inputs":[{"name":"account","type":"address","indexed":false,"internalType":"address"}],"anonymous":false},{"type":"error","name":"AccessControlBadConfirmation","inputs":[]},{"type":"error","name":"AccessControlUnauthorizedAccount","inputs":[{"name":"account","type":"address","internalType":"address"},{"name":"neededRole","type":"bytes32","internalType":"bytes32"}]},{"type":"error","name":"ERC20InsufficientAllowance","inputs":[{"name":"spender","type":"address","internalType":"address"},{"name":"allowance","type":"uint256","internalType":"uint256"},{"name":"needed","type":"uint256","internalType":"uint256"}]},{"type":"error","name":"ERC20InsufficientBalance","inputs":[{"name":"sender","type":"address","internalType":"address"},{"name":"balance","type":"uint256","internalType":"uint256"},{"name":"needed","type":"uint256","internalType":"uint256"}]},{"type":"error","name":"ERC20InvalidApprover","inputs":[{"name":"approver","type":"address","internalType":"address"}]},{"type":"error","name":"ERC20InvalidReceiver","inputs":[{"name":"receiver","type":"address","internalType":"address"}]},{"type":"error","name":"ERC20InvalidSender","inputs":[{"name":"sender","type":"address","internalType":"address"}]},{"type":"error","name":"ERC20InvalidSpender","inputs":[{"name":"spender","type":"address","internalType":"address"}]},{"type":"error","name":"EnforcedPause","inputs":[]},{"type":"error","name":"ExpectedPause","inputs":[]}],"bytecode":{"object":"0x608060405234801561000f575f80fd5b506040516115a13803806115a183398101604081905261002e916102aa565b8484600561003c83826103c3565b50600661004982826103c3565b50506007805460ff19169055506100605f846100c1565b5061008b7f9f2df0fed2c77648de5860a4cc508cd0818c85b8b8a1ab4ceeef8d981c8956a6836100c1565b506100b67f65d7a28e3265b37a6474929f336521b332c1681b933f6cb9f3376673440d862a826100c1565b50505050505061047d565b5f806100cd84846100f7565b905080156100ee575f8481526001602052604090206100ec908461019e565b505b90505b92915050565b5f828152602081815260408083206001600160a01b038516845290915281205460ff16610197575f838152602081815260408083206001600160a01b03861684529091529020805460ff1916600117905561014f3390565b6001600160a01b0316826001600160a01b0316847f2f8788117e7eff1d82e926ec794901d17c78024a50270940304540a733656f0d60405160405180910390a45060016100f1565b505f6100f1565b5f6100ee836001600160a01b0384165f81815260018301602052604081205461019757508154600181810184555f8481526020808220909301849055845484825282860190935260409020919091556100f1565b634e487b7160e01b5f52604160045260245ffd5b5f82601f830112610215575f80fd5b81516001600160401b0381111561022e5761022e6101f2565b604051601f8201601f19908116603f011681016001600160401b038111828210171561025c5761025c6101f2565b604052818152838201602001851015610273575f80fd5b8160208501602083015e5f918101602001919091529392505050565b80516001600160a01b03811681146102a5575f80fd5b919050565b5f805f805f60a086880312156102be575f80fd5b85516001600160401b038111156102d3575f80fd5b6102df88828901610206565b602088015190965090506001600160401b038111156102fc575f80fd5b61030888828901610206565b9450506103176040870161028f565b92506103256060870161028f565b91506103336080870161028f565b90509295509295909350565b600181811c9082168061035357607f821691505b60208210810361037157634e487b7160e01b5f52602260045260245ffd5b50919050565b601f8211156103be57805f5260205f20601f840160051c8101602085101561039c5750805b601f840160051c820191505b818110156103bb575f81556001016103a8565b50505b505050565b81516001600160401b038111156103dc576103dc6101f2565b6103f0816103ea845461033f565b84610377565b6020601f821160018114610422575f831561040b5750848201515b5f19600385901b1c1916600184901b1784556103bb565b5f84815260208120601f198516915b828110156104515787850151825560209485019460019092019101610431565b508482101561046e57868401515f19600387901b60f8161c191681555b50505050600190811b01905550565b6111178061048a5f395ff3fe608060405234801561000f575f80fd5b506004361061013c575f3560e01c806301ffc9a71461014057806306fdde0314610168578063095ea7b31461017d57806318160ddd1461019057806323b872dd146101a2578063248a9ca3146101b55780632f2ff15d146101c8578063313ce567146101dd57806336568abe146101ec5780633f4ba83a146101ff57806340c10f191461020757806342966c681461021a5780635c975abb1461022d57806370a082311461023857806379cc6790146102605780638456cb59146102735780639010d07c1461027b57806391d148541461029b57806395d89b41146102ae578063a217fddf146102b6578063a9059cbb146102bd578063ca15c873146102d0578063d5391393146102e3578063d547741f146102f7578063dd62ed3e1461030a578063e63ab1e91461031d575b5f80fd5b61015361014e366004610e37565b610331565b60405190151581526020015b60405180910390f35b61017061035b565b60405161015f9190610e5e565b61015361018b366004610eae565b6103eb565b6004545b60405190815260200161015f565b6101536101b0366004610ed6565b610402565b6101946101c3366004610f10565b610425565b6101db6101d6366004610f27565b610439565b005b6040516012815260200161015f565b6101db6101fa366004610f27565b61045b565b6101db610493565b6101db610215366004610eae565b610514565b6101db610228366004610f10565b610591565b60075460ff16610153565b610194610246366004610f51565b6001600160a01b03165f9081526002602052604090205490565b6101db61026e366004610eae565b61059e565b6101db6105b3565b61028e610289366004610f6a565b61062b565b60405161015f9190610f8a565b6101536102a9366004610f27565b610649565b610170610671565b6101945f81565b6101536102cb366004610eae565b610680565b6101946102de366004610f10565b61068d565b6101945f805160206110c283398151915281565b6101db610305366004610f27565b6106a3565b610194610318366004610f9e565b6106bf565b6101945f805160206110a283398151915281565b5f6001600160e01b03198216635a05180f60e01b14806103555750610355826106e9565b92915050565b60606005805461036a90610fc6565b80601f016020809104026020016040519081016040528092919081815260200182805461039690610fc6565b80156103e15780601f106103b8576101008083540402835291602001916103e1565b820191905f5260205f20905b8154815290600101906020018083116103c457829003601f168201915b5050505050905090565b5f336103f881858561071d565b5060019392505050565b5f3361040f85828561072a565b61041a858585610774565b506001949350505050565b5f9081526020819052604090206001015490565b61044282610425565b61044b816107d1565b61045583836107db565b50505050565b6001600160a01b03811633146104845760405163334bd91960e11b815260040160405180910390fd5b61048e828261080e565b505050565b6104aa5f805160206110a283398151915233610649565b61050a5760405162461bcd60e51b815260206004820152603960248201525f8051602061108283398151915260448201527876652070617573657220726f6c6520746f20756e706175736560381b60648201526084015b60405180910390fd5b610512610839565b565b61052b5f805160206110c283398151915233610649565b6105835760405162461bcd60e51b815260206004820152603660248201525f805160206110828339815191526044820152751d99481b5a5b9d195c881c9bdb19481d1bc81b5a5b9d60521b6064820152608401610501565b61058d8282610885565b5050565b61059b33826108b9565b50565b6105a982338361072a565b61058d82826108b9565b6105ca5f805160206110a283398151915233610649565b6106235760405162461bcd60e51b815260206004820152603760248201525f8051602061108283398151915260448201527676652070617573657220726f6c6520746f20706175736560481b6064820152608401610501565b6105126108ed565b5f828152600160205260408120610642908361092a565b9392505050565b5f918252602082815260408084206001600160a01b0393909316845291905290205460ff1690565b60606006805461036a90610fc6565b5f336103f8818585610774565b5f81815260016020526040812061035590610935565b6106ac82610425565b6106b5816107d1565b610455838361080e565b6001600160a01b039182165f90815260036020908152604080832093909416825291909152205490565b5f6001600160e01b03198216637965db0b60e01b148061035557506301ffc9a760e01b6001600160e01b0319831614610355565b61048e838383600161093e565b5f61073584846106bf565b90505f198114610455578181101561076657828183604051637dc7a0d960e11b815260040161050193929190610ffe565b61045584848484035f61093e565b6001600160a01b03831661079d575f604051634b637e8f60e11b81526004016105019190610f8a565b6001600160a01b0382166107c6575f60405163ec442f0560e01b81526004016105019190610f8a565b61048e838383610a10565b61059b8133610a23565b5f806107e78484610a5c565b90508015610642575f8481526001602052604090206108069084610aeb565b509392505050565b5f8061081a8484610aff565b90508015610642575f8481526001602052604090206108069084610b68565b610841610b7c565b6007805460ff191690557f5db9ee0a495bf2e6ff9c91a7834c1ba4fdd244a5e8aa4e537bd38aeae4b073aa335b60405161087b9190610f8a565b60405180910390a1565b6001600160a01b0382166108ae575f60405163ec442f0560e01b81526004016105019190610f8a565b61058d5f8383610a10565b6001600160a01b0382166108e2575f604051634b637e8f60e11b81526004016105019190610f8a565b61058d825f83610a10565b6108f5610b9f565b6007805460ff191660011790557f62e78cea01bee320cd4e420270b5ea74000d11b0c9f74754ebdbfc544b05a25861086e3390565b5f6106428383610bc3565b5f610355825490565b6001600160a01b038416610967575f60405163e602df0560e01b81526004016105019190610f8a565b6001600160a01b038316610990575f604051634a1406b160e11b81526004016105019190610f8a565b6001600160a01b038085165f908152600360209081526040808320938716835292905220829055801561045557826001600160a01b0316846001600160a01b03167f8c5be1e5ebec7d5bd14f71427d1e84f3dd0314c0f7b2291e5b200ac8c7c3b92584604051610a0291815260200190565b60405180910390a350505050565b610a18610b9f565b61048e838383610be9565b610a2d8282610649565b61058d5760405163e2517d3f60e01b81526001600160a01b038216600482015260248101839052604401610501565b5f610a678383610649565b610ae4575f838152602081815260408083206001600160a01b03861684529091529020805460ff19166001179055610a9c3390565b6001600160a01b0316826001600160a01b0316847f2f8788117e7eff1d82e926ec794901d17c78024a50270940304540a733656f0d60405160405180910390a4506001610355565b505f610355565b5f610642836001600160a01b038416610bfc565b5f610b0a8383610649565b15610ae4575f838152602081815260408083206001600160a01b0386168085529252808320805460ff1916905551339286917ff6391f5c32d9c69d2a47ea670b442974b53935d1edc7fd64eb21e047a839171b9190a4506001610355565b5f610642836001600160a01b038416610c41565b60075460ff1661051257604051638dfc202b60e01b815260040160405180910390fd5b60075460ff16156105125760405163d93c066560e01b815260040160405180910390fd5b5f825f018281548110610bd857610bd861101f565b905f5260205f200154905092915050565b610bf1610b9f565b61048e838383610d24565b5f818152600183016020526040812054610ae457508154600181810184555f848152602080822090930184905584548482528286019093526040902091909155610355565b5f8181526001830160205260408120548015610d1b575f610c63600183611047565b85549091505f90610c7690600190611047565b9050808214610cd5575f865f018281548110610c9457610c9461101f565b905f5260205f200154905080875f018481548110610cb457610cb461101f565b5f918252602080832090910192909255918252600188019052604090208390555b8554869080610ce657610ce661105a565b600190038181905f5260205f20015f90559055856001015f8681526020019081526020015f205f905560019350505050610355565b5f915050610355565b6001600160a01b038316610d4e578060045f828254610d43919061106e565b90915550610dab9050565b6001600160a01b0383165f9081526002602052604090205481811015610d8d5783818360405163391434e360e21b815260040161050193929190610ffe565b6001600160a01b0384165f9081526002602052604090209082900390555b6001600160a01b038216610dc757600480548290039055610de5565b6001600160a01b0382165f9081526002602052604090208054820190555b816001600160a01b0316836001600160a01b03167fddf252ad1be2c89b69c2b068fc378daa952ba7f163c4a11628f55a4df523b3ef83604051610e2a91815260200190565b60405180910390a3505050565b5f60208284031215610e47575f80fd5b81356001600160e01b031981168114610642575f80fd5b602081525f82518060208401528060208501604085015e5f604082850101526040601f19601f83011684010191505092915050565b80356001600160a01b0381168114610ea9575f80fd5b919050565b5f8060408385031215610ebf575f80fd5b610ec883610e93565b946020939093013593505050565b5f805f60608486031215610ee8575f80fd5b610ef184610e93565b9250610eff60208501610e93565b929592945050506040919091013590565b5f60208284031215610f20575f80fd5b5035919050565b5f8060408385031215610f38575f80fd5b82359150610f4860208401610e93565b90509250929050565b5f60208284031215610f61575f80fd5b61064282610e93565b5f8060408385031215610f7b575f80fd5b50508035926020909101359150565b6001600160a01b0391909116815260200190565b5f8060408385031215610faf575f80fd5b610fb883610e93565b9150610f4860208401610e93565b600181811c90821680610fda57607f821691505b602082108103610ff857634e487b7160e01b5f52602260045260245ffd5b50919050565b6001600160a01b039390931683526020830191909152604082015260600190565b634e487b7160e01b5f52603260045260245ffd5b634e487b7160e01b5f52601160045260245ffd5b8181038181111561035557610355611033565b634e487b7160e01b5f52603160045260245ffd5b808201808211156103555761035561103356fe45524332305072657365744d696e7465725061757365723a206d75737420686165d7a28e3265b37a6474929f336521b332c1681b933f6cb9f3376673440d862a9f2df0fed2c77648de5860a4cc508cd0818c85b8b8a1ab4ceeef8d981c8956a6a2646970667358221220fcbe6957477d676812a61f4b24a8b950fec6ae10ee50a74eeace15a353e88ccc64736f6c634300081a0033","linkReferences":{}},"methodIdentifiers":{"DEFAULT_ADMIN_ROLE()":"a217fddf","MINTER_ROLE()":"d5391393","PAUSER_ROLE()":"e63ab1e9","allowance(address,address)":"dd62ed3e","approve(address,uint256)":"095ea7b3","balanceOf(address)":"70a08231","burn(uint256)":"42966c68","burnFrom(address,uint256)":"79cc6790","decimals()":"313ce567","getRoleAdmin(bytes32)":"248a9ca3","getRoleMember(bytes32,uint256)":"9010d07c","getRoleMemberCount(bytes32)":"ca15c873","grantRole(bytes32,address)":"2f2ff15d","hasRole(bytes32,address)":"91d14854","mint(address,uint256)":"40c10f19","name()":"06fdde03","pause()":"8456cb59","paused()":"5c975abb","renounceRole(bytes32,address)":"36568abe","revokeRole(bytes32,address)":"d547741f","supportsInterface(bytes4)":"01ffc9a7","symbol()":"95d89b41","totalSupply()":"18160ddd","transfer(address,uint256)":"a9059cbb","transferFrom(address,address,uint256)":"23b872dd","unpause()":"3f4ba83a"},"id":115}