{"abi":[{"type":"constructor","inputs":[{"name":"_ibgt","type":"address","internalType":"address"},{"name":"_infrared","type":"address","internalType":"address"},{"name":"_admin","type":"address","internalType":"address"},{"name":"_minter","type":"address","internalType":"address"},{"name":"_pauser","type":"address","internalType":"address"}],"stateMutability":"nonpayable"},{"type":"function","name":"DEFAULT_ADMIN_ROLE","inputs":[],"outputs":[{"name":"","type":"bytes32","internalType":"bytes32"}],"stateMutability":"view"},{"type":"function","name":"MINTER_ROLE","inputs":[],"outputs":[{"name":"","type":"bytes32","internalType":"bytes32"}],"stateMutability":"view"},{"type":"function","name":"PAUSER_ROLE","inputs":[],"outputs":[{"name":"","type":"bytes32","internalType":"bytes32"}],"stateMutability":"view"},{"type":"function","name":"allowance","inputs":[{"name":"owner","type":"address","internalType":"address"},{"name":"spender","type":"address","internalType":"address"}],"outputs":[{"name":"","type":"uint256","internalType":"uint256"}],"stateMutability":"view"},{"type":"function","name":"approve","inputs":[{"name":"spender","type":"address","internalType":"address"},{"name":"value","type":"uint256","internalType":"uint256"}],"outputs":[{"name":"","type":"bool","internalType":"bool"}],"stateMutability":"nonpayable"},{"type":"function","name":"balanceOf","inputs":[{"name":"account","type":"address","internalType":"address"}],"outputs":[{"name":"","type":"uint256","internalType":"uint256"}],"stateMutability":"view"},{"type":"function","name":"burn","inputs":[{"name":"value","type":"uint256","internalType":"uint256"}],"outputs":[],"stateMutability":"nonpayable"},{"type":"function","name":"burnFrom","inputs":[{"name":"account","type":"address","internalType":"address"},{"name":"value","type":"uint256","internalType":"uint256"}],"outputs":[],"stateMutability":"nonpayable"},{"type":"function","name":"decimals","inputs":[],"outputs":[{"name":"","type":"uint8","internalType":"uint8"}],"stateMutability":"view"},{"type":"function","name":"getRoleAdmin","inputs":[{"name":"role","type":"bytes32","internalType":"bytes32"}],"outputs":[{"name":"","type":"bytes32","internalType":"bytes32"}],"stateMutability":"view"},{"type":"function","name":"getRoleMember","inputs":[{"name":"role","type":"bytes32","internalType":"bytes32"},{"name":"index","type":"uint256","internalType":"uint256"}],"outputs":[{"name":"","type":"address","internalType":"address"}],"stateMutability":"view"},{"type":"function","name":"getRoleMemberCount","inputs":[{"name":"role","type":"bytes32","internalType":"bytes32"}],"outputs":[{"name":"","type":"uint256","internalType":"uint256"}],"stateMutability":"view"},{"type":"function","name":"grantRole","inputs":[{"name":"role","type":"bytes32","internalType":"bytes32"},{"name":"account","type":"address","internalType":"address"}],"outputs":[],"stateMutability":"nonpayable"},{"type":"function","name":"hasRole","inputs":[{"name":"role","type":"bytes32","internalType":"bytes32"},{"name":"account","type":"address","internalType":"address"}],"outputs":[{"name":"","type":"bool","internalType":"bool"}],"stateMutability":"view"},{"type":"function","name":"ibgt","inputs":[],"outputs":[{"name":"","type":"address","internalType":"address"}],"stateMutability":"view"},{"type":"function","name":"infrared","inputs":[],"outputs":[{"name":"","type":"address","internalType":"address"}],"stateMutability":"view"},{"type":"function","name":"mint","inputs":[{"name":"to","type":"address","internalType":"address"},{"name":"amount","type":"uint256","internalType":"uint256"}],"outputs":[],"stateMutability":"nonpayable"},{"type":"function","name":"name","inputs":[],"outputs":[{"name":"","type":"string","internalType":"string"}],"stateMutability":"view"},{"type":"function","name":"pause","inputs":[],"outputs":[],"stateMutability":"nonpayable"},{"type":"function","name":"paused","inputs":[],"outputs":[{"name":"","type":"bool","internalType":"bool"}],"stateMutability":"view"},{"type":"function","name":"renounceRole","inputs":[{"name":"role","type":"bytes32","internalType":"bytes32"},{"name":"callerConfirmation","type":"address","internalType":"address"}],"outputs":[],"stateMutability":"nonpayable"},{"type":"function","name":"revokeRole","inputs":[{"name":"role","type":"bytes32","internalType":"bytes32"},{"name":"account","type":"address","internalType":"address"}],"outputs":[],"stateMutability":"nonpayable"},{"type":"function","name":"supportsInterface","inputs":[{"name":"interfaceId","type":"bytes4","internalType":"bytes4"}],"outputs":[{"name":"","type":"bool","internalType":"bool"}],"stateMutability":"view"},{"type":"function","name":"symbol","inputs":[],"outputs":[{"name":"","type":"string","internalType":"string"}],"stateMutability":"view"},{"type":"function","name":"totalSupply","inputs":[],"outputs":[{"name":"","type":"uint256","internalType":"uint256"}],"stateMutability":"view"},{"type":"function","name":"transfer","inputs":[{"name":"to","type":"address","internalType":"address"},{"name":"value","type":"uint256","internalType":"uint256"}],"outputs":[{"name":"","type":"bool","internalType":"bool"}],"stateMutability":"nonpayable"},{"type":"function","name":"transferFrom","inputs":[{"name":"from","type":"address","internalType":"address"},{"name":"to","type":"address","internalType":"address"},{"name":"value","type":"uint256","internalType":"uint256"}],"outputs":[{"name":"","type":"bool","internalType":"bool"}],"stateMutability":"nonpayable"},{"type":"function","name":"unpause","inputs":[],"outputs":[],"stateMutability":"nonpayable"},{"type":"event","name":"Approval","inputs":[{"name":"owner","type":"address","indexed":true,"internalType":"address"},{"name":"spender","type":"address","indexed":true,"internalType":"address"},{"name":"value","type":"uint256","indexed":false,"internalType":"uint256"}],"anonymous":false},{"type":"event","name":"Paused","inputs":[{"name":"account","type":"address","indexed":false,"internalType":"address"}],"anonymous":false},{"type":"event","name":"RoleAdminChanged","inputs":[{"name":"role","type":"bytes32","indexed":true,"internalType":"bytes32"},{"name":"previousAdminRole","type":"bytes32","indexed":true,"internalType":"bytes32"},{"name":"newAdminRole","type":"bytes32","indexed":true,"internalType":"bytes32"}],"anonymous":false},{"type":"event","name":"RoleGranted","inputs":[{"name":"role","type":"bytes32","indexed":true,"internalType":"bytes32"},{"name":"account","type":"address","indexed":true,"internalType":"address"},{"name":"sender","type":"address","indexed":true,"internalType":"address"}],"anonymous":false},{"type":"event","name":"RoleRevoked","inputs":[{"name":"role","type":"bytes32","indexed":true,"internalType":"bytes32"},{"name":"account","type":"address","indexed":true,"internalType":"address"},{"name":"sender","type":"address","indexed":true,"internalType":"address"}],"anonymous":false},{"type":"event","name":"Transfer","inputs":[{"name":"from","type":"address","indexed":true,"internalType":"address"},{"name":"to","type":"address","indexed":true,"internalType":"address"},{"name":"value","type":"uint256","indexed":false,"internalType":"uint256"}],"anonymous":false},{"type":"event","name":"Unpaused","inputs":[{"name":"account","type":"address","indexed":false,"internalType":"address"}],"anonymous":false},{"type":"error","name":"AccessControlBadConfirmation","inputs":[]},{"type":"error","name":"AccessControlUnauthorizedAccount","inputs":[{"name":"account","type":"address","internalType":"address"},{"name":"neededRole","type":"bytes32","internalType":"bytes32"}]},{"type":"error","name":"ERC20InsufficientAllowance","inputs":[{"name":"spender","type":"address","internalType":"address"},{"name":"allowance","type":"uint256","internalType":"uint256"},{"name":"needed","type":"uint256","internalType":"uint256"}]},{"type":"error","name":"ERC20InsufficientBalance","inputs":[{"name":"sender","type":"address","internalType":"address"},{"name":"balance","type":"uint256","internalType":"uint256"},{"name":"needed","type":"uint256","internalType":"uint256"}]},{"type":"error","name":"ERC20InvalidApprover","inputs":[{"name":"approver","type":"address","internalType":"address"}]},{"type":"error","name":"ERC20InvalidReceiver","inputs":[{"name":"receiver","type":"address","internalType":"address"}]},{"type":"error","name":"ERC20InvalidSender","inputs":[{"name":"sender","type":"address","internalType":"address"}]},{"type":"error","name":"ERC20InvalidSpender","inputs":[{"name":"spender","type":"address","internalType":"address"}]},{"type":"error","name":"EnforcedPause","inputs":[]},{"type":"error","name":"ExpectedPause","inputs":[]},{"type":"error","name":"ZeroAddress","inputs":[]}],"bytecode":{"object":"0x60c060405234801561000f575f80fd5b5060405161163138038061163183398101604081905261002e916102c2565b6040518060400160405280601881526020017f496e666172656420476f7665726e616e636520546f6b656e00000000000000008152506040518060400160405280600381526020016214915160ea1b8152508484848484816005908161009491906103bb565b5060066100a182826103bb565b50506007805460ff19169055506100b85f84610176565b506100d05f8051602061161183398151915283610176565b506100fb7f65d7a28e3265b37a6474929f336521b332c1681b933f6cb9f3376673440d862a82610176565b505050506001600160a01b03871615915081905061012057506001600160a01b038416155b1561013e5760405163d92e233d60e01b815260040160405180910390fd5b6001600160a01b03808616608052841660a081905261016b905f8051602061161183398151915290610176565b505050505050610475565b5f8061018284846101ac565b905080156101a3575f8481526001602052604090206101a19084610253565b505b90505b92915050565b5f828152602081815260408083206001600160a01b038516845290915281205460ff1661024c575f838152602081815260408083206001600160a01b03861684529091529020805460ff191660011790556102043390565b6001600160a01b0316826001600160a01b0316847f2f8788117e7eff1d82e926ec794901d17c78024a50270940304540a733656f0d60405160405180910390a45060016101a6565b505f6101a6565b5f6101a3836001600160a01b0384165f81815260018301602052604081205461024c57508154600181810184555f8481526020808220909301849055845484825282860190935260409020919091556101a6565b80516001600160a01b03811681146102bd575f80fd5b919050565b5f805f805f60a086880312156102d6575f80fd5b6102df866102a7565b94506102ed602087016102a7565b93506102fb604087016102a7565b9250610309606087016102a7565b9150610317608087016102a7565b90509295509295909350565b634e487b7160e01b5f52604160045260245ffd5b600181811c9082168061034b57607f821691505b60208210810361036957634e487b7160e01b5f52602260045260245ffd5b50919050565b601f8211156103b657805f5260205f20601f840160051c810160208510156103945750805b601f840160051c820191505b818110156103b3575f81556001016103a0565b50505b505050565b81516001600160401b038111156103d4576103d4610323565b6103e8816103e28454610337565b8461036f565b6020601f82116001811461041a575f83156104035750848201515b5f19600385901b1c1916600184901b1784556103b3565b5f84815260208120601f198516915b828110156104495787850151825560209485019460019092019101610429565b508482101561046657868401515f19600387901b60f8161c191681555b50505050600190811b01905550565b60805160a05161117b6104965f395f6101bd01525f61024e015261117b5ff3fe608060405234801561000f575f80fd5b5060043610610152575f3560e01c806301ffc9a71461015657806306fdde031461017e578063095ea7b31461019357806318160ddd146101a657806321f96c65146101b857806323b872dd146101ec578063248a9ca3146101ff5780632f2ff15d14610212578063313ce5671461022757806336568abe146102365780633dafa4f3146102495780633f4ba83a1461027057806340c10f191461027857806342966c681461028b5780635c975abb1461029e57806370a08231146102a957806379cc6790146102d15780638456cb59146102e45780639010d07c146102ec57806391d14854146102ff57806395d89b4114610312578063a217fddf1461031a578063a9059cbb14610321578063ca15c87314610334578063d539139314610347578063d547741f1461035b578063dd62ed3e1461036e578063e63ab1e914610381575b5f80fd5b610169610164366004610e9b565b610395565b60405190151581526020015b60405180910390f35b6101866103bf565b6040516101759190610ec2565b6101696101a1366004610f12565b61044f565b6004545b604051908152602001610175565b6101df7f000000000000000000000000000000000000000000000000000000000000000081565b6040516101759190610f3a565b6101696101fa366004610f4e565b610466565b6101aa61020d366004610f88565b610489565b610225610220366004610f9f565b61049d565b005b60405160128152602001610175565b610225610244366004610f9f565b6104bf565b6101df7f000000000000000000000000000000000000000000000000000000000000000081565b6102256104f7565b610225610286366004610f12565b610578565b610225610299366004610f88565b6105f5565b60075460ff16610169565b6101aa6102b7366004610fc9565b6001600160a01b03165f9081526002602052604090205490565b6102256102df366004610f12565b610602565b610225610617565b6101df6102fa366004610fe2565b61068f565b61016961030d366004610f9f565b6106ad565b6101866106d5565b6101aa5f81565b61016961032f366004610f12565b6106e4565b6101aa610342366004610f88565b6106f1565b6101aa5f8051602061112683398151915281565b610225610369366004610f9f565b610707565b6101aa61037c366004611002565b610723565b6101aa5f8051602061110683398151915281565b5f6001600160e01b03198216635a05180f60e01b14806103b957506103b98261074d565b92915050565b6060600580546103ce9061102a565b80601f01602080910402602001604051908101604052809291908181526020018280546103fa9061102a565b80156104455780601f1061041c57610100808354040283529160200191610445565b820191905f5260205f20905b81548152906001019060200180831161042857829003601f168201915b5050505050905090565b5f3361045c818585610781565b5060019392505050565b5f3361047385828561078e565b61047e8585856107d8565b506001949350505050565b5f9081526020819052604090206001015490565b6104a682610489565b6104af81610835565b6104b9838361083f565b50505050565b6001600160a01b03811633146104e85760405163334bd91960e11b815260040160405180910390fd5b6104f28282610872565b505050565b61050e5f80516020611106833981519152336106ad565b61056e5760405162461bcd60e51b815260206004820152603960248201525f805160206110e683398151915260448201527876652070617573657220726f6c6520746f20756e706175736560381b60648201526084015b60405180910390fd5b61057661089d565b565b61058f5f80516020611126833981519152336106ad565b6105e75760405162461bcd60e51b815260206004820152603660248201525f805160206110e68339815191526044820152751d99481b5a5b9d195c881c9bdb19481d1bc81b5a5b9d60521b6064820152608401610565565b6105f182826108e9565b5050565b6105ff338261091d565b50565b61060d82338361078e565b6105f1828261091d565b61062e5f80516020611106833981519152336106ad565b6106875760405162461bcd60e51b815260206004820152603760248201525f805160206110e683398151915260448201527676652070617573657220726f6c6520746f20706175736560481b6064820152608401610565565b610576610951565b5f8281526001602052604081206106a6908361098e565b9392505050565b5f918252602082815260408084206001600160a01b0393909316845291905290205460ff1690565b6060600680546103ce9061102a565b5f3361045c8185856107d8565b5f8181526001602052604081206103b990610999565b61071082610489565b61071981610835565b6104b98383610872565b6001600160a01b039182165f90815260036020908152604080832093909416825291909152205490565b5f6001600160e01b03198216637965db0b60e01b14806103b957506301ffc9a760e01b6001600160e01b03198316146103b9565b6104f283838360016109a2565b5f6107998484610723565b90505f1981146104b957818110156107ca57828183604051637dc7a0d960e11b815260040161056593929190611062565b6104b984848484035f6109a2565b6001600160a01b038316610801575f604051634b637e8f60e11b81526004016105659190610f3a565b6001600160a01b03821661082a575f60405163ec442f0560e01b81526004016105659190610f3a565b6104f2838383610a74565b6105ff8133610a87565b5f8061084b8484610ac0565b905080156106a6575f84815260016020526040902061086a9084610b4f565b509392505050565b5f8061087e8484610b63565b905080156106a6575f84815260016020526040902061086a9084610bcc565b6108a5610be0565b6007805460ff191690557f5db9ee0a495bf2e6ff9c91a7834c1ba4fdd244a5e8aa4e537bd38aeae4b073aa335b6040516108df9190610f3a565b60405180910390a1565b6001600160a01b038216610912575f60405163ec442f0560e01b81526004016105659190610f3a565b6105f15f8383610a74565b6001600160a01b038216610946575f604051634b637e8f60e11b81526004016105659190610f3a565b6105f1825f83610a74565b610959610c03565b6007805460ff191660011790557f62e78cea01bee320cd4e420270b5ea74000d11b0c9f74754ebdbfc544b05a2586108d23390565b5f6106a68383610c27565b5f6103b9825490565b6001600160a01b0384166109cb575f60405163e602df0560e01b81526004016105659190610f3a565b6001600160a01b0383166109f4575f604051634a1406b160e11b81526004016105659190610f3a565b6001600160a01b038085165f90815260036020908152604080832093871683529290522082905580156104b957826001600160a01b0316846001600160a01b03167f8c5be1e5ebec7d5bd14f71427d1e84f3dd0314c0f7b2291e5b200ac8c7c3b92584604051610a6691815260200190565b60405180910390a350505050565b610a7c610c03565b6104f2838383610c4d565b610a9182826106ad565b6105f15760405163e2517d3f60e01b81526001600160a01b038216600482015260248101839052604401610565565b5f610acb83836106ad565b610b48575f838152602081815260408083206001600160a01b03861684529091529020805460ff19166001179055610b003390565b6001600160a01b0316826001600160a01b0316847f2f8788117e7eff1d82e926ec794901d17c78024a50270940304540a733656f0d60405160405180910390a45060016103b9565b505f6103b9565b5f6106a6836001600160a01b038416610c60565b5f610b6e83836106ad565b15610b48575f838152602081815260408083206001600160a01b0386168085529252808320805460ff1916905551339286917ff6391f5c32d9c69d2a47ea670b442974b53935d1edc7fd64eb21e047a839171b9190a45060016103b9565b5f6106a6836001600160a01b038416610ca5565b60075460ff1661057657604051638dfc202b60e01b815260040160405180910390fd5b60075460ff16156105765760405163d93c066560e01b815260040160405180910390fd5b5f825f018281548110610c3c57610c3c611083565b905f5260205f200154905092915050565b610c55610c03565b6104f2838383610d88565b5f818152600183016020526040812054610b4857508154600181810184555f8481526020808220909301849055845484825282860190935260409020919091556103b9565b5f8181526001830160205260408120548015610d7f575f610cc76001836110ab565b85549091505f90610cda906001906110ab565b9050808214610d39575f865f018281548110610cf857610cf8611083565b905f5260205f200154905080875f018481548110610d1857610d18611083565b5f918252602080832090910192909255918252600188019052604090208390555b8554869080610d4a57610d4a6110be565b600190038181905f5260205f20015f90559055856001015f8681526020019081526020015f205f9055600193505050506103b9565b5f9150506103b9565b6001600160a01b038316610db2578060045f828254610da791906110d2565b90915550610e0f9050565b6001600160a01b0383165f9081526002602052604090205481811015610df15783818360405163391434e360e21b815260040161056593929190611062565b6001600160a01b0384165f9081526002602052604090209082900390555b6001600160a01b038216610e2b57600480548290039055610e49565b6001600160a01b0382165f9081526002602052604090208054820190555b816001600160a01b0316836001600160a01b03167fddf252ad1be2c89b69c2b068fc378daa952ba7f163c4a11628f55a4df523b3ef83604051610e8e91815260200190565b60405180910390a3505050565b5f60208284031215610eab575f80fd5b81356001600160e01b0319811681146106a6575f80fd5b602081525f82518060208401528060208501604085015e5f604082850101526040601f19601f83011684010191505092915050565b80356001600160a01b0381168114610f0d575f80fd5b919050565b5f8060408385031215610f23575f80fd5b610f2c83610ef7565b946020939093013593505050565b6001600160a01b0391909116815260200190565b5f805f60608486031215610f60575f80fd5b610f6984610ef7565b9250610f7760208501610ef7565b929592945050506040919091013590565b5f60208284031215610f98575f80fd5b5035919050565b5f8060408385031215610fb0575f80fd5b82359150610fc060208401610ef7565b90509250929050565b5f60208284031215610fd9575f80fd5b6106a682610ef7565b5f8060408385031215610ff3575f80fd5b50508035926020909101359150565b5f8060408385031215611013575f80fd5b61101c83610ef7565b9150610fc060208401610ef7565b600181811c9082168061103e57607f821691505b60208210810361105c57634e487b7160e01b5f52602260045260245ffd5b50919050565b6001600160a01b039390931683526020830191909152604082015260600190565b634e487b7160e01b5f52603260045260245ffd5b634e487b7160e01b5f52601160045260245ffd5b818103818111156103b9576103b9611097565b634e487b7160e01b5f52603160045260245ffd5b808201808211156103b9576103b961109756fe45524332305072657365744d696e7465725061757365723a206d75737420686165d7a28e3265b37a6474929f336521b332c1681b933f6cb9f3376673440d862a9f2df0fed2c77648de5860a4cc508cd0818c85b8b8a1ab4ceeef8d981c8956a6a2646970667358221220d7c8a277bff14dd42771fa942f18ee31f706c1ec10d3da4bdfdf5e913c67c60a64736f6c634300081a00339f2df0fed2c77648de5860a4cc508cd0818c85b8b8a1ab4ceeef8d981c8956a6","linkReferences":{}},"methodIdentifiers":{"DEFAULT_ADMIN_ROLE()":"a217fddf","MINTER_ROLE()":"d5391393","PAUSER_ROLE()":"e63ab1e9","allowance(address,address)":"dd62ed3e","approve(address,uint256)":"095ea7b3","balanceOf(address)":"70a08231","burn(uint256)":"42966c68","burnFrom(address,uint256)":"79cc6790","decimals()":"313ce567","getRoleAdmin(bytes32)":"248a9ca3","getRoleMember(bytes32,uint256)":"9010d07c","getRoleMemberCount(bytes32)":"ca15c873","grantRole(bytes32,address)":"2f2ff15d","hasRole(bytes32,address)":"91d14854","ibgt()":"3dafa4f3","infrared()":"21f96c65","mint(address,uint256)":"40c10f19","name()":"06fdde03","pause()":"8456cb59","paused()":"5c975abb","renounceRole(bytes32,address)":"36568abe","revokeRole(bytes32,address)":"d547741f","supportsInterface(bytes4)":"01ffc9a7","symbol()":"95d89b41","totalSupply()":"18160ddd","transfer(address,uint256)":"a9059cbb","transferFrom(address,address,uint256)":"23b872dd","unpause()":"3f4ba83a"},"id":80}