{"abi":[{"type":"constructor","inputs":[{"name":"_infrared","type":"address","internalType":"address"}],"stateMutability":"nonpayable"},{"type":"function","name":"DEFAULT_ADMIN_ROLE","inputs":[],"outputs":[{"name":"","type":"bytes32","internalType":"bytes32"}],"stateMutability":"view"},{"type":"function","name":"GOVERNANCE_ROLE","inputs":[],"outputs":[{"name":"","type":"bytes32","internalType":"bytes32"}],"stateMutability":"view"},{"type":"function","name":"KEEPER_ROLE","inputs":[],"outputs":[{"name":"","type":"bytes32","internalType":"bytes32"}],"stateMutability":"view"},{"type":"function","name":"UPGRADE_INTERFACE_VERSION","inputs":[],"outputs":[{"name":"","type":"string","internalType":"string"}],"stateMutability":"view"},{"type":"function","name":"add","inputs":[{"name":"pubkey","type":"bytes","internalType":"bytes"},{"name":"validator","type":"address","internalType":"address"}],"outputs":[],"stateMutability":"nonpayable"},{"type":"function","name":"amountsCumulative","inputs":[],"outputs":[{"name":"","type":"uint256","internalType":"uint256"}],"stateMutability":"view"},{"type":"function","name":"claim","inputs":[{"name":"pubkey","type":"bytes","internalType":"bytes"},{"name":"recipient","type":"address","internalType":"address"}],"outputs":[],"stateMutability":"nonpayable"},{"type":"function","name":"currentImplementation","inputs":[],"outputs":[{"name":"","type":"address","internalType":"address"}],"stateMutability":"view"},{"type":"function","name":"getRoleAdmin","inputs":[{"name":"role","type":"bytes32","internalType":"bytes32"}],"outputs":[{"name":"","type":"bytes32","internalType":"bytes32"}],"stateMutability":"view"},{"type":"function","name":"getSnapshot","inputs":[{"name":"pubkey","type":"bytes","internalType":"bytes"}],"outputs":[{"name":"amountCumulativeLast","type":"uint256","internalType":"uint256"},{"name":"amountCumulativeFinal","type":"uint256","internalType":"uint256"}],"stateMutability":"view"},{"type":"function","name":"getValidator","inputs":[{"name":"pubkey","type":"bytes","internalType":"bytes"}],"outputs":[{"name":"","type":"address","internalType":"address"}],"stateMutability":"view"},{"type":"function","name":"grantRole","inputs":[{"name":"role","type":"bytes32","internalType":"bytes32"},{"name":"account","type":"address","internalType":"address"}],"outputs":[],"stateMutability":"nonpayable"},{"type":"function","name":"hasRole","inputs":[{"name":"role","type":"bytes32","internalType":"bytes32"},{"name":"account","type":"address","internalType":"address"}],"outputs":[{"name":"","type":"bool","internalType":"bool"}],"stateMutability":"view"},{"type":"function","name":"implementation","inputs":[],"outputs":[{"name":"","type":"address","internalType":"address"}],"stateMutability":"view"},{"type":"function","name":"infrared","inputs":[],"outputs":[{"name":"","type":"address","internalType":"contract IInfrared"}],"stateMutability":"view"},{"type":"function","name":"initialize","inputs":[{"name":"_gov","type":"address","internalType":"address"},{"name":"_token","type":"address","internalType":"address"}],"outputs":[],"stateMutability":"nonpayable"},{"type":"function","name":"notifyRewardAmount","inputs":[{"name":"amount","type":"uint256","internalType":"uint256"}],"outputs":[],"stateMutability":"nonpayable"},{"type":"function","name":"proxiableUUID","inputs":[],"outputs":[{"name":"","type":"bytes32","internalType":"bytes32"}],"stateMutability":"view"},{"type":"function","name":"purge","inputs":[{"name":"pubkey","type":"bytes","internalType":"bytes"}],"outputs":[],"stateMutability":"nonpayable"},{"type":"function","name":"remove","inputs":[{"name":"pubkey","type":"bytes","internalType":"bytes"}],"outputs":[],"stateMutability":"nonpayable"},{"type":"function","name":"renounceRole","inputs":[{"name":"role","type":"bytes32","internalType":"bytes32"},{"name":"callerConfirmation","type":"address","internalType":"address"}],"outputs":[],"stateMutability":"nonpayable"},{"type":"function","name":"revokeRole","inputs":[{"name":"role","type":"bytes32","internalType":"bytes32"},{"name":"account","type":"address","internalType":"address"}],"outputs":[],"stateMutability":"nonpayable"},{"type":"function","name":"supportsInterface","inputs":[{"name":"interfaceId","type":"bytes4","internalType":"bytes4"}],"outputs":[{"name":"","type":"bool","internalType":"bool"}],"stateMutability":"view"},{"type":"function","name":"token","inputs":[],"outputs":[{"name":"","type":"address","internalType":"contract ERC20"}],"stateMutability":"view"},{"type":"function","name":"upgradeToAndCall","inputs":[{"name":"newImplementation","type":"address","internalType":"address"},{"name":"data","type":"bytes","internalType":"bytes"}],"outputs":[],"stateMutability":"payable"},{"type":"event","name":"Added","inputs":[{"name":"pubkey","type":"bytes","indexed":false,"internalType":"bytes"},{"name":"operator","type":"address","indexed":false,"internalType":"address"},{"name":"amountCumulative","type":"uint256","indexed":false,"internalType":"uint256"}],"anonymous":false},{"type":"event","name":"Claimed","inputs":[{"name":"pubkey","type":"bytes","indexed":false,"internalType":"bytes"},{"name":"validator","type":"address","indexed":false,"internalType":"address"},{"name":"recipient","type":"address","indexed":false,"internalType":"address"},{"name":"amount","type":"uint256","indexed":false,"internalType":"uint256"}],"anonymous":false},{"type":"event","name":"Initialized","inputs":[{"name":"version","type":"uint64","indexed":false,"internalType":"uint64"}],"anonymous":false},{"type":"event","name":"Notified","inputs":[{"name":"amount","type":"uint256","indexed":false,"internalType":"uint256"},{"name":"num","type":"uint256","indexed":false,"internalType":"uint256"}],"anonymous":false},{"type":"event","name":"Purged","inputs":[{"name":"pubkey","type":"bytes","indexed":false,"internalType":"bytes"},{"name":"validator","type":"address","indexed":false,"internalType":"address"}],"anonymous":false},{"type":"event","name":"Removed","inputs":[{"name":"pubkey","type":"bytes","indexed":false,"internalType":"bytes"},{"name":"operator","type":"address","indexed":false,"internalType":"address"},{"name":"amountCumulative","type":"uint256","indexed":false,"internalType":"uint256"}],"anonymous":false},{"type":"event","name":"RoleAdminChanged","inputs":[{"name":"role","type":"bytes32","indexed":true,"internalType":"bytes32"},{"name":"previousAdminRole","type":"bytes32","indexed":true,"internalType":"bytes32"},{"name":"newAdminRole","type":"bytes32","indexed":true,"internalType":"bytes32"}],"anonymous":false},{"type":"event","name":"RoleGranted","inputs":[{"name":"role","type":"bytes32","indexed":true,"internalType":"bytes32"},{"name":"account","type":"address","indexed":true,"internalType":"address"},{"name":"sender","type":"address","indexed":true,"internalType":"address"}],"anonymous":false},{"type":"event","name":"RoleRevoked","inputs":[{"name":"role","type":"bytes32","indexed":true,"internalType":"bytes32"},{"name":"account","type":"address","indexed":true,"internalType":"address"},{"name":"sender","type":"address","indexed":true,"internalType":"address"}],"anonymous":false},{"type":"event","name":"Upgraded","inputs":[{"name":"implementation","type":"address","indexed":true,"internalType":"address"}],"anonymous":false},{"type":"error","name":"AccessControlBadConfirmation","inputs":[]},{"type":"error","name":"AccessControlUnauthorizedAccount","inputs":[{"name":"account","type":"address","internalType":"address"},{"name":"neededRole","type":"bytes32","internalType":"bytes32"}]},{"type":"error","name":"AddressEmptyCode","inputs":[{"name":"target","type":"address","internalType":"address"}]},{"type":"error","name":"ClaimableRewardsExist","inputs":[]},{"type":"error","name":"ERC1967InvalidImplementation","inputs":[{"name":"implementation","type":"address","internalType":"address"}]},{"type":"error","name":"ERC1967NonPayable","inputs":[]},{"type":"error","name":"FailedInnerCall","inputs":[]},{"type":"error","name":"InvalidInitialization","inputs":[]},{"type":"error","name":"InvalidValidator","inputs":[]},{"type":"error","name":"NoRewardsToClaim","inputs":[]},{"type":"error","name":"NotInfrared","inputs":[]},{"type":"error","name":"NotInitializing","inputs":[]},{"type":"error","name":"UUPSUnauthorizedCallContext","inputs":[]},{"type":"error","name":"UUPSUnsupportedProxiableUUID","inputs":[{"name":"slot","type":"bytes32","internalType":"bytes32"}]},{"type":"error","name":"ValidatorAlreadyExists","inputs":[]},{"type":"error","name":"ValidatorAlreadyRemoved","inputs":[]},{"type":"error","name":"ValidatorDoesNotExist","inputs":[]},{"type":"error","name":"ZeroAddress","inputs":[]},{"type":"error","name":"ZeroAmount","inputs":[]}],"bytecode":{"object":"0x60c060405230608052348015610013575f80fd5b50604051611b32380380611b3283398101604081905261003291610130565b8061003b61007e565b6001600160a01b03811660a05261005061007e565b506001600160a01b0381166100785760405163d92e233d60e01b815260040160405180910390fd5b5061015d565b7ff0c57e16840df040f15088dc2f81fe391c3923bec73e23a9662efc9c229c6a00805468010000000000000000900460ff16156100ce5760405163f92ee8a960e01b815260040160405180910390fd5b80546001600160401b039081161461012d5780546001600160401b0319166001600160401b0390811782556040519081527fc7f505b2f371ae2175ee4913f4499e1f2633a7b5936321eed1cdaeb6115181d29060200160405180910390a15b50565b5f60208284031215610140575f80fd5b81516001600160a01b0381168114610156575f80fd5b9392505050565b60805160a0516119916101a15f395f818161016e01528181610537015281816109940152610d5701525f81816111550152818161117e01526112ac01526119915ff3fe608060405260043610610125575f3560e01c806301ffc9a71461012957806321f96c651461015d578063248a9ca31461019d5780632f2ff15d146101ca578063364bc15a146101eb57806336568abe1461021e5780633c6b16ab1461023d57806341fcb6121461025c578063485cc9551461027b5780634f1ef2861461029a57806352d1902d146102ad57806358edef4c146102c15780635c60da1b146102e057806391d14854146102f4578063a217fddf14610313578063ad3cb1cc14610326578063b029387614610363578063b4891bfd14610382578063cae9e2f8146103a1578063d547741f146103b6578063d8bd5c29146102e0578063da745671146103d5578063e42dd37e14610409578063f36c8f5c14610428578063fc0c546a14610448575b5f80fd5b348015610134575f80fd5b5061014861014336600461155b565b610466565b60405190151581526020015b60405180910390f35b348015610168575f80fd5b506101907f000000000000000000000000000000000000000000000000000000000000000081565b6040516101549190611582565b3480156101a8575f80fd5b506101bc6101b7366004611596565b61049c565b604051908152602001610154565b3480156101d5575f80fd5b506101e96101e43660046115c8565b6104ba565b005b3480156101f6575f80fd5b506101bc7ffc8737ab85eb45125971625a9ebdb75cc78e01d5c1fa80c4c6e5203f47bc4fab81565b348015610229575f80fd5b506101e96102383660046115c8565b6104dc565b348015610248575f80fd5b506101e9610257366004611596565b610514565b348015610267575f80fd5b506101e961027636600461162f565b610647565b348015610286575f80fd5b506101e961029536600461167e565b6107d1565b6101e96102a83660046116ba565b61094f565b3480156102b8575f80fd5b506101bc61096e565b3480156102cc575f80fd5b506101e96102db36600461177b565b610989565b3480156102eb575f80fd5b50610190610ae7565b3480156102ff575f80fd5b5061014861030e3660046115c8565b610af5565b34801561031e575f80fd5b506101bc5f81565b348015610331575f80fd5b50610356604051806040016040528060058152602001640352e302e360dc1b81525081565b60405161015491906117b9565b34801561036e575f80fd5b506101e961037d36600461177b565b610b29565b34801561038d575f80fd5b5061019061039c36600461177b565b610c9a565b3480156103ac575f80fd5b506101bc60015481565b3480156103c1575f80fd5b506101e96103d03660046115c8565b610cd7565b3480156103e0575f80fd5b506103f46103ef36600461177b565b610cf3565b60408051928352602083019190915201610154565b348015610414575f80fd5b506101e961042336600461162f565b610d4c565b348015610433575f80fd5b506101bc5f8051602061191c83398151915281565b348015610453575f80fd5b505f54610190906001600160a01b031681565b5f6001600160e01b03198216637965db0b60e01b148061049657506301ffc9a760e01b6001600160e01b03198316145b92915050565b5f806104a6610eb5565b5f9384526020525050604090206001015490565b6104c38261049c565b6104cc81610ed9565b6104d68383610ee6565b50505050565b6001600160a01b03811633146105055760405163334bd91960e11b815260040160405180910390fd5b61050f8282610f84565b505050565b805f0361053457604051631f2a200560e01b815260040160405180910390fd5b5f7f00000000000000000000000000000000000000000000000000000000000000006001600160a01b031663af34596b6040518163ffffffff1660e01b8152600401602060405180830381865afa158015610591573d5f803e3d5ffd5b505050506040513d601f19601f820116820180604052508101906105b591906117ee565b9050805f036105d757604051631a0a9b9f60e21b815260040160405180910390fd5b8082816105e6576105e6611805565b600180549290910490910190555f5461060a906001600160a01b0316333085610ffa565b60408051838152602081018390527f0fd7bb2818b0aaa42a4064edb68964c3e29810804cf8cce3060a3bac23fb9d79910160405180910390a15050565b5f60035f858560405161065b929190611819565b604080519182900390912082526020820192909252015f20546001600160a01b0316905033811461069f57604051631a0a9b9f60e21b815260040160405180910390fd5b5f60025f86866040516106b3929190611819565b604051809103902081526020019081526020015f206040518060400160405290815f820154815260200160018201548152505090505f81602001515f146106fe578160200151610702565b6001545b905080825f015103610727576040516373380d9960e01b815260040160405180910390fd5b81518183526040519082039083906002905f90610747908b908b90611819565b60408051918290039091208252602080830193909352015f20825181559101516001909101558015610789575f54610789906001600160a01b03168683611097565b7f9576988ea7fc26ed2051932115a06386270912ac360b6991f73d463cba998f6987878688856040516107c0959493929190611850565b60405180910390a150505050505050565b5f6107da611114565b805490915060ff600160401b82041615906001600160401b03165f811580156108005750825b90505f826001600160401b0316600114801561081b5750303b155b905081158015610829575080155b156108475760405163f92ee8a960e01b815260040160405180910390fd5b84546001600160401b0319166001178555831561087057845460ff60401b1916600160401b1785555b6001600160a01b038716158061088d57506001600160a01b038616155b156108ab5760405163d92e233d60e01b815260040160405180910390fd5b5f80546001600160a01b0319166001600160a01b03881617815560018054916108d383611887565b909155506108e390505f88610ee6565b506108fb5f8051602061191c83398151915288610ee6565b50610904611138565b831561094657845460ff60401b19168555604051600181527fc7f505b2f371ae2175ee4913f4499e1f2633a7b5936321eed1cdaeb6115181d2906020016107c0565b50505050505050565b61095761114a565b610960826111d8565b61096a82826111ee565b5050565b5f6109776112a1565b505f8051602061193c83398151915290565b336001600160a01b037f000000000000000000000000000000000000000000000000000000000000000016146109d257604051634d943cbb60e11b815260040160405180910390fd5b5f60035f84846040516109e6929190611819565b604080519182900390912082526020820192909252015f20546001600160a01b0316905080610a28576040516372898ae960e11b815260040160405180910390fd5b6001545f819003610a4c57604051631f2a200560e01b815260040160405180910390fd5b5f60025f8686604051610a60929190611819565b604051809103902081526020019081526020015f20905080600101545f14610a9b576040516372087d5160e11b815260040160405180910390fd5b600181018290556040517f770c036f69dfa12d922db481b64d3231f6a723b78c8f9da82f721d2a21e290ac90610ad89087908790879087906118ab565b60405180910390a15050505050565b5f610af06112ea565b905090565b5f80610aff610eb5565b5f948552602090815260408086206001600160a01b03959095168652939052505090205460ff1690565b5f60035f8484604051610b3d929190611819565b604080519182900390912082526020820192909252015f20546001600160a01b0316905080610b7f576040516372898ae960e11b815260040160405180910390fd5b5f60025f8585604051610b93929190611819565b604080519182900390912082526020808301939093529081015f208151808301909252805480835260019091015492820183905290925014610be8576040516305681cf960e21b815260040160405180910390fd5b60025f8585604051610bfb929190611819565b604051809103902081526020019081526020015f205f8082015f9055600182015f9055505060035f8585604051610c33929190611819565b60408051918290039091208252602082019290925281015f2080546001600160a01b0319169055517fa182022c4af7e8f6d1f4abd63766611bb2b457afc48c87ead10829e260dbff2490610c8c908690869086906118da565b60405180910390a150505050565b5f60035f8484604051610cae929190611819565b604080519182900390912082526020820192909252015f20546001600160a01b03169392505050565b610ce08261049c565b610ce981610ed9565b6104d68383610f84565b5f805f60025f8686604051610d09929190611819565b604080519182900390912082526020808301939093529081015f2081518083019092528054808352600190910154919092018190529093509150505b9250929050565b336001600160a01b037f00000000000000000000000000000000000000000000000000000000000000001614610d9557604051634d943cbb60e11b815260040160405180910390fd5b5f6001600160a01b031660035f8585604051610db2929190611819565b604080519182900390912082526020820192909252015f20546001600160a01b031614610df257604051634684d39f60e11b815260040160405180910390fd5b8060035f8585604051610e06929190611819565b604051809103902081526020019081526020015f205f6101000a8154816001600160a01b0302191690836001600160a01b031602179055505f60025f8585604051610e52929190611819565b604051809103902081526020019081526020015f2090505f600154905080825f01819055505f82600101819055507fd21b2569b911d25565418ade21a681e5b0733d9fcc8234f7dcb13e131ef4f99185858584604051610ad894939291906118ab565b7f02dd7bc7dec4dceedda775e58dd541e08a116c6c53815c0bd028192f7b62680090565b610ee38133611305565b50565b5f80610ef0610eb5565b9050610efc8484610af5565b610f7b575f848152602082815260408083206001600160a01b03871684529091529020805460ff19166001179055610f313390565b6001600160a01b0316836001600160a01b0316857f2f8788117e7eff1d82e926ec794901d17c78024a50270940304540a733656f0d60405160405180910390a46001915050610496565b5f915050610496565b5f80610f8e610eb5565b9050610f9a8484610af5565b15610f7b575f848152602082815260408083206001600160a01b0387168085529252808320805460ff1916905551339287917ff6391f5c32d9c69d2a47ea670b442974b53935d1edc7fd64eb21e047a839171b9190a46001915050610496565b5f6040516323b872dd60e01b81526001600160a01b03851660048201526001600160a01b038416602482015282604482015260205f6064835f8a5af13d15601f3d1160015f5114161716915050806110905760405162461bcd60e51b81526020600482015260146024820152731514905394d1915497d19493d357d1905253115160621b60448201526064015b60405180910390fd5b5050505050565b5f60405163a9059cbb60e01b81526001600160a01b038416600482015282602482015260205f6044835f895af13d15601f3d1160015f5114161716915050806104d65760405162461bcd60e51b815260206004820152600f60248201526e1514905394d1915497d19052531151608a1b6044820152606401611087565b7ff0c57e16840df040f15088dc2f81fe391c3923bec73e23a9662efc9c229c6a0090565b61114061133e565b611148611363565b565b306001600160a01b037f00000000000000000000000000000000000000000000000000000000000000001614806111ba57507f00000000000000000000000000000000000000000000000000000000000000006001600160a01b03166111ae6112ea565b6001600160a01b031614155b156111485760405163703e46dd60e11b815260040160405180910390fd5b610ee35f8051602061191c833981519152610ed9565b816001600160a01b03166352d1902d6040518163ffffffff1660e01b8152600401602060405180830381865afa925050508015611248575060408051601f3d908101601f19168201909252611245918101906117ee565b60015b6112675781604051634c9c8ce360e01b81526004016110879190611582565b5f8051602061193c833981519152811461129757604051632a87526960e21b815260048101829052602401611087565b61050f838361137b565b306001600160a01b037f000000000000000000000000000000000000000000000000000000000000000016146111485760405163703e46dd60e11b815260040160405180910390fd5b5f8051602061193c833981519152546001600160a01b031690565b61130f8282610af5565b61096a5760405163e2517d3f60e01b81526001600160a01b038216600482015260248101839052604401611087565b6113466113d0565b61114857604051631afcd79f60e31b815260040160405180910390fd5b61136b61133e565b6113736113e9565b6111486113e9565b611384826113f1565b6040516001600160a01b038316907fbc7cd75a20ee27fd9adebab32041f755214dbc6bffa90cc0225b39da2e5c2d3b905f90a28051156113c85761050f828261144b565b61096a6114bd565b5f6113d9611114565b54600160401b900460ff16919050565b61114861133e565b806001600160a01b03163b5f0361141d5780604051634c9c8ce360e01b81526004016110879190611582565b5f8051602061193c83398151915280546001600160a01b0319166001600160a01b0392909216919091179055565b60605f80846001600160a01b0316846040516114679190611905565b5f60405180830381855af49150503d805f811461149f576040519150601f19603f3d011682016040523d82523d5f602084013e6114a4565b606091505b50915091506114b48583836114dc565b95945050505050565b34156111485760405163b398979f60e01b815260040160405180910390fd5b6060826114f1576114ec82611532565b61152b565b815115801561150857506001600160a01b0384163b155b156115285783604051639996b31560e01b81526004016110879190611582565b50805b9392505050565b8051156115425780518082602001fd5b604051630a12f52160e11b815260040160405180910390fd5b5f6020828403121561156b575f80fd5b81356001600160e01b03198116811461152b575f80fd5b6001600160a01b0391909116815260200190565b5f602082840312156115a6575f80fd5b5035919050565b80356001600160a01b03811681146115c3575f80fd5b919050565b5f80604083850312156115d9575f80fd5b823591506115e9602084016115ad565b90509250929050565b5f8083601f840112611602575f80fd5b5081356001600160401b03811115611618575f80fd5b602083019150836020828501011115610d45575f80fd5b5f805f60408486031215611641575f80fd5b83356001600160401b03811115611656575f80fd5b611662868287016115f2565b90945092506116759050602085016115ad565b90509250925092565b5f806040838503121561168f575f80fd5b611698836115ad565b91506115e9602084016115ad565b634e487b7160e01b5f52604160045260245ffd5b5f80604083850312156116cb575f80fd5b6116d4836115ad565b915060208301356001600160401b038111156116ee575f80fd5b8301601f810185136116fe575f80fd5b80356001600160401b03811115611717576117176116a6565b604051601f8201601f19908116603f011681016001600160401b0381118282101715611745576117456116a6565b60405281815282820160200187101561175c575f80fd5b816020840160208301375f602083830101528093505050509250929050565b5f806020838503121561178c575f80fd5b82356001600160401b038111156117a1575f80fd5b6117ad858286016115f2565b90969095509350505050565b602081525f82518060208401528060208501604085015e5f604082850101526040601f19601f83011684010191505092915050565b5f602082840312156117fe575f80fd5b5051919050565b634e487b7160e01b5f52601260045260245ffd5b818382375f9101908152919050565b81835281816020850137505f828201602090810191909152601f909101601f19169091010190565b608081525f611863608083018789611828565b6001600160a01b039586166020840152939094166040820152606001529392505050565b5f600182016118a457634e487b7160e01b5f52601160045260245ffd5b5060010190565b606081525f6118be606083018688611828565b6001600160a01b03949094166020830152506040015292915050565b604081525f6118ed604083018587611828565b905060018060a01b0383166020830152949350505050565b5f82518060208501845e5f92019182525091905056fe71840dc4906352362b0cdaf79870196c8e42acafade72d5d5a6d59291253ceb1360894a13ba1a3210667c828492db98dca3e2076cc3735a920a3ca505d382bbca264697066735822122090ee89af12384a6fb641cddeddc960c5b667f16db9f4276430e497064d904fc764736f6c634300081a0033","linkReferences":{}},"methodIdentifiers":{"DEFAULT_ADMIN_ROLE()":"a217fddf","GOVERNANCE_ROLE()":"f36c8f5c","KEEPER_ROLE()":"364bc15a","UPGRADE_INTERFACE_VERSION()":"ad3cb1cc","add(bytes,address)":"e42dd37e","amountsCumulative()":"cae9e2f8","claim(bytes,address)":"41fcb612","currentImplementation()":"d8bd5c29","getRoleAdmin(bytes32)":"248a9ca3","getSnapshot(bytes)":"da745671","getValidator(bytes)":"b4891bfd","grantRole(bytes32,address)":"2f2ff15d","hasRole(bytes32,address)":"91d14854","implementation()":"5c60da1b","infrared()":"21f96c65","initialize(address,address)":"485cc955","notifyRewardAmount(uint256)":"3c6b16ab","proxiableUUID()":"52d1902d","purge(bytes)":"b0293876","remove(bytes)":"58edef4c","renounceRole(bytes32,address)":"36568abe","revokeRole(bytes32,address)":"d547741f","supportsInterface(bytes4)":"01ffc9a7","token()":"fc0c546a","upgradeToAndCall(address,bytes)":"4f1ef286"},"id":76}