{"abi":[{"type":"function","name":"DEFAULT_ADMIN_ROLE","inputs":[],"outputs":[{"name":"","type":"bytes32","internalType":"bytes32"}],"stateMutability":"view"},{"type":"function","name":"GOVERNANCE_ROLE","inputs":[],"outputs":[{"name":"","type":"bytes32","internalType":"bytes32"}],"stateMutability":"view"},{"type":"function","name":"KEEPER_ROLE","inputs":[],"outputs":[{"name":"","type":"bytes32","internalType":"bytes32"}],"stateMutability":"view"},{"type":"function","name":"UPGRADE_INTERFACE_VERSION","inputs":[],"outputs":[{"name":"","type":"string","internalType":"string"}],"stateMutability":"view"},{"type":"function","name":"claims","inputs":[{"name":"","type":"address","internalType":"address"}],"outputs":[{"name":"","type":"uint256","internalType":"uint256"}],"stateMutability":"view"},{"type":"function","name":"currentImplementation","inputs":[],"outputs":[{"name":"","type":"address","internalType":"address"}],"stateMutability":"view"},{"type":"function","name":"getRoleAdmin","inputs":[{"name":"role","type":"bytes32","internalType":"bytes32"}],"outputs":[{"name":"","type":"bytes32","internalType":"bytes32"}],"stateMutability":"view"},{"type":"function","name":"grantRole","inputs":[{"name":"role","type":"bytes32","internalType":"bytes32"},{"name":"account","type":"address","internalType":"address"}],"outputs":[],"stateMutability":"nonpayable"},{"type":"function","name":"hasRole","inputs":[{"name":"role","type":"bytes32","internalType":"bytes32"},{"name":"account","type":"address","internalType":"address"}],"outputs":[{"name":"","type":"bool","internalType":"bool"}],"stateMutability":"view"},{"type":"function","name":"ibera","inputs":[],"outputs":[{"name":"","type":"address","internalType":"contract IInfraredBERA"}],"stateMutability":"view"},{"type":"function","name":"implementation","inputs":[],"outputs":[{"name":"","type":"address","internalType":"address"}],"stateMutability":"view"},{"type":"function","name":"initialize","inputs":[{"name":"_gov","type":"address","internalType":"address"},{"name":"_keeper","type":"address","internalType":"address"},{"name":"_ibera","type":"address","internalType":"address"}],"outputs":[],"stateMutability":"nonpayable"},{"type":"function","name":"proxiableUUID","inputs":[],"outputs":[{"name":"","type":"bytes32","internalType":"bytes32"}],"stateMutability":"view"},{"type":"function","name":"queue","inputs":[{"name":"receiver","type":"address","internalType":"address"}],"outputs":[],"stateMutability":"payable"},{"type":"function","name":"renounceRole","inputs":[{"name":"role","type":"bytes32","internalType":"bytes32"},{"name":"callerConfirmation","type":"address","internalType":"address"}],"outputs":[],"stateMutability":"nonpayable"},{"type":"function","name":"revokeRole","inputs":[{"name":"role","type":"bytes32","internalType":"bytes32"},{"name":"account","type":"address","internalType":"address"}],"outputs":[],"stateMutability":"nonpayable"},{"type":"function","name":"supportsInterface","inputs":[{"name":"interfaceId","type":"bytes4","internalType":"bytes4"}],"outputs":[{"name":"","type":"bool","internalType":"bool"}],"stateMutability":"view"},{"type":"function","name":"sweep","inputs":[{"name":"receiver","type":"address","internalType":"address"}],"outputs":[],"stateMutability":"nonpayable"},{"type":"function","name":"upgradeToAndCall","inputs":[{"name":"newImplementation","type":"address","internalType":"address"},{"name":"data","type":"bytes","internalType":"bytes"}],"outputs":[],"stateMutability":"payable"},{"type":"event","name":"Initialized","inputs":[{"name":"version","type":"uint64","indexed":false,"internalType":"uint64"}],"anonymous":false},{"type":"event","name":"Queue","inputs":[{"name":"receiver","type":"address","indexed":true,"internalType":"address"},{"name":"amount","type":"uint256","indexed":false,"internalType":"uint256"},{"name":"claim","type":"uint256","indexed":false,"internalType":"uint256"}],"anonymous":false},{"type":"event","name":"RoleAdminChanged","inputs":[{"name":"role","type":"bytes32","indexed":true,"internalType":"bytes32"},{"name":"previousAdminRole","type":"bytes32","indexed":true,"internalType":"bytes32"},{"name":"newAdminRole","type":"bytes32","indexed":true,"internalType":"bytes32"}],"anonymous":false},{"type":"event","name":"RoleGranted","inputs":[{"name":"role","type":"bytes32","indexed":true,"internalType":"bytes32"},{"name":"account","type":"address","indexed":true,"internalType":"address"},{"name":"sender","type":"address","indexed":true,"internalType":"address"}],"anonymous":false},{"type":"event","name":"RoleRevoked","inputs":[{"name":"role","type":"bytes32","indexed":true,"internalType":"bytes32"},{"name":"account","type":"address","indexed":true,"internalType":"address"},{"name":"sender","type":"address","indexed":true,"internalType":"address"}],"anonymous":false},{"type":"event","name":"Sweep","inputs":[{"name":"receiver","type":"address","indexed":true,"internalType":"address"},{"name":"amount","type":"uint256","indexed":false,"internalType":"uint256"}],"anonymous":false},{"type":"event","name":"Upgraded","inputs":[{"name":"implementation","type":"address","indexed":true,"internalType":"address"}],"anonymous":false},{"type":"error","name":"AccessControlBadConfirmation","inputs":[]},{"type":"error","name":"AccessControlUnauthorizedAccount","inputs":[{"name":"account","type":"address","internalType":"address"},{"name":"neededRole","type":"bytes32","internalType":"bytes32"}]},{"type":"error","name":"AddressEmptyCode","inputs":[{"name":"target","type":"address","internalType":"address"}]},{"type":"error","name":"ERC1967InvalidImplementation","inputs":[{"name":"implementation","type":"address","internalType":"address"}]},{"type":"error","name":"ERC1967NonPayable","inputs":[]},{"type":"error","name":"FailedInnerCall","inputs":[]},{"type":"error","name":"InvalidInitialization","inputs":[]},{"type":"error","name":"NotInitializing","inputs":[]},{"type":"error","name":"UUPSUnauthorizedCallContext","inputs":[]},{"type":"error","name":"UUPSUnsupportedProxiableUUID","inputs":[{"name":"slot","type":"bytes32","internalType":"bytes32"}]},{"type":"error","name":"Unauthorized","inputs":[{"name":"sender","type":"address","internalType":"address"}]}],"bytecode":{"object":"0x60a060405230608052348015610013575f80fd5b5061001c610021565b6100d3565b7ff0c57e16840df040f15088dc2f81fe391c3923bec73e23a9662efc9c229c6a00805468010000000000000000900460ff16156100715760405163f92ee8a960e01b815260040160405180910390fd5b80546001600160401b03908116146100d05780546001600160401b0319166001600160401b0390811782556040519081527fc7f505b2f371ae2175ee4913f4499e1f2633a7b5936321eed1cdaeb6115181d29060200160405180910390a15b50565b60805161102f6100f95f395f81816109030152818161092c0152610a5c015261102f5ff3fe6080604052600436106100e3575f3560e01c806301681a62146100e757806301ffc9a714610108578063038ee1cb1461013c578063248a9ca31461014f5780632f2ff15d1461017c578063364bc15a1461019b57806336568abe146101bb5780634f1ef286146101da57806352d1902d146101ed5780635c60da1b146102015780635c9750ee1461022257806391d1485414610241578063a217fddf14610260578063ad3cb1cc14610273578063c0c53b8b146102b0578063c6788bdd146102cf578063d547741f146102fa578063d8bd5c2914610201578063f36c8f5c14610319575b5f80fd5b3480156100f2575f80fd5b50610106610101366004610d43565b610339565b005b348015610113575f80fd5b50610127610122366004610d5e565b6103ac565b60405190151581526020015b60405180910390f35b61010661014a366004610d43565b6103e2565b34801561015a575f80fd5b5061016e610169366004610d85565b610508565b604051908152602001610133565b348015610187575f80fd5b50610106610196366004610d9c565b610526565b3480156101a6575f80fd5b5061016e5f80516020610fba83398151915281565b3480156101c6575f80fd5b506101066101d5366004610d9c565b610548565b6101066101e8366004610dde565b610580565b3480156101f8575f80fd5b5061016e61059f565b34801561020c575f80fd5b506102156105ba565b6040516101339190610ea1565b34801561022d575f80fd5b50600154610215906001600160a01b031681565b34801561024c575f80fd5b5061012761025b366004610d9c565b6105c8565b34801561026b575f80fd5b5061016e5f81565b34801561027e575f80fd5b506102a3604051806040016040528060058152602001640352e302e360dc1b81525081565b6040516101339190610eb5565b3480156102bb575f80fd5b506101066102ca366004610eea565b6105fc565b3480156102da575f80fd5b5061016e6102e9366004610d43565b5f6020819052908152604090205481565b348015610305575f80fd5b50610106610314366004610d9c565b610749565b348015610324575f80fd5b5061016e5f80516020610f9a83398151915281565b6001600160a01b0381165f90815260208190526040812080549190558015610365576103658282610765565b816001600160a01b03167fab2246061d7b0dd3631d037e3f6da75782ae489eeb9f6af878a4b25df9b07c77826040516103a091815260200190565b60405180910390a25050565b5f6001600160e01b03198216637965db0b60e01b14806103dc57506301ffc9a760e01b6001600160e01b03198316145b92915050565b60015f9054906101000a90046001600160a01b03166001600160a01b031663c63265416040518163ffffffff1660e01b8152600401602060405180830381865afa158015610432573d5f803e3d5ffd5b505050506040513d601f19601f820116820180604052508101906104569190610f32565b6001600160a01b0316336001600160a01b031614610492573360405163472511eb60e11b81526004016104899190610ea1565b60405180910390fd5b6001600160a01b0381165f908152602081905260409020546104b43482610f4d565b6001600160a01b0383165f8181526020818152604091829020849055815134815290810184905292935090917f551fa75672f5eb70161a7f53a15a239a169b141a0240b4ab883166fbe8b5876f91016103a0565b5f806105126107b3565b5f9384526020525050604090206001015490565b61052f82610508565b610538816107d7565b61054283836107e4565b50505050565b6001600160a01b03811633146105715760405163334bd91960e11b815260040160405180910390fd5b61057b8282610882565b505050565b6105886108f8565b61059182610988565b61059b828261099e565b5050565b5f6105a8610a51565b505f80516020610fda83398151915290565b5f6105c3610a9a565b905090565b5f806105d26107b3565b5f948552602090815260408086206001600160a01b03959095168652939052505090205460ff1690565b5f610605610ab5565b805490915060ff600160401b82041615906001600160401b03165f8115801561062b5750825b90505f826001600160401b031660011480156106465750303b155b905081158015610654575080155b156106725760405163f92ee8a960e01b815260040160405180910390fd5b84546001600160401b0319166001178555831561069b57845460ff60401b1916600160401b1785555b600180546001600160a01b0319166001600160a01b0388161790556106be610ad9565b6106c85f896107e4565b506106e05f80516020610f9a833981519152896107e4565b506106f85f80516020610fba833981519152886107e4565b50831561073f57845460ff60401b19168555604051600181527fc7f505b2f371ae2175ee4913f4499e1f2633a7b5936321eed1cdaeb6115181d29060200160405180910390a15b5050505050505050565b61075282610508565b61075b816107d7565b6105428383610882565b5f805f805f85875af190508061057b5760405162461bcd60e51b815260206004820152601360248201527211551217d514905394d1915497d19052531151606a1b6044820152606401610489565b7f02dd7bc7dec4dceedda775e58dd541e08a116c6c53815c0bd028192f7b62680090565b6107e18133610af1565b50565b5f806107ee6107b3565b90506107fa84846105c8565b610879575f848152602082815260408083206001600160a01b03871684529091529020805460ff1916600117905561082f3390565b6001600160a01b0316836001600160a01b0316857f2f8788117e7eff1d82e926ec794901d17c78024a50270940304540a733656f0d60405160405180910390a460019150506103dc565b5f9150506103dc565b5f8061088c6107b3565b905061089884846105c8565b15610879575f848152602082815260408083206001600160a01b0387168085529252808320805460ff1916905551339287917ff6391f5c32d9c69d2a47ea670b442974b53935d1edc7fd64eb21e047a839171b9190a460019150506103dc565b306001600160a01b037f000000000000000000000000000000000000000000000000000000000000000016148061096857507f00000000000000000000000000000000000000000000000000000000000000006001600160a01b031661095c610a9a565b6001600160a01b031614155b156109865760405163703e46dd60e11b815260040160405180910390fd5b565b6107e15f80516020610f9a8339815191526107d7565b816001600160a01b03166352d1902d6040518163ffffffff1660e01b8152600401602060405180830381865afa9250505080156109f8575060408051601f3d908101601f191682019092526109f591810190610f6c565b60015b610a175781604051634c9c8ce360e01b81526004016104899190610ea1565b5f80516020610fda8339815191528114610a4757604051632a87526960e21b815260048101829052602401610489565b61057b8383610b2a565b306001600160a01b037f000000000000000000000000000000000000000000000000000000000000000016146109865760405163703e46dd60e11b815260040160405180910390fd5b5f80516020610fda833981519152546001600160a01b031690565b7ff0c57e16840df040f15088dc2f81fe391c3923bec73e23a9662efc9c229c6a0090565b610ae1610b7f565b610ae9610ba4565b610986610ba4565b610afb82826105c8565b61059b5760405163e2517d3f60e01b81526001600160a01b038216600482015260248101839052604401610489565b610b3382610bac565b6040516001600160a01b038316907fbc7cd75a20ee27fd9adebab32041f755214dbc6bffa90cc0225b39da2e5c2d3b905f90a2805115610b775761057b8282610c06565b61059b610c78565b610b87610c97565b61098657604051631afcd79f60e31b815260040160405180910390fd5b610986610b7f565b806001600160a01b03163b5f03610bd85780604051634c9c8ce360e01b81526004016104899190610ea1565b5f80516020610fda83398151915280546001600160a01b0319166001600160a01b0392909216919091179055565b60605f80846001600160a01b031684604051610c229190610f83565b5f60405180830381855af49150503d805f8114610c5a576040519150601f19603f3d011682016040523d82523d5f602084013e610c5f565b606091505b5091509150610c6f858383610cb0565b95945050505050565b34156109865760405163b398979f60e01b815260040160405180910390fd5b5f610ca0610ab5565b54600160401b900460ff16919050565b606082610cc557610cc082610d06565b610cff565b8151158015610cdc57506001600160a01b0384163b155b15610cfc5783604051639996b31560e01b81526004016104899190610ea1565b50805b9392505050565b805115610d165780518082602001fd5b604051630a12f52160e11b815260040160405180910390fd5b6001600160a01b03811681146107e1575f80fd5b5f60208284031215610d53575f80fd5b8135610cff81610d2f565b5f60208284031215610d6e575f80fd5b81356001600160e01b031981168114610cff575f80fd5b5f60208284031215610d95575f80fd5b5035919050565b5f8060408385031215610dad575f80fd5b823591506020830135610dbf81610d2f565b809150509250929050565b634e487b7160e01b5f52604160045260245ffd5b5f8060408385031215610def575f80fd5b8235610dfa81610d2f565b915060208301356001600160401b03811115610e14575f80fd5b8301601f81018513610e24575f80fd5b80356001600160401b03811115610e3d57610e3d610dca565b604051601f8201601f19908116603f011681016001600160401b0381118282101715610e6b57610e6b610dca565b604052818152828201602001871015610e82575f80fd5b816020840160208301375f602083830101528093505050509250929050565b6001600160a01b0391909116815260200190565b602081525f82518060208401528060208501604085015e5f604082850101526040601f19601f83011684010191505092915050565b5f805f60608486031215610efc575f80fd5b8335610f0781610d2f565b92506020840135610f1781610d2f565b91506040840135610f2781610d2f565b809150509250925092565b5f60208284031215610f42575f80fd5b8151610cff81610d2f565b808201808211156103dc57634e487b7160e01b5f52601160045260245ffd5b5f60208284031215610f7c575f80fd5b5051919050565b5f82518060208501845e5f92019182525091905056fe71840dc4906352362b0cdaf79870196c8e42acafade72d5d5a6d59291253ceb1fc8737ab85eb45125971625a9ebdb75cc78e01d5c1fa80c4c6e5203f47bc4fab360894a13ba1a3210667c828492db98dca3e2076cc3735a920a3ca505d382bbca26469706673582212206cb5c52090351ee58dc6b714fdde5d843bfac44daa1a49c556201801c9f7626e64736f6c634300081a0033","linkReferences":{}},"methodIdentifiers":{"DEFAULT_ADMIN_ROLE()":"a217fddf","GOVERNANCE_ROLE()":"f36c8f5c","KEEPER_ROLE()":"364bc15a","UPGRADE_INTERFACE_VERSION()":"ad3cb1cc","claims(address)":"c6788bdd","currentImplementation()":"d8bd5c29","getRoleAdmin(bytes32)":"248a9ca3","grantRole(bytes32,address)":"2f2ff15d","hasRole(bytes32,address)":"91d14854","ibera()":"5c9750ee","implementation()":"5c60da1b","initialize(address,address,address)":"c0c53b8b","proxiableUUID()":"52d1902d","queue(address)":"038ee1cb","renounceRole(bytes32,address)":"36568abe","revokeRole(bytes32,address)":"d547741f","supportsInterface(bytes4)":"01ffc9a7","sweep(address)":"01681a62","upgradeToAndCall(address,bytes)":"4f1ef286"},"id":105}