{"abi":[{"type":"receive","stateMutability":"payable"},{"type":"function","name":"DEFAULT_ADMIN_ROLE","inputs":[],"outputs":[{"name":"","type":"bytes32","internalType":"bytes32"}],"stateMutability":"view"},{"type":"function","name":"GOVERNANCE_ROLE","inputs":[],"outputs":[{"name":"","type":"bytes32","internalType":"bytes32"}],"stateMutability":"view"},{"type":"function","name":"InfraredBERA","inputs":[],"outputs":[{"name":"","type":"address","internalType":"address"}],"stateMutability":"view"},{"type":"function","name":"KEEPER_ROLE","inputs":[],"outputs":[{"name":"","type":"bytes32","internalType":"bytes32"}],"stateMutability":"view"},{"type":"function","name":"UPGRADE_INTERFACE_VERSION","inputs":[],"outputs":[{"name":"","type":"string","internalType":"string"}],"stateMutability":"view"},{"type":"function","name":"WITHDRAW_PRECOMPILE","inputs":[],"outputs":[{"name":"","type":"address","internalType":"address"}],"stateMutability":"view"},{"type":"function","name":"WITHDRAW_REQUEST_TYPE","inputs":[],"outputs":[{"name":"","type":"uint8","internalType":"uint8"}],"stateMutability":"view"},{"type":"function","name":"claimor","inputs":[],"outputs":[{"name":"","type":"address","internalType":"address"}],"stateMutability":"view"},{"type":"function","name":"currentImplementation","inputs":[],"outputs":[{"name":"","type":"address","internalType":"address"}],"stateMutability":"view"},{"type":"function","name":"execute","inputs":[{"name":"pubkey","type":"bytes","internalType":"bytes"},{"name":"amount","type":"uint256","internalType":"uint256"}],"outputs":[],"stateMutability":"payable"},{"type":"function","name":"fees","inputs":[],"outputs":[{"name":"","type":"uint256","internalType":"uint256"}],"stateMutability":"view"},{"type":"function","name":"getRoleAdmin","inputs":[{"name":"role","type":"bytes32","internalType":"bytes32"}],"outputs":[{"name":"","type":"bytes32","internalType":"bytes32"}],"stateMutability":"view"},{"type":"function","name":"grantRole","inputs":[{"name":"role","type":"bytes32","internalType":"bytes32"},{"name":"account","type":"address","internalType":"address"}],"outputs":[],"stateMutability":"nonpayable"},{"type":"function","name":"hasRole","inputs":[{"name":"role","type":"bytes32","internalType":"bytes32"},{"name":"account","type":"address","internalType":"address"}],"outputs":[{"name":"","type":"bool","internalType":"bool"}],"stateMutability":"view"},{"type":"function","name":"implementation","inputs":[],"outputs":[{"name":"","type":"address","internalType":"address"}],"stateMutability":"view"},{"type":"function","name":"initialize","inputs":[{"name":"_gov","type":"address","internalType":"address"},{"name":"_keeper","type":"address","internalType":"address"},{"name":"ibera","type":"address","internalType":"address"}],"outputs":[],"stateMutability":"nonpayable"},{"type":"function","name":"nonceProcess","inputs":[],"outputs":[{"name":"","type":"uint256","internalType":"uint256"}],"stateMutability":"view"},{"type":"function","name":"nonceRequest","inputs":[],"outputs":[{"name":"","type":"uint256","internalType":"uint256"}],"stateMutability":"view"},{"type":"function","name":"nonceSubmit","inputs":[],"outputs":[{"name":"","type":"uint256","internalType":"uint256"}],"stateMutability":"view"},{"type":"function","name":"process","inputs":[],"outputs":[],"stateMutability":"nonpayable"},{"type":"function","name":"proxiableUUID","inputs":[],"outputs":[{"name":"","type":"bytes32","internalType":"bytes32"}],"stateMutability":"view"},{"type":"function","name":"queue","inputs":[{"name":"receiver","type":"address","internalType":"address"},{"name":"amount","type":"uint256","internalType":"uint256"}],"outputs":[{"name":"nonce","type":"uint256","internalType":"uint256"}],"stateMutability":"payable"},{"type":"function","name":"rebalancing","inputs":[],"outputs":[{"name":"","type":"uint256","internalType":"uint256"}],"stateMutability":"view"},{"type":"function","name":"renounceRole","inputs":[{"name":"role","type":"bytes32","internalType":"bytes32"},{"name":"callerConfirmation","type":"address","internalType":"address"}],"outputs":[],"stateMutability":"nonpayable"},{"type":"function","name":"requests","inputs":[{"name":"","type":"uint256","internalType":"uint256"}],"outputs":[{"name":"receiver","type":"address","internalType":"address"},{"name":"timestamp","type":"uint96","internalType":"uint96"},{"name":"fee","type":"uint256","internalType":"uint256"},{"name":"amountSubmit","type":"uint256","internalType":"uint256"},{"name":"amountProcess","type":"uint256","internalType":"uint256"}],"stateMutability":"view"},{"type":"function","name":"reserves","inputs":[],"outputs":[{"name":"","type":"uint256","internalType":"uint256"}],"stateMutability":"view"},{"type":"function","name":"revokeRole","inputs":[{"name":"role","type":"bytes32","internalType":"bytes32"},{"name":"account","type":"address","internalType":"address"}],"outputs":[],"stateMutability":"nonpayable"},{"type":"function","name":"supportsInterface","inputs":[{"name":"interfaceId","type":"bytes4","internalType":"bytes4"}],"outputs":[{"name":"","type":"bool","internalType":"bool"}],"stateMutability":"view"},{"type":"function","name":"sweep","inputs":[{"name":"pubkey","type":"bytes","internalType":"bytes"}],"outputs":[],"stateMutability":"nonpayable"},{"type":"function","name":"upgradeToAndCall","inputs":[{"name":"newImplementation","type":"address","internalType":"address"},{"name":"data","type":"bytes","internalType":"bytes"}],"outputs":[],"stateMutability":"payable"},{"type":"event","name":"Execute","inputs":[{"name":"pubkey","type":"bytes","indexed":false,"internalType":"bytes"},{"name":"start","type":"uint256","indexed":false,"internalType":"uint256"},{"name":"end","type":"uint256","indexed":false,"internalType":"uint256"},{"name":"amount","type":"uint256","indexed":false,"internalType":"uint256"}],"anonymous":false},{"type":"event","name":"Initialized","inputs":[{"name":"version","type":"uint64","indexed":false,"internalType":"uint64"}],"anonymous":false},{"type":"event","name":"Process","inputs":[{"name":"receiver","type":"address","indexed":true,"internalType":"address"},{"name":"nonce","type":"uint256","indexed":false,"internalType":"uint256"},{"name":"amount","type":"uint256","indexed":false,"internalType":"uint256"}],"anonymous":false},{"type":"event","name":"Queue","inputs":[{"name":"receiver","type":"address","indexed":true,"internalType":"address"},{"name":"nonce","type":"uint256","indexed":false,"internalType":"uint256"},{"name":"amount","type":"uint256","indexed":false,"internalType":"uint256"}],"anonymous":false},{"type":"event","name":"RoleAdminChanged","inputs":[{"name":"role","type":"bytes32","indexed":true,"internalType":"bytes32"},{"name":"previousAdminRole","type":"bytes32","indexed":true,"internalType":"bytes32"},{"name":"newAdminRole","type":"bytes32","indexed":true,"internalType":"bytes32"}],"anonymous":false},{"type":"event","name":"RoleGranted","inputs":[{"name":"role","type":"bytes32","indexed":true,"internalType":"bytes32"},{"name":"account","type":"address","indexed":true,"internalType":"address"},{"name":"sender","type":"address","indexed":true,"internalType":"address"}],"anonymous":false},{"type":"event","name":"RoleRevoked","inputs":[{"name":"role","type":"bytes32","indexed":true,"internalType":"bytes32"},{"name":"account","type":"address","indexed":true,"internalType":"address"},{"name":"sender","type":"address","indexed":true,"internalType":"address"}],"anonymous":false},{"type":"event","name":"Sweep","inputs":[{"name":"receiver","type":"address","indexed":true,"internalType":"address"},{"name":"amount","type":"uint256","indexed":false,"internalType":"uint256"}],"anonymous":false},{"type":"event","name":"Upgraded","inputs":[{"name":"implementation","type":"address","indexed":true,"internalType":"address"}],"anonymous":false},{"type":"error","name":"AccessControlBadConfirmation","inputs":[]},{"type":"error","name":"AccessControlUnauthorizedAccount","inputs":[{"name":"account","type":"address","internalType":"address"},{"name":"neededRole","type":"bytes32","internalType":"bytes32"}]},{"type":"error","name":"AddressEmptyCode","inputs":[{"name":"target","type":"address","internalType":"address"}]},{"type":"error","name":"ERC1967InvalidImplementation","inputs":[{"name":"implementation","type":"address","internalType":"address"}]},{"type":"error","name":"ERC1967NonPayable","inputs":[]},{"type":"error","name":"FailedInnerCall","inputs":[]},{"type":"error","name":"InvalidAmount","inputs":[]},{"type":"error","name":"InvalidInitialization","inputs":[]},{"type":"error","name":"NotInitializing","inputs":[]},{"type":"error","name":"UUPSUnauthorizedCallContext","inputs":[]},{"type":"error","name":"UUPSUnsupportedProxiableUUID","inputs":[{"name":"slot","type":"bytes32","internalType":"bytes32"}]},{"type":"error","name":"Unauthorized","inputs":[{"name":"sender","type":"address","internalType":"address"}]},{"type":"error","name":"ValidatorForceExited","inputs":[]},{"type":"error","name":"WithdrawalsNotEnabled","inputs":[]},{"type":"error","name":"ZeroAddress","inputs":[]}],"bytecode":{"object":"0x60a060405230608052348015610013575f80fd5b5061001c610021565b6100d3565b7ff0c57e16840df040f15088dc2f81fe391c3923bec73e23a9662efc9c229c6a00805468010000000000000000900460ff16156100715760405163f92ee8a960e01b815260040160405180910390fd5b80546001600160401b03908116146100d05780546001600160401b0319166001600160401b0390811782556040519081527fc7f505b2f371ae2175ee4913f4499e1f2633a7b5936321eed1cdaeb6115181d29060200160405180910390a15b50565b6080516116886100f95f395f8181610dca01528181610df30152610f2301526116885ff3fe60806040526004361061015f575f3560e01c806301ffc9a71461016a578063248a9ca31461019e5780632f2ff15d146101cb578063364bc15a146101ec57806336568abe1461020c5780633c31fcdc1461022b578063421a0b4714610257578063442871131461026c5780634f1ef2861461027f57806352d1902d146102925780635c60da1b146102a657806360e3fb6c146102ba57806373828198146102e057806375172a8b146102ff57806381d12c581461031357806391d14854146103a9578063959b13d9146103c85780639af1d35a146103dd578063a217fddf146103f2578063a78138d214610405578063ab5898e81461041a578063ad3cb1cc1461042d578063c0c53b8b1461046a578063c33fb87714610489578063c6c7a0521461049d578063c96752cd146104bb578063d547741f146104d0578063d8bd5c29146102a6578063ef6928a4146104ef578063f36c8f5c1461050e575f80fd5b3661016657005b5f80fd5b348015610175575f80fd5b506101896101843660046111f6565b61052e565b60405190151581526020015b60405180910390f35b3480156101a9575f80fd5b506101bd6101b836600461121d565b610564565b604051908152602001610195565b3480156101d6575f80fd5b506101ea6101e5366004611248565b610582565b005b3480156101f7575f80fd5b506101bd5f8051602061161383398151915281565b348015610217575f80fd5b506101ea610226366004611248565b6105a4565b348015610236575f80fd5b5060015461024a906001600160a01b031681565b6040516101959190611276565b348015610262575f80fd5b506101bd60075481565b6101bd61027a36600461128a565b6105dc565b6101ea61028d3660046112c8565b6105f6565b34801561029d575f80fd5b506101bd610615565b3480156102b1575f80fd5b5061024a610630565b3480156102c5575f80fd5b506102ce600181565b60405160ff9091168152602001610195565b3480156102eb575f80fd5b506101ea6102fa3660046113cf565b61063e565b34801561030a575f80fd5b506101bd610a5b565b34801561031e575f80fd5b5061036f61032d36600461121d565b600360208190525f918252604090912080546001820154600283015492909301546001600160a01b03821693600160a01b9092046001600160601b0316929085565b604080516001600160a01b0390961686526001600160601b039094166020860152928401919091526060830152608082015260a001610195565b3480156103b4575f80fd5b506101896103c3366004611248565b610a6a565b3480156103d3575f80fd5b506101bd60055481565b3480156103e8575f80fd5b506101bd60045481565b3480156103fd575f80fd5b506101bd5f81565b348015610410575f80fd5b506101bd60065481565b6101ea61042836600461140d565b610a9e565b348015610438575f80fd5b5061045d604051806040016040528060058152602001640352e302e360dc1b81525081565b6040516101959190611454565b348015610475575f80fd5b506101ea610484366004611489565b610ab7565b348015610494575f80fd5b506101ea610a9e565b3480156104a8575f80fd5b505f5461024a906001600160a01b031681565b3480156104c6575f80fd5b506101bd60085481565b3480156104db575f80fd5b506101ea6104ea366004611248565b610c5e565b3480156104fa575f80fd5b5060025461024a906001600160a01b031681565b348015610519575f80fd5b506101bd5f805160206115f383398151915281565b5f6001600160e01b03198216637965db0b60e01b148061055e57506301ffc9a760e01b6001600160e01b03198316145b92915050565b5f8061056e610c7a565b5f9384526020525050604090206001015490565b61058b82610564565b61059481610c9e565b61059e8383610cab565b50505050565b6001600160a01b03811633146105cd5760405163334bd91960e11b815260040160405180910390fd5b6105d78282610d49565b505050565b5f6040516309a2a07d60e11b815260040160405180910390fd5b6105fe610dbf565b61060782610e4f565b6106118282610e65565b5050565b5f61061e610f18565b505f8051602061163383398151915290565b5f610639610f61565b905090565b60015f9054906101000a90046001600160a01b03166001600160a01b031663d0dbcd246040518163ffffffff1660e01b8152600401602060405180830381865afa15801561068e573d5f803e3d5ffd5b505050506040513d601f19601f820116820180604052508101906106b291906114d1565b156106db573360405163472511eb60e11b81526004016106d29190611276565b60405180910390fd5b600154604051631d19f0c160e31b81526001600160a01b039091169063e8cf86089061070b903390600401611276565b602060405180830381865afa158015610726573d5f803e3d5ffd5b505050506040513d601f19601f8201168201806040525081019061074a91906114d1565b610769573360405163472511eb60e11b81526004016106d29190611276565b600154604051631fb1c2c760e31b81526001600160a01b039091169063fd8e16389061079b9085908590600401611518565b602060405180830381865afa1580156107b6573d5f803e3d5ffd5b505050506040513d601f19601f820116820180604052508101906107da91906114d1565b156107f85760405163ccacce1760e01b815260040160405180910390fd5b600154604051633ab1e7d760e21b81525f916001600160a01b03169063eac79f5c9061082a9086908690600401611518565b602060405180830381865afa158015610845573d5f803e3d5ffd5b505050506040513d601f19601f820116820180604052508101906108699190611533565b90505f610886670de0b6b3a7640000678ac7230489e8000061155e565b9050808210156108965750505050565b478211156108b75760405163162908e360e11b815260040160405180910390fd5b6001546001600160a01b0316634c98a2a985856108d386611571565b6040518463ffffffff1660e01b81526004016108f19392919061158b565b5f604051808303815f87803b158015610908575f80fd5b505af115801561091a573d5f803e3d5ffd5b5050505060015f9054906101000a90046001600160a01b03166001600160a01b031663c7c4ff466040518163ffffffff1660e01b8152600401602060405180830381865afa15801561096e573d5f803e3d5ffd5b505050506040513d601f19601f8201168201806040525081019061099291906115ae565b6001600160a01b031663ddf0b009836109b3670de0b6b3a7640000826115c9565b6040518363ffffffff1660e01b81526004016109d191815260200190565b60206040518083038185885af11580156109ed573d5f803e3d5ffd5b50505050506040513d601f19601f82011682018060405250810190610a129190611533565b506001546040518381526001600160a01b03909116907fab2246061d7b0dd3631d037e3f6da75782ae489eeb9f6af878a4b25df9b07c779060200160405180910390a250505050565b5f6004544761063991906115c9565b5f80610a74610c7a565b5f948552602090815260408086206001600160a01b03959095168652939052505090205460ff1690565b6040516309a2a07d60e11b815260040160405180910390fd5b5f610ac0610f7c565b805490915060ff600160401b82041615906001600160401b03165f81158015610ae65750825b90505f826001600160401b03166001148015610b015750303b155b905081158015610b0f575080155b15610b2d5760405163f92ee8a960e01b815260040160405180910390fd5b84546001600160401b03191660011785558315610b5657845460ff60401b1916600160401b1785555b6001600160a01b0388161580610b7357506001600160a01b038716155b80610b8557506001600160a01b038616155b15610ba35760405163d92e233d60e01b815260040160405180910390fd5b610bab610fa0565b600180546001600160a01b0319166001600160a01b03881617815560068190556007819055600855610bdd5f89610cab565b50610bf55f805160206115f383398151915289610cab565b50610c0d5f8051602061161383398151915288610cab565b508315610c5457845460ff60401b19168555604051600181527fc7f505b2f371ae2175ee4913f4499e1f2633a7b5936321eed1cdaeb6115181d29060200160405180910390a15b5050505050505050565b610c6782610564565b610c7081610c9e565b61059e8383610d49565b7f02dd7bc7dec4dceedda775e58dd541e08a116c6c53815c0bd028192f7b62680090565b610ca88133610fb8565b50565b5f80610cb5610c7a565b9050610cc18484610a6a565b610d40575f848152602082815260408083206001600160a01b03871684529091529020805460ff19166001179055610cf63390565b6001600160a01b0316836001600160a01b0316857f2f8788117e7eff1d82e926ec794901d17c78024a50270940304540a733656f0d60405160405180910390a4600191505061055e565b5f91505061055e565b5f80610d53610c7a565b9050610d5f8484610a6a565b15610d40575f848152602082815260408083206001600160a01b0387168085529252808320805460ff1916905551339287917ff6391f5c32d9c69d2a47ea670b442974b53935d1edc7fd64eb21e047a839171b9190a4600191505061055e565b306001600160a01b037f0000000000000000000000000000000000000000000000000000000000000000161480610e2f57507f00000000000000000000000000000000000000000000000000000000000000006001600160a01b0316610e23610f61565b6001600160a01b031614155b15610e4d5760405163703e46dd60e11b815260040160405180910390fd5b565b610ca85f805160206115f3833981519152610c9e565b816001600160a01b03166352d1902d6040518163ffffffff1660e01b8152600401602060405180830381865afa925050508015610ebf575060408051601f3d908101601f19168201909252610ebc91810190611533565b60015b610ede5781604051634c9c8ce360e01b81526004016106d29190611276565b5f805160206116338339815191528114610f0e57604051632a87526960e21b8152600481018290526024016106d2565b6105d78383610ff1565b306001600160a01b037f00000000000000000000000000000000000000000000000000000000000000001614610e4d5760405163703e46dd60e11b815260040160405180910390fd5b5f80516020611633833981519152546001600160a01b031690565b7ff0c57e16840df040f15088dc2f81fe391c3923bec73e23a9662efc9c229c6a0090565b610fa8611046565b610fb061106b565b610e4d61106b565b610fc28282610a6a565b6106115760405163e2517d3f60e01b81526001600160a01b0382166004820152602481018390526044016106d2565b610ffa82611073565b6040516001600160a01b038316907fbc7cd75a20ee27fd9adebab32041f755214dbc6bffa90cc0225b39da2e5c2d3b905f90a280511561103e576105d782826110cd565b61061161113f565b61104e61115e565b610e4d57604051631afcd79f60e31b815260040160405180910390fd5b610e4d611046565b806001600160a01b03163b5f0361109f5780604051634c9c8ce360e01b81526004016106d29190611276565b5f8051602061163383398151915280546001600160a01b0319166001600160a01b0392909216919091179055565b60605f80846001600160a01b0316846040516110e991906115dc565b5f60405180830381855af49150503d805f8114611121576040519150601f19603f3d011682016040523d82523d5f602084013e611126565b606091505b5091509150611136858383611177565b95945050505050565b3415610e4d5760405163b398979f60e01b815260040160405180910390fd5b5f611167610f7c565b54600160401b900460ff16919050565b60608261118c57611187826111cd565b6111c6565b81511580156111a357506001600160a01b0384163b155b156111c35783604051639996b31560e01b81526004016106d29190611276565b50805b9392505050565b8051156111dd5780518082602001fd5b604051630a12f52160e11b815260040160405180910390fd5b5f60208284031215611206575f80fd5b81356001600160e01b0319811681146111c6575f80fd5b5f6020828403121561122d575f80fd5b5035919050565b6001600160a01b0381168114610ca8575f80fd5b5f8060408385031215611259575f80fd5b82359150602083013561126b81611234565b809150509250929050565b6001600160a01b0391909116815260200190565b5f806040838503121561129b575f80fd5b82356112a681611234565b946020939093013593505050565b634e487b7160e01b5f52604160045260245ffd5b5f80604083850312156112d9575f80fd5b82356112e481611234565b915060208301356001600160401b038111156112fe575f80fd5b8301601f8101851361130e575f80fd5b80356001600160401b03811115611327576113276112b4565b604051601f8201601f19908116603f011681016001600160401b0381118282101715611355576113556112b4565b60405281815282820160200187101561136c575f80fd5b816020840160208301375f602083830101528093505050509250929050565b5f8083601f84011261139b575f80fd5b5081356001600160401b038111156113b1575f80fd5b6020830191508360208285010111156113c8575f80fd5b9250929050565b5f80602083850312156113e0575f80fd5b82356001600160401b038111156113f5575f80fd5b6114018582860161138b565b90969095509350505050565b5f805f6040848603121561141f575f80fd5b83356001600160401b03811115611434575f80fd5b6114408682870161138b565b909790965060209590950135949350505050565b602081525f82518060208401528060208501604085015e5f604082850101526040601f19601f83011684010191505092915050565b5f805f6060848603121561149b575f80fd5b83356114a681611234565b925060208401356114b681611234565b915060408401356114c681611234565b809150509250925092565b5f602082840312156114e1575f80fd5b815180151581146111c6575f80fd5b81835281816020850137505f828201602090810191909152601f909101601f19169091010190565b602081525f61152b6020830184866114f0565b949350505050565b5f60208284031215611543575f80fd5b5051919050565b634e487b7160e01b5f52601160045260245ffd5b8082018082111561055e5761055e61154a565b5f600160ff1b82016115855761158561154a565b505f0390565b604081525f61159e6040830185876114f0565b9050826020830152949350505050565b5f602082840312156115be575f80fd5b81516111c681611234565b8181038181111561055e5761055e61154a565b5f82518060208501845e5f92019182525091905056fe71840dc4906352362b0cdaf79870196c8e42acafade72d5d5a6d59291253ceb1fc8737ab85eb45125971625a9ebdb75cc78e01d5c1fa80c4c6e5203f47bc4fab360894a13ba1a3210667c828492db98dca3e2076cc3735a920a3ca505d382bbca2646970667358221220a065030979e18b7cf82e925aff4c02f18c22bb7f532930708658f219f88d522564736f6c634300081a0033","linkReferences":{}},"methodIdentifiers":{"DEFAULT_ADMIN_ROLE()":"a217fddf","GOVERNANCE_ROLE()":"f36c8f5c","InfraredBERA()":"3c31fcdc","KEEPER_ROLE()":"364bc15a","UPGRADE_INTERFACE_VERSION()":"ad3cb1cc","WITHDRAW_PRECOMPILE()":"c6c7a052","WITHDRAW_REQUEST_TYPE()":"60e3fb6c","claimor()":"ef6928a4","currentImplementation()":"d8bd5c29","execute(bytes,uint256)":"ab5898e8","fees()":"9af1d35a","getRoleAdmin(bytes32)":"248a9ca3","grantRole(bytes32,address)":"2f2ff15d","hasRole(bytes32,address)":"91d14854","implementation()":"5c60da1b","initialize(address,address,address)":"c0c53b8b","nonceProcess()":"c96752cd","nonceRequest()":"a78138d2","nonceSubmit()":"421a0b47","process()":"c33fb877","proxiableUUID()":"52d1902d","queue(address,uint256)":"44287113","rebalancing()":"959b13d9","renounceRole(bytes32,address)":"36568abe","requests(uint256)":"81d12c58","reserves()":"75172a8b","revokeRole(bytes32,address)":"d547741f","supportsInterface(bytes4)":"01ffc9a7","sweep(bytes)":"73828198","upgradeToAndCall(address,bytes)":"4f1ef286"},"id":110}