{"abi":[{"type":"function","name":"FORCED_MIN_DELAY","inputs":[],"outputs":[{"name":"","type":"uint256","internalType":"uint256"}],"stateMutability":"view"},{"type":"function","name":"INITIAL_DEPOSIT","inputs":[],"outputs":[{"name":"","type":"uint256","internalType":"uint256"}],"stateMutability":"view"},{"type":"function","name":"MINIMUM_DEPOSIT","inputs":[],"outputs":[{"name":"","type":"uint256","internalType":"uint256"}],"stateMutability":"view"},{"type":"function","name":"MINIMUM_DEPOSIT_FEE","inputs":[],"outputs":[{"name":"","type":"uint256","internalType":"uint256"}],"stateMutability":"view"},{"type":"function","name":"MINIMUM_WITHDRAW_FEE","inputs":[],"outputs":[{"name":"","type":"uint256","internalType":"uint256"}],"stateMutability":"view"}],"bytecode":{"object":"0x60db610033600b8282823980515f1a607314602757634e487b7160e01b5f525f60045260245ffd5b305f52607381538281f3fe7300000000000000000000000000000000000000003014608060405260043610605a575f3560e01c806314d5eeaf14605e5780637e5f04be14605e5780638eb4f43414607e578063f19451d814608e578063f1dcd6b514609c575b5f80fd5b606c670de0b6b3a764000081565b60405190815260200160405180910390f35b606c69021e19e0c9bab240000081565b606c678ac7230489e8000081565b606c62093a808156fea26469706673582212205ead7e6b7c36c37e39a9f974630504e515e3958dd609957d32e4be9e6baa368364736f6c634300081a0033","linkReferences":{}},"methodIdentifiers":{"FORCED_MIN_DELAY()":"f1dcd6b5","INITIAL_DEPOSIT()":"8eb4f434","MINIMUM_DEPOSIT()":"f19451d8","MINIMUM_DEPOSIT_FEE()":"7e5f04be","MINIMUM_WITHDRAW_FEE()":"14d5eeaf"},"id":106}