{"abi":[{"type":"constructor","inputs":[{"name":"_keeper","type":"address","internalType":"address"},{"name":"_token","type":"address","internalType":"address"},{"name":"_voter","type":"address","internalType":"address"},{"name":"_infrared","type":"address","internalType":"address"}],"stateMutability":"nonpayable"},{"type":"function","name":"CLOCK_MODE","inputs":[],"outputs":[{"name":"","type":"string","internalType":"string"}],"stateMutability":"pure"},{"type":"function","name":"DELEGATION_TYPEHASH","inputs":[],"outputs":[{"name":"","type":"bytes32","internalType":"bytes32"}],"stateMutability":"view"},{"type":"function","name":"DOMAIN_TYPEHASH","inputs":[],"outputs":[{"name":"","type":"bytes32","internalType":"bytes32"}],"stateMutability":"view"},{"type":"function","name":"allowedManager","inputs":[],"outputs":[{"name":"","type":"address","internalType":"address"}],"stateMutability":"view"},{"type":"function","name":"approve","inputs":[{"name":"_approved","type":"address","internalType":"address"},{"name":"_tokenId","type":"uint256","internalType":"uint256"}],"outputs":[],"stateMutability":"nonpayable"},{"type":"function","name":"artProxy","inputs":[],"outputs":[{"name":"","type":"address","internalType":"address"}],"stateMutability":"view"},{"type":"function","name":"balanceOf","inputs":[{"name":"_owner","type":"address","internalType":"address"}],"outputs":[{"name":"","type":"uint256","internalType":"uint256"}],"stateMutability":"view"},{"type":"function","name":"balanceOfNFT","inputs":[{"name":"_tokenId","type":"uint256","internalType":"uint256"}],"outputs":[{"name":"","type":"uint256","internalType":"uint256"}],"stateMutability":"view"},{"type":"function","name":"balanceOfNFTAt","inputs":[{"name":"_tokenId","type":"uint256","internalType":"uint256"},{"name":"_t","type":"uint256","internalType":"uint256"}],"outputs":[{"name":"","type":"uint256","internalType":"uint256"}],"stateMutability":"view"},{"type":"function","name":"canSplit","inputs":[{"name":"","type":"address","internalType":"address"}],"outputs":[{"name":"","type":"bool","internalType":"bool"}],"stateMutability":"view"},{"type":"function","name":"checkpoint","inputs":[],"outputs":[],"stateMutability":"nonpayable"},{"type":"function","name":"checkpoints","inputs":[{"name":"_tokenId","type":"uint256","internalType":"uint256"},{"name":"_index","type":"uint48","internalType":"uint48"}],"outputs":[{"name":"","type":"tuple","internalType":"struct IVotingEscrow.Checkpoint","components":[{"name":"fromTimestamp","type":"uint256","internalType":"uint256"},{"name":"owner","type":"address","internalType":"address"},{"name":"delegatedBalance","type":"uint256","internalType":"uint256"},{"name":"delegatee","type":"uint256","internalType":"uint256"}]}],"stateMutability":"view"},{"type":"function","name":"clock","inputs":[],"outputs":[{"name":"","type":"uint48","internalType":"uint48"}],"stateMutability":"view"},{"type":"function","name":"createLock","inputs":[{"name":"_value","type":"uint256","internalType":"uint256"},{"name":"_lockDuration","type":"uint256","internalType":"uint256"}],"outputs":[{"name":"","type":"uint256","internalType":"uint256"}],"stateMutability":"nonpayable"},{"type":"function","name":"createLockFor","inputs":[{"name":"_value","type":"uint256","internalType":"uint256"},{"name":"_lockDuration","type":"uint256","internalType":"uint256"},{"name":"_to","type":"address","internalType":"address"}],"outputs":[{"name":"","type":"uint256","internalType":"uint256"}],"stateMutability":"nonpayable"},{"type":"function","name":"createManagedLockFor","inputs":[{"name":"_to","type":"address","internalType":"address"}],"outputs":[{"name":"_mTokenId","type":"uint256","internalType":"uint256"}],"stateMutability":"nonpayable"},{"type":"function","name":"deactivated","inputs":[{"name":"","type":"uint256","internalType":"uint256"}],"outputs":[{"name":"","type":"bool","internalType":"bool"}],"stateMutability":"view"},{"type":"function","name":"decimals","inputs":[],"outputs":[{"name":"","type":"uint8","internalType":"uint8"}],"stateMutability":"view"},{"type":"function","name":"delegate","inputs":[{"name":"delegator","type":"uint256","internalType":"uint256"},{"name":"delegatee","type":"uint256","internalType":"uint256"}],"outputs":[],"stateMutability":"nonpayable"},{"type":"function","name":"delegateBySig","inputs":[{"name":"delegator","type":"uint256","internalType":"uint256"},{"name":"delegatee","type":"uint256","internalType":"uint256"},{"name":"nonce","type":"uint256","internalType":"uint256"},{"name":"expiry","type":"uint256","internalType":"uint256"},{"name":"v","type":"uint8","internalType":"uint8"},{"name":"r","type":"bytes32","internalType":"bytes32"},{"name":"s","type":"bytes32","internalType":"bytes32"}],"outputs":[],"stateMutability":"nonpayable"},{"type":"function","name":"delegates","inputs":[{"name":"delegator","type":"uint256","internalType":"uint256"}],"outputs":[{"name":"","type":"uint256","internalType":"uint256"}],"stateMutability":"view"},{"type":"function","name":"depositFor","inputs":[{"name":"_tokenId","type":"uint256","internalType":"uint256"},{"name":"_value","type":"uint256","internalType":"uint256"}],"outputs":[],"stateMutability":"nonpayable"},{"type":"function","name":"depositManaged","inputs":[{"name":"_tokenId","type":"uint256","internalType":"uint256"},{"name":"_mTokenId","type":"uint256","internalType":"uint256"}],"outputs":[],"stateMutability":"nonpayable"},{"type":"function","name":"distributor","inputs":[],"outputs":[{"name":"","type":"address","internalType":"address"}],"stateMutability":"view"},{"type":"function","name":"epoch","inputs":[],"outputs":[{"name":"","type":"uint256","internalType":"uint256"}],"stateMutability":"view"},{"type":"function","name":"escrowType","inputs":[{"name":"","type":"uint256","internalType":"uint256"}],"outputs":[{"name":"","type":"uint8","internalType":"enum IVotingEscrow.EscrowType"}],"stateMutability":"view"},{"type":"function","name":"getApproved","inputs":[{"name":"_tokenId","type":"uint256","internalType":"uint256"}],"outputs":[{"name":"","type":"address","internalType":"address"}],"stateMutability":"view"},{"type":"function","name":"getPastTotalSupply","inputs":[{"name":"_timestamp","type":"uint256","internalType":"uint256"}],"outputs":[{"name":"","type":"uint256","internalType":"uint256"}],"stateMutability":"view"},{"type":"function","name":"getPastVotes","inputs":[{"name":"_account","type":"address","internalType":"address"},{"name":"_tokenId","type":"uint256","internalType":"uint256"},{"name":"_timestamp","type":"uint256","internalType":"uint256"}],"outputs":[{"name":"","type":"uint256","internalType":"uint256"}],"stateMutability":"view"},{"type":"function","name":"idToManaged","inputs":[{"name":"","type":"uint256","internalType":"uint256"}],"outputs":[{"name":"","type":"uint256","internalType":"uint256"}],"stateMutability":"view"},{"type":"function","name":"increaseAmount","inputs":[{"name":"_tokenId","type":"uint256","internalType":"uint256"},{"name":"_value","type":"uint256","internalType":"uint256"}],"outputs":[],"stateMutability":"nonpayable"},{"type":"function","name":"increaseUnlockTime","inputs":[{"name":"_tokenId","type":"uint256","internalType":"uint256"},{"name":"_lockDuration","type":"uint256","internalType":"uint256"}],"outputs":[],"stateMutability":"nonpayable"},{"type":"function","name":"infrared","inputs":[],"outputs":[{"name":"","type":"address","internalType":"contract IInfraredUpgradeable"}],"stateMutability":"view"},{"type":"function","name":"isApprovedForAll","inputs":[{"name":"_owner","type":"address","internalType":"address"},{"name":"_operator","type":"address","internalType":"address"}],"outputs":[{"name":"","type":"bool","internalType":"bool"}],"stateMutability":"view"},{"type":"function","name":"isApprovedOrOwner","inputs":[{"name":"_spender","type":"address","internalType":"address"},{"name":"_tokenId","type":"uint256","internalType":"uint256"}],"outputs":[{"name":"","type":"bool","internalType":"bool"}],"stateMutability":"view"},{"type":"function","name":"keeper","inputs":[],"outputs":[{"name":"","type":"address","internalType":"address"}],"stateMutability":"view"},{"type":"function","name":"lockPermanent","inputs":[{"name":"_tokenId","type":"uint256","internalType":"uint256"}],"outputs":[],"stateMutability":"nonpayable"},{"type":"function","name":"locked","inputs":[{"name":"_tokenId","type":"uint256","internalType":"uint256"}],"outputs":[{"name":"","type":"tuple","internalType":"struct IVotingEscrow.LockedBalance","components":[{"name":"amount","type":"int128","internalType":"int128"},{"name":"end","type":"uint256","internalType":"uint256"},{"name":"isPermanent","type":"bool","internalType":"bool"}]}],"stateMutability":"view"},{"type":"function","name":"merge","inputs":[{"name":"_from","type":"uint256","internalType":"uint256"},{"name":"_to","type":"uint256","internalType":"uint256"}],"outputs":[],"stateMutability":"nonpayable"},{"type":"function","name":"name","inputs":[],"outputs":[{"name":"","type":"string","internalType":"string"}],"stateMutability":"view"},{"type":"function","name":"nonces","inputs":[{"name":"","type":"address","internalType":"address"}],"outputs":[{"name":"","type":"uint256","internalType":"uint256"}],"stateMutability":"view"},{"type":"function","name":"numCheckpoints","inputs":[{"name":"","type":"uint256","internalType":"uint256"}],"outputs":[{"name":"","type":"uint48","internalType":"uint48"}],"stateMutability":"view"},{"type":"function","name":"ownerOf","inputs":[{"name":"_tokenId","type":"uint256","internalType":"uint256"}],"outputs":[{"name":"","type":"address","internalType":"address"}],"stateMutability":"view"},{"type":"function","name":"ownerToNFTokenIdList","inputs":[{"name":"","type":"address","internalType":"address"},{"name":"","type":"uint256","internalType":"uint256"}],"outputs":[{"name":"","type":"uint256","internalType":"uint256"}],"stateMutability":"view"},{"type":"function","name":"permanentLockBalance","inputs":[],"outputs":[{"name":"","type":"uint256","internalType":"uint256"}],"stateMutability":"view"},{"type":"function","name":"pointHistory","inputs":[{"name":"_loc","type":"uint256","internalType":"uint256"}],"outputs":[{"name":"","type":"tuple","internalType":"struct IVotingEscrow.GlobalPoint","components":[{"name":"bias","type":"int128","internalType":"int128"},{"name":"slope","type":"int128","internalType":"int128"},{"name":"ts","type":"uint256","internalType":"uint256"},{"name":"blk","type":"uint256","internalType":"uint256"},{"name":"permanentLockBalance","type":"uint256","internalType":"uint256"}]}],"stateMutability":"view"},{"type":"function","name":"safeTransferFrom","inputs":[{"name":"_from","type":"address","internalType":"address"},{"name":"_to","type":"address","internalType":"address"},{"name":"_tokenId","type":"uint256","internalType":"uint256"}],"outputs":[],"stateMutability":"nonpayable"},{"type":"function","name":"safeTransferFrom","inputs":[{"name":"_from","type":"address","internalType":"address"},{"name":"_to","type":"address","internalType":"address"},{"name":"_tokenId","type":"uint256","internalType":"uint256"},{"name":"_data","type":"bytes","internalType":"bytes"}],"outputs":[],"stateMutability":"nonpayable"},{"type":"function","name":"setAllowedManager","inputs":[{"name":"_allowedManager","type":"address","internalType":"address"}],"outputs":[],"stateMutability":"nonpayable"},{"type":"function","name":"setApprovalForAll","inputs":[{"name":"_operator","type":"address","internalType":"address"},{"name":"_approved","type":"bool","internalType":"bool"}],"outputs":[],"stateMutability":"nonpayable"},{"type":"function","name":"setArtProxy","inputs":[{"name":"_proxy","type":"address","internalType":"address"}],"outputs":[],"stateMutability":"nonpayable"},{"type":"function","name":"setManagedState","inputs":[{"name":"_mTokenId","type":"uint256","internalType":"uint256"},{"name":"_state","type":"bool","internalType":"bool"}],"outputs":[],"stateMutability":"nonpayable"},{"type":"function","name":"setVoterAndDistributor","inputs":[{"name":"_voter","type":"address","internalType":"address"},{"name":"_distributor","type":"address","internalType":"address"}],"outputs":[],"stateMutability":"nonpayable"},{"type":"function","name":"slopeChanges","inputs":[{"name":"","type":"uint256","internalType":"uint256"}],"outputs":[{"name":"","type":"int128","internalType":"int128"}],"stateMutability":"view"},{"type":"function","name":"split","inputs":[{"name":"_from","type":"uint256","internalType":"uint256"},{"name":"_amount","type":"uint256","internalType":"uint256"}],"outputs":[{"name":"_tokenId1","type":"uint256","internalType":"uint256"},{"name":"_tokenId2","type":"uint256","internalType":"uint256"}],"stateMutability":"nonpayable"},{"type":"function","name":"supply","inputs":[],"outputs":[{"name":"","type":"uint256","internalType":"uint256"}],"stateMutability":"view"},{"type":"function","name":"supportsInterface","inputs":[{"name":"_interfaceID","type":"bytes4","internalType":"bytes4"}],"outputs":[{"name":"","type":"bool","internalType":"bool"}],"stateMutability":"view"},{"type":"function","name":"symbol","inputs":[],"outputs":[{"name":"","type":"string","internalType":"string"}],"stateMutability":"view"},{"type":"function","name":"toggleSplit","inputs":[{"name":"_account","type":"address","internalType":"address"},{"name":"_bool","type":"bool","internalType":"bool"}],"outputs":[],"stateMutability":"nonpayable"},{"type":"function","name":"token","inputs":[],"outputs":[{"name":"","type":"address","internalType":"address"}],"stateMutability":"view"},{"type":"function","name":"tokenId","inputs":[],"outputs":[{"name":"","type":"uint256","internalType":"uint256"}],"stateMutability":"view"},{"type":"function","name":"tokenURI","inputs":[{"name":"_tokenId","type":"uint256","internalType":"uint256"}],"outputs":[{"name":"","type":"string","internalType":"string"}],"stateMutability":"view"},{"type":"function","name":"totalSupply","inputs":[],"outputs":[{"name":"","type":"uint256","internalType":"uint256"}],"stateMutability":"view"},{"type":"function","name":"totalSupplyAt","inputs":[{"name":"_timestamp","type":"uint256","internalType":"uint256"}],"outputs":[{"name":"","type":"uint256","internalType":"uint256"}],"stateMutability":"view"},{"type":"function","name":"transferFrom","inputs":[{"name":"_from","type":"address","internalType":"address"},{"name":"_to","type":"address","internalType":"address"},{"name":"_tokenId","type":"uint256","internalType":"uint256"}],"outputs":[],"stateMutability":"nonpayable"},{"type":"function","name":"unlockPermanent","inputs":[{"name":"_tokenId","type":"uint256","internalType":"uint256"}],"outputs":[],"stateMutability":"nonpayable"},{"type":"function","name":"userPointEpoch","inputs":[{"name":"","type":"uint256","internalType":"uint256"}],"outputs":[{"name":"","type":"uint256","internalType":"uint256"}],"stateMutability":"view"},{"type":"function","name":"userPointHistory","inputs":[{"name":"_tokenId","type":"uint256","internalType":"uint256"},{"name":"_loc","type":"uint256","internalType":"uint256"}],"outputs":[{"name":"","type":"tuple","internalType":"struct IVotingEscrow.UserPoint","components":[{"name":"bias","type":"int128","internalType":"int128"},{"name":"slope","type":"int128","internalType":"int128"},{"name":"ts","type":"uint256","internalType":"uint256"},{"name":"blk","type":"uint256","internalType":"uint256"},{"name":"permanent","type":"uint256","internalType":"uint256"}]}],"stateMutability":"view"},{"type":"function","name":"version","inputs":[],"outputs":[{"name":"","type":"string","internalType":"string"}],"stateMutability":"view"},{"type":"function","name":"voted","inputs":[{"name":"","type":"uint256","internalType":"uint256"}],"outputs":[{"name":"","type":"bool","internalType":"bool"}],"stateMutability":"view"},{"type":"function","name":"voter","inputs":[],"outputs":[{"name":"","type":"address","internalType":"address"}],"stateMutability":"view"},{"type":"function","name":"voting","inputs":[{"name":"_tokenId","type":"uint256","internalType":"uint256"},{"name":"_voted","type":"bool","internalType":"bool"}],"outputs":[],"stateMutability":"nonpayable"},{"type":"function","name":"weights","inputs":[{"name":"","type":"uint256","internalType":"uint256"},{"name":"","type":"uint256","internalType":"uint256"}],"outputs":[{"name":"","type":"uint256","internalType":"uint256"}],"stateMutability":"view"},{"type":"function","name":"withdraw","inputs":[{"name":"_tokenId","type":"uint256","internalType":"uint256"}],"outputs":[],"stateMutability":"nonpayable"},{"type":"function","name":"withdrawManaged","inputs":[{"name":"_tokenId","type":"uint256","internalType":"uint256"}],"outputs":[],"stateMutability":"nonpayable"},{"type":"event","name":"Approval","inputs":[{"name":"owner","type":"address","indexed":true,"internalType":"address"},{"name":"approved","type":"address","indexed":true,"internalType":"address"},{"name":"tokenId","type":"uint256","indexed":true,"internalType":"uint256"}],"anonymous":false},{"type":"event","name":"ApprovalForAll","inputs":[{"name":"owner","type":"address","indexed":true,"internalType":"address"},{"name":"operator","type":"address","indexed":true,"internalType":"address"},{"name":"approved","type":"bool","indexed":false,"internalType":"bool"}],"anonymous":false},{"type":"event","name":"BatchMetadataUpdate","inputs":[{"name":"_fromTokenId","type":"uint256","indexed":false,"internalType":"uint256"},{"name":"_toTokenId","type":"uint256","indexed":false,"internalType":"uint256"}],"anonymous":false},{"type":"event","name":"CreateManaged","inputs":[{"name":"_to","type":"address","indexed":true,"internalType":"address"},{"name":"_mTokenId","type":"uint256","indexed":true,"internalType":"uint256"},{"name":"_from","type":"address","indexed":true,"internalType":"address"}],"anonymous":false},{"type":"event","name":"DelegateChanged","inputs":[{"name":"delegator","type":"address","indexed":true,"internalType":"address"},{"name":"fromDelegate","type":"uint256","indexed":true,"internalType":"uint256"},{"name":"toDelegate","type":"uint256","indexed":true,"internalType":"uint256"}],"anonymous":false},{"type":"event","name":"DelegateVotesChanged","inputs":[{"name":"delegate","type":"address","indexed":true,"internalType":"address"},{"name":"previousBalance","type":"uint256","indexed":false,"internalType":"uint256"},{"name":"newBalance","type":"uint256","indexed":false,"internalType":"uint256"}],"anonymous":false},{"type":"event","name":"Deposit","inputs":[{"name":"provider","type":"address","indexed":true,"internalType":"address"},{"name":"tokenId","type":"uint256","indexed":true,"internalType":"uint256"},{"name":"depositType","type":"uint8","indexed":true,"internalType":"enum IVotingEscrow.DepositType"},{"name":"value","type":"uint256","indexed":false,"internalType":"uint256"},{"name":"locktime","type":"uint256","indexed":false,"internalType":"uint256"},{"name":"ts","type":"uint256","indexed":false,"internalType":"uint256"}],"anonymous":false},{"type":"event","name":"DepositManaged","inputs":[{"name":"_owner","type":"address","indexed":true,"internalType":"address"},{"name":"_tokenId","type":"uint256","indexed":true,"internalType":"uint256"},{"name":"_mTokenId","type":"uint256","indexed":true,"internalType":"uint256"},{"name":"_weight","type":"uint256","indexed":false,"internalType":"uint256"},{"name":"_ts","type":"uint256","indexed":false,"internalType":"uint256"}],"anonymous":false},{"type":"event","name":"LockPermanent","inputs":[{"name":"_owner","type":"address","indexed":true,"internalType":"address"},{"name":"_tokenId","type":"uint256","indexed":true,"internalType":"uint256"},{"name":"amount","type":"uint256","indexed":false,"internalType":"uint256"},{"name":"_ts","type":"uint256","indexed":false,"internalType":"uint256"}],"anonymous":false},{"type":"event","name":"Merge","inputs":[{"name":"_sender","type":"address","indexed":true,"internalType":"address"},{"name":"_from","type":"uint256","indexed":true,"internalType":"uint256"},{"name":"_to","type":"uint256","indexed":true,"internalType":"uint256"},{"name":"_amountFrom","type":"uint256","indexed":false,"internalType":"uint256"},{"name":"_amountTo","type":"uint256","indexed":false,"internalType":"uint256"},{"name":"_amountFinal","type":"uint256","indexed":false,"internalType":"uint256"},{"name":"_locktime","type":"uint256","indexed":false,"internalType":"uint256"},{"name":"_ts","type":"uint256","indexed":false,"internalType":"uint256"}],"anonymous":false},{"type":"event","name":"MetadataUpdate","inputs":[{"name":"_tokenId","type":"uint256","indexed":false,"internalType":"uint256"}],"anonymous":false},{"type":"event","name":"SetAllowedManager","inputs":[{"name":"_allowedManager","type":"address","indexed":true,"internalType":"address"}],"anonymous":false},{"type":"event","name":"Split","inputs":[{"name":"_from","type":"uint256","indexed":true,"internalType":"uint256"},{"name":"_tokenId1","type":"uint256","indexed":true,"internalType":"uint256"},{"name":"_tokenId2","type":"uint256","indexed":true,"internalType":"uint256"},{"name":"_sender","type":"address","indexed":false,"internalType":"address"},{"name":"_splitAmount1","type":"uint256","indexed":false,"internalType":"uint256"},{"name":"_splitAmount2","type":"uint256","indexed":false,"internalType":"uint256"},{"name":"_locktime","type":"uint256","indexed":false,"internalType":"uint256"},{"name":"_ts","type":"uint256","indexed":false,"internalType":"uint256"}],"anonymous":false},{"type":"event","name":"Supply","inputs":[{"name":"prevSupply","type":"uint256","indexed":false,"internalType":"uint256"},{"name":"supply","type":"uint256","indexed":false,"internalType":"uint256"}],"anonymous":false},{"type":"event","name":"ToggleSplit","inputs":[{"name":"account","type":"address","indexed":true,"internalType":"address"},{"name":"canSplit","type":"bool","indexed":true,"internalType":"bool"}],"anonymous":false},{"type":"event","name":"Transfer","inputs":[{"name":"from","type":"address","indexed":true,"internalType":"address"},{"name":"to","type":"address","indexed":true,"internalType":"address"},{"name":"tokenId","type":"uint256","indexed":true,"internalType":"uint256"}],"anonymous":false},{"type":"event","name":"UnlockPermanent","inputs":[{"name":"_owner","type":"address","indexed":true,"internalType":"address"},{"name":"_tokenId","type":"uint256","indexed":true,"internalType":"uint256"},{"name":"amount","type":"uint256","indexed":false,"internalType":"uint256"},{"name":"_ts","type":"uint256","indexed":false,"internalType":"uint256"}],"anonymous":false},{"type":"event","name":"VoterAndDistributorSet","inputs":[{"name":"voter","type":"address","indexed":true,"internalType":"address"},{"name":"distributor","type":"address","indexed":true,"internalType":"address"}],"anonymous":false},{"type":"event","name":"Withdraw","inputs":[{"name":"provider","type":"address","indexed":true,"internalType":"address"},{"name":"tokenId","type":"uint256","indexed":true,"internalType":"uint256"},{"name":"value","type":"uint256","indexed":false,"internalType":"uint256"},{"name":"ts","type":"uint256","indexed":false,"internalType":"uint256"}],"anonymous":false},{"type":"event","name":"WithdrawManaged","inputs":[{"name":"_owner","type":"address","indexed":true,"internalType":"address"},{"name":"_tokenId","type":"uint256","indexed":true,"internalType":"uint256"},{"name":"_mTokenId","type":"uint256","indexed":true,"internalType":"uint256"},{"name":"_weight","type":"uint256","indexed":false,"internalType":"uint256"},{"name":"_ts","type":"uint256","indexed":false,"internalType":"uint256"}],"anonymous":false},{"type":"error","name":"AlreadyVoted","inputs":[]},{"type":"error","name":"AmountTooBig","inputs":[]},{"type":"error","name":"ERC721ReceiverRejectedTokens","inputs":[]},{"type":"error","name":"ERC721TransferToNonERC721ReceiverImplementer","inputs":[]},{"type":"error","name":"InvalidManagedNFTId","inputs":[]},{"type":"error","name":"InvalidNonce","inputs":[]},{"type":"error","name":"InvalidSignature","inputs":[]},{"type":"error","name":"InvalidSignatureS","inputs":[]},{"type":"error","name":"LockDurationNotInFuture","inputs":[]},{"type":"error","name":"LockDurationTooLong","inputs":[]},{"type":"error","name":"LockExpired","inputs":[]},{"type":"error","name":"LockNotExpired","inputs":[]},{"type":"error","name":"NoLockFound","inputs":[]},{"type":"error","name":"NonExistentToken","inputs":[]},{"type":"error","name":"NotApprovedOrOwner","inputs":[]},{"type":"error","name":"NotDistributor","inputs":[]},{"type":"error","name":"NotEmergencyCouncilOrGovernor","inputs":[]},{"type":"error","name":"NotGovernor","inputs":[]},{"type":"error","name":"NotGovernorOrManager","inputs":[]},{"type":"error","name":"NotLockedNFT","inputs":[]},{"type":"error","name":"NotManagedNFT","inputs":[]},{"type":"error","name":"NotManagedOrNormalNFT","inputs":[]},{"type":"error","name":"NotNormalNFT","inputs":[]},{"type":"error","name":"NotOwner","inputs":[]},{"type":"error","name":"NotPermanentLock","inputs":[]},{"type":"error","name":"NotTeam","inputs":[]},{"type":"error","name":"NotVoter","inputs":[]},{"type":"error","name":"OwnershipChange","inputs":[]},{"type":"error","name":"PermanentLock","inputs":[]},{"type":"error","name":"ReentrancyGuardReentrantCall","inputs":[]},{"type":"error","name":"SameAddress","inputs":[]},{"type":"error","name":"SameNFT","inputs":[]},{"type":"error","name":"SameState","inputs":[]},{"type":"error","name":"SignatureExpired","inputs":[]},{"type":"error","name":"SplitNoOwner","inputs":[]},{"type":"error","name":"SplitNotAllowed","inputs":[]},{"type":"error","name":"TooManyTokenIDs","inputs":[]},{"type":"error","name":"ZeroAddress","inputs":[]},{"type":"error","name":"ZeroAmount","inputs":[]},{"type":"error","name":"ZeroBalance","inputs":[]}],"bytecode":{"object":"0x60e060405234801561000f575f80fd5b5060405161587138038061587183398101604081905261002e91610248565b60015f556001600160a01b038416158061004f57506001600160a01b038316155b8061006157506001600160a01b038216155b8061007357506001600160a01b038116155b156100915760405163d92e233d60e01b815260040160405180910390fd5b6001600160a01b0384811660805283811660a052600280546001600160a01b031916848316179055811660c052437f05b8ccbb9d4d8fb16ea74ce3c29a41f1b461fbdaff4714a0d9a8eb05499746be55427f05b8ccbb9d4d8fb16ea74ce3c29a41f1b461fbdaff4714a0d9a8eb05499746bd5560066020527f477a984de5936bcb02475f64e0ea676103106ac0785c67bf7e9e846450b51ef6805460ff1990811660019081179092557fd544553a2e70858ffdf1e1169f6f124859d29ddf2686bcabf4e6f71bc630442280548216831790557fcc41b8fe3dd37df8e4a56c49f4e83a8fb6899f1fe8f1ddc40678281e8ec6221280548216831790557fb36a33d86f1fff914d4fda13267a0db975e3da4eca355a41c694440a4b38a6e3805482168317905563da287a1d60e01b5f9081527f340064a3e6d3079fa141d778c6527db724b180efb190cdf165ccf1bf228fc8a380549092169092179055600754604051909130915f80516020615851833981519152908290a46007546040515f9030905f80516020615851833981519152908390a450505050610299565b80516001600160a01b0381168114610243575f80fd5b919050565b5f805f806080858703121561025b575f80fd5b6102648561022d565b93506102726020860161022d565b92506102806040860161022d565b915061028e6060860161022d565b905092959194509250565b60805160a05160c05161552c6103255f395f818161049501528181610d1c01528181610d4b0152818161115201528181611181015281816112d40152818161130301528181611a3001528181611a5f01528181611c0f01528181611c3e0152818161261e015261264d01525f8181610afe01528181611080015261472d01525f6108a0015261552c5ff3fe608060405234801561000f575f80fd5b5060043610610357575f3560e01c806301ffc9a71461035b578063047fc9aa1461039c57806306fdde03146103b3578063081812fc146103e4578063095ea7b3146104245780630ec84dda1461043957806317d70f7c1461044c57806318160ddd1461045557806319a0a9d51461045d57806320606b701461047c57806321f96c651461049057806323b872dd146104b75780632d0485ec146104ca5780632e1a7d4d146104dd5780632e720f7d146104f05780632f7f9ba914610503578063313ce5671461051657806333230dc01461053057806335b0f6bd14610543578063370fb5fa1461055657806337b1f500146105695780633a6396a51461057c5780633d085a371461058f57806342842e0e146105b1578063430c2081146105c457806344acb42a146105d757806346c96aac146105f75780634b19becc1461060a5780634bf5d7e91461062b5780634d01cb66146106555780634d6fb7751461065e5780635058979314610671578063515857d4146106af57806354fd4d50146106d95780635594a045146106fd5780635a4f459a146107105780636352211e1461072357806370a08231146107365780637c7280001461075e5780637ecebe001461078d578063834b0b69146107ac5780638ad4c447146107bf5780638bf9d84c146107d25780638e539e8c146107fc5780638fbb38ff1461080f578063900cf0cf1461083157806391ddadf41461083a57806395d89b41146103b3578063981b24d0146107fc5780639954a989146108405780639d507b8b14610853578063a22cb46514610866578063a899b36c14610879578063aced16611461089b578063b1548afc146108c2578063b2383e55146108e1578063b45a3c0e146108f4578063b52c05fe1461092e578063b88d4fde14610941578063bfe1092814610954578063c2c4c5c114610967578063c87b56dd1461096f578063d1c2babb14610982578063d9a3495214610995578063e0514aba146109a8578063e0c11f9a146109bb578063e58f5947146109ce578063e75b1c2e146109ed578063e7a324dc14610a00578063e7e242d414610a14578063e985e9c514610a27578063ec32e6df14610a62578063f04cb3a814610a75578063f52a36f714610ac4578063fc0c546a14610af9575b5f80fd5b610387610369366004614d5c565b6001600160e01b0319165f9081526006602052604090205460ff1690565b60405190151581526020015b60405180910390f35b6103a560145481565b604051908152602001610393565b6103d7604051806040016040528060058152602001641d9953919560da1b81525081565b6040516103939190614da5565b61040c6103f2366004614db7565b5f908152600e60205260409020546001600160a01b031690565b6040516001600160a01b039091168152602001610393565b610437610432366004614de4565b610b20565b005b610437610447366004614e0c565b610c45565b6103a560075481565b6103a5610cbf565b6103a561046b366004614db7565b60096020525f908152604090205481565b6103a55f805160206154d783398151915281565b61040c7f000000000000000000000000000000000000000000000000000000000000000081565b6104376104c5366004614e2c565b610cce565b6104376104d8366004614e66565b610cdf565b6104376104eb366004614db7565b610ea0565b6104376104fe366004614e97565b611129565b60045461040c906001600160a01b031681565b61051e601281565b60405160ff9091168152602001610393565b61043761053e366004614ebd565b6112d2565b610437610551366004614db7565b61144e565b610437610564366004614db7565b61169c565b610437610577366004614ef2565b611a2e565b6103a561058a366004614e97565b611bee565b61038761059d366004614e97565b60196020525f908152604090205460ff1681565b6104376105bf366004614e2c565b611de1565b6103876105d2366004614de4565b611dfb565b6105ea6105e5366004614e0c565b611e0f565b6040516103939190614f15565b60025461040c906001600160a01b031681565b61061d610618366004614e0c565b611e8c565b604051610393929190614f54565b60408051808201909152600e81526d06d6f64653d74696d657374616d760941b60208201526103d7565b6103a5601a5481565b6103a561066c366004614f62565b6121ee565b61069861067f366004614db7565b601e6020525f908152604090205465ffffffffffff1681565b60405165ffffffffffff9091168152602001610393565b6103a56106bd366004614e0c565b600a60209081525f928352604080842090915290825290205481565b6103d7604051806040016040528060058152602001640322e302e360dc1b81525081565b60035461040c906001600160a01b031681565b61043761071e366004614ef2565b612290565b61040c610731366004614db7565b6122da565b6103a5610744366004614e97565b6001600160a01b03165f908152600d602052604090205490565b61078061076c366004614db7565b60086020525f908152604090205460ff1681565b6040516103939190614fa6565b6103a561079b366004614e97565b601f6020525f908152604090205481565b6104376107ba366004614fcc565b6122e4565b6105ea6107cd366004614db7565b612587565b6103a56107e0366004614de4565b601160209081525f928352604080842090915290825290205481565b6103a561080a366004614db7565b612612565b61038761081d366004614db7565b601b6020525f908152604090205460ff1681565b6103a560135481565b42610698565b61043761084e366004614e97565b61261c565b610437610861366004614e0c565b6127e4565b610437610874366004614ebd565b6129a9565b610387610887366004614db7565b600b6020525f908152604090205460ff1681565b61040c7f000000000000000000000000000000000000000000000000000000000000000081565b6103a56108d0366004614db7565b5f908152601c602052604090205490565b6104376108ef366004614e0c565b612a3d565b610907610902366004614db7565b612a78565b604080518251600f0b81526020808401519082015291810151151590820152606001610393565b6103a561093c366004614e0c565b612ac0565b61043761094f366004615095565b612adf565b60015461040c906001600160a01b031681565b610437612bf2565b6103d761097d366004614db7565b612c42565b610437610990366004614e0c565b612ce2565b6104376109a3366004614e0c565b6130fa565b6103a56109b6366004614e0c565b61312b565b6104376109c9366004614e0c565b613136565b6103a56109dc366004614db7565b60176020525f908152604090205481565b6104376109fb366004614db7565b6134f6565b6103a55f8051602061547783398151915281565b6103a5610a22366004614db7565b613702565b610387610a35366004614e66565b6001600160a01b039182165f908152600f6020908152604080832093909416825291909152205460ff1690565b6103a5610a70366004615138565b61370d565b610a88610a8336600461516a565b61372c565b6040516103939190815181526020808301516001600160a01b031690820152604080830151908201526060918201519181019190915260800190565b610ae6610ad2366004614db7565b60186020525f9081526040902054600f0b81565b604051600f9190910b8152602001610393565b61040c7f000000000000000000000000000000000000000000000000000000000000000081565b5f610b2a826137ba565b90506001600160a01b038116610b535760405163d92e233d60e01b815260040160405180910390fd5b826001600160a01b0316816001600160a01b031603610b855760405163367558c360e01b815260040160405180910390fd5b5f33610b90846137ba565b6001600160a01b038481165f908152600f60209081526040808320338452909152902054911691909114915060ff16811582610bca575080155b15610be85760405163390cdd9b60e21b815260040160405180910390fd5b5f848152600e602052604080822080546001600160a01b0319166001600160a01b0389811691821790925591518793918716917f8c5be1e5ebec7d5bd14f71427d1e84f3dd0314c0f7b2291e5b200ac8c7c3b92591a45050505050565b610c4d6137d4565b60025f8381526008602052604090205460ff166002811115610c7157610c71614f92565b148015610c8957506001546001600160a01b03163314155b15610ca75760405163385296d560e01b815260040160405180910390fd5b610cb282825f6137fc565b610cbb60015f55565b5050565b5f610cc942613961565b905090565b610cda838383336139e2565b505050565b6001600160a01b0382161580610cfc57506001600160a01b038116155b15610d1a5760405163d92e233d60e01b815260040160405180910390fd5b7f00000000000000000000000000000000000000000000000000000000000000006001600160a01b03166391d148547f00000000000000000000000000000000000000000000000000000000000000006001600160a01b031663f36c8f5c6040518163ffffffff1660e01b8152600401602060405180830381865afa158015610da5573d5f803e3d5ffd5b505050506040513d601f19601f82011682018060405250810190610dc99190615197565b336040518363ffffffff1660e01b8152600401610de79291906151ae565b602060405180830381865afa158015610e02573d5f803e3d5ffd5b505050506040513d601f19601f82011682018060405250810190610e2691906151c5565b610e4357604051633b8d9d7560e21b815260040160405180910390fd5b600280546001600160a01b03199081166001600160a01b03858116918217909355600180549092169284169283179091556040517f5ef5f9144276a5184a82aff9647dd6f07a0748bc928ea90a1980648c7cecdd6d905f90a35050565b610ea86137d4565b610eb23382613af9565b610ecf5760405163390cdd9b60e21b815260040160405180910390fd5b5f818152601b602052604090205460ff1615610efe57604051637c9a1cf960e01b815260040160405180910390fd5b5f8181526008602052604081205460ff166002811115610f2057610f20614f92565b14610f3e576040516317a66f3760e01b815260040160405180910390fd5b5f8181526015602090815260409182902082516060810184528154600f0b81526001820154928101929092526002015460ff161580159282019290925290610f99576040516334d10f9560e11b815260040160405180910390fd5b8060200151421015610fbe5760405163342ad40160e11b815260040160405180910390fd5b5f610fce825f0151600f0b613b61565b9050610fd983613b75565b604080516060810182525f8082526020808301828152838501838152888452601590925293909120915182546001600160801b0319166001600160801b039091161782559151600182015590516002909101805460ff191691151591909117905560145461104782826151f4565b601455604080516060810182525f80825260208201819052918101919091526110739085908590613c02565b6110a76001600160a01b037f00000000000000000000000000000000000000000000000000000000000000001633846143a4565b83336001600160a01b03167f02f25270a4d87bea75db541cdfe559334a275b4a233520ed6c0a2429667cca9484426040516110e3929190614f54565b60405180910390a35f805160206154578339815191528161110484826151f4565b604051611112929190614f54565b60405180910390a150505061112660015f55565b50565b6001600160a01b0381166111505760405163d92e233d60e01b815260040160405180910390fd5b7f00000000000000000000000000000000000000000000000000000000000000006001600160a01b03166391d148547f00000000000000000000000000000000000000000000000000000000000000006001600160a01b031663f36c8f5c6040518163ffffffff1660e01b8152600401602060405180830381865afa1580156111db573d5f803e3d5ffd5b505050506040513d601f19601f820116820180604052508101906111ff9190615197565b336040518363ffffffff1660e01b815260040161121d9291906151ae565b602060405180830381865afa158015611238573d5f803e3d5ffd5b505050506040513d601f19601f8201168201806040525081019061125c91906151c5565b61127957604051633b8d9d7560e21b815260040160405180910390fd5b600380546001600160a01b0319166001600160a01b0383161790556040517f6bd5c950a8d8df17f772f5af37cb3655737899cbf903264b9795592da439661c906112c7905f905f1990614f54565b60405180910390a150565b7f00000000000000000000000000000000000000000000000000000000000000006001600160a01b03166391d148547f00000000000000000000000000000000000000000000000000000000000000006001600160a01b031663f36c8f5c6040518163ffffffff1660e01b8152600401602060405180830381865afa15801561135d573d5f803e3d5ffd5b505050506040513d601f19601f820116820180604052508101906113819190615197565b336040518363ffffffff1660e01b815260040161139f9291906151ae565b602060405180830381865afa1580156113ba573d5f803e3d5ffd5b505050506040513d601f19601f820116820180604052508101906113de91906151c5565b6113fb57604051633b8d9d7560e21b815260040160405180910390fd5b6001600160a01b0382165f81815260196020526040808220805460ff191685151590811790915590519092917f17851c56f14a36b4af9b7eb51f0f3959014016da866828a24d1cb77a343213ef91a35050565b6114583382613af9565b6114755760405163390cdd9b60e21b815260040160405180910390fd5b5f8181526008602052604081205460ff16600281111561149757611497614f92565b146114b5576040516317a66f3760e01b815260040160405180910390fd5b5f818152601b602052604090205460ff16156114e457604051637c9a1cf960e01b815260040160405180910390fd5b5f8181526015602090815260409182902082516060810184528154600f0b81526001820154928101929092526002015460ff1615159181018290529061153d57604051632188f8ab60e01b815260040160405180910390fd5b5f61154d825f0151600f0b613b61565b905080601a5f82825461156091906151f4565b9091555062093a80905080611579630784ce0042615207565b611583919061522e565b61158d9190615241565b60208301525f604083018190526115a5908490614426565b5f8381526015602090815260409182902082516060810184528154600f0b81526001820154928101929092526002015460ff161515918101919091526115ed90849084613c02565b5f83815260156020908152604091829020845181546001600160801b0319166001600160801b03909116178155908401516001820155838201516002909101805460ff191691151591909117905551839033907f668d293c0a181c1f163fd0d3c757239a9c17bd26c5e483150e374455433b27fa9061166f9085904290614f54565b60405180910390a36040518381525f805160206154b78339815191529060200160405180910390a1505050565b6116a46137d4565b5f818152600960205260409020546002546001600160a01b031633146116dd5760405163c18384c160e01b815260040160405180910390fd5b805f036116fd5760405163d7caa26160e01b815260040160405180910390fd5b60015f8381526008602052604090205460ff16600281111561172157611721614f92565b1461173f57604051630fd82f7760e11b815260040160405180910390fd5b5f828152600a6020908152604080832084845290915281205490819062093a808061176e630784ce0042615207565b611778919061522e565b6117829190615241565b90505f604051806060016040528061179985614576565b600f90810b825260208083018690525f60409384018190528a8152601582528390208351606081018552815490930b83526001810154918301919091526002015460ff161515918101919091529091506117f590879083613c02565b5f868152601560209081526040808320845181546001600160801b0319166001600160801b0390911617815584830151600180830191909155858301516002928301805460ff19169115159190911790558985529382902082516060810184528154600f0b8082529582015494810194909452015460ff161515908201529061187d85614576565b600f0b1261188c578051611895565b61189584614576565b815182906118a4908390615258565b600f0b905250601a5484106118bb57601a546118bd565b835b601a5f8282546118cd91906151f4565b90915550505f868152601c60205260408120546118eb91869061458e565b5f8681526015602090815260409182902082516060810184528154600f0b81526001820154928101929092526002015460ff1615159181019190915261193390879083613c02565b5f868152601560209081526040808320845181546001600160801b039091166001600160801b0319909116178155828501516001820155818501516002909101805491151560ff199283161790558a845260098352818420849055600a83528184208a855283528184208490558a845260089092529091208054909116905585876119bd816137ba565b6001600160a01b03167f5319474ec1e9d118585a40e615ea37be254007e6bb5b039756c3813c2d13548987426040516119f7929190614f54565b60405180910390a46040518781525f805160206154b78339815191529060200160405180910390a150505050505061112660015f55565b7f00000000000000000000000000000000000000000000000000000000000000006001600160a01b03166391d148547f00000000000000000000000000000000000000000000000000000000000000006001600160a01b031663f36c8f5c6040518163ffffffff1660e01b8152600401602060405180830381865afa158015611ab9573d5f803e3d5ffd5b505050506040513d601f19601f82011682018060405250810190611add9190615197565b336040518363ffffffff1660e01b8152600401611afb9291906151ae565b602060405180830381865afa158015611b16573d5f803e3d5ffd5b505050506040513d601f19601f82011682018060405250810190611b3a91906151c5565b611b5757604051633b8d9d7560e21b815260040160405180910390fd5b60025f8381526008602052604090205460ff166002811115611b7b57611b7b614f92565b14611b995760405163054b1e0160e51b815260040160405180910390fd5b5f828152600b602052604090205481151560ff909116151503611bcf57604051631490ad1160e01b815260040160405180910390fd5b5f918252600b6020526040909120805460ff1916911515919091179055565b5f611bf76137d4565b6004546001600160a01b03163314801590611d1b57507f00000000000000000000000000000000000000000000000000000000000000006001600160a01b03166391d148547f00000000000000000000000000000000000000000000000000000000000000006001600160a01b031663f36c8f5c6040518163ffffffff1660e01b8152600401602060405180830381865afa158015611c98573d5f803e3d5ffd5b505050506040513d601f19601f82011682018060405250810190611cbc9190615197565b336040518363ffffffff1660e01b8152600401611cda9291906151ae565b602060405180830381865afa158015611cf5573d5f803e3d5ffd5b505050506040513d601f19601f82011682018060405250810190611d1991906151c5565b155b15611d3957604051633bc1d15f60e01b815260040160405180910390fd5b60075f8154611d4790615285565b91829055509050611d588282614607565b50611d87815f8060405180606001604052805f600f0b81526020015f8152602001600115158152506001614660565b5f81815260086020526040808220805460ff1916600217905551339183916001600160a01b038616917fdc1a92428fd6ebb8940ccf89f896929b7e49fcca359c1b0e2128cc66e1f4f14991a4611ddc60015f55565b919050565b610cda83838360405180602001604052805f815250612adf565b5f611e068383613af9565b90505b92915050565b611e17614cf8565b5f83815260166020526040902082633b9aca008110611e3857611e3861529d565b6040805160a081018252600492909202929092018054600f81810b8452600160801b909104900b60208301526001810154928201929092526002820154606082015260039091015460808201529392505050565b5f80611e966137d4565b5f611ea0856137ba565b90506001600160a01b038116611ec957604051632c2151ef60e11b815260040160405180910390fd5b6001600160a01b0381165f9081526019602052604090205460ff16158015611f1b57505f805260196020527fd2ac945fcc0096878c763e37d6929b78378c1a2defabde8ba7ee5ed1d6e7a5b25460ff16155b15611f3957604051633df16fd960e21b815260040160405180910390fd5b5f8581526008602052604081205460ff166002811115611f5b57611f5b614f92565b14611f79576040516317a66f3760e01b815260040160405180910390fd5b5f858152601b602052604090205460ff1615611fa857604051637c9a1cf960e01b815260040160405180910390fd5b611fb23386613af9565b611fcf5760405163390cdd9b60e21b815260040160405180910390fd5b5f8581526015602090815260409182902082516060810184528154600f0b8152600182015492810183905260029091015460ff16151592810192909252421080159061201d57508060400151155b1561203b576040516307b7d7dd60e51b815260040160405180910390fd5b5f61204586614576565b905080600f0b5f0361206a57604051631f2a200560e01b815260040160405180910390fd5b80600f0b825f0151600f0b1361209357604051636b2f218360e01b815260040160405180910390fd5b61209c87613b75565b60408051606080820183525f80835260208084018281528486018381528d845260158352868420955186546001600160801b0319166001600160801b0390911617865590516001860155516002909401805460ff191694151594909417909355835191820184528082529181018290529182015261211d9088908490613c02565b80825f0181815161212e9190615258565b600f0b90525061213e83836147e7565b600f82900b8352945061215183836147e7565b5f868152601560205260409020549094508490869089907f8303de8187a6102fdc3fe20c756dddd68df0ae027b77e2391c19a855e0821f3390339061219890600f0b613b61565b6121a487600f0b613b61565b6020808a0151604080516001600160a01b03909616865291850193909352830152606082015242608082015260a00160405180910390a45050506121e760015f55565b9250929050565b6040516332b53f5360e11b8152601e6004820152601d60248201526001600160a01b038416604482015260648101839052608481018290525f9073__$b7529c72c5c2e27c123ad7d1c99126182f$__9063656a7ea69060a401602060405180830381865af4158015612262573d5f803e3d5ffd5b505050506040513d601f19601f820116820180604052508101906122869190615197565b90505b9392505050565b6002546001600160a01b031633146122bb5760405163c18384c160e01b815260040160405180910390fd5b5f918252601b6020526040909120805460ff1916911515919091179055565b5f611e09826137ba565b6fa2a8918ca85bafe22016d0b997e4df60600160ff1b0381111561231b576040516317e97eb760e31b815260040160405180910390fd5b6040805180820182526005808252641d9953919560da1b60209283015282518084018452908152640322e302e360dc1b9082015281515f805160206154d7833981519152918101919091527fc792e9874e7b42c234d1e8448cec020a0f065019c8cd6f7ccdb65b8c110157e9918101919091527fb4bcb154e38601c389396fa918314da42d4626f13ef6d0ceb07e5f5d26b2fbc360608201524660808201523060a08201525f9060c0016040516020818303038152906040528051906020012090505f5f80516020615477833981519152898989896040516020016124049594939291906152b1565b6040516020818303038152906040528051906020012090505f828260405160200161244692919061190160f01b81526002810192909252602282015260420190565b60408051601f1981840301815282825280516020918201205f80855291840180845281905260ff8a169284019290925260608301889052608083018790529092509060019060a0016020604051602081039080840390855afa1580156124ae573d5f803e3d5ffd5b5050506020604051035190506124c4818c613af9565b6124e15760405163390cdd9b60e21b815260040160405180910390fd5b6001600160a01b03811661250857604051638baa579f60e01b815260040160405180910390fd5b6001600160a01b0381165f908152601f6020526040812080549161252b83615285565b91905055891461254e57604051633ab3447f60e11b815260040160405180910390fd5b8742111561256f57604051630819bdcd60e01b815260040160405180910390fd5b6125798b8b614426565b505050505b50505050505050565b6125ba6040518060a001604052805f600f0b81526020015f600f0b81526020015f81526020015f81526020015f81525090565b505f90815260056020908152604091829020825160a0810184528154600f81810b8352600160801b909104900b9281019290925260018101549282019290925260028201546060820152600390910154608082015290565b5f611e0982613961565b7f00000000000000000000000000000000000000000000000000000000000000006001600160a01b03166391d148547f00000000000000000000000000000000000000000000000000000000000000006001600160a01b031663f36c8f5c6040518163ffffffff1660e01b8152600401602060405180830381865afa1580156126a7573d5f803e3d5ffd5b505050506040513d601f19601f820116820180604052508101906126cb9190615197565b336040518363ffffffff1660e01b81526004016126e99291906151ae565b602060405180830381865afa158015612704573d5f803e3d5ffd5b505050506040513d601f19601f8201168201806040525081019061272891906151c5565b61274557604051633b8d9d7560e21b815260040160405180910390fd5b6004546001600160a01b03908116908216036127745760405163367558c360e01b815260040160405180910390fd5b6001600160a01b03811661279b5760405163d92e233d60e01b815260040160405180910390fd5b600480546001600160a01b0319166001600160a01b0383169081179091556040517f1a6ce72407c68def4b7d2e724c896070d89cf2b2a2dd56b6897b5febd88420f5905f90a250565b6127ec6137d4565b6127f63383613af9565b6128135760405163390cdd9b60e21b815260040160405180910390fd5b5f8281526008602052604081205460ff16600281111561283557612835614f92565b14612853576040516317a66f3760e01b815260040160405180910390fd5b5f8281526015602090815260409182902082516060810184528154600f0b81526001820154928101929092526002015460ff1615801592820192909252906128ae576040516334d10f9560e11b815260040160405180910390fd5b5f62093a80806128be8542615207565b6128c8919061522e565b6128d29190615241565b9050428260200151116128f8576040516307b7d7dd60e51b815260040160405180910390fd5b5f825f0151600f0b1361291e5760405163f90e998d60e01b815260040160405180910390fd5b8160200151811161294257604051638e6b5b6760e01b815260040160405180910390fd5b612950630784ce0042615207565b8111156129705760405163f761f1cd60e01b815260040160405180910390fd5b61297e845f83856003614660565b6040518481525f805160206154b78339815191529060200160405180910390a15050610cbb60015f55565b336001600160a01b038316036129d25760405163367558c360e01b815260040160405180910390fd5b335f818152600f602090815260408083206001600160a01b03871680855290835292819020805460ff191686151590811790915590519081529192917f17307eab39ab6107e8899845ad3d59bd9653f200f220920489ca2b5937696c31910160405180910390a35050565b612a456137d4565b612a4f3383613af9565b612a6c5760405163390cdd9b60e21b815260040160405180910390fd5b610cb2828260026137fc565b612a80614d28565b505f9081526015602090815260409182902082516060810184528154600f0b81526001820154928101929092526002015460ff1615159181019190915290565b5f612ac96137d4565b612ad483833361487f565b9050611e0960015f55565b612aeb848484336139e2565b823b15612bec57604051630a85bd0160e11b81526001600160a01b0384169063150b7a0290612b249033908890879087906004016152d4565b6020604051808303815f875af1925050508015612b5e575060408051601f3d908101601f19168201909252612b5b91810190615310565b60015b612bb9573d808015612b8b576040519150601f19603f3d011682016040523d82523d5f602084013e612b90565b606091505b5080515f03612bb157604051626b5e2960e61b815260040160405180910390fd5b805181602001fd5b6001600160e01b03198116630a85bd0160e11b14612bea5760405163279929b160e21b815260040160405180910390fd5b505b50505050565b612bfa6137d4565b60408051606080820183525f8083526020808401829052838501829052845192830185528183528201819052928101839052612c37929190613c02565b612c4060015f55565b565b60605f612c4e836137ba565b6001600160a01b031603612c7557604051634a1850bf60e11b815260040160405180910390fd5b60035460405163c87b56dd60e01b8152600481018490526001600160a01b039091169063c87b56dd906024015f60405180830381865afa158015612cbb573d5f803e3d5ffd5b505050506040513d5f823e601f3d908101601f19168201604052611e09919081019061532b565b612cea6137d4565b5f828152601b602052604090205460ff1615612d1957604051637c9a1cf960e01b815260040160405180910390fd5b5f8281526008602052604081205460ff166002811115612d3b57612d3b614f92565b14612d59576040516317a66f3760e01b815260040160405180910390fd5b5f8181526008602052604081205460ff166002811115612d7b57612d7b614f92565b14612d99576040516317a66f3760e01b815260040160405180910390fd5b808203612db9576040516349da877960e11b815260040160405180910390fd5b612dc33383613af9565b612de05760405163390cdd9b60e21b815260040160405180910390fd5b612dea3382613af9565b612e075760405163390cdd9b60e21b815260040160405180910390fd5b5f8181526015602090815260409182902082516060810184528154600f0b8152600182015492810183905260029091015460ff161515928101929092524210801590612e5557508060400151155b15612e73576040516307b7d7dd60e51b815260040160405180910390fd5b5f8381526015602090815260409182902082516060810184528154600f0b81526001820154928101929092526002015460ff161580159282019290925290612ece576040516334d10f9560e11b815260040160405180910390fd5b5f826020015182602001511015612ee9578260200151612eef565b81602001515b9050612efa85613b75565b60408051606080820183525f80835260208084018281528486018381528b845260158352868420955186546001600160801b0319166001600160801b0390911617865590516001860155516002909401805460ff1916941515949094179093558351918201845280825291810182905291820152612f7b9086908490613c02565b612f83614d28565b82518451612f91919061539f565b600f0b815260408085015115801591830191909152612fd3578251612fb890600f0b613b61565b601a5f828254612fc89190615207565b90915550612fdb9050565b602081018290525b5f858152601c602052604090205483516130039190612ffc90600f0b613b61565b600161458e565b61300e858583613c02565b5f85815260156020908152604091829020835181546001600160801b0319166001600160801b03909116178155908301516001820155908201516002909101805460ff191691151591909117905582518590879033907f986e3c958e3bdf1f58c2150357fc94624dd4e77b08f9802d8e2e885fa0d6a1989061309290600f0b613b61565b88516130a090600f0b613b61565b86516130ae90600f0b613b61565b8760200151426040516130c59594939291906152b1565b60405180910390a46040518581525f805160206154b78339815191529060200160405180910390a150505050610cbb60015f55565b6131043383613af9565b6131215760405163390cdd9b60e21b815260040160405180910390fd5b610cbb8282614426565b5f611e06838361498c565b61313e6137d4565b6002546001600160a01b031633146131695760405163c18384c160e01b815260040160405180910390fd5b60025f8281526008602052604090205460ff16600281111561318d5761318d614f92565b146131ab5760405163054b1e0160e51b815260040160405180910390fd5b5f8281526008602052604081205460ff1660028111156131cd576131cd614f92565b146131eb576040516317a66f3760e01b815260040160405180910390fd5b6131f5824261498c565b5f036132145760405163334ab3f560e11b815260040160405180910390fd5b5f8281526015602052604090208054600290910154600f9190910b9060ff16156132645761324481600f0b613b61565b601a5f82825461325491906151f4565b909155506132649050835f614426565b5f8381526015602090815260408083208151606080820184528254600f0b825260018301548286015260029092015460ff1615158184015282519182018352848252928101849052908101929092526132bf91859190613c02565b604080516060810182525f80825260208083018281528385018381528884526015909252938220925183546001600160801b0319166001600160801b039091161783559251600183015591516002909101805460ff191691151591909117905561332c600f83900b613b61565b905080601a5f82825461333f9190615207565b90915550505f8381526015602090815260409182902082516060810184528154600f0b80825260018301549382019390935260029091015460ff161515928101929092528390829061339290839061539f565b600f0b9052505f848152601c60205260409020546133b29083600161458e565b5f8481526015602090815260409182902082516060810184528154600f0b81526001820154928101929092526002015460ff161515918101919091526133fa90859083613c02565b5f848152601560209081526040808320845181546001600160801b039091166001600160801b031990911617815584830151600180830191909155858301516002909201805492151560ff19938416179055898552600a84528285208986528452828520879055898552600984528285208990556008909352922080549092161790558385613488816137ba565b6001600160a01b03167ff7757ce35992f4ee014dee2e0c97ed6245758960a6ecc9e124897a5fb7b0142385426040516134c2929190614f54565b60405180910390a46040518581525f805160206154b78339815191529060200160405180910390a1505050610cbb60015f55565b6135003382613af9565b61351d5760405163390cdd9b60e21b815260040160405180910390fd5b5f8181526008602052604081205460ff16600281111561353f5761353f614f92565b1461355d576040516317a66f3760e01b815260040160405180910390fd5b5f8181526015602090815260409182902082516060810184528154600f0b81526001820154928101929092526002015460ff1615801592820192909252906135b8576040516334d10f9560e11b815260040160405180910390fd5b428160200151116135dc576040516307b7d7dd60e51b815260040160405180910390fd5b5f815f0151600f0b136136025760405163f90e998d60e01b815260040160405180910390fd5b5f613612825f0151600f0b613b61565b905080601a5f8282546136259190615207565b90915550505f602080840182905260016040808601829052868452601583529283902083516060810185528154600f0b8152918101549282019290925260029091015460ff1615159181019190915261368090849084613c02565b5f83815260156020908152604091829020845181546001600160801b0319166001600160801b03909116178155908401516001820155838201516002909101805460ff191691151591909117905551839033907f793cb7a30a4bb8669ec607dfcbdc93f5a3e9d282f38191fddab43ccaf79efb809061166f9085904290614f54565b5f611e09824261498c565b5f6137166137d4565b61372184848461487f565b905061228960015f55565b61375c60405180608001604052805f81526020015f6001600160a01b031681526020015f81526020015f81525090565b505f918252601d6020908152604080842065ffffffffffff9390931684529181529181902081516080810183528154815260018201546001600160a01b03169381019390935260028101549183019190915260030154606082015290565b5f908152600c60205260409020546001600160a01b031690565b60025f54036137f657604051633ee5aeb560e01b815260040160405180910390fd5b60025f55565b5f8381526008602052604090205460ff16600181600281111561382157613821614f92565b0361383f57604051635eb32db160e11b815260040160405180910390fd5b5f84815260156020908152604080832081516060810183528154600f0b81526001820154938101939093526002015460ff161515908201529084900361389857604051631f2a200560e01b815260040160405180910390fd5b5f815f0151600f0b136138be5760405163f90e998d60e01b815260040160405180910390fd5b428160200151111580156138d457508060400151155b156138f2576040516307b7d7dd60e51b815260040160405180910390fd5b8060400151156139135783601a5f82825461390d9190615207565b90915550505b5f858152601c602052604090205461392d9085600161458e565b61393a85855f8487614660565b6040518581525f805160206154b78339815191529060200160405180910390a15050505050565b601354604051637259b01960e01b81525f9173__$338233e8a38ade046c6eaf794a90d7ad5d$__91637259b019916139a39160189160059188906004016153cc565b602060405180830381865af41580156139be573d5f803e3d5ffd5b505050506040513d601f19601f82011682018060405250810190611e099190615197565b60015f8381526008602052604090205460ff166002811115613a0657613a06614f92565b03613a2457604051635eb32db160e11b815260040160405180910390fd5b613a2e8183613af9565b613a4b5760405163390cdd9b60e21b815260040160405180910390fd5b836001600160a01b0316613a5e836137ba565b6001600160a01b031614613a85576040516330cd747160e01b815260040160405180910390fd5b5f828152600e6020526040902080546001600160a01b0319169055613aaa8483614a26565b613ab5825f85614aa5565b613abf8383614b0f565b5f828152601060205260408082204390555183916001600160a01b0380871692908816915f8051602061549783398151915291a450505050565b5f80613b04836137ba565b5f848152600e60209081526040808320546001600160a01b03808616808652600f8552838620828c1680885295529290942054949550908214939216149060ff168280613b4e5750815b80613b565750805b979650505050505050565b5f808212613b6d575090565b611ddc614b9f565b613b7f3382613af9565b613b9c5760405163390cdd9b60e21b815260040160405180910390fd5b5f613ba6826137ba565b5f838152600e6020526040812080546001600160a01b0319169055909150613bd090839080614aa5565b613bda8183614a26565b60405182905f906001600160a01b038416905f80516020615497833981519152908390a45050565b613c0a614cf8565b613c12614cf8565b6013545f9081908715613d5d578560400151613c2e575f613c3c565b8551613c3c90600f0b613b61565b6080850152602087015142108015613c5957505f875f0151600f0b135b15613ca7578651613c6f90630784ce00906153e7565b600f0b602080870191909152870151613c9290613c8d9042906151f4565b614576565b8560200151613ca19190615423565b600f0b85525b428660200151118015613cbf57505f865f0151600f0b135b15613d08578551613cd590630784ce00906153e7565b600f0b602080860191909152860151613cf390613c8d9042906151f4565b8460200151613d029190615423565b600f0b84525b6020808801515f90815260188252604090205490870151600f9190910b935015613d5d578660200151866020015103613d4357829150613d5d565b6020808701515f90815260189091526040902054600f0b91505b6040805160a0810182525f80825260208201819052429282019290925243606082015260808101919091528115613de457505f81815260056020908152604091829020825160a0810184528154600f81810b8352600160801b909104900b928101929092526001810154928201929092526002820154606082015260039091015460808201525b5f816040015190505f6040518060a00160405280845f0151600f0b81526020018460200151600f0b81526020018460400151815260200184606001518152602001846080015181525090505f8360400151421115613e79576040840151613e4b90426151f4565b6060850151613e5a90436151f4565b613e6c90670de0b6b3a7640000615241565b613e76919061522e565b90505b5f62093a80613e88818661522e565b613e929190615241565b90505f5b60ff81101561400957613eac62093a8083615207565b91505f42831115613ebf57429250613ed2565b505f82815260186020526040902054600f0b5b613edf613c8d87856151f4565b8760200151613eee9190615423565b87518890613efd908390615258565b600f0b905250602087018051829190613f1790839061539f565b600f90810b90915288515f910b12159050613f30575f87525b5f8760200151600f0b1215613f46575f60208801525b60408088018490528501519295508592670de0b6b3a764000090613f6a90856151f4565b613f749086615241565b613f7e919061522e565b8560600151613f8d9190615207565b6060880152613f9d600189615207565b9750428303613fb25750436060870152614009565b5f888152600560209081526040918290208951918a01516001600160801b03908116600160801b02921691909117815590880151600182015560608801516002820155608088015160039091015550600101613e96565b50508b1561409357886020015188602001516140259190615258565b84602001818151614036919061539f565b600f0b9052508851885161404a9190615258565b8451859061405990839061539f565b600f90810b90915260208601515f910b12159050614078575f60208501525b5f845f0151600f0b121561408a575f84525b601a5460808501525b846001141580156140c157504260055f6140ae6001896151f4565b81526020019081526020015f2060010154145b15614129578360055f6140d56001896151f4565b815260208082019290925260409081015f208351928401516001600160801b03908116600160801b02931692909217825582015160018201556060820151600282015560809091015160039091015561417d565b60138590555f858152600560209081526040918290208651918701516001600160801b03908116600160801b0292169190911781559085015160018201556060850151600282015560808501516003909101555b8b1561439657428b6020015111156141ee57602089015161419e908861539f565b96508a602001518a60200151036141c15760208801516141be9088615258565b96505b60208b8101515f90815260189091526040902080546001600160801b0319166001600160801b0389161790555b428a602001511115614248578a602001518a6020015111156142485760208801516142199087615258565b60208b8101515f90815260189091526040902080546001600160801b0319166001600160801b03831617905595505b426040808a01919091524360608a01525f8d815260176020522054801580159061429a57505f8d8152601660205260409020429082633b9aca0081106142905761429061529d565b6004020160010154145b1561430f575f8d8152601660205260409020899082633b9aca0081106142c2576142c261529d565b825160208401516001600160801b03908116600160801b02911617600491909102919091019081556040820151600182015560608201516002820155608090910151600390910155614394565b61431881615285565b5f8e815260176020908152604080832084905560169091529020909150899082633b9aca00811061434b5761434b61529d565b825160208401516001600160801b03908116600160801b029116176004919091029190910190815560408201516001820155606082015160028201556080909101516003909101555b505b505050505050505050505050565b5f60405163a9059cbb60e01b81526001600160a01b038416600482015282602482015260205f6044835f895af13d15601f3d1160015f511416171691505080612bec5760405162461bcd60e51b815260206004820152600f60248201526e1514905394d1915497d19052531151608a1b60448201526064015b60405180910390fd5b5f8281526015602090815260409182902082516060810184528154600f0b81526001820154928101929092526002015460ff1615159181018290529061447f57604051632188f8ab60e01b815260040160405180910390fd5b811580159061449e57505f614493836137ba565b6001600160a01b0316145b156144bc57604051634a1850bf60e11b815260040160405180910390fd5b5f838152601060205260409020544390036144ea576040516342d6fce760e01b815260040160405180910390fd5b8282036144f5575f91505b5f838152601c60205260409020548281036145105750505050565b5f614520835f0151600f0b613b61565b90506145358585614530886137ba565b614aa5565b6145418482600161458e565b6040518490839033907ff1aa2a9e40138176a3ee6099df056f5c175f8511a0d8b8275d94d1ea5de46773905f90a45050505050565b5f6001607f1b821061458a5761458a614b9f565b5090565b6040516375f199b960e11b8152601e6004820152601d60248201526044810184905260648101839052811515608482015273__$b7529c72c5c2e27c123ad7d1c99126182f$__9063ebe333729060a4015b5f6040518083038186803b1580156145f5575f80fd5b505af415801561257e573d5f803e3d5ffd5b5f6001600160a01b03831661461e5761461e615442565b6146288383614b0f565b614633825f85614aa5565b60405182906001600160a01b038516905f905f80516020615497833981519152908290a450600192915050565b60145461466d8582615207565b601455614678614d28565b835160208086015160408088015115159085015290830152600f0b815261469e86614576565b815182906146ad90839061539f565b600f0b90525084156146c157602081018590525b5f87815260156020908152604091829020835181546001600160801b0319166001600160801b03909116178155908301516001820155908201516002909101805460ff191691151591909117905561471a878583613c02565b8515614755576147556001600160a01b037f000000000000000000000000000000000000000000000000000000000000000016333089614bac565b82600381111561476757614767614f92565b602082810151604080518a815292830191909152428282015251899133917f8835c22a0c751188de86681e15904223c054bedd5c68ec8858945b78312902739181900360600190a45f80516020615457833981519152826147c88882615207565b6040516147d6929190614f54565b60405180910390a150505050505050565b5f60075f81546147f690615285565b91829055505f818152601560209081526040808320865181546001600160801b0319166001600160801b03909116178155868301516001820155868201516002909101805460ff1916911515919091179055805160608101825283815291820183905281019190915290915061486e90829084613c02565b6148788382614607565b5092915050565b5f8062093a80806148908642615207565b61489a919061522e565b6148a49190615241565b9050845f036148c657604051631f2a200560e01b815260040160405180910390fd5b4281116148e657604051638e6b5b6760e01b815260040160405180910390fd5b6148f4630784ce0042615207565b8111156149145760405163f761f1cd60e01b815260040160405180910390fd5b5f60075f815461492390615285565b918290555090506149348482614607565b505f8181526015602090815260409182902082516060810184528154600f0b81526001808301549382019390935260029091015460ff1615159281019290925261498391839189918691614660565b95945050505050565b5f828152601060205260408120544390036149a857505f611e09565b604051637b29b3d160e01b815273__$338233e8a38ade046c6eaf794a90d7ad5d$__90637b29b3d1906149e790601790601690889088906004016153cc565b602060405180830381865af4158015614a02573d5f803e3d5ffd5b505050506040513d601f19601f82011682018060405250810190611e069190615197565b816001600160a01b0316614a39826137ba565b6001600160a01b031614614a4f57614a4f615442565b5f818152600c6020526040902080546001600160a01b0319169055614a748282614c3d565b6001600160a01b0382165f908152600d60205260408120805460019290614a9c9084906151f4565b90915550505050565b60405163690f66bf60e01b815260156004820152601e6024820152601d6044820152601c60648201526084810184905260a481018390526001600160a01b03821660c482015273__$b7529c72c5c2e27c123ad7d1c99126182f$__9063690f66bf9060e4016145df565b5f614b19826137ba565b6001600160a01b031614614b2f57614b2f615442565b5f818152600c6020908152604080832080546001600160a01b0319166001600160a01b038716908117909155808452600d80845282852080546011865284872081885286528487208890558787526012865293862093909355908452909152805460019290614a9c908490615207565b6335278d125f526004601cfd5b5f6040516323b872dd60e01b81526001600160a01b03851660048201526001600160a01b038416602482015282604482015260205f6064835f8a5af13d15601f3d1160015f511416171691505080612bea5760405162461bcd60e51b81526020600482015260146024820152731514905394d1915497d19493d357d1905253115160621b604482015260640161441d565b6001600160a01b0382165f908152600d6020526040812054614c61906001906151f4565b5f83815260126020526040902054909150808203614cae576001600160a01b0384165f90815260116020908152604080832085845282528083208390558583526012909152812055612bec565b6001600160a01b03939093165f9081526011602090815260408083209383529281528282208054868452848420819055835260129091528282209490945592839055908252812055565b6040518060a001604052805f600f0b81526020015f600f0b81526020015f81526020015f81526020015f81525090565b604080516060810182525f808252602082018190529181019190915290565b6001600160e01b031981168114611126575f80fd5b5f60208284031215614d6c575f80fd5b813561228981614d47565b5f81518084528060208401602086015e5f602082860101526020601f19601f83011685010191505092915050565b602081525f611e066020830184614d77565b5f60208284031215614dc7575f80fd5b5035919050565b80356001600160a01b0381168114611ddc575f80fd5b5f8060408385031215614df5575f80fd5b614dfe83614dce565b946020939093013593505050565b5f8060408385031215614e1d575f80fd5b50508035926020909101359150565b5f805f60608486031215614e3e575f80fd5b614e4784614dce565b9250614e5560208501614dce565b929592945050506040919091013590565b5f8060408385031215614e77575f80fd5b614e8083614dce565b9150614e8e60208401614dce565b90509250929050565b5f60208284031215614ea7575f80fd5b611e0682614dce565b8015158114611126575f80fd5b5f8060408385031215614ece575f80fd5b614ed783614dce565b91506020830135614ee781614eb0565b809150509250929050565b5f8060408385031215614f03575f80fd5b823591506020830135614ee781614eb0565b60a08101611e0982848051600f0b82526020810151600f0b60208301526040810151604083015260608101516060830152608081015160808301525050565b918252602082015260400190565b5f805f60608486031215614f74575f80fd5b614f7d84614dce565b95602085013595506040909401359392505050565b634e487b7160e01b5f52602160045260245ffd5b6020810160038310614fc657634e487b7160e01b5f52602160045260245ffd5b91905290565b5f805f805f805f60e0888a031215614fe2575f80fd5b87359650602088013595506040880135945060608801359350608088013560ff8116811461500e575f80fd5b9699959850939692959460a0840135945060c09093013592915050565b634e487b7160e01b5f52604160045260245ffd5b604051601f8201601f191681016001600160401b03811182821017156150675761506761502b565b604052919050565b5f6001600160401b038211156150875761508761502b565b50601f01601f191660200190565b5f805f80608085870312156150a8575f80fd5b6150b185614dce565b93506150bf60208601614dce565b92506040850135915060608501356001600160401b038111156150e0575f80fd5b8501601f810187136150f0575f80fd5b80356151036150fe8261506f565b61503f565b818152886020838501011115615117575f80fd5b816020840160208301375f6020838301015280935050505092959194509250565b5f805f6060848603121561514a575f80fd5b833592506020840135915061516160408501614dce565b90509250925092565b5f806040838503121561517b575f80fd5b82359150602083013565ffffffffffff81168114614ee7575f80fd5b5f602082840312156151a7575f80fd5b5051919050565b9182526001600160a01b0316602082015260400190565b5f602082840312156151d5575f80fd5b815161228981614eb0565b634e487b7160e01b5f52601160045260245ffd5b81810381811115611e0957611e096151e0565b80820180821115611e0957611e096151e0565b634e487b7160e01b5f52601260045260245ffd5b5f8261523c5761523c61521a565b500490565b8082028115828204841417611e0957611e096151e0565b600f82810b9082900b0360016001607f1b0319811260016001607f1b0382131715611e0957611e096151e0565b5f60018201615296576152966151e0565b5060010190565b634e487b7160e01b5f52603260045260245ffd5b948552602085019390935260408401919091526060830152608082015260a00190565b6001600160a01b03858116825284166020820152604081018390526080606082018190525f9061530690830184614d77565b9695505050505050565b5f60208284031215615320575f80fd5b815161228981614d47565b5f6020828403121561533b575f80fd5b81516001600160401b03811115615350575f80fd5b8201601f81018413615360575f80fd5b805161536e6150fe8261506f565b818152856020838501011115615382575f80fd5b8160208401602083015e5f91810160200191909152949350505050565b600f81810b9083900b0160016001607f1b03811360016001607f1b031982121715611e0957611e096151e0565b93845260208401929092526040830152606082015260800190565b5f81600f0b83600f0b806153fd576153fd61521a565b60016001607f1b031982145f198214161561541a5761541a6151e0565b90059392505050565b5f82600f0b82600f0b0280600f0b9150808214614878576148786151e0565b634e487b7160e01b5f52600160045260245ffdfe5e2aa66efd74cce82b21852e317e5490d9ecc9e6bb953ae24d90851258cc2f5c9947d5709c1682eaa3946b2d84115c9c0d1c946b149d76e69b457458b42ea29eddf252ad1be2c89b69c2b068fc378daa952ba7f163c4a11628f55a4df523b3eff8e1a15aba9398e019f0b49df1a4fde98ee17ae345cb5f6b5e2c27f5033e8ce78b73c3c69bb8fe3d512ecc4cf759cc79239f7b179b0ffacaa9a75d522b39400fa26469706673582212204dd85201047777584fe06c39ddc00fece0f7baca03e16ac24a245efbd2ae56c764736f6c634300081a0033ddf252ad1be2c89b69c2b068fc378daa952ba7f163c4a11628f55a4df523b3ef","linkReferences":{"src/voting/libraries/BalanceLogicLibrary.sol":{"BalanceLogicLibrary":[{"start":15514,"length":20},{"start":19676,"length":20}]},"src/voting/libraries/DelegationLogicLibrary.sol":{"DelegationLogicLibrary":[{"start":9551,"length":20},{"start":18662,"length":20},{"start":19986,"length":20}]}}},"methodIdentifiers":{"CLOCK_MODE()":"4bf5d7e9","DELEGATION_TYPEHASH()":"e7a324dc","DOMAIN_TYPEHASH()":"20606b70","allowedManager()":"2f7f9ba9","approve(address,uint256)":"095ea7b3","artProxy()":"5594a045","balanceOf(address)":"70a08231","balanceOfNFT(uint256)":"e7e242d4","balanceOfNFTAt(uint256,uint256)":"e0514aba","canSplit(address)":"3d085a37","checkpoint()":"c2c4c5c1","checkpoints(uint256,uint48)":"f04cb3a8","clock()":"91ddadf4","createLock(uint256,uint256)":"b52c05fe","createLockFor(uint256,uint256,address)":"ec32e6df","createManagedLockFor(address)":"3a6396a5","deactivated(uint256)":"a899b36c","decimals()":"313ce567","delegate(uint256,uint256)":"d9a34952","delegateBySig(uint256,uint256,uint256,uint256,uint8,bytes32,bytes32)":"834b0b69","delegates(uint256)":"b1548afc","depositFor(uint256,uint256)":"0ec84dda","depositManaged(uint256,uint256)":"e0c11f9a","distributor()":"bfe10928","epoch()":"900cf0cf","escrowType(uint256)":"7c728000","getApproved(uint256)":"081812fc","getPastTotalSupply(uint256)":"8e539e8c","getPastVotes(address,uint256,uint256)":"4d6fb775","idToManaged(uint256)":"19a0a9d5","increaseAmount(uint256,uint256)":"b2383e55","increaseUnlockTime(uint256,uint256)":"9d507b8b","infrared()":"21f96c65","isApprovedForAll(address,address)":"e985e9c5","isApprovedOrOwner(address,uint256)":"430c2081","keeper()":"aced1661","lockPermanent(uint256)":"e75b1c2e","locked(uint256)":"b45a3c0e","merge(uint256,uint256)":"d1c2babb","name()":"06fdde03","nonces(address)":"7ecebe00","numCheckpoints(uint256)":"50589793","ownerOf(uint256)":"6352211e","ownerToNFTokenIdList(address,uint256)":"8bf9d84c","permanentLockBalance()":"4d01cb66","pointHistory(uint256)":"8ad4c447","safeTransferFrom(address,address,uint256)":"42842e0e","safeTransferFrom(address,address,uint256,bytes)":"b88d4fde","setAllowedManager(address)":"9954a989","setApprovalForAll(address,bool)":"a22cb465","setArtProxy(address)":"2e720f7d","setManagedState(uint256,bool)":"37b1f500","setVoterAndDistributor(address,address)":"2d0485ec","slopeChanges(uint256)":"f52a36f7","split(uint256,uint256)":"4b19becc","supply()":"047fc9aa","supportsInterface(bytes4)":"01ffc9a7","symbol()":"95d89b41","toggleSplit(address,bool)":"33230dc0","token()":"fc0c546a","tokenId()":"17d70f7c","tokenURI(uint256)":"c87b56dd","totalSupply()":"18160ddd","totalSupplyAt(uint256)":"981b24d0","transferFrom(address,address,uint256)":"23b872dd","unlockPermanent(uint256)":"35b0f6bd","userPointEpoch(uint256)":"e58f5947","userPointHistory(uint256,uint256)":"44acb42a","version()":"54fd4d50","voted(uint256)":"8fbb38ff","voter()":"46c96aac","voting(uint256,bool)":"5a4f459a","weights(uint256,uint256)":"515857d4","withdraw(uint256)":"2e1a7d4d","withdrawManaged(uint256)":"370fb5fa"},"id":117}