{"abi":[{"type":"function","name":"DEFAULT_ADMIN_ROLE","inputs":[],"outputs":[{"name":"","type":"bytes32","internalType":"bytes32"}],"stateMutability":"view"},{"type":"function","name":"GOVERNANCE_ROLE","inputs":[],"outputs":[{"name":"","type":"bytes32","internalType":"bytes32"}],"stateMutability":"view"},{"type":"function","name":"KEEPER_ROLE","inputs":[],"outputs":[{"name":"","type":"bytes32","internalType":"bytes32"}],"stateMutability":"view"},{"type":"function","name":"UPGRADE_INTERFACE_VERSION","inputs":[],"outputs":[{"name":"","type":"string","internalType":"string"}],"stateMutability":"view"},{"type":"function","name":"allowance","inputs":[{"name":"owner","type":"address","internalType":"address"},{"name":"spender","type":"address","internalType":"address"}],"outputs":[{"name":"","type":"uint256","internalType":"uint256"}],"stateMutability":"view"},{"type":"function","name":"approve","inputs":[{"name":"spender","type":"address","internalType":"address"},{"name":"value","type":"uint256","internalType":"uint256"}],"outputs":[{"name":"","type":"bool","internalType":"bool"}],"stateMutability":"nonpayable"},{"type":"function","name":"balanceOf","inputs":[{"name":"account","type":"address","internalType":"address"}],"outputs":[{"name":"","type":"uint256","internalType":"uint256"}],"stateMutability":"view"},{"type":"function","name":"burn","inputs":[{"name":"receiver","type":"address","internalType":"address"},{"name":"shares","type":"uint256","internalType":"uint256"}],"outputs":[{"name":"nonce","type":"uint256","internalType":"uint256"},{"name":"amount","type":"uint256","internalType":"uint256"}],"stateMutability":"payable"},{"type":"function","name":"collect","inputs":[],"outputs":[{"name":"sharesMinted","type":"uint256","internalType":"uint256"}],"stateMutability":"nonpayable"},{"type":"function","name":"compound","inputs":[],"outputs":[],"stateMutability":"nonpayable"},{"type":"function","name":"confirmed","inputs":[],"outputs":[{"name":"","type":"uint256","internalType":"uint256"}],"stateMutability":"view"},{"type":"function","name":"currentImplementation","inputs":[],"outputs":[{"name":"","type":"address","internalType":"address"}],"stateMutability":"view"},{"type":"function","name":"decimals","inputs":[],"outputs":[{"name":"","type":"uint8","internalType":"uint8"}],"stateMutability":"view"},{"type":"function","name":"depositor","inputs":[],"outputs":[{"name":"","type":"address","internalType":"address"}],"stateMutability":"view"},{"type":"function","name":"deposits","inputs":[],"outputs":[{"name":"","type":"uint256","internalType":"uint256"}],"stateMutability":"view"},{"type":"function","name":"feeDivisorShareholders","inputs":[],"outputs":[{"name":"","type":"uint16","internalType":"uint16"}],"stateMutability":"view"},{"type":"function","name":"getRoleAdmin","inputs":[{"name":"role","type":"bytes32","internalType":"bytes32"}],"outputs":[{"name":"","type":"bytes32","internalType":"bytes32"}],"stateMutability":"view"},{"type":"function","name":"governor","inputs":[{"name":"account","type":"address","internalType":"address"}],"outputs":[{"name":"","type":"bool","internalType":"bool"}],"stateMutability":"view"},{"type":"function","name":"grantRole","inputs":[{"name":"role","type":"bytes32","internalType":"bytes32"},{"name":"account","type":"address","internalType":"address"}],"outputs":[],"stateMutability":"nonpayable"},{"type":"function","name":"hasExited","inputs":[{"name":"pubkey","type":"bytes","internalType":"bytes"}],"outputs":[{"name":"","type":"bool","internalType":"bool"}],"stateMutability":"view"},{"type":"function","name":"hasRole","inputs":[{"name":"role","type":"bytes32","internalType":"bytes32"},{"name":"account","type":"address","internalType":"address"}],"outputs":[{"name":"","type":"bool","internalType":"bool"}],"stateMutability":"view"},{"type":"function","name":"implementation","inputs":[],"outputs":[{"name":"","type":"address","internalType":"address"}],"stateMutability":"view"},{"type":"function","name":"infrared","inputs":[],"outputs":[{"name":"","type":"address","internalType":"address"}],"stateMutability":"view"},{"type":"function","name":"initialize","inputs":[{"name":"_gov","type":"address","internalType":"address"},{"name":"_keeper","type":"address","internalType":"address"},{"name":"_infrared","type":"address","internalType":"address"},{"name":"_depositor","type":"address","internalType":"address"},{"name":"_withdrawor","type":"address","internalType":"address"},{"name":"_receivor","type":"address","internalType":"address"}],"outputs":[],"stateMutability":"payable"},{"type":"function","name":"keeper","inputs":[{"name":"account","type":"address","internalType":"address"}],"outputs":[{"name":"","type":"bool","internalType":"bool"}],"stateMutability":"view"},{"type":"function","name":"mint","inputs":[{"name":"receiver","type":"address","internalType":"address"}],"outputs":[{"name":"nonce","type":"uint256","internalType":"uint256"},{"name":"shares","type":"uint256","internalType":"uint256"}],"stateMutability":"payable"},{"type":"function","name":"name","inputs":[],"outputs":[{"name":"","type":"string","internalType":"string"}],"stateMutability":"view"},{"type":"function","name":"pending","inputs":[],"outputs":[{"name":"","type":"uint256","internalType":"uint256"}],"stateMutability":"view"},{"type":"function","name":"previewBurn","inputs":[{"name":"shareAmount","type":"uint256","internalType":"uint256"}],"outputs":[{"name":"beraAmount","type":"uint256","internalType":"uint256"},{"name":"fee","type":"uint256","internalType":"uint256"}],"stateMutability":"view"},{"type":"function","name":"previewMint","inputs":[{"name":"beraAmount","type":"uint256","internalType":"uint256"}],"outputs":[{"name":"shares","type":"uint256","internalType":"uint256"},{"name":"fee","type":"uint256","internalType":"uint256"}],"stateMutability":"view"},{"type":"function","name":"proxiableUUID","inputs":[],"outputs":[{"name":"","type":"bytes32","internalType":"bytes32"}],"stateMutability":"view"},{"type":"function","name":"receivor","inputs":[],"outputs":[{"name":"","type":"address","internalType":"address"}],"stateMutability":"view"},{"type":"function","name":"register","inputs":[{"name":"pubkey","type":"bytes","internalType":"bytes"},{"name":"delta","type":"int256","internalType":"int256"}],"outputs":[],"stateMutability":"nonpayable"},{"type":"function","name":"renounceRole","inputs":[{"name":"role","type":"bytes32","internalType":"bytes32"},{"name":"callerConfirmation","type":"address","internalType":"address"}],"outputs":[],"stateMutability":"nonpayable"},{"type":"function","name":"revokeRole","inputs":[{"name":"role","type":"bytes32","internalType":"bytes32"},{"name":"account","type":"address","internalType":"address"}],"outputs":[],"stateMutability":"nonpayable"},{"type":"function","name":"setDepositSignature","inputs":[{"name":"pubkey","type":"bytes","internalType":"bytes"},{"name":"signature","type":"bytes","internalType":"bytes"}],"outputs":[],"stateMutability":"nonpayable"},{"type":"function","name":"setFeeDivisorShareholders","inputs":[{"name":"to","type":"uint16","internalType":"uint16"}],"outputs":[],"stateMutability":"nonpayable"},{"type":"function","name":"setWithdrawalsEnabled","inputs":[{"name":"flag","type":"bool","internalType":"bool"}],"outputs":[],"stateMutability":"nonpayable"},{"type":"function","name":"signatures","inputs":[{"name":"pubkey","type":"bytes","internalType":"bytes"}],"outputs":[{"name":"","type":"bytes","internalType":"bytes"}],"stateMutability":"view"},{"type":"function","name":"staked","inputs":[{"name":"pubkey","type":"bytes","internalType":"bytes"}],"outputs":[{"name":"","type":"bool","internalType":"bool"}],"stateMutability":"view"},{"type":"function","name":"stakes","inputs":[{"name":"pubkey","type":"bytes","internalType":"bytes"}],"outputs":[{"name":"","type":"uint256","internalType":"uint256"}],"stateMutability":"view"},{"type":"function","name":"supportsInterface","inputs":[{"name":"interfaceId","type":"bytes4","internalType":"bytes4"}],"outputs":[{"name":"","type":"bool","internalType":"bool"}],"stateMutability":"view"},{"type":"function","name":"sweep","inputs":[],"outputs":[],"stateMutability":"payable"},{"type":"function","name":"symbol","inputs":[],"outputs":[{"name":"","type":"string","internalType":"string"}],"stateMutability":"view"},{"type":"function","name":"totalSupply","inputs":[],"outputs":[{"name":"","type":"uint256","internalType":"uint256"}],"stateMutability":"view"},{"type":"function","name":"transfer","inputs":[{"name":"to","type":"address","internalType":"address"},{"name":"value","type":"uint256","internalType":"uint256"}],"outputs":[{"name":"","type":"bool","internalType":"bool"}],"stateMutability":"nonpayable"},{"type":"function","name":"transferFrom","inputs":[{"name":"from","type":"address","internalType":"address"},{"name":"to","type":"address","internalType":"address"},{"name":"value","type":"uint256","internalType":"uint256"}],"outputs":[{"name":"","type":"bool","internalType":"bool"}],"stateMutability":"nonpayable"},{"type":"function","name":"upgradeToAndCall","inputs":[{"name":"newImplementation","type":"address","internalType":"address"},{"name":"data","type":"bytes","internalType":"bytes"}],"outputs":[],"stateMutability":"payable"},{"type":"function","name":"validator","inputs":[{"name":"pubkey","type":"bytes","internalType":"bytes"}],"outputs":[{"name":"","type":"bool","internalType":"bool"}],"stateMutability":"view"},{"type":"function","name":"withdrawalsEnabled","inputs":[],"outputs":[{"name":"","type":"bool","internalType":"bool"}],"stateMutability":"view"},{"type":"function","name":"withdrawor","inputs":[],"outputs":[{"name":"","type":"address","internalType":"address"}],"stateMutability":"view"},{"type":"event","name":"Approval","inputs":[{"name":"owner","type":"address","indexed":true,"internalType":"address"},{"name":"spender","type":"address","indexed":true,"internalType":"address"},{"name":"value","type":"uint256","indexed":false,"internalType":"uint256"}],"anonymous":false},{"type":"event","name":"Burn","inputs":[{"name":"receiver","type":"address","indexed":true,"internalType":"address"},{"name":"nonce","type":"uint256","indexed":false,"internalType":"uint256"},{"name":"amount","type":"uint256","indexed":false,"internalType":"uint256"},{"name":"shares","type":"uint256","indexed":false,"internalType":"uint256"},{"name":"fee","type":"uint256","indexed":false,"internalType":"uint256"}],"anonymous":false},{"type":"event","name":"Initialized","inputs":[{"name":"version","type":"uint64","indexed":false,"internalType":"uint64"}],"anonymous":false},{"type":"event","name":"Mint","inputs":[{"name":"receiver","type":"address","indexed":true,"internalType":"address"},{"name":"nonce","type":"uint256","indexed":false,"internalType":"uint256"},{"name":"amount","type":"uint256","indexed":false,"internalType":"uint256"},{"name":"shares","type":"uint256","indexed":false,"internalType":"uint256"},{"name":"fee","type":"uint256","indexed":false,"internalType":"uint256"}],"anonymous":false},{"type":"event","name":"Register","inputs":[{"name":"pubkey","type":"bytes","indexed":false,"internalType":"bytes"},{"name":"delta","type":"int256","indexed":false,"internalType":"int256"},{"name":"stake","type":"uint256","indexed":false,"internalType":"uint256"}],"anonymous":false},{"type":"event","name":"RoleAdminChanged","inputs":[{"name":"role","type":"bytes32","indexed":true,"internalType":"bytes32"},{"name":"previousAdminRole","type":"bytes32","indexed":true,"internalType":"bytes32"},{"name":"newAdminRole","type":"bytes32","indexed":true,"internalType":"bytes32"}],"anonymous":false},{"type":"event","name":"RoleGranted","inputs":[{"name":"role","type":"bytes32","indexed":true,"internalType":"bytes32"},{"name":"account","type":"address","indexed":true,"internalType":"address"},{"name":"sender","type":"address","indexed":true,"internalType":"address"}],"anonymous":false},{"type":"event","name":"RoleRevoked","inputs":[{"name":"role","type":"bytes32","indexed":true,"internalType":"bytes32"},{"name":"account","type":"address","indexed":true,"internalType":"address"},{"name":"sender","type":"address","indexed":true,"internalType":"address"}],"anonymous":false},{"type":"event","name":"SetDepositSignature","inputs":[{"name":"pubkey","type":"bytes","indexed":false,"internalType":"bytes"},{"name":"from","type":"bytes","indexed":false,"internalType":"bytes"},{"name":"to","type":"bytes","indexed":false,"internalType":"bytes"}],"anonymous":false},{"type":"event","name":"SetFeeShareholders","inputs":[{"name":"from","type":"uint16","indexed":false,"internalType":"uint16"},{"name":"to","type":"uint16","indexed":false,"internalType":"uint16"}],"anonymous":false},{"type":"event","name":"Sweep","inputs":[{"name":"amount","type":"uint256","indexed":false,"internalType":"uint256"}],"anonymous":false},{"type":"event","name":"Transfer","inputs":[{"name":"from","type":"address","indexed":true,"internalType":"address"},{"name":"to","type":"address","indexed":true,"internalType":"address"},{"name":"value","type":"uint256","indexed":false,"internalType":"uint256"}],"anonymous":false},{"type":"event","name":"Upgraded","inputs":[{"name":"implementation","type":"address","indexed":true,"internalType":"address"}],"anonymous":false},{"type":"event","name":"WithdrawalFlagSet","inputs":[{"name":"flag","type":"bool","indexed":false,"internalType":"bool"}],"anonymous":false},{"type":"error","name":"AccessControlBadConfirmation","inputs":[]},{"type":"error","name":"AccessControlUnauthorizedAccount","inputs":[{"name":"account","type":"address","internalType":"address"},{"name":"neededRole","type":"bytes32","internalType":"bytes32"}]},{"type":"error","name":"AddressEmptyCode","inputs":[{"name":"target","type":"address","internalType":"address"}]},{"type":"error","name":"ERC1967InvalidImplementation","inputs":[{"name":"implementation","type":"address","internalType":"address"}]},{"type":"error","name":"ERC1967NonPayable","inputs":[]},{"type":"error","name":"ERC20InsufficientAllowance","inputs":[{"name":"spender","type":"address","internalType":"address"},{"name":"allowance","type":"uint256","internalType":"uint256"},{"name":"needed","type":"uint256","internalType":"uint256"}]},{"type":"error","name":"ERC20InsufficientBalance","inputs":[{"name":"sender","type":"address","internalType":"address"},{"name":"balance","type":"uint256","internalType":"uint256"},{"name":"needed","type":"uint256","internalType":"uint256"}]},{"type":"error","name":"ERC20InvalidApprover","inputs":[{"name":"approver","type":"address","internalType":"address"}]},{"type":"error","name":"ERC20InvalidReceiver","inputs":[{"name":"receiver","type":"address","internalType":"address"}]},{"type":"error","name":"ERC20InvalidSender","inputs":[{"name":"sender","type":"address","internalType":"address"}]},{"type":"error","name":"ERC20InvalidSpender","inputs":[{"name":"spender","type":"address","internalType":"address"}]},{"type":"error","name":"FailedInnerCall","inputs":[]},{"type":"error","name":"InvalidAmount","inputs":[]},{"type":"error","name":"InvalidFee","inputs":[]},{"type":"error","name":"InvalidInitialization","inputs":[]},{"type":"error","name":"InvalidShares","inputs":[]},{"type":"error","name":"InvalidSignature","inputs":[]},{"type":"error","name":"NotInitialized","inputs":[]},{"type":"error","name":"NotInitializing","inputs":[]},{"type":"error","name":"UUPSUnauthorizedCallContext","inputs":[]},{"type":"error","name":"UUPSUnsupportedProxiableUUID","inputs":[{"name":"slot","type":"bytes32","internalType":"bytes32"}]},{"type":"error","name":"Unauthorized","inputs":[{"name":"sender","type":"address","internalType":"address"}]},{"type":"error","name":"ValidatorForceExited","inputs":[]},{"type":"error","name":"WithdrawalsNotEnabled","inputs":[]},{"type":"error","name":"ZeroAddress","inputs":[]}],"bytecode":{"object":"0x60a060405230608052348015610013575f80fd5b5061001c610021565b6100d3565b7ff0c57e16840df040f15088dc2f81fe391c3923bec73e23a9662efc9c229c6a00805468010000000000000000900460ff16156100715760405163f92ee8a960e01b815260040160405180910390fd5b80546001600160401b03908116146100d05780546001600160401b0319166001600160401b0390811782556040519081527fc7f505b2f371ae2175ee4913f4499e1f2633a7b5936321eed1cdaeb6115181d29060200160405180910390a15b50565b608051612e2e6100f95f395f8181611d6a01528181611d930152611ec30152612e2e5ff3fe608060405260043610610243575f3560e01c806301ffc9a71461024757806306fdde031461027b578063095ea7b31461029c5780630a179327146102bb57806318160ddd146102dc57806321f96c65146102fe57806323b872dd14610330578063248a9ca31461034f578063285c78461461036e5780632f2ff15d1461038d578063313ce567146103ac578063323a5e0b146103c757806335faa416146103dc578063364bc15a146103e457806336568abe146104045780634c98a2a9146104235780634f1ef286146104425780635147a19f1461045557806352d1902d146104745780635c60da1b146104885780635f481dc51461049c5780636a627842146104bb5780636c84ce92146104e357806370a082311461050257806370ec42e81461052157806391d148541461054057806395d89b411461055f5780639dc29fac14610573578063a217fddf14610586578063a9059cbb14610599578063a968991b146105b8578063ad3cb1cc146105cc578063b3d7f6b9146105fc578063c63265411461061b578063c7c4ff461461063a578063cc2a9a5b14610659578063cff81d931461066c578063d0dbcd241461069e578063d31e22de146106b6578063d547741f146106d5578063d8bd5c2914610488578063d9f45008146106f4578063dd5626cf14610713578063dd62ed3e14610732578063e20ccec314610751578063e522538114610765578063e8cf860814610779578063eac79f5c14610798578063f36c8f5c146107b7578063f69e2046146107d7578063fd8e1638146107eb575b5f80fd5b348015610252575f80fd5b506102666102613660046124ef565b61080a565b60405190151581526020015b60405180910390f35b348015610286575f80fd5b5061028f610840565b6040516102729190612544565b3480156102a7575f80fd5b506102666102b6366004612571565b6108de565b3480156102c6575f80fd5b506102da6102d53660046125a6565b6108f5565b005b3480156102e7575f80fd5b506102f0610951565b604051908152602001610272565b348015610309575f80fd5b505f5461032390600160201b90046001600160a01b031681565b60405161027291906125c1565b34801561033b575f80fd5b5061026661034a3660046125d5565b610965565b34801561035a575f80fd5b506102f061036936600461260f565b61098a565b348015610379575f80fd5b5061026661038836600461266a565b6109a8565b348015610398575f80fd5b506102da6103a73660046126a8565b610a1f565b3480156103b7575f80fd5b5060405160128152602001610272565b3480156103d2575f80fd5b506102f060045481565b6102da610a41565b3480156103ef575f80fd5b506102f05f80516020612db983398151915281565b34801561040f575f80fd5b506102da61041e3660046126a8565b610ab8565b34801561042e575f80fd5b506102da61043d3660046126d2565b610af0565b6102da61045036600461272d565b610d56565b348015610460575f80fd5b50600354610323906001600160a01b031681565b34801561047f575f80fd5b506102f0610d75565b348015610493575f80fd5b50610323610d90565b3480156104a7575f80fd5b506102da6104b63660046127ee565b610d9e565b6104ce6104c9366004612858565b610e79565b60408051928352602083019190915201610272565b3480156104ee575f80fd5b506102da6104fd366004612871565b610f4c565b34801561050d575f80fd5b506102f061051c366004612858565b610fc8565b34801561052c575f80fd5b5061026661053b366004612858565b610ff1565b34801561054b575f80fd5b5061026661055a3660046126a8565b611005565b34801561056a575f80fd5b5061028f611039565b6104ce610581366004612571565b611055565b348015610591575f80fd5b506102f05f81565b3480156105a4575f80fd5b506102666105b3366004612571565b611182565b3480156105c3575f80fd5b506102f061118f565b3480156105d7575f80fd5b5061028f604051806040016040528060058152602001640352e302e360dc1b81525081565b348015610607575f80fd5b506104ce61061636600461260f565b6111bf565b348015610626575f80fd5b50600254610323906001600160a01b031681565b348015610645575f80fd5b50600154610323906001600160a01b031681565b6102da610667366004612892565b611311565b348015610677575f80fd5b505f5461068b9062010000900461ffff1681565b60405161ffff9091168152602001610272565b3480156106a9575f80fd5b505f546102669060ff1681565b3480156106c1575f80fd5b5061028f6106d036600461266a565b611579565b3480156106e0575f80fd5b506102da6106ef3660046126a8565b611632565b3480156106ff575f80fd5b5061026661070e36600461266a565b61164e565b34801561071e575f80fd5b506104ce61072d36600461260f565b611685565b34801561073d575f80fd5b506102f061074c366004612902565b6117aa565b34801561075c575f80fd5b506102f06117e4565b348015610770575f80fd5b506102f06118cd565b348015610784575f80fd5b50610266610793366004612858565b611976565b3480156107a3575f80fd5b506102f06107b236600461266a565b61198e565b3480156107c2575f80fd5b506102f05f80516020612d9983398151915281565b3480156107e2575f80fd5b506102da6119c0565b3480156107f6575f80fd5b5061026661080536600461266a565b611a2a565b5f6001600160e01b03198216637965db0b60e01b148061083a57506301ffc9a760e01b6001600160e01b03198316145b92915050565b60605f61084b611a3e565b905080600301805461085c9061292a565b80601f01602080910402602001604051908101604052809291908181526020018280546108889061292a565b80156108d35780601f106108aa576101008083540402835291602001916108d3565b820191905f5260205f20905b8154815290600101906020018083116108b657829003601f168201915b505050505091505090565b5f336108eb818585611a62565b5060019392505050565b61090b5f80516020612d99833981519152611a6f565b5f805460ff19168215159081179091556040519081527f09f6cacdd6b4c37d0cb86d51eaf7c86c80a56a472983305372533afe2b8944cd9060200160405180910390a150565b5f8061095b611a3e565b6002015492915050565b5f33610972858285611a7c565b61097d858585611ac6565b60019150505b9392505050565b5f80610994611b23565b5f9384526020525050604090206001015490565b5f805460405163bab97c7b60e01b8152600160201b9091046001600160a01b03169063bab97c7b906109e0908690869060040161298a565b602060405180830381865afa1580156109fb573d5f803e3d5ffd5b505050506040513d601f19601f8201168201806040525081019061098391906129a5565b610a288261098a565b610a3181611a6f565b610a3b8383611b47565b50505050565b6003546001600160a01b03163314610a77573360405163472511eb60e11b8152600401610a6e91906125c1565b60405180910390fd5b610a8034611be5565b50506040513481527ff2e5cfae4c990f32807a4db8277440db70d23f8157e11efeb28e0f8ed03b6992915060200160405180910390a1565b6001600160a01b0381163314610ae15760405163334bd91960e11b815260040160405180910390fd5b610aeb8282611ce9565b505050565b6001546001600160a01b03163314801590610b1657506002546001600160a01b03163314155b15610b36573360405163472511eb60e11b8152600401610a6e91906125c1565b60075f8484604051610b499291906129c0565b604080519182900390912082526020820192909252015f205460ff1615610b835760405163ccacce1760e01b815260040160405180910390fd5b5f60055f8585604051610b979291906129c0565b604051809103902081526020019081526020015f205490505f821315610bc857610bc182826129e3565b9050610bde565b610bd1826129f6565b610bdb9082612a10565b90505b8060055f8686604051610bf29291906129c0565b604051809103902081526020019081526020015f20819055505f82138015610c46575060065f8585604051610c289291906129c0565b604080519182900390912082526020820192909252015f205460ff16155b15610c8c57600160065f8686604051610c609291906129c0565b604051809103902081526020019081526020015f205f6101000a81548160ff0219169083151502179055505b805f03610d13575f60065f8686604051610ca79291906129c0565b604051809103902081526020019081526020015f205f6101000a81548160ff021916908315150217905550600160075f8686604051610ce79291906129c0565b604051809103902081526020019081526020015f205f6101000a81548160ff0219169083151502179055505b7fa5bea757bb72668a3c0367531753fa2abe1f41fa5350c1ca2ea00e389142977d84848484604051610d489493929190612a23565b60405180910390a150505050565b610d5e611d5f565b610d6782611def565b610d718282611e05565b5050565b5f610d7e611eb8565b505f80516020612dd983398151915290565b5f610d99611f01565b905090565b610db45f80516020612d99833981519152611a6f565b60608114610dd557604051638baa579f60e01b815260040160405180910390fd5b7ff6264d2abe564bd9e947ca7b04c316d918404eb99cbc6fe81925f781b375909a848460085f8888604051610e0b9291906129c0565b604051809103902081526020019081526020015f208585604051610e33959493929190612a49565b60405180910390a1818160085f8787604051610e509291906129c0565b604051809103902081526020019081526020015f209182610e72929190612b55565b5050505050565b5f80610e836119c0565b6004545f610e8f610951565b90505f80610e9c34611be5565b919750925090508315801590610eb157508215155b610ebb5781610ed0565b83610ec68385612c09565b610ed09190612c20565b9450845f03610ef257604051636edcc52360e01b815260040160405180910390fd5b610efc8786611f1c565b866001600160a01b03167f94c792774c59479f7bd68442f3af3691c02123a5aabee8b6f9116d8af8aa666987848885604051610f3b9493929190612c3f565b60405180910390a250505050915091565b610f625f80516020612d99833981519152611a6f565b5f546040805161ffff620100009093048316815291831660208301527f5ecdb05a18fc8f28b118a36992b31c20907222962fd18399e8c1a249979af855910160405180910390a15f805461ffff909216620100000263ffff000019909216919091179055565b5f80610fd2611a3e565b6001600160a01b039093165f9081526020939093525050604090205490565b5f61083a5f80516020612d99833981519152835b5f8061100f611b23565b5f948552602090815260408086206001600160a01b03959095168652939052505090205460ff1690565b60605f611044611a3e565b905080600401805461085c9061292a565b5f8054819060ff1661107a576040516309a2a07d60e11b815260040160405180910390fd5b6110826119c0565b5f61108b610951565b9050831580611098575080155b156110b657604051636edcc52360e01b815260040160405180910390fd5b80846004546110c59190612c09565b6110cf9190612c20565b9150815f036110f15760405163162908e360e11b815260040160405180910390fd5b6110fb3385611f50565b34670de0b6b3a7640000811015611125576040516358d620b360e01b815260040160405180910390fd5b611130868483611f84565b9350856001600160a01b03167f4d667732637549615f3cd28023b13380094dd975c0ac7c1b26916a8b1363b7ec858588856040516111719493929190612c3f565b60405180910390a250509250929050565b5f336108eb818585611ac6565b5f806111996117e4565b905060045481116111b757806004546111b29190612a10565b6111b9565b5f5b91505090565b5f80548190610100900460ff166111da57505f928392509050565b600354604080516317b963bf60e21b815281515f936001600160a01b031692635ee58efc92600480820193918290030181865afa15801561121d573d5f803e3d5ffd5b505050506040513d601f19601f820116820180604052508101906112419190612c5a565b50670de0b6b3a764000092509050678ac7230489e8000061126283826129e3565b85101561127557505f9485945092505050565b5f61127e610951565b60045490915083156112b457670de0b6b3a7640000808511156112b2576112a58186612a10565b6112af90836129e3565b91505b505b5f6112bf8689612a10565b90508115806112cc575082155b156112d9578096506112f1565b816112e48285612c09565b6112ee9190612c20565b96505b865f0361130757505f9788975095505050505050565b5050505050915091565b5f61131a612041565b805490915060ff600160401b82041615906001600160401b03165f811580156113405750825b90505f826001600160401b0316600114801561135b5750303b155b905081158015611369575080155b156113875760405163f92ee8a960e01b815260040160405180910390fd5b84546001600160401b031916600117855583156113b057845460ff60401b1916600160401b1785555b6001600160a01b038b1615806113cd57506001600160a01b038916155b806113df57506001600160a01b038816155b806113f157506001600160a01b038716155b8061140357506001600160a01b038616155b156114215760405163d92e233d60e01b815260040160405180910390fd5b61146d6040518060400160405280600d81526020016c496e667261726564204245524160981b81525060405180604001604052806005815260200164694245524160d81b815250612065565b611475612077565b5f8054600160201b600160c01b031916600160201b6001600160a01b038c811691909102919091178255600180546001600160a01b03199081168c8416179091556002805482168b8416179055600380549091169189169190911790556114dc908c611b47565b506114f45f80516020612d998339815191528c611b47565b5061150c5f80516020612db98339815191528b611b47565b505f805461ff00191661010017905561152430610e79565b5050831561156c57845460ff60401b19168555604051600181527fc7f505b2f371ae2175ee4913f4499e1f2633a7b5936321eed1cdaeb6115181d29060200160405180910390a15b5050505050505050505050565b606060085f848460405161158e9291906129c0565b604051809103902081526020019081526020015f2080546115ae9061292a565b80601f01602080910402602001604051908101604052809291908181526020018280546115da9061292a565b80156116255780601f106115fc57610100808354040283529160200191611625565b820191905f5260205f20905b81548152906001019060200180831161160857829003601f168201915b5050505050905092915050565b61163b8261098a565b61164481611a6f565b610a3b8383611ce9565b5f60065f84846040516116629291906129c0565b604080519182900390912082526020820192909252015f205460ff169392505050565b5f80548190610100900460ff16158061169c575082155b156116ab57505f928392509050565b600354604080516317b963bf60e21b815281515f936001600160a01b031692635ee58efc92600480820193918290030181865afa1580156116ee573d5f803e3d5ffd5b505050506040513d601f19601f820116820180604052508101906117129190612c5a565b5090505f61171e610951565b9050805f0361173b57505f94670de0b6b3a7640000945092505050565b600454821561176e57670de0b6b3a76400008084111561176c5761175f8185612a10565b61176990836129e3565b91505b505b816117798783612c09565b6117839190612c20565b9450670de0b6b3a76400009350845f036117a2575f9450505050915091565b505050915091565b5f806117b4611a3e565b6001600160a01b039485165f90815260019190910160209081526040808320959096168252939093525050205490565b6002546040805163959b13d960e01b815290515f926001600160a01b03169163959b13d99160048083019260209291908290030181865afa15801561182b573d5f803e3d5ffd5b505050506040513d601f19601f8201168201806040525081019061184f9190612c7c565b60015f9054906101000a90046001600160a01b03166001600160a01b03166375172a8b6040518163ffffffff1660e01b8152600401602060405180830381865afa15801561189f573d5f803e3d5ffd5b505050506040513d601f19601f820116820180604052508101906118c39190612c7c565b610d9991906129e3565b5f8054600160201b90046001600160a01b03163314611901573360405163472511eb60e11b8152600401610a6e91906125c1565b60035f9054906101000a90046001600160a01b03166001600160a01b031663e52253816040518163ffffffff1660e01b81526004016020604051808303815f875af1158015611952573d5f803e3d5ffd5b505050506040513d601f19601f82011682018060405250810190610d999190612c7c565b5f61083a5f80516020612db983398151915283611005565b5f60055f84846040516119a29291906129c0565b604051809103902081526020019081526020015f2054905092915050565b60035460408051631afd520b60e11b815281516001600160a01b03909316926335faa4169260048084019391929182900301815f875af1158015611a06573d5f803e3d5ffd5b505050506040513d601f19601f82011682018060405250810190610d719190612c5a565b5f60075f84846040516116629291906129c0565b7f52c63247e1f47db19d5ce0460030c497f067ca4cebf71ba98eeadabe20bace0090565b610aeb838383600161208f565b611a79813361216f565b50565b5f611a8784846117aa565b90505f198114610a3b5781811015611ab857828183604051637dc7a0d960e11b8152600401610a6e93929190612c93565b610a3b84848484035f61208f565b6001600160a01b038316611aef575f604051634b637e8f60e11b8152600401610a6e91906125c1565b6001600160a01b038216611b18575f60405163ec442f0560e01b8152600401610a6e91906125c1565b610aeb83838361219a565b7f02dd7bc7dec4dceedda775e58dd541e08a116c6c53815c0bd028192f7b62680090565b5f80611b51611b23565b9050611b5d8484611005565b611bdc575f848152602082815260408083206001600160a01b03871684529091529020805460ff19166001179055611b923390565b6001600160a01b0316836001600160a01b0316857f2f8788117e7eff1d82e926ec794901d17c78024a50270940304540a733656f0d60405160405180910390a4600191505061083a565b5f91505061083a565b5f805481908190610100900460ff16611c11576040516321c4e35760e21b815260040160405180910390fd5b50670de0b6b3a7640000678ac7230489e80000611c2e82826129e3565b851015611c4e5760405163162908e360e11b815260040160405180910390fd5b611c588286612a10565b92508260045f828254611c6b91906129e3565b909155505060015460405163ddf0b00960e01b8152600481018590526001600160a01b039091169063ddf0b00990879060240160206040518083038185885af1158015611cba573d5f803e3d5ffd5b50505050506040513d601f19601f82011682018060405250810190611cdf9190612c7c565b9350509193909250565b5f80611cf3611b23565b9050611cff8484611005565b15611bdc575f848152602082815260408083206001600160a01b0387168085529252808320805460ff1916905551339287917ff6391f5c32d9c69d2a47ea670b442974b53935d1edc7fd64eb21e047a839171b9190a4600191505061083a565b306001600160a01b037f0000000000000000000000000000000000000000000000000000000000000000161480611dcf57507f00000000000000000000000000000000000000000000000000000000000000006001600160a01b0316611dc3611f01565b6001600160a01b031614155b15611ded5760405163703e46dd60e11b815260040160405180910390fd5b565b611a795f80516020612d99833981519152611a6f565b816001600160a01b03166352d1902d6040518163ffffffff1660e01b8152600401602060405180830381865afa925050508015611e5f575060408051601f3d908101601f19168201909252611e5c91810190612c7c565b60015b611e7e5781604051634c9c8ce360e01b8152600401610a6e91906125c1565b5f80516020612dd98339815191528114611eae57604051632a87526960e21b815260048101829052602401610a6e565b610aeb83836122bd565b306001600160a01b037f00000000000000000000000000000000000000000000000000000000000000001614611ded5760405163703e46dd60e11b815260040160405180910390fd5b5f80516020612dd9833981519152546001600160a01b031690565b6001600160a01b038216611f45575f60405163ec442f0560e01b8152600401610a6e91906125c1565b610d715f838361219a565b6001600160a01b038216611f79575f604051634b637e8f60e11b8152600401610a6e91906125c1565b610d71825f8361219a565b5f8054610100900460ff16611fac576040516321c4e35760e21b815260040160405180910390fd5b600254604051634428711360e01b81526001600160a01b03909116906344287113908490611fe09088908890600401612cb4565b60206040518083038185885af1158015611ffc573d5f803e3d5ffd5b50505050506040513d601f19601f820116820180604052508101906120219190612c7c565b90508260045f8282546120349190612a10565b9091555090949350505050565b7ff0c57e16840df040f15088dc2f81fe391c3923bec73e23a9662efc9c229c6a0090565b61206d612312565b610d718282612337565b61207f612312565b612087612367565b611ded612367565b5f612098611a3e565b90506001600160a01b0385166120c3575f60405163e602df0560e01b8152600401610a6e91906125c1565b6001600160a01b0384166120ec575f604051634a1406b160e11b8152600401610a6e91906125c1565b6001600160a01b038086165f90815260018301602090815260408083209388168352929052208390558115610e7257836001600160a01b0316856001600160a01b03167f8c5be1e5ebec7d5bd14f71427d1e84f3dd0314c0f7b2291e5b200ac8c7c3b9258560405161216091815260200190565b60405180910390a35050505050565b6121798282611005565b610d7157808260405163e2517d3f60e01b8152600401610a6e929190612cb4565b5f6121a3611a3e565b90506001600160a01b0384166121d15781816002015f8282546121c691906129e3565b9091555061222e9050565b6001600160a01b0384165f90815260208290526040902054828110156122105784818460405163391434e360e21b8152600401610a6e93929190612c93565b6001600160a01b0385165f9081526020839052604090209083900390555b6001600160a01b03831661224c57600281018054839003905561226a565b6001600160a01b0383165f9081526020829052604090208054830190555b826001600160a01b0316846001600160a01b03167fddf252ad1be2c89b69c2b068fc378daa952ba7f163c4a11628f55a4df523b3ef846040516122af91815260200190565b60405180910390a350505050565b6122c68261236f565b6040516001600160a01b038316907fbc7cd75a20ee27fd9adebab32041f755214dbc6bffa90cc0225b39da2e5c2d3b905f90a280511561230a57610aeb82826123c9565b610d7161243b565b61231a61245a565b611ded57604051631afcd79f60e31b815260040160405180910390fd5b61233f612312565b5f612348611a3e565b9050600381016123588482612ccd565b5060048101610a3b8382612ccd565b611ded612312565b806001600160a01b03163b5f0361239b5780604051634c9c8ce360e01b8152600401610a6e91906125c1565b5f80516020612dd983398151915280546001600160a01b0319166001600160a01b0392909216919091179055565b60605f80846001600160a01b0316846040516123e59190612d82565b5f60405180830381855af49150503d805f811461241d576040519150601f19603f3d011682016040523d82523d5f602084013e612422565b606091505b5091509150612432858383612473565b95945050505050565b3415611ded5760405163b398979f60e01b815260040160405180910390fd5b5f612463612041565b54600160401b900460ff16919050565b60608261248857612483826124c6565b610983565b815115801561249f57506001600160a01b0384163b155b156124bf5783604051639996b31560e01b8152600401610a6e91906125c1565b5080610983565b8051156124d65780518082602001fd5b604051630a12f52160e11b815260040160405180910390fd5b5f602082840312156124ff575f80fd5b81356001600160e01b031981168114610983575f80fd5b5f81518084528060208401602086015e5f602082860101526020601f19601f83011685010191505092915050565b602081525f6109836020830184612516565b80356001600160a01b038116811461256c575f80fd5b919050565b5f8060408385031215612582575f80fd5b61258b83612556565b946020939093013593505050565b8015158114611a79575f80fd5b5f602082840312156125b6575f80fd5b813561098381612599565b6001600160a01b0391909116815260200190565b5f805f606084860312156125e7575f80fd5b6125f084612556565b92506125fe60208501612556565b929592945050506040919091013590565b5f6020828403121561261f575f80fd5b5035919050565b5f8083601f840112612636575f80fd5b5081356001600160401b0381111561264c575f80fd5b602083019150836020828501011115612663575f80fd5b9250929050565b5f806020838503121561267b575f80fd5b82356001600160401b03811115612690575f80fd5b61269c85828601612626565b90969095509350505050565b5f80604083850312156126b9575f80fd5b823591506126c960208401612556565b90509250929050565b5f805f604084860312156126e4575f80fd5b83356001600160401b038111156126f9575f80fd5b61270586828701612626565b909790965060209590950135949350505050565b634e487b7160e01b5f52604160045260245ffd5b5f806040838503121561273e575f80fd5b61274783612556565b915060208301356001600160401b03811115612761575f80fd5b8301601f81018513612771575f80fd5b80356001600160401b0381111561278a5761278a612719565b604051601f8201601f19908116603f011681016001600160401b03811182821017156127b8576127b8612719565b6040528181528282016020018710156127cf575f80fd5b816020840160208301375f602083830101528093505050509250929050565b5f805f8060408587031215612801575f80fd5b84356001600160401b03811115612816575f80fd5b61282287828801612626565b90955093505060208501356001600160401b03811115612840575f80fd5b61284c87828801612626565b95989497509550505050565b5f60208284031215612868575f80fd5b61098382612556565b5f60208284031215612881575f80fd5b813561ffff81168114610983575f80fd5b5f805f805f8060c087890312156128a7575f80fd5b6128b087612556565b95506128be60208801612556565b94506128cc60408801612556565b93506128da60608801612556565b92506128e860808801612556565b91506128f660a08801612556565b90509295509295509295565b5f8060408385031215612913575f80fd5b61291c83612556565b91506126c960208401612556565b600181811c9082168061293e57607f821691505b60208210810361295c57634e487b7160e01b5f52602260045260245ffd5b50919050565b81835281816020850137505f828201602090810191909152601f909101601f19169091010190565b602081525f61299d602083018486612962565b949350505050565b5f602082840312156129b5575f80fd5b815161098381612599565b818382375f9101908152919050565b634e487b7160e01b5f52601160045260245ffd5b8082018082111561083a5761083a6129cf565b5f600160ff1b8201612a0a57612a0a6129cf565b505f0390565b8181038181111561083a5761083a6129cf565b606081525f612a36606083018688612962565b6020830194909452506040015292915050565b606081525f612a5c606083018789612962565b82810360208401525f8654612a708161292a565b808452600182168015612a8a5760018114612aa657612ada565b60ff1983166020860152602082151560051b8601019350612ada565b895f5260205f205f5b83811015612ad157815460208289010152600182019150602081019050612aaf565b86016020019450505b5050508381036040850152612af0818688612962565b9998505050505050505050565b601f821115610aeb57805f5260205f20601f840160051c81016020851015612b225750805b601f840160051c820191505b81811015610e72575f8155600101612b2e565b5f19600383901b1c191660019190911b1790565b6001600160401b03831115612b6c57612b6c612719565b612b8083612b7a835461292a565b83612afd565b5f601f841160018114612bac575f8515612b9a5750838201355b612ba48682612b41565b845550610e72565b5f83815260208120601f198716915b82811015612bdb5786850135825560209485019460019092019101612bbb565b5086821015612bf7575f1960f88860031b161c19848701351681555b505060018560011b0183555050505050565b808202811582820484141761083a5761083a6129cf565b5f82612c3a57634e487b7160e01b5f52601260045260245ffd5b500490565b93845260208401929092526040830152606082015260800190565b5f8060408385031215612c6b575f80fd5b505080516020909101519092909150565b5f60208284031215612c8c575f80fd5b5051919050565b6001600160a01b039390931683526020830191909152604082015260600190565b6001600160a01b03929092168252602082015260400190565b81516001600160401b03811115612ce657612ce6612719565b612cfa81612cf4845461292a565b84612afd565b6020601f821160018114612d27575f8315612d155750848201515b612d1f8482612b41565b855550610e72565b5f84815260208120601f198516915b82811015612d565787850151825560209485019460019092019101612d36565b5084821015612d7357868401515f19600387901b60f8161c191681555b50505050600190811b01905550565b5f82518060208501845e5f92019182525091905056fe71840dc4906352362b0cdaf79870196c8e42acafade72d5d5a6d59291253ceb1fc8737ab85eb45125971625a9ebdb75cc78e01d5c1fa80c4c6e5203f47bc4fab360894a13ba1a3210667c828492db98dca3e2076cc3735a920a3ca505d382bbca264697066735822122008c941ef52181d806c1ad62e619432df0ebc8475803111964a8caddb58d8dccb64736f6c634300081a0033","linkReferences":{}},"methodIdentifiers":{"DEFAULT_ADMIN_ROLE()":"a217fddf","GOVERNANCE_ROLE()":"f36c8f5c","KEEPER_ROLE()":"364bc15a","UPGRADE_INTERFACE_VERSION()":"ad3cb1cc","allowance(address,address)":"dd62ed3e","approve(address,uint256)":"095ea7b3","balanceOf(address)":"70a08231","burn(address,uint256)":"9dc29fac","collect()":"e5225381","compound()":"f69e2046","confirmed()":"a968991b","currentImplementation()":"d8bd5c29","decimals()":"313ce567","depositor()":"c7c4ff46","deposits()":"323a5e0b","feeDivisorShareholders()":"cff81d93","getRoleAdmin(bytes32)":"248a9ca3","governor(address)":"70ec42e8","grantRole(bytes32,address)":"2f2ff15d","hasExited(bytes)":"fd8e1638","hasRole(bytes32,address)":"91d14854","implementation()":"5c60da1b","infrared()":"21f96c65","initialize(address,address,address,address,address,address)":"cc2a9a5b","keeper(address)":"e8cf8608","mint(address)":"6a627842","name()":"06fdde03","pending()":"e20ccec3","previewBurn(uint256)":"dd5626cf","previewMint(uint256)":"b3d7f6b9","proxiableUUID()":"52d1902d","receivor()":"5147a19f","register(bytes,int256)":"4c98a2a9","renounceRole(bytes32,address)":"36568abe","revokeRole(bytes32,address)":"d547741f","setDepositSignature(bytes,bytes)":"5f481dc5","setFeeDivisorShareholders(uint16)":"6c84ce92","setWithdrawalsEnabled(bool)":"0a179327","signatures(bytes)":"d31e22de","staked(bytes)":"d9f45008","stakes(bytes)":"eac79f5c","supportsInterface(bytes4)":"01ffc9a7","sweep()":"35faa416","symbol()":"95d89b41","totalSupply()":"18160ddd","transfer(address,uint256)":"a9059cbb","transferFrom(address,address,uint256)":"23b872dd","upgradeToAndCall(address,bytes)":"4f1ef286","validator(bytes)":"285c7846","withdrawalsEnabled()":"d0dbcd24","withdrawor()":"c6326541"},"id":104}