{"abi":[{"type":"function","name":"NATIVE_ASSET","inputs":[],"outputs":[{"name":"","type":"address","internalType":"address"}],"stateMutability":"view"}],"bytecode":{"object":"0x60a26032600b8282823980515f1a607314602657634e487b7160e01b5f525f60045260245ffd5b305f52607381538281f3fe73000000000000000000000000000000000000000030146080604052600436106032575f3560e01c8063bf53253b146036575b5f80fd5b605073eeeeeeeeeeeeeeeeeeeeeeeeeeeeeeeeeeeeeeee81565b6040516001600160a01b03909116815260200160405180910390f3fea2646970667358221220a147cad68ba03421af003bbda0347e8b93195dd912a26cef07cd5e6561b7688064736f6c634300081a0033","linkReferences":{}},"methodIdentifiers":{"NATIVE_ASSET()":"bf53253b"},"id":111}