{"abi":[{"type":"constructor","inputs":[],"stateMutability":"nonpayable"},{"type":"receive","stateMutability":"payable"},{"type":"function","name":"DEFAULT_ADMIN_ROLE","inputs":[],"outputs":[{"name":"","type":"bytes32","internalType":"bytes32"}],"stateMutability":"view"},{"type":"function","name":"GOVERNANCE_ROLE","inputs":[],"outputs":[{"name":"","type":"bytes32","internalType":"bytes32"}],"stateMutability":"view"},{"type":"function","name":"KEEPER_ROLE","inputs":[],"outputs":[{"name":"","type":"bytes32","internalType":"bytes32"}],"stateMutability":"view"},{"type":"function","name":"REWARDS_STORAGE_LOCATION","inputs":[],"outputs":[{"name":"","type":"bytes32","internalType":"bytes32"}],"stateMutability":"view"},{"type":"function","name":"UPGRADE_INTERFACE_VERSION","inputs":[],"outputs":[{"name":"","type":"string","internalType":"string"}],"stateMutability":"view"},{"type":"function","name":"VALIDATOR_STORAGE_LOCATION","inputs":[],"outputs":[{"name":"","type":"bytes32","internalType":"bytes32"}],"stateMutability":"view"},{"type":"function","name":"VAULT_STORAGE_LOCATION","inputs":[],"outputs":[{"name":"","type":"bytes32","internalType":"bytes32"}],"stateMutability":"view"},{"type":"function","name":"activateBoosts","inputs":[{"name":"_pubkeys","type":"bytes[]","internalType":"bytes[]"}],"outputs":[],"stateMutability":"nonpayable"},{"type":"function","name":"addIncentives","inputs":[{"name":"_stakingToken","type":"address","internalType":"address"},{"name":"_rewardsToken","type":"address","internalType":"address"},{"name":"_amount","type":"uint256","internalType":"uint256"}],"outputs":[],"stateMutability":"nonpayable"},{"type":"function","name":"addReward","inputs":[{"name":"_stakingToken","type":"address","internalType":"address"},{"name":"_rewardsToken","type":"address","internalType":"address"},{"name":"_rewardsDuration","type":"uint256","internalType":"uint256"}],"outputs":[],"stateMutability":"nonpayable"},{"type":"function","name":"addValidators","inputs":[{"name":"_validators","type":"tuple[]","internalType":"struct ValidatorTypes.Validator[]","components":[{"name":"pubkey","type":"bytes","internalType":"bytes"},{"name":"addr","type":"address","internalType":"address"}]}],"outputs":[],"stateMutability":"nonpayable"},{"type":"function","name":"cancelBoosts","inputs":[{"name":"_pubkeys","type":"bytes[]","internalType":"bytes[]"},{"name":"_amts","type":"uint128[]","internalType":"uint128[]"}],"outputs":[],"stateMutability":"nonpayable"},{"type":"function","name":"cancelDropBoosts","inputs":[{"name":"_pubkeys","type":"bytes[]","internalType":"bytes[]"},{"name":"_amts","type":"uint128[]","internalType":"uint128[]"}],"outputs":[],"stateMutability":"nonpayable"},{"type":"function","name":"chargedFeesOnRewards","inputs":[{"name":"_amt","type":"uint256","internalType":"uint256"},{"name":"_feeTotal","type":"uint256","internalType":"uint256"},{"name":"_feeProtocol","type":"uint256","internalType":"uint256"}],"outputs":[{"name":"amtRecipient","type":"uint256","internalType":"uint256"},{"name":"amtVoter","type":"uint256","internalType":"uint256"},{"name":"amtProtocol","type":"uint256","internalType":"uint256"}],"stateMutability":"view"},{"type":"function","name":"chef","inputs":[],"outputs":[{"name":"","type":"address","internalType":"contract IBeraChef"}],"stateMutability":"view"},{"type":"function","name":"claimLostRewardsOnVault","inputs":[{"name":"_asset","type":"address","internalType":"address"}],"outputs":[],"stateMutability":"nonpayable"},{"type":"function","name":"claimProtocolFees","inputs":[{"name":"_to","type":"address","internalType":"address"},{"name":"_token","type":"address","internalType":"address"},{"name":"_amount","type":"uint256","internalType":"uint256"}],"outputs":[],"stateMutability":"nonpayable"},{"type":"function","name":"collectBribes","inputs":[{"name":"_token","type":"address","internalType":"address"},{"name":"_amount","type":"uint256","internalType":"uint256"}],"outputs":[],"stateMutability":"nonpayable"},{"type":"function","name":"collector","inputs":[],"outputs":[{"name":"","type":"address","internalType":"contract IBribeCollector"}],"stateMutability":"view"},{"type":"function","name":"currentImplementation","inputs":[],"outputs":[{"name":"","type":"address","internalType":"address"}],"stateMutability":"view"},{"type":"function","name":"delegateBGT","inputs":[{"name":"_delegatee","type":"address","internalType":"address"}],"outputs":[],"stateMutability":"nonpayable"},{"type":"function","name":"distributor","inputs":[],"outputs":[{"name":"","type":"address","internalType":"contract IInfraredDistributor"}],"stateMutability":"view"},{"type":"function","name":"dropBoosts","inputs":[{"name":"_pubkeys","type":"bytes[]","internalType":"bytes[]"}],"outputs":[],"stateMutability":"nonpayable"},{"type":"function","name":"fees","inputs":[{"name":"t","type":"uint256","internalType":"uint256"}],"outputs":[{"name":"","type":"uint256","internalType":"uint256"}],"stateMutability":"view"},{"type":"function","name":"getBGTBalance","inputs":[],"outputs":[{"name":"","type":"uint256","internalType":"uint256"}],"stateMutability":"view"},{"type":"function","name":"getRoleAdmin","inputs":[{"name":"role","type":"bytes32","internalType":"bytes32"}],"outputs":[{"name":"","type":"bytes32","internalType":"bytes32"}],"stateMutability":"view"},{"type":"function","name":"grantRole","inputs":[{"name":"role","type":"bytes32","internalType":"bytes32"},{"name":"account","type":"address","internalType":"address"}],"outputs":[],"stateMutability":"nonpayable"},{"type":"function","name":"harvestBase","inputs":[],"outputs":[],"stateMutability":"nonpayable"},{"type":"function","name":"harvestBoostRewards","inputs":[],"outputs":[],"stateMutability":"nonpayable"},{"type":"function","name":"harvestBribes","inputs":[{"name":"_tokens","type":"address[]","internalType":"address[]"}],"outputs":[],"stateMutability":"nonpayable"},{"type":"function","name":"harvestOperatorRewards","inputs":[],"outputs":[],"stateMutability":"nonpayable"},{"type":"function","name":"harvestVault","inputs":[{"name":"_asset","type":"address","internalType":"address"}],"outputs":[],"stateMutability":"nonpayable"},{"type":"function","name":"hasRole","inputs":[{"name":"role","type":"bytes32","internalType":"bytes32"},{"name":"account","type":"address","internalType":"address"}],"outputs":[{"name":"","type":"bool","internalType":"bool"}],"stateMutability":"view"},{"type":"function","name":"honey","inputs":[],"outputs":[{"name":"","type":"address","internalType":"contract ERC20"}],"stateMutability":"view"},{"type":"function","name":"ibera","inputs":[],"outputs":[{"name":"","type":"address","internalType":"contract IInfraredBERA"}],"stateMutability":"view"},{"type":"function","name":"ibgt","inputs":[],"outputs":[{"name":"","type":"address","internalType":"contract InfraredBGT"}],"stateMutability":"view"},{"type":"function","name":"ibgtVault","inputs":[],"outputs":[{"name":"","type":"address","internalType":"contract IInfraredVault"}],"stateMutability":"view"},{"type":"function","name":"implementation","inputs":[],"outputs":[{"name":"","type":"address","internalType":"address"}],"stateMutability":"view"},{"type":"function","name":"infrared","inputs":[],"outputs":[{"name":"","type":"address","internalType":"contract IInfrared"}],"stateMutability":"view"},{"type":"function","name":"infraredValidators","inputs":[],"outputs":[{"name":"validators","type":"tuple[]","internalType":"struct ValidatorTypes.Validator[]","components":[{"name":"pubkey","type":"bytes","internalType":"bytes"},{"name":"addr","type":"address","internalType":"address"}]}],"stateMutability":"view"},{"type":"function","name":"initialize","inputs":[{"name":"data","type":"tuple","internalType":"struct Infrared.InitializationData","components":[{"name":"_gov","type":"address","internalType":"address"},{"name":"_keeper","type":"address","internalType":"address"},{"name":"__bgt","type":"address","internalType":"address"},{"name":"_rewardsFactory","type":"address","internalType":"address"},{"name":"_chef","type":"address","internalType":"address"},{"name":"_wbera","type":"address","internalType":"address payable"},{"name":"_honey","type":"address","internalType":"address"},{"name":"_collector","type":"address","internalType":"address"},{"name":"_distributor","type":"address","internalType":"address"},{"name":"_voter","type":"address","internalType":"address"},{"name":"_iBERA","type":"address","internalType":"address"},{"name":"_rewardsDuration","type":"uint256","internalType":"uint256"}]}],"outputs":[],"stateMutability":"nonpayable"},{"type":"function","name":"isInfraredValidator","inputs":[{"name":"_validator","type":"bytes","internalType":"bytes"}],"outputs":[{"name":"","type":"bool","internalType":"bool"}],"stateMutability":"view"},{"type":"function","name":"numInfraredValidators","inputs":[],"outputs":[{"name":"","type":"uint256","internalType":"uint256"}],"stateMutability":"view"},{"type":"function","name":"protocolFeeAmounts","inputs":[{"name":"_token","type":"address","internalType":"address"}],"outputs":[{"name":"","type":"uint256","internalType":"uint256"}],"stateMutability":"view"},{"type":"function","name":"proxiableUUID","inputs":[],"outputs":[{"name":"","type":"bytes32","internalType":"bytes32"}],"stateMutability":"view"},{"type":"function","name":"queueBoosts","inputs":[{"name":"_pubkeys","type":"bytes[]","internalType":"bytes[]"},{"name":"_amts","type":"uint128[]","internalType":"uint128[]"}],"outputs":[],"stateMutability":"nonpayable"},{"type":"function","name":"queueDropBoosts","inputs":[{"name":"_pubkeys","type":"bytes[]","internalType":"bytes[]"},{"name":"_amts","type":"uint128[]","internalType":"uint128[]"}],"outputs":[],"stateMutability":"nonpayable"},{"type":"function","name":"queueNewCuttingBoard","inputs":[{"name":"_pubkey","type":"bytes","internalType":"bytes"},{"name":"_startBlock","type":"uint64","internalType":"uint64"},{"name":"_weights","type":"tuple[]","internalType":"struct IBeraChef.Weight[]","components":[{"name":"receiver","type":"address","internalType":"address"},{"name":"percentageNumerator","type":"uint96","internalType":"uint96"}]}],"outputs":[],"stateMutability":"nonpayable"},{"type":"function","name":"recoverERC20","inputs":[{"name":"_to","type":"address","internalType":"address"},{"name":"_token","type":"address","internalType":"address"},{"name":"_amount","type":"uint256","internalType":"uint256"}],"outputs":[],"stateMutability":"nonpayable"},{"type":"function","name":"recoverERC20FromVault","inputs":[{"name":"_asset","type":"address","internalType":"address"},{"name":"_to","type":"address","internalType":"address"},{"name":"_token","type":"address","internalType":"address"},{"name":"_amount","type":"uint256","internalType":"uint256"}],"outputs":[],"stateMutability":"nonpayable"},{"type":"function","name":"red","inputs":[],"outputs":[{"name":"","type":"address","internalType":"contract IRED"}],"stateMutability":"view"},{"type":"function","name":"registerVault","inputs":[{"name":"_asset","type":"address","internalType":"address"}],"outputs":[{"name":"vault","type":"address","internalType":"contract IInfraredVault"}],"stateMutability":"nonpayable"},{"type":"function","name":"removeValidators","inputs":[{"name":"_pubkeys","type":"bytes[]","internalType":"bytes[]"}],"outputs":[],"stateMutability":"nonpayable"},{"type":"function","name":"renounceRole","inputs":[{"name":"role","type":"bytes32","internalType":"bytes32"},{"name":"callerConfirmation","type":"address","internalType":"address"}],"outputs":[],"stateMutability":"nonpayable"},{"type":"function","name":"replaceValidator","inputs":[{"name":"_current","type":"bytes","internalType":"bytes"},{"name":"_new","type":"bytes","internalType":"bytes"}],"outputs":[],"stateMutability":"nonpayable"},{"type":"function","name":"revokeRole","inputs":[{"name":"role","type":"bytes32","internalType":"bytes32"},{"name":"account","type":"address","internalType":"address"}],"outputs":[],"stateMutability":"nonpayable"},{"type":"function","name":"rewardsDuration","inputs":[],"outputs":[{"name":"duration","type":"uint256","internalType":"uint256"}],"stateMutability":"view"},{"type":"function","name":"rewardsFactory","inputs":[],"outputs":[{"name":"","type":"address","internalType":"contract IRewardVaultFactory"}],"stateMutability":"view"},{"type":"function","name":"setIBGT","inputs":[{"name":"_ibgt","type":"address","internalType":"address"}],"outputs":[],"stateMutability":"nonpayable"},{"type":"function","name":"setRed","inputs":[{"name":"_red","type":"address","internalType":"address"}],"outputs":[],"stateMutability":"nonpayable"},{"type":"function","name":"setVaultRegistrationPauseStatus","inputs":[{"name":"pause","type":"bool","internalType":"bool"}],"outputs":[],"stateMutability":"nonpayable"},{"type":"function","name":"supportsInterface","inputs":[{"name":"interfaceId","type":"bytes4","internalType":"bytes4"}],"outputs":[{"name":"","type":"bool","internalType":"bool"}],"stateMutability":"view"},{"type":"function","name":"toggleVault","inputs":[{"name":"_asset","type":"address","internalType":"address"}],"outputs":[],"stateMutability":"nonpayable"},{"type":"function","name":"updateFee","inputs":[{"name":"_t","type":"uint8","internalType":"enum ConfigTypes.FeeType"},{"name":"_fee","type":"uint256","internalType":"uint256"}],"outputs":[],"stateMutability":"nonpayable"},{"type":"function","name":"updateInfraredBERABribesWeight","inputs":[{"name":"_weight","type":"uint256","internalType":"uint256"}],"outputs":[],"stateMutability":"nonpayable"},{"type":"function","name":"updateRedMintRate","inputs":[{"name":"_redMintRate","type":"uint256","internalType":"uint256"}],"outputs":[],"stateMutability":"nonpayable"},{"type":"function","name":"updateRewardsDuration","inputs":[{"name":"_rewardsDuration","type":"uint256","internalType":"uint256"}],"outputs":[],"stateMutability":"nonpayable"},{"type":"function","name":"updateRewardsDurationForVault","inputs":[{"name":"_stakingToken","type":"address","internalType":"address"},{"name":"_rewardsToken","type":"address","internalType":"address"},{"name":"_rewardsDuration","type":"uint256","internalType":"uint256"}],"outputs":[],"stateMutability":"nonpayable"},{"type":"function","name":"updateWhiteListedRewardTokens","inputs":[{"name":"_token","type":"address","internalType":"address"},{"name":"_whitelisted","type":"bool","internalType":"bool"}],"outputs":[],"stateMutability":"nonpayable"},{"type":"function","name":"upgradeToAndCall","inputs":[{"name":"newImplementation","type":"address","internalType":"address"},{"name":"data","type":"bytes","internalType":"bytes"}],"outputs":[],"stateMutability":"payable"},{"type":"function","name":"vaultRegistry","inputs":[{"name":"_stakingToken","type":"address","internalType":"address"}],"outputs":[{"name":"vault","type":"address","internalType":"contract IInfraredVault"}],"stateMutability":"view"},{"type":"function","name":"voter","inputs":[],"outputs":[{"name":"","type":"address","internalType":"contract IVoter"}],"stateMutability":"view"},{"type":"function","name":"wbera","inputs":[],"outputs":[{"name":"","type":"address","internalType":"contract IWBERA"}],"stateMutability":"view"},{"type":"function","name":"whitelistedRewardTokens","inputs":[{"name":"token","type":"address","internalType":"address"}],"outputs":[{"name":"","type":"bool","internalType":"bool"}],"stateMutability":"view"},{"type":"event","name":"ActivatedBoosts","inputs":[{"name":"_sender","type":"address","indexed":false,"internalType":"address"},{"name":"_pubkeys","type":"bytes[]","indexed":false,"internalType":"bytes[]"}],"anonymous":false},{"type":"event","name":"BaseHarvested","inputs":[{"name":"_sender","type":"address","indexed":false,"internalType":"address"},{"name":"_bgtAmt","type":"uint256","indexed":false,"internalType":"uint256"}],"anonymous":false},{"type":"event","name":"BribeSupplied","inputs":[{"name":"_recipient","type":"address","indexed":true,"internalType":"address"},{"name":"_token","type":"address","indexed":true,"internalType":"address"},{"name":"_amt","type":"uint256","indexed":false,"internalType":"uint256"}],"anonymous":false},{"type":"event","name":"BribesCollected","inputs":[{"name":"_sender","type":"address","indexed":false,"internalType":"address"},{"name":"_token","type":"address","indexed":false,"internalType":"address"},{"name":"_amtWiberaVault","type":"uint256","indexed":false,"internalType":"uint256"},{"name":"_amtIbgtVault","type":"uint256","indexed":false,"internalType":"uint256"}],"anonymous":false},{"type":"event","name":"CancelDropBoosts","inputs":[{"name":"user","type":"address","indexed":true,"internalType":"address"},{"name":"pubkeys","type":"bytes[]","indexed":true,"internalType":"bytes[]"},{"name":"amounts","type":"uint128[]","indexed":false,"internalType":"uint128[]"}],"anonymous":false},{"type":"event","name":"CancelledBoosts","inputs":[{"name":"_sender","type":"address","indexed":false,"internalType":"address"},{"name":"_pubkeys","type":"bytes[]","indexed":false,"internalType":"bytes[]"},{"name":"_amts","type":"uint128[]","indexed":false,"internalType":"uint128[]"}],"anonymous":false},{"type":"event","name":"DroppedBoosts","inputs":[{"name":"_sender","type":"address","indexed":true,"internalType":"address"},{"name":"_pubkeys","type":"bytes[]","indexed":false,"internalType":"bytes[]"}],"anonymous":false},{"type":"event","name":"FeeUpdated","inputs":[{"name":"_sender","type":"address","indexed":false,"internalType":"address"},{"name":"_feeType","type":"uint8","indexed":false,"internalType":"enum ConfigTypes.FeeType"},{"name":"_oldFeeRate","type":"uint256","indexed":false,"internalType":"uint256"},{"name":"_newFeeRate","type":"uint256","indexed":false,"internalType":"uint256"}],"anonymous":false},{"type":"event","name":"IBGTSet","inputs":[{"name":"_sender","type":"address","indexed":false,"internalType":"address"},{"name":"_ibgt","type":"address","indexed":false,"internalType":"address"}],"anonymous":false},{"type":"event","name":"InfraredBERABribesWeightUpdated","inputs":[{"name":"_sender","type":"address","indexed":false,"internalType":"address"},{"name":"_oldWeight","type":"uint256","indexed":false,"internalType":"uint256"},{"name":"_newWeight","type":"uint256","indexed":false,"internalType":"uint256"}],"anonymous":false},{"type":"event","name":"InfraredBGTSupplied","inputs":[{"name":"_vault","type":"address","indexed":true,"internalType":"address"},{"name":"_ibgtAmt","type":"uint256","indexed":false,"internalType":"uint256"},{"name":"_iredAmt","type":"uint256","indexed":false,"internalType":"uint256"}],"anonymous":false},{"type":"event","name":"InfraredBGTUpdated","inputs":[{"name":"_sender","type":"address","indexed":false,"internalType":"address"},{"name":"_oldIbgt","type":"address","indexed":false,"internalType":"address"},{"name":"_newIbgt","type":"address","indexed":false,"internalType":"address"}],"anonymous":false},{"type":"event","name":"InfraredBGTVaultUpdated","inputs":[{"name":"_sender","type":"address","indexed":false,"internalType":"address"},{"name":"_oldIbgtVault","type":"address","indexed":false,"internalType":"address"},{"name":"_newIbgtVault","type":"address","indexed":false,"internalType":"address"}],"anonymous":false},{"type":"event","name":"Initialized","inputs":[{"name":"version","type":"uint64","indexed":false,"internalType":"uint64"}],"anonymous":false},{"type":"event","name":"IredMintRateUpdated","inputs":[{"name":"_sender","type":"address","indexed":false,"internalType":"address"},{"name":"_oldMintRate","type":"uint256","indexed":false,"internalType":"uint256"},{"name":"_newMintRate","type":"uint256","indexed":false,"internalType":"uint256"}],"anonymous":false},{"type":"event","name":"NewVault","inputs":[{"name":"_sender","type":"address","indexed":false,"internalType":"address"},{"name":"_asset","type":"address","indexed":true,"internalType":"address"},{"name":"_vault","type":"address","indexed":true,"internalType":"address"}],"anonymous":false},{"type":"event","name":"OperatorRewardsDistributed","inputs":[{"name":"_ibera","type":"address","indexed":true,"internalType":"address"},{"name":"_distributor","type":"address","indexed":true,"internalType":"address"},{"name":"_amt","type":"uint256","indexed":false,"internalType":"uint256"}],"anonymous":false},{"type":"event","name":"ProtocolFees","inputs":[{"name":"_token","type":"address","indexed":true,"internalType":"address"},{"name":"_amt","type":"uint256","indexed":false,"internalType":"uint256"},{"name":"_voterAmt","type":"uint256","indexed":false,"internalType":"uint256"}],"anonymous":false},{"type":"event","name":"ProtocolFeesClaimed","inputs":[{"name":"_sender","type":"address","indexed":false,"internalType":"address"},{"name":"_to","type":"address","indexed":false,"internalType":"address"},{"name":"_token","type":"address","indexed":false,"internalType":"address"},{"name":"_amount","type":"uint256","indexed":false,"internalType":"uint256"}],"anonymous":false},{"type":"event","name":"QueueDropBoosts","inputs":[{"name":"user","type":"address","indexed":true,"internalType":"address"},{"name":"pubkeys","type":"bytes[]","indexed":true,"internalType":"bytes[]"},{"name":"amounts","type":"uint128[]","indexed":false,"internalType":"uint128[]"}],"anonymous":false},{"type":"event","name":"QueuedBoosts","inputs":[{"name":"_sender","type":"address","indexed":false,"internalType":"address"},{"name":"_pubkeys","type":"bytes[]","indexed":false,"internalType":"bytes[]"},{"name":"_amts","type":"uint128[]","indexed":false,"internalType":"uint128[]"}],"anonymous":false},{"type":"event","name":"Recovered","inputs":[{"name":"_sender","type":"address","indexed":false,"internalType":"address"},{"name":"_token","type":"address","indexed":true,"internalType":"address"},{"name":"_amount","type":"uint256","indexed":false,"internalType":"uint256"}],"anonymous":false},{"type":"event","name":"RedSet","inputs":[{"name":"_sender","type":"address","indexed":false,"internalType":"address"},{"name":"_red","type":"address","indexed":false,"internalType":"address"}],"anonymous":false},{"type":"event","name":"Redelegated","inputs":[{"name":"_sender","type":"address","indexed":false,"internalType":"address"},{"name":"_from","type":"bytes","indexed":false,"internalType":"bytes"},{"name":"_to","type":"bytes","indexed":false,"internalType":"bytes"},{"name":"_amt","type":"uint256","indexed":false,"internalType":"uint256"}],"anonymous":false},{"type":"event","name":"RewardSupplied","inputs":[{"name":"_vault","type":"address","indexed":true,"internalType":"address"},{"name":"_token","type":"address","indexed":true,"internalType":"address"},{"name":"_amt","type":"uint256","indexed":false,"internalType":"uint256"}],"anonymous":false},{"type":"event","name":"RewardTokenNotSupported","inputs":[{"name":"_token","type":"address","indexed":false,"internalType":"address"}],"anonymous":false},{"type":"event","name":"RewardsDurationUpdated","inputs":[{"name":"_sender","type":"address","indexed":false,"internalType":"address"},{"name":"_oldDuration","type":"uint256","indexed":false,"internalType":"uint256"},{"name":"_newDuration","type":"uint256","indexed":false,"internalType":"uint256"}],"anonymous":false},{"type":"event","name":"RoleAdminChanged","inputs":[{"name":"role","type":"bytes32","indexed":true,"internalType":"bytes32"},{"name":"previousAdminRole","type":"bytes32","indexed":true,"internalType":"bytes32"},{"name":"newAdminRole","type":"bytes32","indexed":true,"internalType":"bytes32"}],"anonymous":false},{"type":"event","name":"RoleGranted","inputs":[{"name":"role","type":"bytes32","indexed":true,"internalType":"bytes32"},{"name":"account","type":"address","indexed":true,"internalType":"address"},{"name":"sender","type":"address","indexed":true,"internalType":"address"}],"anonymous":false},{"type":"event","name":"RoleRevoked","inputs":[{"name":"role","type":"bytes32","indexed":true,"internalType":"bytes32"},{"name":"account","type":"address","indexed":true,"internalType":"address"},{"name":"sender","type":"address","indexed":true,"internalType":"address"}],"anonymous":false},{"type":"event","name":"Undelegated","inputs":[{"name":"_sender","type":"address","indexed":false,"internalType":"address"},{"name":"_pubkey","type":"bytes","indexed":false,"internalType":"bytes"},{"name":"_amt","type":"uint256","indexed":false,"internalType":"uint256"}],"anonymous":false},{"type":"event","name":"UpdatedRedMintRate","inputs":[{"name":"oldMintRate","type":"uint256","indexed":false,"internalType":"uint256"},{"name":"newMintRate","type":"uint256","indexed":false,"internalType":"uint256"},{"name":"sender","type":"address","indexed":false,"internalType":"address"}],"anonymous":false},{"type":"event","name":"Upgraded","inputs":[{"name":"implementation","type":"address","indexed":true,"internalType":"address"}],"anonymous":false},{"type":"event","name":"ValidatorHarvested","inputs":[{"name":"_sender","type":"address","indexed":false,"internalType":"address"},{"name":"_validator","type":"bytes","indexed":true,"internalType":"bytes"},{"name":"_rewards","type":"tuple[]","indexed":false,"internalType":"struct DataTypes.Token[]","components":[{"name":"tokenAddress","type":"address","internalType":"address"},{"name":"amount","type":"uint256","internalType":"uint256"}]},{"name":"_bgtAmt","type":"uint256","indexed":false,"internalType":"uint256"}],"anonymous":false},{"type":"event","name":"ValidatorReplaced","inputs":[{"name":"_sender","type":"address","indexed":false,"internalType":"address"},{"name":"_current","type":"bytes","indexed":false,"internalType":"bytes"},{"name":"_new","type":"bytes","indexed":false,"internalType":"bytes"}],"anonymous":false},{"type":"event","name":"ValidatorsAdded","inputs":[{"name":"_sender","type":"address","indexed":false,"internalType":"address"},{"name":"_validators","type":"tuple[]","indexed":false,"internalType":"struct ValidatorTypes.Validator[]","components":[{"name":"pubkey","type":"bytes","internalType":"bytes"},{"name":"addr","type":"address","internalType":"address"}]}],"anonymous":false},{"type":"event","name":"ValidatorsRemoved","inputs":[{"name":"_sender","type":"address","indexed":false,"internalType":"address"},{"name":"_pubkeys","type":"bytes[]","indexed":false,"internalType":"bytes[]"}],"anonymous":false},{"type":"event","name":"VaultHarvested","inputs":[{"name":"_sender","type":"address","indexed":false,"internalType":"address"},{"name":"_asset","type":"address","indexed":true,"internalType":"address"},{"name":"_vault","type":"address","indexed":true,"internalType":"address"},{"name":"_bgtAmt","type":"uint256","indexed":false,"internalType":"uint256"}],"anonymous":false},{"type":"event","name":"VaultRegistrationPauseStatus","inputs":[{"name":"pause","type":"bool","indexed":false,"internalType":"bool"}],"anonymous":false},{"type":"event","name":"WhiteListedRewardTokensUpdated","inputs":[{"name":"_sender","type":"address","indexed":false,"internalType":"address"},{"name":"_token","type":"address","indexed":true,"internalType":"address"},{"name":"_wasWhitelisted","type":"bool","indexed":false,"internalType":"bool"},{"name":"_isWhitelisted","type":"bool","indexed":false,"internalType":"bool"}],"anonymous":false},{"type":"error","name":"AccessControlBadConfirmation","inputs":[]},{"type":"error","name":"AccessControlUnauthorizedAccount","inputs":[{"name":"account","type":"address","internalType":"address"},{"name":"neededRole","type":"bytes32","internalType":"bytes32"}]},{"type":"error","name":"AddressEmptyCode","inputs":[{"name":"target","type":"address","internalType":"address"}]},{"type":"error","name":"AlreadySet","inputs":[]},{"type":"error","name":"ERC1967InvalidImplementation","inputs":[{"name":"implementation","type":"address","internalType":"address"}]},{"type":"error","name":"ERC1967NonPayable","inputs":[]},{"type":"error","name":"FailedInnerCall","inputs":[]},{"type":"error","name":"InvalidFee","inputs":[]},{"type":"error","name":"InvalidInitialization","inputs":[]},{"type":"error","name":"InvalidValidator","inputs":[]},{"type":"error","name":"NotInitializing","inputs":[]},{"type":"error","name":"RewardTokenNotSupported","inputs":[]},{"type":"error","name":"TokensReservedForProtocolFees","inputs":[]},{"type":"error","name":"UUPSUnauthorizedCallContext","inputs":[]},{"type":"error","name":"UUPSUnsupportedProxiableUUID","inputs":[{"name":"slot","type":"bytes32","internalType":"bytes32"}]},{"type":"error","name":"Unauthorized","inputs":[{"name":"sender","type":"address","internalType":"address"}]},{"type":"error","name":"ZeroAddress","inputs":[]},{"type":"error","name":"ZeroAmount","inputs":[]}],"bytecode":{"object":"0x60c060405230608052348015610013575f80fd5b505f61001d610038565b6001600160a01b03811660a052610032610038565b506100ea565b7ff0c57e16840df040f15088dc2f81fe391c3923bec73e23a9662efc9c229c6a00805468010000000000000000900460ff16156100885760405163f92ee8a960e01b815260040160405180910390fd5b80546001600160401b03908116146100e75780546001600160401b0319166001600160401b0390811782556040519081527fc7f505b2f371ae2175ee4913f4499e1f2633a7b5936321eed1cdaeb6115181d29060200160405180910390a15b50565b60805160a0516150f96101195f395f61050301525f81816139140152818161393d0152613a6b01526150f95ff3fe608060405260043610610343575f3560e01c806301ffc9a71461034e578063032a3398146103825780630488da20146103b0578063062b79fb146103d15780630a2f023e146103f05780630c0c2ca01461040f5780631171bda91461042f578063178b40941461044e5780631b75e798146104885780631f89b683146104a75780631fc8bc5d146104c657806321f96c65146104f2578063248a9ca31461052557806326e10ef614610544578063270ecc22146105635780632930cf24146105825780632f2ff15d146105a157806331f41a33146105c057806335bfbf93146105df578063364bc15a146105fe57806336568abe1461061e57806336b2c4b21461063d57806337f6cfe71461065c578063386a95251461067b5780633dafa4f31461068f5780633f1b754e146106ae57806346c96aac146106cd5780634acc79ed146106ec5780634f1ef2861461070b5780635137bbdf1461071e57806351d089441461073d5780635225f9871461075c57806352d1902d1461077b5780635487beb61461078f578063549e71d0146107ae5780635787077d146107c257806359b84fa9146107e15780635c60da1b146108005780635c9750ee14610814578063609301831461083357806367ccd1cb14610852578063694be773146108715780636ada0942146108905780637052a5e5146108af578063792868bb146108ce578063913e77ad146108ed57806391d148541461090c57806393857df51461092b578063a217fddf1461094a578063a3aad78f1461095d578063a66ce82d14610971578063ad3cb1cc14610990578063adc51dcb146109cd578063af1c921d146109ee578063af34596b14610a02578063b5e8e4c214610a16578063bab97c7b14610a35578063bfe1092814610a54578063c277a2d614610a73578063d0ed26ae14610a92578063d547741f14610ab1578063d6dc181e14610ad0578063d6fc45fd14610aef578063d8bd5c2914610800578063d94ef29d14610b0e578063d9ea2d7d14610b2d578063dcaae5c714610b4c578063defe0f0314610b6b578063e18cb2c014610b8b578063e3a65fc114610baa578063f0d6824414610bc9578063f36c8f5c14610bdd578063f667b70314610bfd578063fd64c37714610c1c575f80fd5b3661034a57005b5f80fd5b348015610359575f80fd5b5061036d610368366004613d09565b610c3b565b60405190151581526020015b60405180910390f35b34801561038d575f80fd5b506103a25f8051602061506483398151915281565b604051908152602001610379565b3480156103bb575f80fd5b506103cf6103ca366004613d30565b610c71565b005b3480156103dc575f80fd5b506103cf6103eb366004613d8e565b610d42565b3480156103fb575f80fd5b506103cf61040a366004613df0565b610e17565b34801561041a575f80fd5b506103a25f805160206150a483398151915281565b34801561043a575f80fd5b506103cf610449366004613e0b565b610f5a565b348015610459575f80fd5b5061046d610468366004613e49565b6110d3565b60408051938452602084019290925290820152606001610379565b348015610493575f80fd5b506103cf6104a2366004613e0b565b611199565b3480156104b2575f80fd5b506103a26104c1366004613df0565b61120e565b3480156104d1575f80fd5b506003546104e5906001600160a01b031681565b6040516103799190613e72565b3480156104fd575f80fd5b506104e57f000000000000000000000000000000000000000000000000000000000000000081565b348015610530575f80fd5b506103a261053f366004613d30565b611235565b34801561054f575f80fd5b506103cf61055e366004613df0565b611253565b34801561056e575f80fd5b506103cf61057d366004613e93565b6112d8565b34801561058d575f80fd5b50600a546104e5906001600160a01b031681565b3480156105ac575f80fd5b506103cf6105bb366004613eae565b61139c565b3480156105cb575f80fd5b506004546104e5906001600160a01b031681565b3480156105ea575f80fd5b506103cf6105f9366004613edc565b6113be565b348015610609575f80fd5b506103a25f8051602061502483398151915281565b348015610629575f80fd5b506103cf610638366004613eae565b6114e1565b348015610648575f80fd5b506005546104e5906001600160a01b031681565b348015610667575f80fd5b506103cf610676366004613f33565b611519565b348015610686575f80fd5b506103a2611604565b34801561069a575f80fd5b506001546104e5906001600160a01b031681565b3480156106b9575f80fd5b506103cf6106c8366004613d8e565b611616565b3480156106d8575f80fd5b506008546104e5906001600160a01b031681565b3480156106f7575f80fd5b506103a2610706366004613d30565b6116d7565b6103cf610719366004614052565b6116f3565b348015610729575f80fd5b506103cf610738366004613df0565b611712565b348015610748575f80fd5b506002546104e5906001600160a01b031681565b348015610767575f80fd5b5061036d610776366004613df0565b611781565b348015610786575f80fd5b506103a2611801565b34801561079a575f80fd5b506104e56107a9366004613df0565b61181c565b3480156107b9575f80fd5b506103cf61184a565b3480156107cd575f80fd5b506103cf6107dc3660046140de565b61193b565b3480156107ec575f80fd5b506103cf6107fb366004613d30565b6119f5565b34801561080b575f80fd5b506104e5611aca565b34801561081f575f80fd5b506009546104e5906001600160a01b031681565b34801561083e575f80fd5b506103cf61084d36600461410a565b611ad8565b34801561085d575f80fd5b506104e561086c366004613df0565b611bad565b34801561087c575f80fd5b506103cf61088b36600461410a565b611c6c565b34801561089b575f80fd5b506103cf6108aa366004613df0565b611d61565b3480156108ba575f80fd5b506103cf6108c9366004614168565b612043565b3480156108d9575f80fd5b506103cf6108e8366004613e0b565b612121565b3480156108f8575f80fd5b506006546104e5906001600160a01b031681565b348015610917575f80fd5b5061036d610926366004613eae565b61217b565b348015610936575f80fd5b506103cf610945366004613d8e565b6121af565b348015610955575f80fd5b506103a25f81565b348015610968575f80fd5b506103cf61225d565b34801561097c575f80fd5b506103cf61098b366004614195565b612325565b34801561099b575f80fd5b506109c0604051806040016040528060058152602001640352e302e360dc1b81525081565b604051610379919061427b565b3480156109d8575f80fd5b506109e16123ce565b604051610379919061428d565b3480156109f9575f80fd5b506103cf61245d565b348015610a0d575f80fd5b506103a2612551565b348015610a21575f80fd5b506103cf610a30366004613df0565b6125cd565b348015610a40575f80fd5b5061036d610a4f36600461430d565b612756565b348015610a5f575f80fd5b506007546104e5906001600160a01b031681565b348015610a7e575f80fd5b506103cf610a8d36600461410a565b6127df565b348015610a9d575f80fd5b506103cf610aac366004613e0b565b6128ab565b348015610abc575f80fd5b506103cf610acb366004613eae565b612905565b348015610adb575f80fd5b506103cf610aea366004613e0b565b612921565b348015610afa575f80fd5b506103cf610b09366004613d8e565b6129f9565b348015610b19575f80fd5b506103cf610b28366004613d30565b612ace565b348015610b38575f80fd5b506103cf610b4736600461433f565b612b91565b348015610b57575f80fd5b506103cf610b66366004613df0565b612d20565b348015610b76575f80fd5b506103a25f8051602061500483398151915281565b348015610b96575f80fd5b506103cf610ba536600461435b565b612d76565b348015610bb5575f80fd5b506103cf610bc4366004613d8e565b612e04565b348015610bd4575f80fd5b506103a26130c5565b348015610be8575f80fd5b506103a25f80516020614fc483398151915281565b348015610c08575f80fd5b506103cf610c1736600461410a565b613110565b348015610c27575f80fd5b50600b546104e5906001600160a01b031681565b5f6001600160e01b03198216637965db0b60e01b1480610c6b57506301ffc9a760e01b6001600160e01b03198316145b92915050565b610c875f80516020614fc48339815191526131f8565b5f610c90613205565b600201549050610c9e613205565b604051621e863f60e31b815260048101919091526024810183905273__$eab77d9c8d48c948551cde8a0a28b64efb$__9062f431f8906044015f6040518083038186803b158015610ced575f80fd5b505af4158015610cff573d5f803e3d5ffd5b505050507f6ae692129f86579d89c70881a6cec032d30fa714f2fefdf5163235522b1beac0338284604051610d36939291906143a9565b60405180910390a15050565b610d585f80516020614fc48339815191526131f8565b610d6061225d565b610d6861184a565b610d70613216565b6007546040516307a4635160e41b815273__$fab690b44371107246a5247e606e60e839$__92637a46351092610db8926001600160a01b039091169087908790600401614450565b5f6040518083038186803b158015610dce575f80fd5b505af4158015610de0573d5f803e3d5ffd5b505050507f5e67f9e05470203c71c0840375c93153a9fb6c1fd825aae5706b3d08c1dedddb338383604051610d36939291906144fe565b5f610e218261181c565b90505f610e2c613205565b5f54600154600854600a5473__$eab77d9c8d48c948551cde8a0a28b64efb$__946351cf974294909388936001600160a01b0392831693918316929081169116610e74611604565b60405160e089901b6001600160e01b031916815260048101979097526001600160a01b039586166024880152938516604487015291841660648601528316608485015290911660a483015260c482015260e401602060405180830381865af4158015610ee2573d5f803e3d5ffd5b505050506040513d601f19601f82011682018060405250810190610f0691906145a5565b9050816001600160a01b0316836001600160a01b03167f546659bfb7e6ea18193d3711c72bc25c799442cc60749bb9d98bd4c56ca36f273384604051610f4d9291906145bc565b60405180910390a3505050565b610f705f80516020614fc48339815191526131f8565b6001600160a01b0383161580610f8d57506001600160a01b038216155b15610fab5760405163d92e233d60e01b815260040160405180910390fd5b805f03610fcb57604051631f2a200560e01b815260040160405180910390fd5b80610fd4613205565b6001600160a01b0384165f8181526020929092526040918290205491516370a0823160e01b81526370a082319061100f903090600401613e72565b602060405180830381865afa15801561102a573d5f803e3d5ffd5b505050506040513d601f19601f8201168201806040525081019061104e91906145a5565b61105891906145d5565b1015611077576040516319027dc360e11b815260040160405180910390fd5b61108b6001600160a01b0383168483613227565b816001600160a01b03167ffff3b3844276f57024e0b42afec1a37f75db36511e43819a4f2a63ab7862b64833836040516110c69291906145bc565b60405180910390a2505050565b5f805f620f42408511156110fa576040516358d620b360e01b815260040160405180910390fd5b611102613205565b60405163efd654b160e01b8152600481019190915260248101879052604481018690526064810185905273__$eab77d9c8d48c948551cde8a0a28b64efb$__9063efd654b190608401606060405180830381865af4158015611166573d5f803e3d5ffd5b505050506040513d601f19601f8201168201806040525081019061118a91906145f4565b92509250925093509350939050565b6111a16132a4565b604051630f33fcf760e01b815273__$1666377be8ba27921b4504d3efe425952f$__91630f33fcf7916111dd919087908790879060040161461f565b5f6040518083038186803b1580156111f3575f80fd5b505af4158015611205573d5f803e3d5ffd5b50505050505050565b5f611217613205565b6001600160a01b039092165f90815260209290925250604090205490565b5f8061123f6132b5565b5f9384526020525050604090206001015490565b6112695f80516020614fc48339815191526131f8565b6112716132a4565b60405163c2c2563760e01b815273__$1666377be8ba27921b4504d3efe425952f$__9163c2c25637916112a991908590600401614644565b5f6040518083038186803b1580156112bf575f80fd5b505af41580156112d1573d5f803e3d5ffd5b5050505050565b6112ee5f80516020614fc48339815191526131f8565b6112f66132a4565b604051632e781fff60e01b81526004810191909152811515602482015273__$1666377be8ba27921b4504d3efe425952f$__90632e781fff906044015f6040518083038186803b158015611348575f80fd5b505af415801561135a573d5f803e3d5ffd5b505050507f7446b242925aecc762aac930585d1135bece13513207e064626068285095c89e81604051611391911515815260200190565b60405180910390a150565b6113a582611235565b6113ae816131f8565b6113b883836132d9565b50505050565b5f6113c7613377565b805490915060ff600160401b82041615906001600160401b03165f811580156113ed5750825b90505f826001600160401b031660011480156114085750303b155b905081158015611416575080155b156114345760405163f92ee8a960e01b815260040160405180910390fd5b84546001600160401b0319166001178555831561145d57845460ff60401b1916600160401b1785555b61147461146f3688900388018861465b565b61339b565b61148b6114863688900388018861465b565b6134c9565b611493613881565b83156114d957845460ff60401b19168555604051600181527fc7f505b2f371ae2175ee4913f4499e1f2633a7b5936321eed1cdaeb6115181d29060200160405180910390a15b505050505050565b6001600160a01b038116331461150a5760405163334bd91960e11b815260040160405180910390fd5b6115148282613893565b505050565b61152f5f80516020614fc48339815191526131f8565b61153761225d565b61153f61184a565b611547613216565b600754604051634049d05b60e01b815273__$fab690b44371107246a5247e606e60e839$__92634049d05b92611593926001600160a01b03909116908990899089908990600401614745565b5f6040518083038186803b1580156115a9575f80fd5b505af41580156115bb573d5f803e3d5ffd5b505050507fb21ae6014605260f5065cfb6310215dc49bedceadf75b84b71bf28279eddca4a33858585856040516115f695949392919061478f565b60405180910390a150505050565b5f61160d6132a4565b60040154905090565b61161e613216565b5f54604051634dd7d76f60e11b815273__$fab690b44371107246a5247e606e60e839$__92639bafaede92611665926001600160a01b039091169087908790600401614833565b5f6040518083038186803b15801561167b575f80fd5b505af415801561168d573d5f803e3d5ffd5b50505050336001600160a01b03167ecdcd3acc123d91be1f19ef5d8f8be0aaf6730b054ffeb0cdd45e4c2e50405583836040516116cb929190614867565b60405180910390a25050565b5f6116e0613205565b5f92835260030160205250604090205490565b6116fb613909565b61170482613997565b61170e82826139ad565b5050565b6117285f80516020614fc48339815191526131f8565b611730613205565b5f54604051630428672160e11b815260048101929092526001600160a01b03808416602484015216604482015273__$eab77d9c8d48c948551cde8a0a28b64efb$__90630850ce42906064016112a9565b5f61178a6132a4565b604051637cceaf5f60e01b815273__$1666377be8ba27921b4504d3efe425952f$__91637cceaf5f916117c291908690600401614644565b602060405180830381865af41580156117dd573d5f803e3d5ffd5b505050506040513d601f19601f82011682018060405250810190610c6b9190614882565b5f61180a613a60565b505f8051602061504483398151915290565b5f6118256132a4565b6001600160a01b039283165f9081526001919091016020526040902054909116919050565b5f611853613205565b60095460085460075460405163f385865960e01b815260048101949094526001600160a01b039283166024850152908216604484015216606482015273__$eab77d9c8d48c948551cde8a0a28b64efb$__9063f385865990608401602060405180830381865af41580156118c9573d5f803e3d5ffd5b505050506040513d601f19601f820116820180604052508101906118ed91906145a5565b6007546009546040518381529293506001600160a01b03918216929116907f2e42554d495020b729a23098e4bcbddb25d4a71511cc6b03c7faa5ab51f0570d9060200160405180910390a350565b6119515f80516020614fc48339815191526131f8565b5f61195b83611781565b90506119656132a4565b6040516306b0483160e51b815273__$1666377be8ba27921b4504d3efe425952f$__9163d60906209161199f91908790879060040161489d565b5f6040518083038186803b1580156119b5575f80fd5b505af41580156119c7573d5f803e3d5ffd5b50505050826001600160a01b03165f80516020614fe48339815191523383856040516110c6939291906148be565b611a0b5f80516020614fc48339815191526131f8565b5f611a14613205565b600101549050611a22613205565b604051632dd1d0ef60e01b815260048101919091526024810183905273__$eab77d9c8d48c948551cde8a0a28b64efb$__90632dd1d0ef906044015f6040518083038186803b158015611a73575f80fd5b505af4158015611a85573d5f803e3d5ffd5b5050604080518481526020810186905233918101919091527f4db6f2a80b2d9b666475b2f66c260fbe93a0d43528e4886709639f920b4986d292506060019050610d36565b5f611ad3613aa9565b905090565b611aee5f805160206150248339815191526131f8565b611af6613216565b5f54600154604051630f38f0b760e31b815273__$fab690b44371107246a5247e606e60e839$__936379c785b893611b4a9391926001600160a01b0391821692909116908a908a908a908a90600401614934565b5f6040518083038186803b158015611b60575f80fd5b505af4158015611b72573d5f803e3d5ffd5b505050507fd4834079da4b292baebce77b556196b77c9cf5fafd01cfcaa97b3cb7a05310fd33858585856040516115f6959493929190614987565b5f611bb66132a4565b6040516318b932e960e01b815273__$1666377be8ba27921b4504d3efe425952f$__916318b932e991611bee91908690600401614644565b602060405180830381865af4158015611c09573d5f803e3d5ffd5b505050506040513d601f19601f82011682018060405250810190611c2d91906149be565b9050806001600160a01b0316826001600160a01b03165f8051602061508483398151915233604051611c5f9190613e72565b60405180910390a3919050565b611c825f805160206150248339815191526131f8565b611c8a613216565b5f54604051625fa66d60e71b815273__$fab690b44371107246a5247e606e60e839$__92632fd3368092611cd4926001600160a01b039091169089908990899089906004016149d9565b5f6040518083038186803b158015611cea575f80fd5b505af4158015611cfc573d5f803e3d5ffd5b505050508383604051611d10929190614a16565b6040518091039020336001600160a01b03167f86e1fbae4fac9b3d74ffd63a3ae649b9e1348f1492710f2dc4c74583007cd64b8484604051611d53929190614a5c565b60405180910390a350505050565b6001600160a01b038116611d885760405163d92e233d60e01b815260040160405180910390fd5b6001546001600160a01b031615611db25760405163a741a04560e01b815260040160405180910390fd5b806001600160a01b03166391d14854826001600160a01b031663d53913936040518163ffffffff1660e01b8152600401602060405180830381865afa158015611dfd573d5f803e3d5ffd5b505050506040513d601f19601f82011682018060405250810190611e2191906145a5565b306040518363ffffffff1660e01b8152600401611e3f929190614644565b602060405180830381865afa158015611e5a573d5f803e3d5ffd5b505050506040513d601f19601f82011682018060405250810190611e7e9190614882565b611ea6573060405163472511eb60e11b8152600401611e9d9190613e72565b60405180910390fd5b600180546001600160a01b0319166001600160a01b038316179055611ec96132a4565b600180546040516306b0483160e51b815273__$1666377be8ba27921b4504d3efe425952f$__9363d609062093611f109391926001600160a01b039092169160040161489d565b5f6040518083038186803b158015611f26575f80fd5b505af4158015611f38573d5f803e3d5ffd5b50505050611f446132a4565b6001546040516318b932e960e01b815273__$1666377be8ba27921b4504d3efe425952f$__926318b932e992611f88926001600160a01b0390911690600401614644565b602060405180830381865af4158015611fa3573d5f803e3d5ffd5b505050506040513d601f19601f82011682018060405250810190611fc791906149be565b600b80546001600160a01b0319166001600160a01b03928316908117909155600154604051919216905f805160206150848339815191529061200a903390613e72565b60405180910390a37f01fb3d0e426042c8588b7aec3073a19eeb8b8554fb8eeae7e4266eaaca696cde3382604051611391929190614a6f565b6120595f80516020614fc48339815191526131f8565b5f61206f83600781111561070657610706614a89565b9050612079613205565b604051635b17846160e11b815273__$eab77d9c8d48c948551cde8a0a28b64efb$__9163b62f08c2916120b3919087908790600401614abd565b5f6040518083038186803b1580156120c9575f80fd5b505af41580156120db573d5f803e3d5ffd5b505050507f5332bf595be156bc0b759aebeff52c12f0c2656e3beea83e881c3b0dacea7655338483856040516121149493929190614adf565b60405180910390a1505050565b6121375f80516020614fc48339815191526131f8565b61213f6132a4565b60405163f072767160e01b815273__$1666377be8ba27921b4504d3efe425952f$__9163f0727671916111dd919087908790879060040161461f565b5f806121856132b5565b5f948552602090815260408086206001600160a01b03959095168652939052505090205460ff1690565b6121b7613216565b5f54604051638a230b7160e01b815273__$fab690b44371107246a5247e606e60e839$__92638a230b71926121fe926001600160a01b039091169087908790600401614833565b5f6040518083038186803b158015612214575f80fd5b505af4158015612226573d5f803e3d5ffd5b505050507f369eb69e56e3a11fe35cac617eb5c87feeb40cfc71402e8d0c43b323d88d838a338383604051610d3693929190614b0e565b5f80546001546009546040516357e930b760e11b81526001600160a01b039384166004820152918316602483015291909116604482015273__$eab77d9c8d48c948551cde8a0a28b64efb$__9063afd2616e90606401602060405180830381865af41580156122ce573d5f803e3d5ffd5b505050506040513d601f19601f820116820180604052508101906122f291906145a5565b90507f631fea7b21a7883939599d132c75a0b4bcb42f2ade466a484cdab4909e1cc46c33826040516113919291906145bc565b61233b5f805160206150248339815191526131f8565b6123458585612756565b61236257604051631a0a9b9f60e21b815260040160405180910390fd5b6003546040516372f5c85560e11b81526001600160a01b039091169063e5eb90aa9061239a9088908890889088908890600401614b32565b5f604051808303815f87803b1580156123b1575f80fd5b505af11580156123c3573d5f803e3d5ffd5b505050505050505050565b60606123d8613216565b600754604051631c45e9a960e31b815273__$fab690b44371107246a5247e606e60e839$__9263e22f4d489261241c926001600160a01b0390911690600401614644565b5f60405180830381865af4158015612436573d5f803e3d5ffd5b505050506040513d5f823e601f3d908101601f19168201604052611ad39190810190614be7565b5f805f612468613205565b5f54600b5460085473__$eab77d9c8d48c948551cde8a0a28b64efb$__9363f98c9a659390926001600160a01b039182169290821691166124a7611604565b6040518663ffffffff1660e01b81526004016124c7959493929190614d20565b606060405180830381865af41580156124e2573d5f803e3d5ffd5b505050506040513d601f19601f820116820180604052508101906125069190614d4e565b925092509250816001600160a01b0316836001600160a01b03167f75f899a4c93beaef4ceef04dcf09b52b95c2f6d76cc2f366b059f3f6ab16590983604051610f4d91815260200190565b5f61255a613216565b60405163bf701a6b60e01b8152600481019190915273__$fab690b44371107246a5247e606e60e839$__9063bf701a6b90602401602060405180830381865af41580156125a9573d5f803e3d5ffd5b505050506040513d601f19601f82011682018060405250810190611ad391906145a5565b6001600160a01b0381166125f45760405163d92e233d60e01b815260040160405180910390fd5b600a546001600160a01b03161561261e5760405163a741a04560e01b815260040160405180910390fd5b806001600160a01b03166391d14854826001600160a01b031663d53913936040518163ffffffff1660e01b8152600401602060405180830381865afa158015612669573d5f803e3d5ffd5b505050506040513d601f19601f8201168201806040525081019061268d91906145a5565b306040518363ffffffff1660e01b81526004016126ab929190614644565b602060405180830381865afa1580156126c6573d5f803e3d5ffd5b505050506040513d601f19601f820116820180604052508101906126ea9190614882565b612709573060405163472511eb60e11b8152600401611e9d9190613e72565b600a80546001600160a01b0319166001600160a01b0383161790556040517f0c4a280e6c690b2b5800e1712dd5f2c034ee239aee33305a5d33d8b3512e3117906113919033908490614a6f565b5f61275f613216565b60405163385dce2760e01b815273__$fab690b44371107246a5247e606e60e839$__9163385dce2791612799919087908790600401614d8f565b602060405180830381865af41580156127b4573d5f803e3d5ffd5b505050506040513d601f19601f820116820180604052508101906127d89190614882565b9392505050565b6127f55f805160206150248339815191526131f8565b6127fd613216565b5f54604051637d04c3db60e11b815273__$fab690b44371107246a5247e606e60e839$__9263fa0987b692612848926001600160a01b039091169089908990899089906004016149d9565b5f6040518083038186803b15801561285e575f80fd5b505af4158015612870573d5f803e3d5ffd5b505050507f277aebb8a2c70752d1c2f967a481e28346237d7d182ff6f8e1992901c0034f6733858585856040516115f6959493929190614987565b6128c15f80516020614fc48339815191526131f8565b6128c96132a4565b604051635e2db11960e11b815273__$1666377be8ba27921b4504d3efe425952f$__9163bc5b6232916111dd919087908790879060040161461f565b61290e82611235565b612917816131f8565b6113b88383613893565b6129375f80516020614fc48339815191526131f8565b61293f613205565b604051631b5f2b2b60e01b815273__$eab77d9c8d48c948551cde8a0a28b64efb$__91631b5f2b2b9161297b919087908790879060040161461f565b5f6040518083038186803b158015612991575f80fd5b505af41580156129a3573d5f803e3d5ffd5b5050604080513381526001600160a01b038088166020830152861691810191909152606081018490527f347de86417f108df3ab27b51ed2076c0aa2c9cb0c4743ecefaacad8eab02c0f092506080019050612114565b612a0f5f80516020614fc48339815191526131f8565b612a1761225d565b612a1f61184a565b612a27613216565b600754604051635026992360e11b815273__$fab690b44371107246a5247e606e60e839$__9263a04d324692612a6f926001600160a01b039091169087908790600401614833565b5f6040518083038186803b158015612a85575f80fd5b505af4158015612a97573d5f803e3d5ffd5b505050507f297b9ce1c3391a04fb73f5f0378f876fcebcd2c70a74cfdd7c00f82847e9194f338383604051610d3693929190614b0e565b612ae45f80516020614fc48339815191526131f8565b5f612aed611604565b9050612af76132a4565b6040516334232dbf60e11b815260048101919091526024810183905273__$1666377be8ba27921b4504d3efe425952f$__906368465b7e906044015f6040518083038186803b158015612b48575f80fd5b505af4158015612b5a573d5f803e3d5ffd5b505050507f5010042fbbde5830368b15f9875f904d7611dcd3f3efaa3f4469398250c84aaa338284604051610d36939291906143a9565b6006546001600160a01b03163314612bbe573360405163472511eb60e11b8152600401611e9d9190613e72565b6004546001600160a01b03838116911614612bec5760405163019c38d160e51b815260040160405180910390fd5b5f80612bf6613205565b600454600954600b5460085473__$eab77d9c8d48c948551cde8a0a28b64efb$__94630c61a29794909389936001600160a01b0392831693918316929081169116612c3f611604565b6040516001600160e01b031960e08a901b168152600481019790975260248701959095526001600160a01b0393841660448701529183166064860152821660848501521660a483015260c482015260e4016040805180830381865af4158015612caa573d5f803e3d5ffd5b505050506040513d601f19601f82011682018060405250810190612cce9190614da8565b604080513381526001600160a01b03881660208201529081018390526060810182905291935091507ffe24b5984a4e07d71fc93f1efdc6bd554af25e0d759757a0f71f90e2af67e2bd906080016115f6565b612d365f80516020614fc48339815191526131f8565b612d3e6132a4565b60405163a877216560e01b815273__$1666377be8ba27921b4504d3efe425952f$__9163a8772165916112a991908590600401614644565b612d8c5f80516020614fc48339815191526131f8565b612d946132a4565b604051630382817b60e51b815273__$1666377be8ba27921b4504d3efe425952f$__916370502f6091612dd291908890889088908890600401614d20565b5f6040518083038186803b158015612de8575f80fd5b505af4158015612dfa573d5f803e3d5ffd5b5050505050505050565b805f816001600160401b03811115612e1e57612e1e613f9d565b604051908082528060200260200182016040528015612e47578160200160208202803683370190505b5090505f5b82811015612efd57612e7e858583818110612e6957612e69614dca565b90506020020160208101906107769190613df0565b80612ecb575073eeeeeeeeeeeeeeeeeeeeeeeeeeeeeeeeeeeeeeee858583818110612eab57612eab614dca565b9050602002016020810190612ec09190613df0565b6001600160a01b0316145b15612ef5576001828281518110612ee457612ee4614dca565b911515602092830291909101909101525b600101612e4c565b505f80612f08613205565b6004805460065460405163c03f4ad760e01b815273__$eab77d9c8d48c948551cde8a0a28b64efb$__9463c03f4ad794612f599491936001600160a01b03928316939216918d918d918c9101614e10565b5f60405180830381865af4158015612f73573d5f803e3d5ffd5b505050506040513d5f823e601f3d908101601f19168201604052612f9a9190810190614ee8565b915091505f5b8481101561120557838181518110612fba57612fba614dca565b60200260200101511561305f57828181518110612fd957612fd9614dca565b60200260200101516001600160a01b031660065f9054906101000a90046001600160a01b03166001600160a01b03167fff3ccffdf851bb4b5a34b7eb3895ff9a15395bd707a9fcc66963b78540eda2dc84848151811061303b5761303b614dca565b602002602001015160405161305291815260200190565b60405180910390a36130bd565b7f97ae829a24746c7eadb50a0698ad54133086676ad079ea8a06dee26fc2ef29a387878381811061309257613092614dca565b90506020020160208101906130a79190613df0565b6040516130b49190613e72565b60405180910390a15b600101612fa0565b5f80546040516370a0823160e01b81526001600160a01b03909116906370a08231906130f5903090600401613e72565b602060405180830381865afa1580156125a9573d5f803e3d5ffd5b6131265f805160206150248339815191526131f8565b61312e613216565b5f5460405163124e4b5360e31b815273__$fab690b44371107246a5247e606e60e839$__926392725a9892613179926001600160a01b039091169089908990899089906004016149d9565b5f6040518083038186803b15801561318f575f80fd5b505af41580156131a1573d5f803e3d5ffd5b5050505083836040516131b5929190614a16565b6040518091039020336001600160a01b03167fe407367666886c3ff8f6ae8d450e5abdac1688f7b06e1b22c1b6be93d112f2ee8484604051611d53929190614a5c565b6132028133613ac4565b50565b5f8051602061500483398151915290565b5f805160206150a483398151915290565b5f60405163a9059cbb60e01b81526001600160a01b038416600482015282602482015260205f6044835f895af13d15601f3d1160015f5114161716915050806113b85760405162461bcd60e51b815260206004820152600f60248201526e1514905394d1915497d19052531151608a1b6044820152606401611e9d565b5f8051602061506483398151915290565b7f02dd7bc7dec4dceedda775e58dd541e08a116c6c53815c0bd028192f7b62680090565b5f806132e36132b5565b90506132ef848461217b565b61336e575f848152602082815260408083206001600160a01b03871684529091529020805460ff191660011790556133243390565b6001600160a01b0316836001600160a01b0316857f2f8788117e7eff1d82e926ec794901d17c78024a50270940304540a733656f0d60405160405180910390a46001915050610c6b565b5f915050610c6b565b7ff0c57e16840df040f15088dc2f81fe391c3923bec73e23a9662efc9c229c6a0090565b80516001600160a01b031615806133bd575060208101516001600160a01b0316155b806133d3575060408101516001600160a01b0316155b806133e9575060608101516001600160a01b0316155b806133ff575060808101516001600160a01b0316155b80613415575060a08101516001600160a01b0316155b8061342b575060c08101516001600160a01b0316155b80613441575060e08101516001600160a01b0316155b8061345857506101008101516001600160a01b0316155b8061346f57506101208101516001600160a01b0316155b8061348657506101408101516001600160a01b0316155b156134a45760405163d92e233d60e01b815260040160405180910390fd5b8061016001515f0361320257604051631f2a200560e01b815260040160405180910390fd5b8061016001516134d76132a4565b6004015580516134e8905f906132d9565b506135045f8051602061502483398151915282602001516132d9565b5061351f5f80516020614fc4833981519152825f01516132d9565b5060a0810151600480546001600160a01b03199081166001600160a01b039384161790915560c08301516005805483169184169190911790556060830151600280548316918416919091179055608083015160038054831691841691909117905560e083015160068054831691841691909117905561010083015160078054831691841691909117905561012083015160088054831691841691909117905561014083015160098054831691841691909117905560408301515f805490921692169190911790556135ee6132a4565b600480546040516306b0483160e51b815273__$1666377be8ba27921b4504d3efe425952f$__9363d6090620936136369391926001600160a01b03909216916001910161489d565b5f6040518083038186803b15801561364c575f80fd5b505af415801561365e573d5f803e3d5ffd5b5050505061366a6132a4565b6005546040516306b0483160e51b815273__$1666377be8ba27921b4504d3efe425952f$__9263d6090620926136b1926001600160a01b039091169060019060040161489d565b5f6040518083038186803b1580156136c7575f80fd5b505af41580156136d9573d5f803e3d5ffd5b50506004546040516001600160a01b0390911692505f80516020614fe4833981519152915061370e9033905f906001906148be565b60405180910390a26005546040516001600160a01b03909116905f80516020614fe4833981519152906137479033905f906001906148be565b60405180910390a2600480546006546040805163277d415b60e11b815290516001600160a01b03938416949390921692634efa82b69282820192602092908290030181865afa15801561379c573d5f803e3d5ffd5b505050506040513d601f19601f820116820180604052508101906137c091906149be565b6001600160a01b0316146137e75760405163019c38d160e51b815260040160405180910390fd5b60095460075460408051637e062a3560e11b815290516001600160a01b03938416939092169163fc0c546a916004808201926020929091908290030181865afa158015613836573d5f803e3d5ffd5b505050506040513d601f19601f8201168201806040525081019061385a91906149be565b6001600160a01b0316146132025760405163019c38d160e51b815260040160405180910390fd5b613889613aef565b613891613b14565b565b5f8061389d6132b5565b90506138a9848461217b565b1561336e575f848152602082815260408083206001600160a01b0387168085529252808320805460ff1916905551339287917ff6391f5c32d9c69d2a47ea670b442974b53935d1edc7fd64eb21e047a839171b9190a46001915050610c6b565b306001600160a01b037f000000000000000000000000000000000000000000000000000000000000000016148061397957507f00000000000000000000000000000000000000000000000000000000000000006001600160a01b031661396d613aa9565b6001600160a01b031614155b156138915760405163703e46dd60e11b815260040160405180910390fd5b6132025f80516020614fc48339815191526131f8565b816001600160a01b03166352d1902d6040518163ffffffff1660e01b8152600401602060405180830381865afa925050508015613a07575060408051601f3d908101601f19168201909252613a04918101906145a5565b60015b613a265781604051634c9c8ce360e01b8152600401611e9d9190613e72565b5f805160206150448339815191528114613a5657604051632a87526960e21b815260048101829052602401611e9d565b6115148383613b2c565b306001600160a01b037f000000000000000000000000000000000000000000000000000000000000000016146138915760405163703e46dd60e11b815260040160405180910390fd5b5f80516020615044833981519152546001600160a01b031690565b613ace828261217b565b61170e57808260405163e2517d3f60e01b8152600401611e9d9291906145bc565b613af7613b81565b61389157604051631afcd79f60e31b815260040160405180910390fd5b613b1c613aef565b613b24613b9a565b613891613b9a565b613b3582613ba2565b6040516001600160a01b038316907fbc7cd75a20ee27fd9adebab32041f755214dbc6bffa90cc0225b39da2e5c2d3b905f90a2805115613b79576115148282613bfc565b61170e613c6e565b5f613b8a613377565b54600160401b900460ff16919050565b613891613aef565b806001600160a01b03163b5f03613bce5780604051634c9c8ce360e01b8152600401611e9d9190613e72565b5f8051602061504483398151915280546001600160a01b0319166001600160a01b0392909216919091179055565b60605f80846001600160a01b031684604051613c189190614fad565b5f60405180830381855af49150503d805f8114613c50576040519150601f19603f3d011682016040523d82523d5f602084013e613c55565b606091505b5091509150613c65858383613c8d565b95945050505050565b34156138915760405163b398979f60e01b815260040160405180910390fd5b606082613ca257613c9d82613ce0565b6127d8565b8151158015613cb957506001600160a01b0384163b155b15613cd95783604051639996b31560e01b8152600401611e9d9190613e72565b5092915050565b805115613cf05780518082602001fd5b604051630a12f52160e11b815260040160405180910390fd5b5f60208284031215613d19575f80fd5b81356001600160e01b0319811681146127d8575f80fd5b5f60208284031215613d40575f80fd5b5035919050565b5f8083601f840112613d57575f80fd5b5081356001600160401b03811115613d6d575f80fd5b6020830191508360208260051b8501011115613d87575f80fd5b9250929050565b5f8060208385031215613d9f575f80fd5b82356001600160401b03811115613db4575f80fd5b613dc085828601613d47565b90969095509350505050565b6001600160a01b0381168114613202575f80fd5b8035613deb81613dcc565b919050565b5f60208284031215613e00575f80fd5b81356127d881613dcc565b5f805f60608486031215613e1d575f80fd5b8335613e2881613dcc565b92506020840135613e3881613dcc565b929592945050506040919091013590565b5f805f60608486031215613e5b575f80fd5b505081359360208301359350604090920135919050565b6001600160a01b0391909116815260200190565b8015158114613202575f80fd5b5f60208284031215613ea3575f80fd5b81356127d881613e86565b5f8060408385031215613ebf575f80fd5b823591506020830135613ed181613dcc565b809150509250929050565b5f610180828403128015613eee575f80fd5b509092915050565b5f8083601f840112613f06575f80fd5b5081356001600160401b03811115613f1c575f80fd5b602083019150836020828501011115613d87575f80fd5b5f805f8060408587031215613f46575f80fd5b84356001600160401b03811115613f5b575f80fd5b613f6787828801613ef6565b90955093505060208501356001600160401b03811115613f85575f80fd5b613f9187828801613ef6565b95989497509550505050565b634e487b7160e01b5f52604160045260245ffd5b60405161018081016001600160401b0381118282101715613fd457613fd4613f9d565b60405290565b604080519081016001600160401b0381118282101715613fd457613fd4613f9d565b604051601f8201601f191681016001600160401b038111828210171561402457614024613f9d565b604052919050565b5f6001600160401b0382111561404457614044613f9d565b50601f01601f191660200190565b5f8060408385031215614063575f80fd5b823561406e81613dcc565b915060208301356001600160401b03811115614088575f80fd5b8301601f81018513614098575f80fd5b80356140ab6140a68261402c565b613ffc565b8181528660208385010111156140bf575f80fd5b816020840160208301375f602083830101528093505050509250929050565b5f80604083850312156140ef575f80fd5b82356140fa81613dcc565b91506020830135613ed181613e86565b5f805f806040858703121561411d575f80fd5b84356001600160401b03811115614132575f80fd5b61413e87828801613d47565b90955093505060208501356001600160401b0381111561415c575f80fd5b613f9187828801613d47565b5f8060408385031215614179575f80fd5b823560088110614187575f80fd5b946020939093013593505050565b5f805f805f606086880312156141a9575f80fd5b85356001600160401b038111156141be575f80fd5b6141ca88828901613ef6565b90965094505060208601356001600160401b03811681146141e9575f80fd5b925060408601356001600160401b03811115614203575f80fd5b8601601f81018813614213575f80fd5b80356001600160401b03811115614228575f80fd5b8860208260061b840101111561423c575f80fd5b959894975092955050506020019190565b5f81518084528060208401602086015e5f602082860101526020601f19601f83011685010191505092915050565b602081525f6127d8602083018461424d565b5f602082016020835280845180835260408501915060408160051b8601019250602086015f5b8281101561430157603f1987860301845281518051604087526142d9604088018261424d565b6020928301516001600160a01b031697830197909752509384019391909101906001016142b3565b50929695505050505050565b5f806020838503121561431e575f80fd5b82356001600160401b03811115614333575f80fd5b613dc085828601613ef6565b5f8060408385031215614350575f80fd5b823561418781613dcc565b5f805f806080858703121561436e575f80fd5b843561437981613dcc565b9350602085013561438981613dcc565b9250604085013561439981613dcc565b9396929550929360600135925050565b6001600160a01b039390931683526020830191909152604082015260600190565b5f808335601e198436030181126143df575f80fd5b83016020810192503590506001600160401b038111156143fd575f80fd5b803603821315613d87575f80fd5b81835281816020850137505f828201602090810191909152601f909101601f19169091010190565b5f8235603e19833603018112614447575f80fd5b90910192915050565b8481526001600160a01b038416602082015260606040820181905281018290525f6080600584901b8301810190830185835b868110156144f057858403607f1901835261449d8289614433565b6144a781826143ca565b604087526144b960408801828461440b565b915050602082013591506144cc82613dcc565b6001600160a01b039190911660209586015293928301929190910190600101614482565b509198975050505050505050565b6001600160a01b038416815260406020820181905281018290525f6060600584901b8301810190830185835b8681101561459857858403605f190183526145458289614433565b61454f81826143ca565b6040875261456160408801828461440b565b9150506020820135915061457482613dcc565b6001600160a01b03919091166020958601529392830192919091019060010161452a565b5091979650505050505050565b5f602082840312156145b5575f80fd5b5051919050565b6001600160a01b03929092168252602082015260400190565b81810381811115610c6b57634e487b7160e01b5f52601160045260245ffd5b5f805f60608486031215614606575f80fd5b5050815160208301516040909301519094929350919050565b9384526001600160a01b03928316602085015291166040830152606082015260800190565b9182526001600160a01b0316602082015260400190565b5f61018082840312801561466d575f80fd5b50614676613fb1565b61467f83613de0565b815261468d60208401613de0565b602082015261469e60408401613de0565b60408201526146af60608401613de0565b60608201526146c060808401613de0565b60808201526146d160a08401613de0565b60a08201526146e260c08401613de0565b60c08201526146f360e08401613de0565b60e08201526147056101008401613de0565b6101008201526147186101208401613de0565b61012082015261472b6101408401613de0565b610140820152610160928301359281019290925250919050565b8681526001600160a01b03861660208201526080604082018190525f9061476f908301868861440b565b828103606084015261478281858761440b565b9998505050505050505050565b6001600160a01b03861681526060602082018190525f906147b3908301868861440b565b82810360408401526147c681858761440b565b98975050505050505050565b5f8383855260208501945060208460051b820101835f5b8681101561482757838303601f1901885261480482876143ca565b61480f85828461440b565b60209a8b019a909550939093019250506001016147e9565b50909695505050505050565b8481526001600160a01b03841660208201526060604082018190525f9061485d90830184866147d2565b9695505050505050565b602081525f61487a6020830184866147d2565b949350505050565b5f60208284031215614892575f80fd5b81516127d881613e86565b9283526001600160a01b039190911660208301521515604082015260600190565b6001600160a01b0393909316835290151560208301521515604082015260600190565b8183526020830192505f815f5b8481101561492a5781356001600160801b038116811461490c575f80fd5b6001600160801b0316865260209586019591909101906001016148ee565b5093949350505050565b8781526001600160a01b0387811660208301528616604082015260a0606082018190525f9061496690830186886147d2565b82810360808401526149798185876148e1565b9a9950505050505050505050565b6001600160a01b03861681526060602082018190525f906149ab90830186886147d2565b82810360408401526147c68185876148e1565b5f602082840312156149ce575f80fd5b81516127d881613dcc565b8681526001600160a01b03861660208201526080604082018190525f90614a0390830186886147d2565b82810360608401526147828185876148e1565b5f8184825b85811015614a5157614a2d82886143ca565b808286375f85820152601f01601f1916909301925060209190910190600101614a1b565b509095945050505050565b602081525f61487a6020830184866148e1565b6001600160a01b0392831681529116602082015260400190565b634e487b7160e01b5f52602160045260245ffd5b60088110614ab957634e487b7160e01b5f52602160045260245ffd5b9052565b83815260608101614ad16020830185614a9d565b826040830152949350505050565b6001600160a01b038516815260808101614afc6020830186614a9d565b60408201939093526060015292915050565b6001600160a01b03841681526040602082018190525f90613c6590830184866147d2565b606081525f614b4560608301878961440b565b6001600160401b03861660208481019190915283820360408501528482528591015f5b85811015614bb8578235614b7b81613dcc565b6001600160a01b0316825260208301356001600160601b038116808214614ba0575f80fd5b60208401525060409283019290910190600101614b68565b5098975050505050505050565b5f6001600160401b03821115614bdd57614bdd613f9d565b5060051b60200190565b5f60208284031215614bf7575f80fd5b81516001600160401b03811115614c0c575f80fd5b8201601f81018413614c1c575f80fd5b8051614c2a6140a682614bc5565b8082825260208201915060208360051b850101925086831115614c4b575f80fd5b602084015b83811015614d155780516001600160401b03811115614c6d575f80fd5b85016040818a03601f19011215614c82575f80fd5b614c8a613fda565b60208201516001600160401b03811115614ca2575f80fd5b82016020810190603f018b13614cb6575f80fd5b8051614cc46140a68261402c565b8181528c6020838501011115614cd8575f80fd5b8160208401602083015e5f6020838301015280845250505060408201519150614d0082613dcc565b60208181019290925284529283019201614c50565b509695505050505050565b9485526001600160a01b03938416602086015291831660408501529091166060830152608082015260a00190565b5f805f60608486031215614d60575f80fd5b8351614d6b81613dcc565b6020850151909350614d7c81613dcc565b6040949094015192959394509192915050565b838152604060208201525f613c6560408301848661440b565b5f8060408385031215614db9575f80fd5b505080516020909101519092909150565b634e487b7160e01b5f52603260045260245ffd5b5f8151808452602084019350602083015f5b8281101561492a5781511515865260209586019590910190600101614df0565b8681526001600160a01b0386811660208301528516604082015260a06060820181905281018390525f8460c08301825b86811015614e70578235614e5381613dcc565b6001600160a01b0316825260209283019290910190600101614e40565b5083810360808501526149798186614dde565b5f82601f830112614e92575f80fd5b8151614ea06140a682614bc5565b8082825260208201915060208360051b860101925085831115614ec1575f80fd5b602085015b83811015614ede578051835260209283019201614ec6565b5095945050505050565b5f8060408385031215614ef9575f80fd5b82516001600160401b03811115614f0e575f80fd5b8301601f81018513614f1e575f80fd5b8051614f2c6140a682614bc5565b8082825260208201915060208360051b850101925087831115614f4d575f80fd5b6020840193505b82841015614f78578351614f6781613dcc565b825260209384019390910190614f54565b6020870151909550925050506001600160401b03811115614f97575f80fd5b614fa385828601614e83565b9150509250929050565b5f82518060208501845e5f92019182525091905056fe71840dc4906352362b0cdaf79870196c8e42acafade72d5d5a6d59291253ceb1dd01adaecf9dc9676b6096c7f319855230d8501da40b7b53c83f3c23d976f67fad12e6d08cc0150709acd6eed0bf697c60a83227922ab1d254d1ca4d3072ca00fc8737ab85eb45125971625a9ebdb75cc78e01d5c1fa80c4c6e5203f47bc4fab360894a13ba1a3210667c828492db98dca3e2076cc3735a920a3ca505d382bbc1bb2f1339407e6d63b93b8b490a9d43c5651f6fc4327c66addd5939450742a00891f008b8c9cadc4c9114ed37ce718f739b28049d58e50e35a02d94c4e9b06ff8ea5a3cc3b9a6be40b16189aeb1b6e6e61492e06efbfbe10619870b5bc1cc500a264697066735822122071b888fc564fa2ee7d781e99a2752cfefba265b67283515d4ec9a012e098945664736f6c634300081a0033","linkReferences":{"src/core/libraries/RewardsLib.sol":{"RewardsLib":[{"start":3540,"length":20},{"start":3922,"length":20},{"start":4679,"length":20},{"start":6264,"length":20},{"start":6570,"length":20},{"start":7001,"length":20},{"start":8609,"length":20},{"start":9135,"length":20},{"start":9611,"length":20},{"start":10855,"length":20},{"start":11549,"length":20},{"start":12343,"length":20}]},"src/core/libraries/ValidatorManagerLib.sol":{"ValidatorManagerLib":[{"start":3739,"length":20},{"start":5746,"length":20},{"start":5960,"length":20},{"start":7203,"length":20},{"start":7603,"length":20},{"start":8929,"length":20},{"start":9475,"length":20},{"start":9866,"length":20},{"start":10375,"length":20},{"start":10535,"length":20},{"start":11090,"length":20},{"start":12888,"length":20}]},"src/core/libraries/VaultManagerLib.sol":{"VaultManagerLib":[{"start":4809,"length":20},{"start":5017,"length":20},{"start":5166,"length":20},{"start":6322,"length":20},{"start":6797,"length":20},{"start":7390,"length":20},{"start":8181,"length":20},{"start":8303,"length":20},{"start":8807,"length":20},{"start":10737,"length":20},{"start":11310,"length":20},{"start":11878,"length":20},{"start":11964,"length":20},{"start":14106,"length":20},{"start":14229,"length":20}]}}},"methodIdentifiers":{"DEFAULT_ADMIN_ROLE()":"a217fddf","GOVERNANCE_ROLE()":"f36c8f5c","KEEPER_ROLE()":"364bc15a","REWARDS_STORAGE_LOCATION()":"defe0f03","UPGRADE_INTERFACE_VERSION()":"ad3cb1cc","VALIDATOR_STORAGE_LOCATION()":"0c0c2ca0","VAULT_STORAGE_LOCATION()":"032a3398","activateBoosts(bytes[])":"93857df5","addIncentives(address,address,uint256)":"1b75e798","addReward(address,address,uint256)":"d0ed26ae","addValidators((bytes,address)[])":"062b79fb","cancelBoosts(bytes[],uint128[])":"c277a2d6","cancelDropBoosts(bytes[],uint128[])":"f667b703","chargedFeesOnRewards(uint256,uint256,uint256)":"178b4094","chef()":"1fc8bc5d","claimLostRewardsOnVault(address)":"dcaae5c7","claimProtocolFees(address,address,uint256)":"d6dc181e","collectBribes(address,uint256)":"d9ea2d7d","collector()":"913e77ad","currentImplementation()":"d8bd5c29","delegateBGT(address)":"5137bbdf","distributor()":"bfe10928","dropBoosts(bytes[])":"3f1b754e","fees(uint256)":"4acc79ed","getBGTBalance()":"f0d68244","getRoleAdmin(bytes32)":"248a9ca3","grantRole(bytes32,address)":"2f2ff15d","harvestBase()":"a3aad78f","harvestBoostRewards()":"af1c921d","harvestBribes(address[])":"e3a65fc1","harvestOperatorRewards()":"549e71d0","harvestVault(address)":"0a2f023e","hasRole(bytes32,address)":"91d14854","honey()":"36b2c4b2","ibera()":"5c9750ee","ibgt()":"3dafa4f3","ibgtVault()":"fd64c377","implementation()":"5c60da1b","infrared()":"21f96c65","infraredValidators()":"adc51dcb","initialize((address,address,address,address,address,address,address,address,address,address,address,uint256))":"35bfbf93","isInfraredValidator(bytes)":"bab97c7b","numInfraredValidators()":"af34596b","protocolFeeAmounts(address)":"1f89b683","proxiableUUID()":"52d1902d","queueBoosts(bytes[],uint128[])":"60930183","queueDropBoosts(bytes[],uint128[])":"694be773","queueNewCuttingBoard(bytes,uint64,(address,uint96)[])":"a66ce82d","recoverERC20(address,address,uint256)":"1171bda9","recoverERC20FromVault(address,address,address,uint256)":"e18cb2c0","red()":"2930cf24","registerVault(address)":"67ccd1cb","removeValidators(bytes[])":"d6fc45fd","renounceRole(bytes32,address)":"36568abe","replaceValidator(bytes,bytes)":"37f6cfe7","revokeRole(bytes32,address)":"d547741f","rewardsDuration()":"386a9525","rewardsFactory()":"51d08944","setIBGT(address)":"6ada0942","setRed(address)":"b5e8e4c2","setVaultRegistrationPauseStatus(bool)":"270ecc22","supportsInterface(bytes4)":"01ffc9a7","toggleVault(address)":"26e10ef6","updateFee(uint8,uint256)":"7052a5e5","updateInfraredBERABribesWeight(uint256)":"0488da20","updateRedMintRate(uint256)":"59b84fa9","updateRewardsDuration(uint256)":"d94ef29d","updateRewardsDurationForVault(address,address,uint256)":"792868bb","updateWhiteListedRewardTokens(address,bool)":"5787077d","upgradeToAndCall(address,bytes)":"4f1ef286","vaultRegistry(address)":"5487beb6","voter()":"46c96aac","wbera()":"31f41a33","whitelistedRewardTokens(address)":"5225f987"},"id":74}